{
  "contractName": "Bingo",
  "abi": [
    {
      "inputs": [
        {
          "internalType": "address",
          "name": "_weedContract",
          "type": "address"
        }
      ],
      "stateMutability": "nonpayable",
      "type": "constructor"
    },
    {
      "anonymous": false,
      "inputs": [
        {
          "indexed": true,
          "internalType": "address",
          "name": "owner",
          "type": "address"
        },
        {
          "indexed": true,
          "internalType": "address",
          "name": "approved",
          "type": "address"
        },
        {
          "indexed": true,
          "internalType": "uint256",
          "name": "tokenId",
          "type": "uint256"
        }
      ],
      "name": "Approval",
      "type": "event"
    },
    {
      "anonymous": false,
      "inputs": [
        {
          "indexed": true,
          "internalType": "address",
          "name": "owner",
          "type": "address"
        },
        {
          "indexed": true,
          "internalType": "address",
          "name": "operator",
          "type": "address"
        },
        {
          "indexed": false,
          "internalType": "bool",
          "name": "approved",
          "type": "bool"
        }
      ],
      "name": "ApprovalForAll",
      "type": "event"
    },
    {
      "anonymous": false,
      "inputs": [
        {
          "indexed": false,
          "internalType": "uint256",
          "name": "game",
          "type": "uint256"
        },
        {
          "indexed": false,
          "internalType": "uint256",
          "name": "ball",
          "type": "uint256"
        }
      ],
      "name": "BallPicked",
      "type": "event"
    },
    {
      "anonymous": false,
      "inputs": [
        {
          "indexed": false,
          "internalType": "uint256",
          "name": "game",
          "type": "uint256"
        },
        {
          "indexed": false,
          "internalType": "uint256",
          "name": "tokenId",
          "type": "uint256"
        }
      ],
      "name": "BingoWinner",
      "type": "event"
    },
    {
      "anonymous": false,
      "inputs": [
        {
          "indexed": false,
          "internalType": "uint256",
          "name": "game",
          "type": "uint256"
        },
        {
          "indexed": false,
          "internalType": "address",
          "name": "owner",
          "type": "address"
        },
        {
          "indexed": false,
          "internalType": "uint256",
          "name": "tokenId",
          "type": "uint256"
        }
      ],
      "name": "CardGenerated",
      "type": "event"
    },
    {
      "anonymous": false,
      "inputs": [
        {
          "indexed": true,
          "internalType": "address",
          "name": "from",
          "type": "address"
        },
        {
          "indexed": true,
          "internalType": "address",
          "name": "to",
          "type": "address"
        },
        {
          "indexed": true,
          "internalType": "uint256",
          "name": "tokenId",
          "type": "uint256"
        }
      ],
      "name": "Transfer",
      "type": "event"
    },
    {
      "inputs": [
        {
          "internalType": "address",
          "name": "to",
          "type": "address"
        },
        {
          "internalType": "uint256",
          "name": "tokenId",
          "type": "uint256"
        }
      ],
      "name": "approve",
      "outputs": [],
      "stateMutability": "nonpayable",
      "type": "function"
    },
    {
      "inputs": [
        {
          "internalType": "address",
          "name": "owner",
          "type": "address"
        }
      ],
      "name": "balanceOf",
      "outputs": [
        {
          "internalType": "uint256",
          "name": "",
          "type": "uint256"
        }
      ],
      "stateMutability": "view",
      "type": "function",
      "constant": true
    },
    {
      "inputs": [],
      "name": "ballDrawTime",
      "outputs": [
        {
          "internalType": "uint256",
          "name": "",
          "type": "uint256"
        }
      ],
      "stateMutability": "view",
      "type": "function",
      "constant": true
    },
    {
      "inputs": [],
      "name": "ballRequest",
      "outputs": [
        {
          "internalType": "bytes32",
          "name": "",
          "type": "bytes32"
        }
      ],
      "stateMutability": "view",
      "type": "function",
      "constant": true
    },
    {
      "inputs": [
        {
          "internalType": "uint256",
          "name": "",
          "type": "uint256"
        }
      ],
      "name": "cardRandomness",
      "outputs": [
        {
          "internalType": "uint256",
          "name": "",
          "type": "uint256"
        }
      ],
      "stateMutability": "view",
      "type": "function",
      "constant": true
    },
    {
      "inputs": [],
      "name": "gameFloor",
      "outputs": [
        {
          "internalType": "uint256",
          "name": "",
          "type": "uint256"
        }
      ],
      "stateMutability": "view",
      "type": "function",
      "constant": true
    },
    {
      "inputs": [
        {
          "internalType": "uint256",
          "name": "tokenId",
          "type": "uint256"
        }
      ],
      "name": "getApproved",
      "outputs": [
        {
          "internalType": "address",
          "name": "",
          "type": "address"
        }
      ],
      "stateMutability": "view",
      "type": "function",
      "constant": true
    },
    {
      "inputs": [
        {
          "internalType": "address",
          "name": "owner",
          "type": "address"
        },
        {
          "internalType": "address",
          "name": "operator",
          "type": "address"
        }
      ],
      "name": "isApprovedForAll",
      "outputs": [
        {
          "internalType": "bool",
          "name": "",
          "type": "bool"
        }
      ],
      "stateMutability": "view",
      "type": "function",
      "constant": true
    },
    {
      "inputs": [],
      "name": "lastBallTime",
      "outputs": [
        {
          "internalType": "uint256",
          "name": "",
          "type": "uint256"
        }
      ],
      "stateMutability": "view",
      "type": "function",
      "constant": true
    },
    {
      "inputs": [],
      "name": "maxCards",
      "outputs": [
        {
          "internalType": "uint256",
          "name": "",
          "type": "uint256"
        }
      ],
      "stateMutability": "view",
      "type": "function",
      "constant": true
    },
    {
      "inputs": [],
      "name": "minCards",
      "outputs": [
        {
          "internalType": "uint256",
          "name": "",
          "type": "uint256"
        }
      ],
      "stateMutability": "view",
      "type": "function",
      "constant": true
    },
    {
      "inputs": [],
      "name": "name",
      "outputs": [
        {
          "internalType": "string",
          "name": "",
          "type": "string"
        }
      ],
      "stateMutability": "view",
      "type": "function",
      "constant": true
    },
    {
      "inputs": [],
      "name": "outOfBalls",
      "outputs": [
        {
          "internalType": "bool",
          "name": "",
          "type": "bool"
        }
      ],
      "stateMutability": "view",
      "type": "function",
      "constant": true
    },
    {
      "inputs": [
        {
          "internalType": "uint256",
          "name": "tokenId",
          "type": "uint256"
        }
      ],
      "name": "ownerOf",
      "outputs": [
        {
          "internalType": "address",
          "name": "",
          "type": "address"
        }
      ],
      "stateMutability": "view",
      "type": "function",
      "constant": true
    },
    {
      "inputs": [],
      "name": "pattern",
      "outputs": [
        {
          "internalType": "uint256",
          "name": "",
          "type": "uint256"
        }
      ],
      "stateMutability": "view",
      "type": "function",
      "constant": true
    },
    {
      "inputs": [],
      "name": "pricePerCard",
      "outputs": [
        {
          "internalType": "uint256",
          "name": "",
          "type": "uint256"
        }
      ],
      "stateMutability": "view",
      "type": "function",
      "constant": true
    },
    {
      "inputs": [],
      "name": "prizePool",
      "outputs": [
        {
          "internalType": "uint256",
          "name": "",
          "type": "uint256"
        }
      ],
      "stateMutability": "view",
      "type": "function",
      "constant": true
    },
    {
      "inputs": [],
      "name": "prizeSplit",
      "outputs": [
        {
          "internalType": "uint256",
          "name": "",
          "type": "uint256"
        }
      ],
      "stateMutability": "view",
      "type": "function",
      "constant": true
    },
    {
      "inputs": [
        {
          "internalType": "bytes32",
          "name": "requestId",
          "type": "bytes32"
        },
        {
          "internalType": "uint256",
          "name": "randomness",
          "type": "uint256"
        }
      ],
      "name": "rawFulfillRandomness",
      "outputs": [],
      "stateMutability": "nonpayable",
      "type": "function"
    },
    {
      "inputs": [
        {
          "internalType": "address",
          "name": "from",
          "type": "address"
        },
        {
          "internalType": "address",
          "name": "to",
          "type": "address"
        },
        {
          "internalType": "uint256",
          "name": "tokenId",
          "type": "uint256"
        }
      ],
      "name": "safeTransferFrom",
      "outputs": [],
      "stateMutability": "nonpayable",
      "type": "function"
    },
    {
      "inputs": [
        {
          "internalType": "address",
          "name": "from",
          "type": "address"
        },
        {
          "internalType": "address",
          "name": "to",
          "type": "address"
        },
        {
          "internalType": "uint256",
          "name": "tokenId",
          "type": "uint256"
        },
        {
          "internalType": "bytes",
          "name": "_data",
          "type": "bytes"
        }
      ],
      "name": "safeTransferFrom",
      "outputs": [],
      "stateMutability": "nonpayable",
      "type": "function"
    },
    {
      "inputs": [
        {
          "internalType": "address",
          "name": "operator",
          "type": "address"
        },
        {
          "internalType": "bool",
          "name": "approved",
          "type": "bool"
        }
      ],
      "name": "setApprovalForAll",
      "outputs": [],
      "stateMutability": "nonpayable",
      "type": "function"
    },
    {
      "inputs": [],
      "name": "startAuto",
      "outputs": [
        {
          "internalType": "bool",
          "name": "",
          "type": "bool"
        }
      ],
      "stateMutability": "view",
      "type": "function",
      "constant": true
    },
    {
      "inputs": [],
      "name": "startGame",
      "outputs": [
        {
          "internalType": "bool",
          "name": "",
          "type": "bool"
        }
      ],
      "stateMutability": "view",
      "type": "function",
      "constant": true
    },
    {
      "inputs": [
        {
          "internalType": "bytes4",
          "name": "interfaceId",
          "type": "bytes4"
        }
      ],
      "name": "supportsInterface",
      "outputs": [
        {
          "internalType": "bool",
          "name": "",
          "type": "bool"
        }
      ],
      "stateMutability": "view",
      "type": "function",
      "constant": true
    },
    {
      "inputs": [],
      "name": "symbol",
      "outputs": [
        {
          "internalType": "string",
          "name": "",
          "type": "string"
        }
      ],
      "stateMutability": "view",
      "type": "function",
      "constant": true
    },
    {
      "inputs": [
        {
          "internalType": "uint256",
          "name": "tokenId",
          "type": "uint256"
        }
      ],
      "name": "tokenURI",
      "outputs": [
        {
          "internalType": "string",
          "name": "",
          "type": "string"
        }
      ],
      "stateMutability": "view",
      "type": "function",
      "constant": true
    },
    {
      "inputs": [
        {
          "internalType": "address",
          "name": "from",
          "type": "address"
        },
        {
          "internalType": "address",
          "name": "to",
          "type": "address"
        },
        {
          "internalType": "uint256",
          "name": "tokenId",
          "type": "uint256"
        }
      ],
      "name": "transferFrom",
      "outputs": [],
      "stateMutability": "nonpayable",
      "type": "function"
    },
    {
      "inputs": [],
      "name": "winnerPool",
      "outputs": [
        {
          "internalType": "uint256",
          "name": "",
          "type": "uint256"
        }
      ],
      "stateMutability": "view",
      "type": "function",
      "constant": true
    },
    {
      "inputs": [
        {
          "internalType": "uint256",
          "name": "",
          "type": "uint256"
        }
      ],
      "name": "winners",
      "outputs": [
        {
          "internalType": "uint256",
          "name": "",
          "type": "uint256"
        }
      ],
      "stateMutability": "view",
      "type": "function",
      "constant": true
    },
    {
      "inputs": [
        {
          "internalType": "uint256",
          "name": "amount",
          "type": "uint256"
        }
      ],
      "name": "mintCard",
      "outputs": [],
      "stateMutability": "payable",
      "type": "function",
      "payable": true
    },
    {
      "inputs": [
        {
          "internalType": "bytes",
          "name": "checkData",
          "type": "bytes"
        }
      ],
      "name": "checkUpkeep",
      "outputs": [
        {
          "internalType": "bool",
          "name": "upkeepNeeded",
          "type": "bool"
        },
        {
          "internalType": "bytes",
          "name": "performData",
          "type": "bytes"
        }
      ],
      "stateMutability": "view",
      "type": "function",
      "constant": true
    },
    {
      "inputs": [
        {
          "internalType": "bytes",
          "name": "performData",
          "type": "bytes"
        }
      ],
      "name": "performUpkeep",
      "outputs": [],
      "stateMutability": "nonpayable",
      "type": "function"
    },
    {
      "inputs": [],
      "name": "checkForWinners",
      "outputs": [
        {
          "internalType": "uint256",
          "name": "",
          "type": "uint256"
        }
      ],
      "stateMutability": "nonpayable",
      "type": "function"
    },
    {
      "inputs": [
        {
          "internalType": "uint256",
          "name": "cardId",
          "type": "uint256"
        }
      ],
      "name": "claimBingo",
      "outputs": [],
      "stateMutability": "payable",
      "type": "function",
      "payable": true
    },
    {
      "inputs": [
        {
          "internalType": "uint256",
          "name": "ball",
          "type": "uint256"
        }
      ],
      "name": "setBall",
      "outputs": [],
      "stateMutability": "nonpayable",
      "type": "function"
    },
    {
      "inputs": [
        {
          "internalType": "uint256",
          "name": "cardId",
          "type": "uint256"
        }
      ],
      "name": "generateCard",
      "outputs": [
        {
          "components": [
            {
              "internalType": "uint256[5]",
              "name": "B",
              "type": "uint256[5]"
            },
            {
              "internalType": "uint256[5]",
              "name": "I",
              "type": "uint256[5]"
            },
            {
              "internalType": "uint256[5]",
              "name": "N",
              "type": "uint256[5]"
            },
            {
              "internalType": "uint256[5]",
              "name": "G",
              "type": "uint256[5]"
            },
            {
              "internalType": "uint256[5]",
              "name": "O",
              "type": "uint256[5]"
            }
          ],
          "internalType": "struct BingoGenerate.Card",
          "name": "",
          "type": "tuple"
        }
      ],
      "stateMutability": "view",
      "type": "function",
      "constant": true
    },
    {
      "inputs": [
        {
          "internalType": "uint256",
          "name": "cardId",
          "type": "uint256"
        }
      ],
      "name": "validateCard",
      "outputs": [
        {
          "internalType": "bool",
          "name": "",
          "type": "bool"
        }
      ],
      "stateMutability": "view",
      "type": "function",
      "constant": true
    },
    {
      "inputs": [],
      "name": "getCurrent",
      "outputs": [
        {
          "internalType": "uint256",
          "name": "game",
          "type": "uint256"
        },
        {
          "internalType": "uint256",
          "name": "token",
          "type": "uint256"
        }
      ],
      "stateMutability": "view",
      "type": "function",
      "constant": true
    },
    {
      "inputs": [
        {
          "internalType": "uint256",
          "name": "tokenId",
          "type": "uint256"
        }
      ],
      "name": "exists",
      "outputs": [
        {
          "internalType": "bool",
          "name": "",
          "type": "bool"
        }
      ],
      "stateMutability": "view",
      "type": "function",
      "constant": true
    },
    {
      "inputs": [
        {
          "internalType": "bool",
          "name": "_startGame",
          "type": "bool"
        },
        {
          "internalType": "bool",
          "name": "_startAuto",
          "type": "bool"
        },
        {
          "internalType": "uint256",
          "name": "_ballDrawTime",
          "type": "uint256"
        },
        {
          "internalType": "uint256",
          "name": "_minCardsPerGame",
          "type": "uint256"
        },
        {
          "internalType": "uint256",
          "name": "_maxCardsPerGame",
          "type": "uint256"
        },
        {
          "internalType": "uint256",
          "name": "_pricePerCard",
          "type": "uint256"
        },
        {
          "internalType": "uint256",
          "name": "_prizeSplit",
          "type": "uint256"
        },
        {
          "internalType": "uint256",
          "name": "_pattern",
          "type": "uint256"
        },
        {
          "internalType": "address",
          "name": "_owner",
          "type": "address"
        }
      ],
      "name": "contractSettings",
      "outputs": [],
      "stateMutability": "nonpayable",
      "type": "function"
    },
    {
      "inputs": [
        {
          "internalType": "contract IERC20",
          "name": "_token",
          "type": "address"
        },
        {
          "internalType": "uint256",
          "name": "_amount",
          "type": "uint256"
        }
      ],
      "name": "withdraw",
      "outputs": [],
      "stateMutability": "payable",
      "type": "function",
      "payable": true
    }
  ],
  "bytecode": "0x60c060405260016009556103e8600a55662386f26fc10000600b55603c600c556002600d556001600e556001600f60006101000a81548160ff0219169083151502179055503480156200005157600080fd5b50604051620062533803806200625383398181016040528101906200007791906200036e565b73dd3782915140c8f3b190b5d67eac6dc5760c46e973a36085f69e2889c224210f603d836748e7dc00886040518060400160405280600581526020017f42696e676f0000000000000000000000000000000000000000000000000000008152506040518060400160405280600581526020017f42494e474f000000000000000000000000000000000000000000000000000000815250816000908051906020019062000125929190620002a7565b5080600190805190602001906200013e929190620002a7565b5050508173ffffffffffffffffffffffffffffffffffffffff1660a08173ffffffffffffffffffffffffffffffffffffffff1660601b815250508073ffffffffffffffffffffffffffffffffffffffff1660808173ffffffffffffffffffffffffffffffffffffffff1660601b81525050505033601060006101000a81548173ffffffffffffffffffffffffffffffffffffffff021916908373ffffffffffffffffffffffffffffffffffffffff16021790555080600f60026101000a81548173ffffffffffffffffffffffffffffffffffffffff021916908373ffffffffffffffffffffffffffffffffffffffff1602179055507f6c3699283bda56ad74f6b855546325b68d482e983852a7a82979cc4807b641f460001b60178190555067016345785d8a00006018819055506200028360086200029160201b620022671760201c565b42601281905550506200044d565b6001816000016000828254019250508190555050565b828054620002b590620003ce565b90600052602060002090601f016020900481019282620002d9576000855562000325565b82601f10620002f457805160ff191683800117855562000325565b8280016001018555821562000325579182015b828111156200032457825182559160200191906001019062000307565b5b50905062000334919062000338565b5090565b5b808211156200035357600081600090555060010162000339565b5090565b600081519050620003688162000433565b92915050565b6000602082840312156200038157600080fd5b6000620003918482850162000357565b91505092915050565b6000620003a782620003ae565b9050919050565b600073ffffffffffffffffffffffffffffffffffffffff82169050919050565b60006002820490506001821680620003e757607f821691505b60208210811415620003fe57620003fd62000404565b5b50919050565b7f4e487b7100000000000000000000000000000000000000000000000000000000600052602260045260246000fd5b6200043e816200039a565b81146200044a57600080fd5b50565b60805160601c60a05160601c615dcc6200048760003960008181611916015261325401526000818161100201526132180152615dcc6000f3fe6080604052600436106102515760003560e01c80636352211e11610139578063a319795a116100b6578063d65ab5f21161007a578063d65ab5f2146108f7578063dcde251914610922578063e985e9c51461093e578063ec49e46c1461097b578063f3fef3a3146109b8578063f8a7443c146109d457610251565b8063a319795a14610812578063a96f1c691461083b578063aad4df5214610866578063b88d4fde14610891578063c87b56dd146108ba57610251565b8063842005b5116100fd578063842005b51461072d57806394985ddd1461075857806395d89b4114610781578063a22cb465146107ac578063a2fb1175146107d557610251565b80636352211e1461061f5780636e04ff0d1461065c57806370a082311461069a57806371533047146106d7578063719ce73e1461070257610251565b806335a5cfcb116101d25780634f558e79116101965780634f558e791461050a578063521eaea314610547578063559dc7c314610572578063596a0b041461059b57806360b47a50146105c6578063630930ba146105e257610251565b806335a5cfcb14610436578063412873551461046257806342842e0e1461048d5780634585e33b146104b65780634725c409146104df57610251565b80630eade7ff116102195780630eade7ff1461034f57806311196afe1461037a57806323b872dd146103a557806329568350146103ce5780632b675f34146103f957610251565b806301ffc9a71461025657806306fdde0314610293578063081812fc146102be57806308b237b5146102fb578063095ea7b314610326575b600080fd5b34801561026257600080fd5b5061027d600480360381019061027891906146c8565b6109ff565b60405161028a9190614ecc565b60405180910390f35b34801561029f57600080fd5b506102a8610ae1565b6040516102b59190614fa0565b60405180910390f35b3480156102ca57600080fd5b506102e560048036038101906102e0919061479b565b610b73565b6040516102f29190614d9e565b60405180910390f35b34801561030757600080fd5b50610310610bf8565b60405161031d91906152be565b60405180910390f35b34801561033257600080fd5b5061034d60048036038101906103489190614561565b610bfe565b005b34801561035b57600080fd5b50610364610d16565b60405161037191906152be565b60405180910390f35b34801561038657600080fd5b5061038f610e8b565b60405161039c91906152be565b60405180910390f35b3480156103b157600080fd5b506103cc60048036038101906103c7919061445b565b610e91565b005b3480156103da57600080fd5b506103e3610ef1565b6040516103f09190614ecc565b60405180910390f35b34801561040557600080fd5b50610420600480360381019061041b919061479b565b610f04565b60405161042d9190614ecc565b60405180910390f35b34801561044257600080fd5b5061044b610f2e565b6040516104599291906152d9565b60405180910390f35b34801561046e57600080fd5b50610477610f4d565b60405161048491906152be565b60405180910390f35b34801561049957600080fd5b506104b460048036038101906104af919061445b565b610f53565b005b3480156104c257600080fd5b506104dd60048036038101906104d8919061471a565b610f73565b005b3480156104eb57600080fd5b506104f46111cd565b60405161050191906152be565b60405180910390f35b34801561051657600080fd5b50610531600480360381019061052c919061479b565b6111d3565b60405161053e9190614ecc565b60405180910390f35b34801561055357600080fd5b5061055c6111e5565b60405161056991906152be565b60405180910390f35b34801561057e57600080fd5b506105996004803603810190610594919061479b565b6111eb565b005b3480156105a757600080fd5b506105b061121a565b6040516105bd91906152be565b60405180910390f35b6105e060048036038101906105db919061479b565b611220565b005b3480156105ee57600080fd5b506106096004803603810190610604919061479b565b6116a5565b60405161061691906152a2565b60405180910390f35b34801561062b57600080fd5b506106466004803603810190610641919061479b565b6116d0565b6040516106539190614d9e565b60405180910390f35b34801561066857600080fd5b50610683600480360381019061067e919061471a565b611782565b604051610691929190614ee7565b60405180910390f35b3480156106a657600080fd5b506106c160048036038101906106bc91906143f6565b61183d565b6040516106ce91906152be565b60405180910390f35b3480156106e357600080fd5b506106ec6118f5565b6040516106f99190614ecc565b60405180910390f35b34801561070e57600080fd5b50610717611908565b60405161072491906152be565b60405180910390f35b34801561073957600080fd5b5061074261190e565b60405161074f91906152be565b60405180910390f35b34801561076457600080fd5b5061077f600480360381019061077a919061468c565b611914565b005b34801561078d57600080fd5b506107966119b0565b6040516107a39190614fa0565b60405180910390f35b3480156107b857600080fd5b506107d360048036038101906107ce9190614525565b611a42565b005b3480156107e157600080fd5b506107fc60048036038101906107f7919061479b565b611bc3565b60405161080991906152be565b60405180910390f35b34801561081e57600080fd5b50610839600480360381019061083491906145c6565b611bdb565b005b34801561084757600080fd5b50610850611cdf565b60405161085d91906152be565b60405180910390f35b34801561087257600080fd5b5061087b611ce5565b60405161088891906152be565b60405180910390f35b34801561089d57600080fd5b506108b860048036038101906108b391906144aa565b611ceb565b005b3480156108c657600080fd5b506108e160048036038101906108dc919061479b565b611d4d565b6040516108ee9190614fa0565b60405180910390f35b34801561090357600080fd5b5061090c611df4565b6040516109199190614ecc565b60405180910390f35b61093c6004803603810190610937919061479b565b611e07565b005b34801561094a57600080fd5b506109656004803603810190610960919061441f565b611f39565b6040516109729190614ecc565b60405180910390f35b34801561098757600080fd5b506109a2600480360381019061099d919061479b565b611fcd565b6040516109af91906152be565b60405180910390f35b6109d260048036038101906109cd919061475f565b611fe5565b005b3480156109e057600080fd5b506109e9612261565b6040516109f69190614f17565b60405180910390f35b60007f80ac58cd000000000000000000000000000000000000000000000000000000007bffffffffffffffffffffffffffffffffffffffffffffffffffffffff1916827bffffffffffffffffffffffffffffffffffffffffffffffffffffffff19161480610aca57507f5b5e139f000000000000000000000000000000000000000000000000000000007bffffffffffffffffffffffffffffffffffffffffffffffffffffffff1916827bffffffffffffffffffffffffffffffffffffffffffffffffffffffff1916145b80610ada5750610ad98261227d565b5b9050919050565b606060008054610af0906155af565b80601f0160208091040260200160405190810160405280929190818152602001828054610b1c906155af565b8015610b695780601f10610b3e57610100808354040283529160200191610b69565b820191906000526020600020905b815481529060010190602001808311610b4c57829003601f168201915b5050505050905090565b6000610b7e826122e7565b610bbd576040517f08c379a0000000000000000000000000000000000000000000000000000000008152600401610bb4906151a2565b60405180910390fd5b6004600083815260200190815260200160002060009054906101000a900473ffffffffffffffffffffffffffffffffffffffff169050919050565b600a5481565b6000610c09826116d0565b90508073ffffffffffffffffffffffffffffffffffffffff168373ffffffffffffffffffffffffffffffffffffffff161415610c7a576040517f08c379a0000000000000000000000000000000000000000000000000000000008152600401610c7190615222565b60405180910390fd5b8073ffffffffffffffffffffffffffffffffffffffff16610c99612353565b73ffffffffffffffffffffffffffffffffffffffff161480610cc85750610cc781610cc2612353565b611f39565b5b610d07576040517f08c379a0000000000000000000000000000000000000000000000000000000008152600401610cfe90615102565b60405180910390fd5b610d11838361235b565b505050565b60008060006001601154610d2a91906153c8565b90505b610d376007612414565b8111610d8557610d5e6019600083815260200190815260200160002054601b600e54612422565b15610d72578180610d6e90615612565b9250505b8080610d7d90615612565b915050610d2d565b506000811115610e845760006001601154610da091906153c8565b90505b610dad6007612414565b8111610e8257610dd46019600083815260200190815260200160002054601b600e54612422565b15610e6f57610dee82601454612ec490919063ffffffff16565b601a600083815260200190815260200160002081905550601a600082815260200190815260200160002054601554610e2691906153c8565b6015819055507f0c2d6c35fd2564fbc84ffefe68e7dbde67499851cca244dbbe1b09ce8d3d3638610e576008612414565b82604051610e669291906152d9565b60405180910390a15b8080610e7a90615612565b915050610da3565b505b8091505090565b600c5481565b610ea2610e9c612353565b82612eda565b610ee1576040517f08c379a0000000000000000000000000000000000000000000000000000000008152600401610ed890615242565b60405180910390fd5b610eec838383612fb8565b505050565b600f60019054906101000a900460ff1681565b6000610f276019600084815260200190815260200160002054601b600e54612422565b9050919050565b600080610f3b6008612414565b9150610f476007612414565b90509091565b60155481565b610f6e83838360405180602001604052806000815250611ceb565b505050565b600c54601254610f8391906153c8565b42118015610fa95750600954601154610f9c6007612414565b610fa691906154a9565b10155b610fe8576040517f08c379a0000000000000000000000000000000000000000000000000000000008152600401610fdf906150e2565b60405180910390fd5b6000610ff2610d16565b9050600081141561110a576018547f000000000000000000000000000000000000000000000000000000000000000073ffffffffffffffffffffffffffffffffffffffff166370a08231306040518263ffffffff1660e01b81526004016110599190614d9e565b60206040518083038186803b15801561107157600080fd5b505afa158015611085573d6000803e3d6000fd5b505050506040513d601f19601f820116820180604052508101906110a991906147c4565b10156110ea576040517f08c379a00000000000000000000000000000000000000000000000000000000081526004016110e190615182565b60405180910390fd5b426012819055506110ff601754601854613214565b6013819055506111c8565b600060148190555061111c6008612267565b426012819055506000601660006101000a81548160ff0219169083151502179055506111486007612414565b601181905550600f60019054906101000a900460ff16600f60006101000a81548160ff0219169083151502179055506000600190505b604c8110156111c6576000601b600083815260200190815260200160002060006101000a81548160ff02191690831515021790555080806111be90615612565b91505061117e565b505b505050565b60095481565b60006111de826122e7565b9050919050565b600b5481565b6001601b600083815260200190815260200160002060006101000a81548160ff02191690831515021790555050565b60125481565b600a811115801561123d5750600f60009054906101000a900460ff165b80156112735750600a54601154611266836112586007612414565b61337690919063ffffffff16565b61127091906154a9565b11155b6112b2576040517f08c379a00000000000000000000000000000000000000000000000000000000081526004016112a990615042565b60405180910390fd5b600034111561134957346112d182600b5461338c90919063ffffffff16565b1115611312576040517f08c379a000000000000000000000000000000000000000000000000000000000815260040161130990615262565b60405180910390fd5b6000600d54111561134457600d543461132b919061541e565b6014600082825461133c91906153c8565b925050819055505b611614565b8068d8d726b7177a80000061135e919061544f565b600f60029054906101000a900473ffffffffffffffffffffffffffffffffffffffff1673ffffffffffffffffffffffffffffffffffffffff166370a08231336040518263ffffffff1660e01b81526004016113b99190614d9e565b60206040518083038186803b1580156113d157600080fd5b505afa1580156113e5573d6000803e3d6000fd5b505050506040513d601f19601f8201168201806040525081019061140991906147c4565b101561144a576040517f08c379a000000000000000000000000000000000000000000000000000000000815260040161144190615022565b60405180910390fd5b8068d8d726b7177a80000061145f919061544f565b600f60029054906101000a900473ffffffffffffffffffffffffffffffffffffffff1673ffffffffffffffffffffffffffffffffffffffff1663dd62ed3e33306040518363ffffffff1660e01b81526004016114bc929190614db9565b60206040518083038186803b1580156114d457600080fd5b505afa1580156114e8573d6000803e3d6000fd5b505050506040513d601f19601f8201168201806040525081019061150c91906147c4565b101561154d576040517f08c379a000000000000000000000000000000000000000000000000000000000815260040161154490615282565b60405180910390fd5b600f60029054906101000a900473ffffffffffffffffffffffffffffffffffffffff1673ffffffffffffffffffffffffffffffffffffffff166323b872dd33308468d8d726b7177a8000006115a2919061544f565b6040518463ffffffff1660e01b81526004016115c093929190614de2565b602060405180830381600087803b1580156115da57600080fd5b505af11580156115ee573d6000803e3d6000fd5b505050506040513d601f19601f82011682018060405250810190611612919061459d565b505b600080600090505b828110156116a05761162e6007612267565b6116386007612414565b915061164433836133a2565b61164d826133c0565b60405160200161165d9190614d7c565b6040516020818303038152906040528051906020012060001c6019600084815260200190815260200160002081905550808061169890615612565b91505061161c565b505050565b6116ad6141c7565b6116c9601960008481526020019081526020016000205461356d565b9050919050565b6000806002600084815260200190815260200160002060009054906101000a900473ffffffffffffffffffffffffffffffffffffffff169050600073ffffffffffffffffffffffffffffffffffffffff168173ffffffffffffffffffffffffffffffffffffffff161415611779576040517f08c379a000000000000000000000000000000000000000000000000000000000815260040161177090615142565b60405180910390fd5b80915050919050565b600060606009546011546117966007612414565b6117a091906154a9565b101580156117ed5750600c546012546117b991906153c8565b421180156117d45750601660009054906101000a900460ff16155b80156117ec5750600f60009054906101000a900460ff165b5b915083838080601f016020809104026020016040519081016040528093929190818152602001838380828437600081840152601f19601f8201169050808301925050505050505090509250929050565b60008073ffffffffffffffffffffffffffffffffffffffff168273ffffffffffffffffffffffffffffffffffffffff1614156118ae576040517f08c379a00000000000000000000000000000000000000000000000000000000081526004016118a590615122565b60405180910390fd5b600360008373ffffffffffffffffffffffffffffffffffffffff1673ffffffffffffffffffffffffffffffffffffffff168152602001908152602001600020549050919050565b601660009054906101000a900460ff1681565b60145481565b60115481565b7f000000000000000000000000000000000000000000000000000000000000000073ffffffffffffffffffffffffffffffffffffffff163373ffffffffffffffffffffffffffffffffffffffff16146119a2576040517f08c379a000000000000000000000000000000000000000000000000000000000815260040161199990615202565b60405180910390fd5b6119ac8282613778565b5050565b6060600180546119bf906155af565b80601f01602080910402602001604051908101604052809291908181526020018280546119eb906155af565b8015611a385780601f10611a0d57610100808354040283529160200191611a38565b820191906000526020600020905b815481529060010190602001808311611a1b57829003601f168201915b5050505050905090565b611a4a612353565b73ffffffffffffffffffffffffffffffffffffffff168273ffffffffffffffffffffffffffffffffffffffff161415611ab8576040517f08c379a0000000000000000000000000000000000000000000000000000000008152600401611aaf90615082565b60405180910390fd5b8060056000611ac5612353565b73ffffffffffffffffffffffffffffffffffffffff1673ffffffffffffffffffffffffffffffffffffffff16815260200190815260200160002060008473ffffffffffffffffffffffffffffffffffffffff1673ffffffffffffffffffffffffffffffffffffffff16815260200190815260200160002060006101000a81548160ff0219169083151502179055508173ffffffffffffffffffffffffffffffffffffffff16611b72612353565b73ffffffffffffffffffffffffffffffffffffffff167f17307eab39ab6107e8899845ad3d59bd9653f200f220920489ca2b5937696c3183604051611bb79190614ecc565b60405180910390a35050565b601a6020528060005260406000206000915090505481565b601060009054906101000a900473ffffffffffffffffffffffffffffffffffffffff1673ffffffffffffffffffffffffffffffffffffffff163373ffffffffffffffffffffffffffffffffffffffff1614611c3557600080fd5b88600f60006101000a81548160ff02191690831515021790555087600f60016101000a81548160ff02191690831515021790555086600c819055508560098190555084600a8190555083600b8190555082600d8190555081600e8190555080601060006101000a81548173ffffffffffffffffffffffffffffffffffffffff021916908373ffffffffffffffffffffffffffffffffffffffff160217905550505050505050505050565b600e5481565b600d5481565b611cfc611cf6612353565b83612eda565b611d3b576040517f08c379a0000000000000000000000000000000000000000000000000000000008152600401611d3290615242565b60405180910390fd5b611d47848484846138f0565b50505050565b6060611d58826122e7565b611d97576040517f08c379a0000000000000000000000000000000000000000000000000000000008152600401611d8e906151e2565b60405180910390fd5b6000611da161394c565b90506000815111611dc15760405180602001604052806000815250611dec565b80611dcb8461396c565b604051602001611ddc929190614d58565b6040516020818303038152906040525b915050919050565b600f60009054906101000a900460ff1681565b6000601a600083815260200190815260200160002054118015611e5d57503373ffffffffffffffffffffffffffffffffffffffff16611e45826116d0565b73ffffffffffffffffffffffffffffffffffffffff16145b611e9c576040517f08c379a0000000000000000000000000000000000000000000000000000000008152600401611e9390614fc2565b60405180910390fd5b3373ffffffffffffffffffffffffffffffffffffffff166108fc601a6000848152602001908152602001600020549081150290604051600060405180830381858888f19350505050158015611ef5573d6000803e3d6000fd5b50601a600082815260200190815260200160002054601554611f1791906154a9565b6015819055506000601a60008381526020019081526020016000208190555050565b6000600560008473ffffffffffffffffffffffffffffffffffffffff1673ffffffffffffffffffffffffffffffffffffffff16815260200190815260200160002060008373ffffffffffffffffffffffffffffffffffffffff1673ffffffffffffffffffffffffffffffffffffffff16815260200190815260200160002060009054906101000a900460ff16905092915050565b60196020528060005260406000206000915090505481565b601060009054906101000a900473ffffffffffffffffffffffffffffffffffffffff1673ffffffffffffffffffffffffffffffffffffffff163373ffffffffffffffffffffffffffffffffffffffff161461203f57600080fd5b60008111156120db578173ffffffffffffffffffffffffffffffffffffffff1663a9059cbb33836040518363ffffffff1660e01b8152600401612083929190614e65565b602060405180830381600087803b15801561209d57600080fd5b505af11580156120b1573d6000803e3d6000fd5b505050506040513d601f19601f820116820180604052508101906120d5919061459d565b5061225d565b600061211260046121046015546014546120f591906153c8565b47613b1990919063ffffffff16565b612ec490919063ffffffff16565b905072796e910bd0228ddf4cd79e3f353871a61c351c73ffffffffffffffffffffffffffffffffffffffff166108fc829081150290604051600060405180830381858888f1935050505061216557600080fd5b737fc55376d5a29e0ee86c18c81bb2fc8f9f490e5073ffffffffffffffffffffffffffffffffffffffff166108fc829081150290604051600060405180830381858888f193505050506121b757600080fd5b73b58fb5372e9aa0c86c3b281179c05af3bb7a181b73ffffffffffffffffffffffffffffffffffffffff166108fc829081150290604051600060405180830381858888f1935050505061220957600080fd5b73d83dd8a288270512b8a46f581a8254cd971dcb0973ffffffffffffffffffffffffffffffffffffffff166108fc829081150290604051600060405180830381858888f1935050505061225b57600080fd5b505b5050565b60135481565b6001816000016000828254019250508190555050565b60007f01ffc9a7000000000000000000000000000000000000000000000000000000007bffffffffffffffffffffffffffffffffffffffffffffffffffffffff1916827bffffffffffffffffffffffffffffffffffffffffffffffffffffffff1916149050919050565b60008073ffffffffffffffffffffffffffffffffffffffff166002600084815260200190815260200160002060009054906101000a900473ffffffffffffffffffffffffffffffffffffffff1673ffffffffffffffffffffffffffffffffffffffff1614159050919050565b600033905090565b816004600083815260200190815260200160002060006101000a81548173ffffffffffffffffffffffffffffffffffffffff021916908373ffffffffffffffffffffffffffffffffffffffff160217905550808273ffffffffffffffffffffffffffffffffffffffff166123ce836116d0565b73ffffffffffffffffffffffffffffffffffffffff167f8c5be1e5ebec7d5bd14f71427d1e84f3dd0314c0f7b2291e5b200ac8c7c3b92560405160405180910390a45050565b600081600001549050919050565b60008061242e8561356d565b9050612438614214565b60005b6005811015612604576040518060a001604052808460000151836005811061248c577f4e487b7100000000000000000000000000000000000000000000000000000000600052603260045260246000fd5b60200201518152602001846020015183600581106124d3577f4e487b7100000000000000000000000000000000000000000000000000000000600052603260045260246000fd5b602002015181526020018460400151836005811061251a577f4e487b7100000000000000000000000000000000000000000000000000000000600052603260045260246000fd5b6020020151815260200184606001518360058110612561577f4e487b7100000000000000000000000000000000000000000000000000000000600052603260045260246000fd5b60200201518152602001846080015183600581106125a8577f4e487b7100000000000000000000000000000000000000000000000000000000600052603260045260246000fd5b60200201518152508282600d81106125e9577f4e487b7100000000000000000000000000000000000000000000000000000000600052603260045260246000fd5b602002018190525080806125fc90615612565b91505061243b565b8260000151826005600d8110612643577f4e487b7100000000000000000000000000000000000000000000000000000000600052603260045260246000fd5b60200201819052508260200151826006600d811061268a577f4e487b7100000000000000000000000000000000000000000000000000000000600052603260045260246000fd5b60200201819052508260400151826007600d81106126d1577f4e487b7100000000000000000000000000000000000000000000000000000000600052603260045260246000fd5b60200201819052508260600151826008600d8110612718577f4e487b7100000000000000000000000000000000000000000000000000000000600052603260045260246000fd5b60200201819052508260800151826009600d811061275f577f4e487b7100000000000000000000000000000000000000000000000000000000600052603260045260246000fd5b60200201819052506040518060a0016040528084600001516000600581106127b0577f4e487b7100000000000000000000000000000000000000000000000000000000600052603260045260246000fd5b6020020151815260200184602001516001600581106127f8577f4e487b7100000000000000000000000000000000000000000000000000000000600052603260045260246000fd5b602002015181526020018460400151600260058110612840577f4e487b7100000000000000000000000000000000000000000000000000000000600052603260045260246000fd5b602002015181526020018460600151600360058110612888577f4e487b7100000000000000000000000000000000000000000000000000000000600052603260045260246000fd5b6020020151815260200184608001516004600581106128d0577f4e487b7100000000000000000000000000000000000000000000000000000000600052603260045260246000fd5b602002015181525082600a600d8110612912577f4e487b7100000000000000000000000000000000000000000000000000000000600052603260045260246000fd5b60200201819052506040518060a001604052808460000151600460058110612963577f4e487b7100000000000000000000000000000000000000000000000000000000600052603260045260246000fd5b6020020151815260200184602001516003600581106129ab577f4e487b7100000000000000000000000000000000000000000000000000000000600052603260045260246000fd5b6020020151815260200184604001516002600581106129f3577f4e487b7100000000000000000000000000000000000000000000000000000000600052603260045260246000fd5b602002015181526020018460600151600160058110612a3b577f4e487b7100000000000000000000000000000000000000000000000000000000600052603260045260246000fd5b602002015181526020018460800151600060058110612a83577f4e487b7100000000000000000000000000000000000000000000000000000000600052603260045260246000fd5b602002015181525082600b600d8110612ac5577f4e487b7100000000000000000000000000000000000000000000000000000000600052603260045260246000fd5b60200201819052506040518060a001604052808460000151600060058110612b16577f4e487b7100000000000000000000000000000000000000000000000000000000600052603260045260246000fd5b602002015181526020018460800151600060058110612b5e577f4e487b7100000000000000000000000000000000000000000000000000000000600052603260045260246000fd5b602002015181526020018460000151600460058110612ba6577f4e487b7100000000000000000000000000000000000000000000000000000000600052603260045260246000fd5b602002015181526020018460800151600460058110612bee577f4e487b7100000000000000000000000000000000000000000000000000000000600052603260045260246000fd5b602002015181526020018460000151600060058110612c36577f4e487b7100000000000000000000000000000000000000000000000000000000600052603260045260246000fd5b602002015181525082600c600d8110612c78577f4e487b7100000000000000000000000000000000000000000000000000000000600052603260045260246000fd5b602002018190525060009350600080600080600094505b600d851015612eb65760009050600091505b6005821015612e13578960008787600d8110612ce6577f4e487b7100000000000000000000000000000000000000000000000000000000600052603260045260246000fd5b60200201518460058110612d23577f4e487b7100000000000000000000000000000000000000000000000000000000600052603260045260246000fd5b6020020151815260200190815260200160002060009054906101000a900460ff1680612dc9575060638686600d8110612d85577f4e487b7100000000000000000000000000000000000000000000000000000000600052603260045260246000fd5b60200201518360058110612dc2577f4e487b7100000000000000000000000000000000000000000000000000000000600052603260045260246000fd5b6020020151145b15612e00578080612dd990615612565b915050600a851480612deb5750600b85145b15612dff578380612dfb90615612565b9450505b5b8180612e0b90615612565b925050612ca1565b6005811415612e2b578280612e2790615612565b9350505b600189148015612e3b5750600581145b8015612e485750600c8514155b80612e5f5750600289148015612e5e5750600a84145b5b80612e765750600389148015612e755750600c83145b5b80612e995750600489148015612e8c5750600581145b8015612e985750600c85145b5b15612ea357600197505b8480612eae90615612565b955050612c8f565b505050505050509392505050565b60008183612ed2919061541e565b905092915050565b6000612ee5826122e7565b612f24576040517f08c379a0000000000000000000000000000000000000000000000000000000008152600401612f1b906150c2565b60405180910390fd5b6000612f2f836116d0565b90508073ffffffffffffffffffffffffffffffffffffffff168473ffffffffffffffffffffffffffffffffffffffff161480612f9e57508373ffffffffffffffffffffffffffffffffffffffff16612f8684610b73565b73ffffffffffffffffffffffffffffffffffffffff16145b80612faf5750612fae8185611f39565b5b91505092915050565b8273ffffffffffffffffffffffffffffffffffffffff16612fd8826116d0565b73ffffffffffffffffffffffffffffffffffffffff161461302e576040517f08c379a0000000000000000000000000000000000000000000000000000000008152600401613025906151c2565b60405180910390fd5b600073ffffffffffffffffffffffffffffffffffffffff168273ffffffffffffffffffffffffffffffffffffffff16141561309e576040517f08c379a000000000000000000000000000000000000000000000000000000000815260040161309590615062565b60405180910390fd5b6130a9838383613b2f565b6130b460008261235b565b6001600360008573ffffffffffffffffffffffffffffffffffffffff1673ffffffffffffffffffffffffffffffffffffffff168152602001908152602001600020600082825461310491906154a9565b925050819055506001600360008473ffffffffffffffffffffffffffffffffffffffff1673ffffffffffffffffffffffffffffffffffffffff168152602001908152602001600020600082825461315b91906153c8565b92505081905550816002600083815260200190815260200160002060006101000a81548173ffffffffffffffffffffffffffffffffffffffff021916908373ffffffffffffffffffffffffffffffffffffffff160217905550808273ffffffffffffffffffffffffffffffffffffffff168473ffffffffffffffffffffffffffffffffffffffff167fddf252ad1be2c89b69c2b068fc378daa952ba7f163c4a11628f55a4df523b3ef60405160405180910390a4505050565b60007f000000000000000000000000000000000000000000000000000000000000000073ffffffffffffffffffffffffffffffffffffffff16634000aea07f000000000000000000000000000000000000000000000000000000000000000084866000604051602001613288929190614f32565b6040516020818303038152906040526040518463ffffffff1660e01b81526004016132b593929190614e8e565b602060405180830381600087803b1580156132cf57600080fd5b505af11580156132e3573d6000803e3d6000fd5b505050506040513d601f19601f82011682018060405250810190613307919061459d565b50600061332a846000306006600089815260200190815260200160002054613b34565b90506001600660008681526020019081526020016000205461334c91906153c8565b600660008681526020019081526020016000208190555061336d8482613b70565b91505092915050565b6000818361338491906153c8565b905092915050565b6000818361339a919061544f565b905092915050565b6133bc828260405180602001604052806000815250613ba3565b5050565b60606000821415613408576040518060400160405280600181526020017f30000000000000000000000000000000000000000000000000000000000000008152509050613568565b600082905060005b6000821461343a57808061342390615612565b915050600a82613433919061541e565b9150613410565b60008167ffffffffffffffff81111561347c577f4e487b7100000000000000000000000000000000000000000000000000000000600052604160045260246000fd5b6040519080825280601f01601f1916602001820160405280156134ae5781602001600182028036833780820191505090505b5090505b60008514613561576001826134c791906154a9565b9150600a856134d6919061566f565b60306134e291906153c8565b60f81b81838151811061351e577f4e487b7100000000000000000000000000000000000000000000000000000000600052603260045260246000fd5b60200101907effffffffffffffffffffffffffffffffffffffffffffffffffffffffffffff1916908160001a905350600a8561355a919061541e565b94506134b2565b8093505050505b919050565b6135756141c7565b600082141561358357613773565b61358b614242565b600080600090505b600581101561376f576135d085826040516020016135b29291906152d9565b6040516020818303038152906040528051906020012060001c613bfe565b9250600091505b60058210156136e9576002811480156135f05750600282145b1561363e576063838360058110613630577f4e487b7100000000000000000000000000000000000000000000000000000000600052603260045260246000fd5b6020020181815250506136d6565b600f8161364b919061544f565b838360058110613684577f4e487b7100000000000000000000000000000000000000000000000000000000600052603260045260246000fd5b602002015161369391906153c8565b8383600581106136cc577f4e487b7100000000000000000000000000000000000000000000000000000000600052603260045260246000fd5b6020020181815250505b81806136e190615612565b9250506135d7565b60008114156137005782846000018190525061375c565b60018114156137175782846020018190525061375b565b600281141561372e5782846040018190525061375a565b600381141561374557828460600181905250613759565b6004811415613758578284608001819052505b5b5b5b5b808061376790615612565b915050613593565b5050505b919050565b60135482146137bc576040517f08c379a00000000000000000000000000000000000000000000000000000000081526004016137b3906150a2565b60405180910390fd5b600080600090505b604c8110156138e05761380660016137f8604b6137ea858861337690919063ffffffff16565b613e3990919063ffffffff16565b61337690919063ffffffff16565b915060001515601b600084815260200190815260200160002060009054906101000a900460ff16151514156138a8576001601b600084815260200190815260200160002060006101000a81548160ff0219169083151502179055507fd85a895f825d2064ec30917b67b720684fafc60d3c7e8c33b9d1abd623b0cb6d61388c6008612414565b8360405161389b9291906152d9565b60405180910390a16138e0565b604b8114156138cd576001601660006101000a81548160ff0219169083151502179055505b80806138d890615612565b9150506137c4565b506000801b601381905550505050565b6138fb848484612fb8565b61390784848484613e4f565b613946576040517f08c379a000000000000000000000000000000000000000000000000000000000815260040161393d90614fe2565b60405180910390fd5b50505050565b6060604051806060016040528060258152602001615d7260259139905090565b606060008214156139b4576040518060400160405280600181526020017f30000000000000000000000000000000000000000000000000000000000000008152509050613b14565b600082905060005b600082146139e65780806139cf90615612565b915050600a826139df919061541e565b91506139bc565b60008167ffffffffffffffff811115613a28577f4e487b7100000000000000000000000000000000000000000000000000000000600052604160045260246000fd5b6040519080825280601f01601f191660200182016040528015613a5a5781602001600182028036833780820191505090505b5090505b60008514613b0d57600182613a7391906154a9565b9150600a85613a82919061566f565b6030613a8e91906153c8565b60f81b818381518110613aca577f4e487b7100000000000000000000000000000000000000000000000000000000600052603260045260246000fd5b60200101907effffffffffffffffffffffffffffffffffffffffffffffffffffffffffffff1916908160001a905350600a85613b06919061541e565b9450613a5e565b8093505050505b919050565b60008183613b2791906154a9565b905092915050565b505050565b600084848484604051602001613b4d9493929190614f5b565b6040516020818303038152906040528051906020012060001c9050949350505050565b60008282604051602001613b85929190614d2c565b60405160208183030381529060405280519060200120905092915050565b613bad8383613fe6565b613bba6000848484613e4f565b613bf9576040517f08c379a0000000000000000000000000000000000000000000000000000000008152600401613bf090614fe2565b60405180910390fd5b505050565b613c06614242565b613c0e614264565b60005b600f811015613c7c57600181613c2791906153c8565b8282600f8110613c60577f4e487b7100000000000000000000000000000000000000000000000000000000600052603260045260246000fd5b6020020181815250508080613c7490615612565b915050613c11565b50600080600090505b6005811015613e3157613ce4816001613c9e91906153c8565b600f613caa91906154a9565b8683604051602001613cbd9291906152d9565b6040516020818303038152906040528051906020012060001c613e3990919063ffffffff16565b91508282600f8110613d1f577f4e487b7100000000000000000000000000000000000000000000000000000000600052603260045260246000fd5b6020020151848260058110613d5d577f4e487b7100000000000000000000000000000000000000000000000000000000600052603260045260246000fd5b602002018181525050806001613d7391906153c8565b600f613d7f91906154a9565b8214613e1e5782816001613d9391906153c8565b600f613d9f91906154a9565b600f8110613dd6577f4e487b7100000000000000000000000000000000000000000000000000000000600052603260045260246000fd5b60200201518383600f8110613e14577f4e487b7100000000000000000000000000000000000000000000000000000000600052603260045260246000fd5b6020020181815250505b8080613e2990615612565b915050613c85565b505050919050565b60008183613e47919061566f565b905092915050565b6000613e708473ffffffffffffffffffffffffffffffffffffffff166141b4565b15613fd9578373ffffffffffffffffffffffffffffffffffffffff1663150b7a02613e99612353565b8786866040518563ffffffff1660e01b8152600401613ebb9493929190614e19565b602060405180830381600087803b158015613ed557600080fd5b505af1925050508015613f0657506040513d601f19601f82011682018060405250810190613f0391906146f1565b60015b613f89573d8060008114613f36576040519150601f19603f3d011682016040523d82523d6000602084013e613f3b565b606091505b50600081511415613f81576040517f08c379a0000000000000000000000000000000000000000000000000000000008152600401613f7890614fe2565b60405180910390fd5b805181602001fd5b63150b7a0260e01b7bffffffffffffffffffffffffffffffffffffffffffffffffffffffff1916817bffffffffffffffffffffffffffffffffffffffffffffffffffffffff191614915050613fde565b600190505b949350505050565b600073ffffffffffffffffffffffffffffffffffffffff168273ffffffffffffffffffffffffffffffffffffffff161415614056576040517f08c379a000000000000000000000000000000000000000000000000000000000815260040161404d90615162565b60405180910390fd5b61405f816122e7565b1561409f576040517f08c379a000000000000000000000000000000000000000000000000000000000815260040161409690615002565b60405180910390fd5b6140ab60008383613b2f565b6001600360008473ffffffffffffffffffffffffffffffffffffffff1673ffffffffffffffffffffffffffffffffffffffff16815260200190815260200160002060008282546140fb91906153c8565b92505081905550816002600083815260200190815260200160002060006101000a81548173ffffffffffffffffffffffffffffffffffffffff021916908373ffffffffffffffffffffffffffffffffffffffff160217905550808273ffffffffffffffffffffffffffffffffffffffff16600073ffffffffffffffffffffffffffffffffffffffff167fddf252ad1be2c89b69c2b068fc378daa952ba7f163c4a11628f55a4df523b3ef60405160405180910390a45050565b600080823b905060008111915050919050565b6040518060a001604052806141da614242565b81526020016141e7614242565b81526020016141f4614242565b8152602001614201614242565b815260200161420e614242565b81525090565b604051806101a00160405280600d905b61422c614242565b8152602001906001900390816142245790505090565b6040518060a00160405280600590602082028036833780820191505090505090565b604051806101e00160405280600f90602082028036833780820191505090505090565b600061429a61429584615327565b615302565b9050828152602081018484840111156142b257600080fd5b6142bd84828561556d565b509392505050565b6000813590506142d481615ce7565b92915050565b6000813590506142e981615cfe565b92915050565b6000815190506142fe81615cfe565b92915050565b60008135905061431381615d15565b92915050565b60008135905061432881615d2c565b92915050565b60008151905061433d81615d2c565b92915050565b60008083601f84011261435557600080fd5b8235905067ffffffffffffffff81111561436e57600080fd5b60208301915083600182028301111561438657600080fd5b9250929050565b600082601f83011261439e57600080fd5b81356143ae848260208601614287565b91505092915050565b6000813590506143c681615d43565b92915050565b6000813590506143db81615d5a565b92915050565b6000815190506143f081615d5a565b92915050565b60006020828403121561440857600080fd5b6000614416848285016142c5565b91505092915050565b6000806040838503121561443257600080fd5b6000614440858286016142c5565b9250506020614451858286016142c5565b9150509250929050565b60008060006060848603121561447057600080fd5b600061447e868287016142c5565b935050602061448f868287016142c5565b92505060406144a0868287016143cc565b9150509250925092565b600080600080608085870312156144c057600080fd5b60006144ce878288016142c5565b94505060206144df878288016142c5565b93505060406144f0878288016143cc565b925050606085013567ffffffffffffffff81111561450d57600080fd5b6145198782880161438d565b91505092959194509250565b6000806040838503121561453857600080fd5b6000614546858286016142c5565b9250506020614557858286016142da565b9150509250929050565b6000806040838503121561457457600080fd5b6000614582858286016142c5565b9250506020614593858286016143cc565b9150509250929050565b6000602082840312156145af57600080fd5b60006145bd848285016142ef565b91505092915050565b60008060008060008060008060006101208a8c0312156145e557600080fd5b60006145f38c828d016142da565b99505060206146048c828d016142da565b98505060406146158c828d016143cc565b97505060606146268c828d016143cc565b96505060806146378c828d016143cc565b95505060a06146488c828d016143cc565b94505060c06146598c828d016143cc565b93505060e061466a8c828d016143cc565b92505061010061467c8c828d016142c5565b9150509295985092959850929598565b6000806040838503121561469f57600080fd5b60006146ad85828601614304565b92505060206146be858286016143cc565b9150509250929050565b6000602082840312156146da57600080fd5b60006146e884828501614319565b91505092915050565b60006020828403121561470357600080fd5b60006147118482850161432e565b91505092915050565b6000806020838503121561472d57600080fd5b600083013567ffffffffffffffff81111561474757600080fd5b61475385828601614343565b92509250509250929050565b6000806040838503121561477257600080fd5b6000614780858286016143b7565b9250506020614791858286016143cc565b9150509250929050565b6000602082840312156147ad57600080fd5b60006147bb848285016143cc565b91505092915050565b6000602082840312156147d657600080fd5b60006147e4848285016143e1565b91505092915050565b60006147f98383614cf7565b60208301905092915050565b61480e816154dd565b82525050565b61481d81615362565b6148278184615390565b925061483282615358565b8060005b8381101561486357815161484a87826147ed565b965061485583615383565b925050600181019050614836565b505050505050565b614874816154ef565b82525050565b614883816154fb565b82525050565b61489a614895826154fb565b61565b565b82525050565b60006148ab8261536d565b6148b5818561539b565b93506148c581856020860161557c565b6148ce8161575c565b840191505092915050565b60006148e482615378565b6148ee81856153ac565b93506148fe81856020860161557c565b6149078161575c565b840191505092915050565b600061491d82615378565b61492781856153bd565b935061493781856020860161557c565b80840191505092915050565b60006149506001836153ac565b915061495b8261576d565b602082019050919050565b60006149736032836153ac565b915061497e82615796565b604082019050919050565b6000614996601c836153ac565b91506149a1826157e5565b602082019050919050565b60006149b96002836153ac565b91506149c48261580e565b602082019050919050565b60006149dc6001836153ac565b91506149e782615837565b602082019050919050565b60006149ff6024836153ac565b9150614a0a82615860565b604082019050919050565b6000614a226019836153ac565b9150614a2d826158af565b602082019050919050565b6000614a456002836153ac565b9150614a50826158d8565b602082019050919050565b6000614a68602c836153ac565b9150614a7382615901565b604082019050919050565b6000614a8b6002836153ac565b9150614a9682615950565b602082019050919050565b6000614aae6005836153bd565b9150614ab982615979565b600582019050919050565b6000614ad16038836153ac565b9150614adc826159a2565b604082019050919050565b6000614af4602a836153ac565b9150614aff826159f1565b604082019050919050565b6000614b176029836153ac565b9150614b2282615a40565b604082019050919050565b6000614b3a6020836153ac565b9150614b4582615a8f565b602082019050919050565b6000614b5d6001836153ac565b9150614b6882615ab8565b602082019050919050565b6000614b80602c836153ac565b9150614b8b82615ae1565b604082019050919050565b6000614ba36029836153ac565b9150614bae82615b30565b604082019050919050565b6000614bc6602f836153ac565b9150614bd182615b7f565b604082019050919050565b6000614be9601f836153ac565b9150614bf482615bce565b602082019050919050565b6000614c0c6021836153ac565b9150614c1782615bf7565b604082019050919050565b6000614c2f6031836153ac565b9150614c3a82615c46565b604082019050919050565b6000614c526002836153ac565b9150614c5d82615c95565b602082019050919050565b6000614c756002836153ac565b9150614c8082615cbe565b602082019050919050565b61032082016000820151614ca26000850182614814565b506020820151614cb560a0850182614814565b506040820151614cc9610140850182614814565b506060820151614cdd6101e0850182614814565b506080820151614cf1610280850182614814565b50505050565b614d0081615563565b82525050565b614d0f81615563565b82525050565b614d26614d2182615563565b615665565b82525050565b6000614d388285614889565b602082019150614d488284614d15565b6020820191508190509392505050565b6000614d648285614912565b9150614d708284614912565b91508190509392505050565b6000614d8782614aa1565b9150614d938284614912565b915081905092915050565b6000602082019050614db36000830184614805565b92915050565b6000604082019050614dce6000830185614805565b614ddb6020830184614805565b9392505050565b6000606082019050614df76000830186614805565b614e046020830185614805565b614e116040830184614d06565b949350505050565b6000608082019050614e2e6000830187614805565b614e3b6020830186614805565b614e486040830185614d06565b8181036060830152614e5a81846148a0565b905095945050505050565b6000604082019050614e7a6000830185614805565b614e876020830184614d06565b9392505050565b6000606082019050614ea36000830186614805565b614eb06020830185614d06565b8181036040830152614ec281846148a0565b9050949350505050565b6000602082019050614ee1600083018461486b565b92915050565b6000604082019050614efc600083018561486b565b8181036020830152614f0e81846148a0565b90509392505050565b6000602082019050614f2c600083018461487a565b92915050565b6000604082019050614f47600083018561487a565b614f546020830184614d06565b9392505050565b6000608082019050614f70600083018761487a565b614f7d6020830186614d06565b614f8a6040830185614805565b614f976060830184614d06565b95945050505050565b60006020820190508181036000830152614fba81846148d9565b905092915050565b60006020820190508181036000830152614fdb81614943565b9050919050565b60006020820190508181036000830152614ffb81614966565b9050919050565b6000602082019050818103600083015261501b81614989565b9050919050565b6000602082019050818103600083015261503b816149ac565b9050919050565b6000602082019050818103600083015261505b816149cf565b9050919050565b6000602082019050818103600083015261507b816149f2565b9050919050565b6000602082019050818103600083015261509b81614a15565b9050919050565b600060208201905081810360008301526150bb81614a38565b9050919050565b600060208201905081810360008301526150db81614a5b565b9050919050565b600060208201905081810360008301526150fb81614a7e565b9050919050565b6000602082019050818103600083015261511b81614ac4565b9050919050565b6000602082019050818103600083015261513b81614ae7565b9050919050565b6000602082019050818103600083015261515b81614b0a565b9050919050565b6000602082019050818103600083015261517b81614b2d565b9050919050565b6000602082019050818103600083015261519b81614b50565b9050919050565b600060208201905081810360008301526151bb81614b73565b9050919050565b600060208201905081810360008301526151db81614b96565b9050919050565b600060208201905081810360008301526151fb81614bb9565b9050919050565b6000602082019050818103600083015261521b81614bdc565b9050919050565b6000602082019050818103600083015261523b81614bff565b9050919050565b6000602082019050818103600083015261525b81614c22565b9050919050565b6000602082019050818103600083015261527b81614c45565b9050919050565b6000602082019050818103600083015261529b81614c68565b9050919050565b6000610320820190506152b86000830184614c8b565b92915050565b60006020820190506152d36000830184614d06565b92915050565b60006040820190506152ee6000830185614d06565b6152fb6020830184614d06565b9392505050565b600061530c61531d565b905061531882826155e1565b919050565b6000604051905090565b600067ffffffffffffffff8211156153425761534161572d565b5b61534b8261575c565b9050602081019050919050565b6000819050919050565b600060059050919050565b600081519050919050565b600081519050919050565b6000602082019050919050565b600081905092915050565b600082825260208201905092915050565b600082825260208201905092915050565b600081905092915050565b60006153d382615563565b91506153de83615563565b9250827fffffffffffffffffffffffffffffffffffffffffffffffffffffffffffffffff03821115615413576154126156a0565b5b828201905092915050565b600061542982615563565b915061543483615563565b925082615444576154436156cf565b5b828204905092915050565b600061545a82615563565b915061546583615563565b9250817fffffffffffffffffffffffffffffffffffffffffffffffffffffffffffffffff048311821515161561549e5761549d6156a0565b5b828202905092915050565b60006154b482615563565b91506154bf83615563565b9250828210156154d2576154d16156a0565b5b828203905092915050565b60006154e882615543565b9050919050565b60008115159050919050565b6000819050919050565b60007fffffffff0000000000000000000000000000000000000000000000000000000082169050919050565b600061553c826154dd565b9050919050565b600073ffffffffffffffffffffffffffffffffffffffff82169050919050565b6000819050919050565b82818337600083830152505050565b60005b8381101561559a57808201518184015260208101905061557f565b838111156155a9576000848401525b50505050565b600060028204905060018216806155c757607f821691505b602082108114156155db576155da6156fe565b5b50919050565b6155ea8261575c565b810181811067ffffffffffffffff821117156156095761560861572d565b5b80604052505050565b600061561d82615563565b91507fffffffffffffffffffffffffffffffffffffffffffffffffffffffffffffffff8214156156505761564f6156a0565b5b600182019050919050565b6000819050919050565b6000819050919050565b600061567a82615563565b915061568583615563565b925082615695576156946156cf565b5b828206905092915050565b7f4e487b7100000000000000000000000000000000000000000000000000000000600052601160045260246000fd5b7f4e487b7100000000000000000000000000000000000000000000000000000000600052601260045260246000fd5b7f4e487b7100000000000000000000000000000000000000000000000000000000600052602260045260246000fd5b7f4e487b7100000000000000000000000000000000000000000000000000000000600052604160045260246000fd5b6000601f19601f8301169050919050565b7f4300000000000000000000000000000000000000000000000000000000000000600082015250565b7f4552433732313a207472616e7366657220746f206e6f6e20455243373231526560008201527f63656976657220696d706c656d656e7465720000000000000000000000000000602082015250565b7f4552433732313a20746f6b656e20616c7265616479206d696e74656400000000600082015250565b7f4e42000000000000000000000000000000000000000000000000000000000000600082015250565b7f4500000000000000000000000000000000000000000000000000000000000000600082015250565b7f4552433732313a207472616e7366657220746f20746865207a65726f2061646460008201527f7265737300000000000000000000000000000000000000000000000000000000602082015250565b7f4552433732313a20617070726f766520746f2063616c6c657200000000000000600082015250565b7f4952000000000000000000000000000000000000000000000000000000000000600082015250565b7f4552433732313a206f70657261746f7220717565727920666f72206e6f6e657860008201527f697374656e7420746f6b656e0000000000000000000000000000000000000000602082015250565b7f4d54000000000000000000000000000000000000000000000000000000000000600082015250565b7f42494e474f000000000000000000000000000000000000000000000000000000600082015250565b7f4552433732313a20617070726f76652063616c6c6572206973206e6f74206f7760008201527f6e6572206e6f7220617070726f76656420666f7220616c6c0000000000000000602082015250565b7f4552433732313a2062616c616e636520717565727920666f7220746865207a6560008201527f726f206164647265737300000000000000000000000000000000000000000000602082015250565b7f4552433732313a206f776e657220717565727920666f72206e6f6e657869737460008201527f656e7420746f6b656e0000000000000000000000000000000000000000000000602082015250565b7f4552433732313a206d696e7420746f20746865207a65726f2061646472657373600082015250565b7f4c00000000000000000000000000000000000000000000000000000000000000600082015250565b7f4552433732313a20617070726f76656420717565727920666f72206e6f6e657860008201527f697374656e7420746f6b656e0000000000000000000000000000000000000000602082015250565b7f4552433732313a207472616e73666572206f6620746f6b656e2074686174206960008201527f73206e6f74206f776e0000000000000000000000000000000000000000000000602082015250565b7f4552433732314d657461646174613a2055524920717565727920666f72206e6f60008201527f6e6578697374656e7420746f6b656e0000000000000000000000000000000000602082015250565b7f4f6e6c7920565246436f6f7264696e61746f722063616e2066756c66696c6c00600082015250565b7f4552433732313a20617070726f76616c20746f2063757272656e74206f776e6560008201527f7200000000000000000000000000000000000000000000000000000000000000602082015250565b7f4552433732313a207472616e736665722063616c6c6572206973206e6f74206f60008201527f776e6572206e6f7220617070726f766564000000000000000000000000000000602082015250565b7f5750000000000000000000000000000000000000000000000000000000000000600082015250565b7f4e50000000000000000000000000000000000000000000000000000000000000600082015250565b615cf0816154dd565b8114615cfb57600080fd5b50565b615d07816154ef565b8114615d1257600080fd5b50565b615d1e816154fb565b8114615d2957600080fd5b50565b615d3581615505565b8114615d4057600080fd5b50565b615d4c81615531565b8114615d5757600080fd5b50565b615d6381615563565b8114615d6e57600080fd5b5056fe68747470733a2f2f6170692e62696e676f737761702e6172742f62696e676f2d6a736f6e2fa2646970667358221220fdb3c5a900547afcee0c323533b131cdc2a9caaad6b02eaa3becb63cfb04823064736f6c63430008040033",
  "immutableReferences": {
    "1673": [
      {
        "length": 32,
        "start": 4098
      },
      {
        "length": 32,
        "start": 12824
      }
    ],
    "1675": [
      {
        "length": 32,
        "start": 6422
      },
      {
        "length": 32,
        "start": 12884
      }
    ]
  },
  "source": "//                                  ___           ___           ___\n//       _____        ___          /__/\\         /  /\\         /  /\\\n//      /  /::\\      /  /\\         \\  \\:\\       /  /:/_       /  /::\\\n//     /  /:/\\:\\    /  /:/          \\  \\:\\     /  /:/ /\\     /  /:/\\:\\\n//    /  /:/~/::\\  /__/::\\      _____\\__\\:\\   /  /:/_/::\\   /  /:/  \\:\\\n//   /__/:/ /:/\\:| \\__\\/\\:\\__  /__/::::::::\\ /__/:/__\\/\\:\\ /__/:/ \\__\\:\\\n//   \\  \\:\\/:/~/:/    \\  \\:\\/\\ \\  \\:\\~~\\~~\\/ \\  \\:\\ /~~/:/ \\  \\:\\ /  /:/\n//    \\  \\::/ /:/      \\__\\::/  \\  \\:\\  ~~~   \\  \\:\\  /:/   \\  \\:\\  /:/\n//     \\  \\:\\/:/       /__/:/    \\  \\:\\        \\  \\:\\/:/     \\  \\:\\/:/\n//      \\  \\::/        \\__\\/      \\  \\:\\        \\  \\::/       \\  \\::/\n//       \\__\\/                     \\__\\/         \\__\\/         \\__\\/\n//\n// SPDX-License-Identifier: MIT\n\npragma solidity >=0.8.0 <0.9.0;\nimport '@openzeppelin/contracts/token/ERC721/ERC721.sol';\nimport \"@openzeppelin/contracts/utils/Counters.sol\";\nimport '@openzeppelin/contracts/token/ERC20/IERC20.sol';\nimport '@openzeppelin/contracts/utils/math/SafeMath.sol';\nimport \"@chainlink/contracts/src/v0.8/VRFConsumerBase.sol\";\nimport \"@chainlink/contracts/src/v0.8/interfaces/KeeperCompatibleInterface.sol\";\n\nlibrary BingoGenerate {\n    using SafeMath for uint256;\n\n    // Card\n    struct Card {\n        uint256[5] B;\n        uint256[5] I;\n        uint256[5] N;\n        uint256[5] G;\n        uint256[5] O;\n    }\n\n    // Settings\n    uint256 constant maxCount = 15;\n\n    function generateBingoCard(uint256 randomness) internal pure returns (Card memory card) {\n        if(randomness == 0) {\n            return card;\n        }\n        uint256[5] memory col;\n        uint256 i;\n\n        for(uint256 k=0; k<5; k++) {\n            col = generateColumn(uint256(keccak256(abi.encode(randomness, k))));\n            for(i=0;i<5;i++) {\n                if(k==2 && i==2) {\n                    col[i] = 99;\n                } else {\n                    col[i] = col[i] + (k*maxCount);\n                }\n            }\n\n            // Not sure how to do this better without switch :)\n            if(k == 0) {\n                card.B = col;\n            } else if(k == 1) {\n                card.I = col;\n            } else if(k == 2) {\n                card.N = col;\n            } else if(k == 3) {\n                card.G = col;\n            } else if(k == 4) {\n                card.O = col;\n            }\n        }\n\n        return card;\n    }\n\n    function generateColumn(uint256 randomness) internal pure returns(uint256[5] memory col) {\n        uint256[15] memory possible;\n        for(uint256 i=0; i<15; i++) {\n            possible[i] = i+1;\n        }\n        uint256 idx;\n        for(uint256 k=0; k<5; k++) {\n            idx = uint256(keccak256(abi.encode(randomness, k))).mod(maxCount-(1+k));\n            col[k] = possible[idx];\n            if(idx != 15 - (1+k)) {\n                possible[idx] = possible[15 - (1+k)];\n            }\n        }\n        return col;\n    }\n\n    function validateWinner(uint256 randomness,  mapping (uint256 => bool) storage Balls, uint256 pattern) internal view returns (bool found) {\n        /*\n        Patterns:\n            1 = line\n            2 = X\n            3 = Full card\n            4 = Four corners\n        */\n        Card memory card = generateBingoCard(randomness);\n        uint256[5][13] memory lines;\n        uint256 i;\n        for(i=0; i<5; i++) {\n            lines[i] = [card.B[i], card.I[i], card.N[i], card.G[i], card.O[i]];\n        }\n        lines[5] = uint256[5](card.B);\n        lines[6] = card.I;\n        lines[7] = card.N;\n        lines[8] = card.G;\n        lines[9] = card.O;\n        lines[10] = [card.B[0], card.I[1], card.N[2], card.G[3], card.O[4]];\n        lines[11] = [card.B[4], card.I[3], card.N[2], card.G[1], card.O[0]];\n        lines[12] = [card.B[0], card.O[0], card.B[4], card.O[4], card.B[0]]; // 4 corners\n\n        found = false;\n        uint256 foundDiagonal;\n        uint256 foundLines;\n        uint256 k;\n        uint256 matches;\n        for(i=0; i<13; i++) {\n            matches=0;\n            for(k=0; k<5; k++) {\n                if(Balls[lines[i][k]] || lines[i][k] == 99) {\n                    matches++;\n                    if(i == 10 || i == 11) {\n                        foundDiagonal++;\n                    }\n                }\n            }\n            if(matches == 5) {\n                foundLines++;\n            }\n            if((pattern == 1 && matches == 5 && i != 12)\n            || (pattern == 2 && foundDiagonal == 10)\n            || (pattern == 3 && foundLines == 12)\n            || (pattern == 4 && matches == 5 && i == 12)\n            ) {\n                found = true;\n            }\n        }\n    }\n}\n\n// Welcome to BINGO\ncontract Bingo is ERC721, VRFConsumerBase, KeeperCompatibleInterface {\n    using SafeMath for uint256;\n    using Counters for Counters.Counter;\n    Counters.Counter private _tokenIds;\n    Counters.Counter private _gameIds;\n\n    // Settings\n    uint256 public minCards = 1;     // 10\n    uint256 public maxCards = 1000;\n    uint256 public pricePerCard = 10000000000000000; // 0.01 ETH\n    uint256 public ballDrawTime = 60;   // 86400\n    uint256 public prizeSplit = 2;\n    uint256 public pattern = 1;\n    bool public startGame = true;\n    bool public startAuto;\n    address weedContract;\n    address owner;\n\n    // Game\n    uint256 public gameFloor;\n    uint256 public lastBallTime;\n    bytes32 public ballRequest;\n    uint256 public prizePool;\n    uint256 public winnerPool;\n    bool public outOfBalls;\n\n    // Random\n    bytes32 internal keyHash;\n    uint256 internal fee;\n\n    // Mappings\n    mapping (uint256 => uint256) public cardRandomness;\n    mapping (uint256 => uint256) public winners;\n    mapping (uint256 => bool) Balls;\n\n    event BallPicked(uint256 game, uint256 ball);\n    event BingoWinner(uint256 game, uint256 tokenId);\n    event CardGenerated(uint256 game, address owner, uint256 tokenId);\n\n    modifier onlyOwner {\n        require(msg.sender == owner);\n        _;\n    }\n\n    constructor(address _weedContract)\n    ERC721(\"Bingo\", \"BINGO\")\n    VRFConsumerBase(\n        0xdD3782915140c8f3b190B5D67eAc6dc5760C46E9, // VRF Coordinator - Kovan\n        0xa36085F69e2889c224210F603D836748e7dC0088  // LINK Token - Kovan\n    )\n    {\n        owner = msg.sender;\n        weedContract = _weedContract;\n        keyHash = 0x6c3699283bda56ad74f6b855546325b68d482e983852a7a82979cc4807b641f4;\n        fee = 0.1 * 10 ** 18; // 0.1 LINK (Varies by network)\n\n        // Automatically start the first game\n        _gameIds.increment();\n        lastBallTime = block.timestamp;\n    }\n\n    /*\n    *   Purchase.\n    */\n    function mintCard(uint256 amount) public payable {\n        require(amount <= 10 && startGame && (_tokenIds.current().add(amount) - gameFloor) <= maxCards, \"E\");\n\n        // Mint in ETH\n        if(msg.value > 0) {\n            require(pricePerCard.mul(amount) <= msg.value, \"WP\");\n            if(prizeSplit > 0) {\n                prizePool += msg.value / prizeSplit;\n            }\n        // Mint in WEED\n        } else {\n            require(IERC20(weedContract).balanceOf(msg.sender) >= 4000 * 1e18 * amount, \"NB\");\n            require(IERC20(weedContract).allowance(msg.sender, address(this)) >= 4000 * 1e18 * amount, \"NP\");\n            IERC20(weedContract).transferFrom(msg.sender, address(this), 4000 * 1e18 * amount);\n        }\n\n        uint256 cardId;\n        for(uint256 i=0; i<amount; i++) {\n            _tokenIds.increment();\n             cardId = _tokenIds.current();\n            _safeMint(msg.sender, cardId);\n            cardRandomness[cardId] = uint256(keccak256(abi.encodePacked('BINGO', toString(cardId))));\n        }\n    }\n\n    /*\n    *   Randomness.\n    */\n    function checkUpkeep(bytes calldata checkData) external view override returns (bool upkeepNeeded, bytes memory performData) {\n        upkeepNeeded = (_tokenIds.current() - gameFloor >= minCards) && (block.timestamp > lastBallTime+ballDrawTime && !outOfBalls && startGame);\n        performData = checkData;\n    }\n\n    function performUpkeep(bytes calldata performData) external override {\n        require(block.timestamp > lastBallTime+ballDrawTime && _tokenIds.current() - gameFloor >= minCards, \"MT\");\n        uint256 _winners = checkForWinners();\n        if(_winners == 0) {\n            require(LINK.balanceOf(address(this)) >= fee, \"L\");\n            lastBallTime = block.timestamp;\n            ballRequest = requestRandomness(keyHash, fee);\n        } else {\n            // Reset game\n            prizePool = 0;\n            _gameIds.increment();\n            lastBallTime = block.timestamp;\n            outOfBalls = false;\n            gameFloor = _tokenIds.current();\n            startGame = startAuto;\n            for(uint256 b=1; b<76; b++) {\n                Balls[b] = false;\n            }\n        }\n        performData;\n    }\n\n    function fulfillRandomness(bytes32 requestId, uint256 randomness) internal override {\n        require(requestId == ballRequest, \"IR\");\n        uint256 choice;\n        for(uint256 idx=0; idx<76; idx++) {\n            choice = randomness.add(idx).mod(75).add(1);\n            if(Balls[choice] == false) {\n                Balls[choice] = true;\n                emit BallPicked(_gameIds.current(), choice);\n                break;\n            } else if(idx == 75) {\n                outOfBalls = true;\n            }\n        }\n        ballRequest = 0;\n    }\n\n    function checkForWinners() public returns (uint256) {\n        uint256 winIdx;\n        for(uint256 i=gameFloor+1; i<= _tokenIds.current(); i++) {\n            if(BingoGenerate.validateWinner(cardRandomness[i], Balls, pattern)) {\n                winIdx++;\n            }\n        }\n        if(winIdx > 0) {\n            for(uint256 k=gameFloor+1; k<= _tokenIds.current(); k++) {\n                if(BingoGenerate.validateWinner(cardRandomness[k], Balls, pattern)) {\n                    winners[k] = prizePool.div(winIdx);\n                    winnerPool = winnerPool + winners[k];\n                    emit BingoWinner(_gameIds.current(), k);\n                }\n            }\n        }\n        return winIdx;\n    }\n\n    /*\n    *   Claim.\n    */\n    function claimBingo(uint256 cardId) public payable {\n        require(winners[cardId] > 0 && ownerOf(cardId) == msg.sender, 'C');\n        payable(msg.sender).transfer(winners[cardId]);\n        winnerPool = winnerPool - winners[cardId];\n        winners[cardId] = 0;\n    }\n\n    /*\n    function burn(uint256 tokenId) public virtual {\n        require(_isApprovedOrOwner(msg.sender, tokenId), \"NA\");\n        _burn(tokenId);\n    }\n    */\n\n    function setBall(uint256 ball) public {\n        Balls[ball] = true;\n    }\n\n    /*\n    *   Getters.\n    */\n    function generateCard(uint256 cardId) public view returns (BingoGenerate.Card memory) {\n        return BingoGenerate.generateBingoCard(cardRandomness[cardId]);\n    }\n\n    function validateCard(uint256 cardId) public view returns (bool) {\n        return BingoGenerate.validateWinner(cardRandomness[cardId], Balls, pattern);\n    }\n\n    function getCurrent() public view returns (uint256 game, uint256 token) {\n        game = _gameIds.current();\n        token = _tokenIds.current();\n    }\n\n    function exists(uint256 tokenId) public view returns(bool) {\n        return _exists(tokenId);\n    }\n\n    function _baseURI() internal pure override returns (string memory) {\n        return \"https://api.bingoswap.art/bingo-json/\";\n    }\n\n    /*\n    *   Setters.\n    */\n    function contractSettings(bool _startGame, bool _startAuto, uint256 _ballDrawTime, uint256 _minCardsPerGame, uint256 _maxCardsPerGame, uint256 _pricePerCard, uint256 _prizeSplit, uint256 _pattern, address _owner) public onlyOwner {\n        startGame = _startGame;\n        startAuto = _startAuto;\n        ballDrawTime = _ballDrawTime;\n        minCards = _minCardsPerGame;\n        maxCards = _maxCardsPerGame;\n        pricePerCard = _pricePerCard;\n        prizeSplit = _prizeSplit;\n        pattern = _pattern;\n        owner = _owner;\n    }\n\n    /*\n    *   Money management.\n    */\n    function withdraw(IERC20 _token, uint256 _amount) public payable onlyOwner {\n        if(_amount > 0) {\n            _token.transfer(msg.sender, _amount);\n        } else {\n            uint256 _each = address(this).balance.sub(prizePool+winnerPool).div(4);\n            require(payable(0x00796e910Bd0228ddF4cd79e3f353871a61C351C).send(_each));   // sara\n            require(payable(0x7fc55376D5A29e0Ee86C18C81bb2fC8F9f490E50).send(_each));   // shaun\n            require(payable(0xB58Fb5372e9Aa0C86c3B281179c05Af3bB7a181b).send(_each));   // mark\n            require(payable(0xd83Dd8A288270512b8A46F581A8254CD971dCb09).send(_each));   // community (@todo replace)\n        }\n    }\n\n    function toString(uint256 value) internal pure returns (string memory) {\n        // Inspired by OraclizeAPI's implementation - MIT license\n        // https://github.com/oraclize/ethereum-api/blob/b42146b063c7d6ee1358846c198246239e9360e8/oraclizeAPI_0.4.25.sol\n\n        if (value == 0) {\n            return \"0\";\n        }\n        uint256 temp = value;\n        uint256 digits;\n        while (temp != 0) {\n            digits++;\n            temp /= 10;\n        }\n        bytes memory buffer = new bytes(digits);\n        while (value != 0) {\n            digits -= 1;\n            buffer[digits] = bytes1(uint8(48 + uint256(value % 10)));\n            value /= 10;\n        }\n        return string(buffer);\n    }\n}\n",
  "sourcePath": "/Users/Shared/Code/experimental/bingo/bingo-contracts/contracts/Bingo.sol",
  "compiler": {
    "name": "solc",
    "version": "0.8.4+commit.c7e474f2.Emscripten.clang"
  },
  "schemaVersion": "3.4.1",
  "updatedAt": "2021-09-15T14:36:28.525Z",
  "networkType": "ethereum",
  "devdoc": {
    "kind": "dev",
    "methods": {
      "approve(address,uint256)": {
        "details": "See {IERC721-approve}."
      },
      "balanceOf(address)": {
        "details": "See {IERC721-balanceOf}."
      },
      "checkUpkeep(bytes)": {
        "params": {
          "checkData": "data passed to the contract when checking for upkeep."
        },
        "returns": {
          "performData": "bytes that the keeper should call performUpkeep with, if upkeep is needed.",
          "upkeepNeeded": "boolean to indicate whether the keeper should call performUpkeep or not."
        }
      },
      "getApproved(uint256)": {
        "details": "See {IERC721-getApproved}."
      },
      "isApprovedForAll(address,address)": {
        "details": "See {IERC721-isApprovedForAll}."
      },
      "name()": {
        "details": "See {IERC721Metadata-name}."
      },
      "ownerOf(uint256)": {
        "details": "See {IERC721-ownerOf}."
      },
      "performUpkeep(bytes)": {
        "params": {
          "performData": "is the data which was passed back from the checkData simulation."
        }
      },
      "safeTransferFrom(address,address,uint256)": {
        "details": "See {IERC721-safeTransferFrom}."
      },
      "safeTransferFrom(address,address,uint256,bytes)": {
        "details": "See {IERC721-safeTransferFrom}."
      },
      "setApprovalForAll(address,bool)": {
        "details": "See {IERC721-setApprovalForAll}."
      },
      "supportsInterface(bytes4)": {
        "details": "See {IERC165-supportsInterface}."
      },
      "symbol()": {
        "details": "See {IERC721Metadata-symbol}."
      },
      "tokenURI(uint256)": {
        "details": "See {IERC721Metadata-tokenURI}."
      },
      "transferFrom(address,address,uint256)": {
        "details": "See {IERC721-transferFrom}."
      }
    },
    "version": 1
  },
  "userdoc": {
    "kind": "user",
    "methods": {
      "checkUpkeep(bytes)": {
        "notice": "checks if the contract requires work to be done."
      },
      "performUpkeep(bytes)": {
        "notice": "Performs work on the contract. Executed by the keepers, via the registry."
      }
    },
    "version": 1
  }
}