{
  "contractName": "Bingo",
  "abi": [
    {
      "inputs": [
        {
          "internalType": "address",
          "name": "_weedContract",
          "type": "address"
        }
      ],
      "stateMutability": "nonpayable",
      "type": "constructor"
    },
    {
      "anonymous": false,
      "inputs": [
        {
          "indexed": true,
          "internalType": "address",
          "name": "owner",
          "type": "address"
        },
        {
          "indexed": true,
          "internalType": "address",
          "name": "approved",
          "type": "address"
        },
        {
          "indexed": true,
          "internalType": "uint256",
          "name": "tokenId",
          "type": "uint256"
        }
      ],
      "name": "Approval",
      "type": "event"
    },
    {
      "anonymous": false,
      "inputs": [
        {
          "indexed": true,
          "internalType": "address",
          "name": "owner",
          "type": "address"
        },
        {
          "indexed": true,
          "internalType": "address",
          "name": "operator",
          "type": "address"
        },
        {
          "indexed": false,
          "internalType": "bool",
          "name": "approved",
          "type": "bool"
        }
      ],
      "name": "ApprovalForAll",
      "type": "event"
    },
    {
      "anonymous": false,
      "inputs": [
        {
          "indexed": false,
          "internalType": "uint256",
          "name": "game",
          "type": "uint256"
        },
        {
          "indexed": false,
          "internalType": "uint256",
          "name": "ball",
          "type": "uint256"
        }
      ],
      "name": "BallPicked",
      "type": "event"
    },
    {
      "anonymous": false,
      "inputs": [
        {
          "indexed": false,
          "internalType": "uint256",
          "name": "game",
          "type": "uint256"
        },
        {
          "indexed": false,
          "internalType": "uint256",
          "name": "tokenId",
          "type": "uint256"
        }
      ],
      "name": "BingoWinner",
      "type": "event"
    },
    {
      "anonymous": false,
      "inputs": [
        {
          "indexed": false,
          "internalType": "uint256",
          "name": "game",
          "type": "uint256"
        },
        {
          "indexed": false,
          "internalType": "address",
          "name": "owner",
          "type": "address"
        },
        {
          "indexed": false,
          "internalType": "uint256",
          "name": "tokenId",
          "type": "uint256"
        }
      ],
      "name": "CardGenerated",
      "type": "event"
    },
    {
      "anonymous": false,
      "inputs": [
        {
          "indexed": true,
          "internalType": "address",
          "name": "from",
          "type": "address"
        },
        {
          "indexed": true,
          "internalType": "address",
          "name": "to",
          "type": "address"
        },
        {
          "indexed": true,
          "internalType": "uint256",
          "name": "tokenId",
          "type": "uint256"
        }
      ],
      "name": "Transfer",
      "type": "event"
    },
    {
      "inputs": [
        {
          "internalType": "address",
          "name": "to",
          "type": "address"
        },
        {
          "internalType": "uint256",
          "name": "tokenId",
          "type": "uint256"
        }
      ],
      "name": "approve",
      "outputs": [],
      "stateMutability": "nonpayable",
      "type": "function"
    },
    {
      "inputs": [
        {
          "internalType": "address",
          "name": "owner",
          "type": "address"
        }
      ],
      "name": "balanceOf",
      "outputs": [
        {
          "internalType": "uint256",
          "name": "",
          "type": "uint256"
        }
      ],
      "stateMutability": "view",
      "type": "function",
      "constant": true
    },
    {
      "inputs": [],
      "name": "ballDrawTime",
      "outputs": [
        {
          "internalType": "uint256",
          "name": "",
          "type": "uint256"
        }
      ],
      "stateMutability": "view",
      "type": "function",
      "constant": true
    },
    {
      "inputs": [],
      "name": "ballRequest",
      "outputs": [
        {
          "internalType": "bytes32",
          "name": "",
          "type": "bytes32"
        }
      ],
      "stateMutability": "view",
      "type": "function",
      "constant": true
    },
    {
      "inputs": [
        {
          "internalType": "uint256",
          "name": "",
          "type": "uint256"
        }
      ],
      "name": "cardRandomness",
      "outputs": [
        {
          "internalType": "uint256",
          "name": "",
          "type": "uint256"
        }
      ],
      "stateMutability": "view",
      "type": "function",
      "constant": true
    },
    {
      "inputs": [],
      "name": "gameFloor",
      "outputs": [
        {
          "internalType": "uint256",
          "name": "",
          "type": "uint256"
        }
      ],
      "stateMutability": "view",
      "type": "function",
      "constant": true
    },
    {
      "inputs": [
        {
          "internalType": "uint256",
          "name": "tokenId",
          "type": "uint256"
        }
      ],
      "name": "getApproved",
      "outputs": [
        {
          "internalType": "address",
          "name": "",
          "type": "address"
        }
      ],
      "stateMutability": "view",
      "type": "function",
      "constant": true
    },
    {
      "inputs": [
        {
          "internalType": "address",
          "name": "owner",
          "type": "address"
        },
        {
          "internalType": "address",
          "name": "operator",
          "type": "address"
        }
      ],
      "name": "isApprovedForAll",
      "outputs": [
        {
          "internalType": "bool",
          "name": "",
          "type": "bool"
        }
      ],
      "stateMutability": "view",
      "type": "function",
      "constant": true
    },
    {
      "inputs": [],
      "name": "lastBallTime",
      "outputs": [
        {
          "internalType": "uint256",
          "name": "",
          "type": "uint256"
        }
      ],
      "stateMutability": "view",
      "type": "function",
      "constant": true
    },
    {
      "inputs": [],
      "name": "maxCards",
      "outputs": [
        {
          "internalType": "uint256",
          "name": "",
          "type": "uint256"
        }
      ],
      "stateMutability": "view",
      "type": "function",
      "constant": true
    },
    {
      "inputs": [],
      "name": "minCards",
      "outputs": [
        {
          "internalType": "uint256",
          "name": "",
          "type": "uint256"
        }
      ],
      "stateMutability": "view",
      "type": "function",
      "constant": true
    },
    {
      "inputs": [],
      "name": "name",
      "outputs": [
        {
          "internalType": "string",
          "name": "",
          "type": "string"
        }
      ],
      "stateMutability": "view",
      "type": "function",
      "constant": true
    },
    {
      "inputs": [],
      "name": "outOfBalls",
      "outputs": [
        {
          "internalType": "bool",
          "name": "",
          "type": "bool"
        }
      ],
      "stateMutability": "view",
      "type": "function",
      "constant": true
    },
    {
      "inputs": [
        {
          "internalType": "uint256",
          "name": "tokenId",
          "type": "uint256"
        }
      ],
      "name": "ownerOf",
      "outputs": [
        {
          "internalType": "address",
          "name": "",
          "type": "address"
        }
      ],
      "stateMutability": "view",
      "type": "function",
      "constant": true
    },
    {
      "inputs": [],
      "name": "pattern",
      "outputs": [
        {
          "internalType": "uint256",
          "name": "",
          "type": "uint256"
        }
      ],
      "stateMutability": "view",
      "type": "function",
      "constant": true
    },
    {
      "inputs": [],
      "name": "pricePerCard",
      "outputs": [
        {
          "internalType": "uint256",
          "name": "",
          "type": "uint256"
        }
      ],
      "stateMutability": "view",
      "type": "function",
      "constant": true
    },
    {
      "inputs": [],
      "name": "prizePool",
      "outputs": [
        {
          "internalType": "uint256",
          "name": "",
          "type": "uint256"
        }
      ],
      "stateMutability": "view",
      "type": "function",
      "constant": true
    },
    {
      "inputs": [],
      "name": "prizeSplit",
      "outputs": [
        {
          "internalType": "uint256",
          "name": "",
          "type": "uint256"
        }
      ],
      "stateMutability": "view",
      "type": "function",
      "constant": true
    },
    {
      "inputs": [
        {
          "internalType": "bytes32",
          "name": "requestId",
          "type": "bytes32"
        },
        {
          "internalType": "uint256",
          "name": "randomness",
          "type": "uint256"
        }
      ],
      "name": "rawFulfillRandomness",
      "outputs": [],
      "stateMutability": "nonpayable",
      "type": "function"
    },
    {
      "inputs": [
        {
          "internalType": "address",
          "name": "from",
          "type": "address"
        },
        {
          "internalType": "address",
          "name": "to",
          "type": "address"
        },
        {
          "internalType": "uint256",
          "name": "tokenId",
          "type": "uint256"
        }
      ],
      "name": "safeTransferFrom",
      "outputs": [],
      "stateMutability": "nonpayable",
      "type": "function"
    },
    {
      "inputs": [
        {
          "internalType": "address",
          "name": "from",
          "type": "address"
        },
        {
          "internalType": "address",
          "name": "to",
          "type": "address"
        },
        {
          "internalType": "uint256",
          "name": "tokenId",
          "type": "uint256"
        },
        {
          "internalType": "bytes",
          "name": "_data",
          "type": "bytes"
        }
      ],
      "name": "safeTransferFrom",
      "outputs": [],
      "stateMutability": "nonpayable",
      "type": "function"
    },
    {
      "inputs": [
        {
          "internalType": "address",
          "name": "operator",
          "type": "address"
        },
        {
          "internalType": "bool",
          "name": "approved",
          "type": "bool"
        }
      ],
      "name": "setApprovalForAll",
      "outputs": [],
      "stateMutability": "nonpayable",
      "type": "function"
    },
    {
      "inputs": [],
      "name": "startAuto",
      "outputs": [
        {
          "internalType": "bool",
          "name": "",
          "type": "bool"
        }
      ],
      "stateMutability": "view",
      "type": "function",
      "constant": true
    },
    {
      "inputs": [],
      "name": "startGame",
      "outputs": [
        {
          "internalType": "bool",
          "name": "",
          "type": "bool"
        }
      ],
      "stateMutability": "view",
      "type": "function",
      "constant": true
    },
    {
      "inputs": [
        {
          "internalType": "bytes4",
          "name": "interfaceId",
          "type": "bytes4"
        }
      ],
      "name": "supportsInterface",
      "outputs": [
        {
          "internalType": "bool",
          "name": "",
          "type": "bool"
        }
      ],
      "stateMutability": "view",
      "type": "function",
      "constant": true
    },
    {
      "inputs": [],
      "name": "symbol",
      "outputs": [
        {
          "internalType": "string",
          "name": "",
          "type": "string"
        }
      ],
      "stateMutability": "view",
      "type": "function",
      "constant": true
    },
    {
      "inputs": [
        {
          "internalType": "uint256",
          "name": "tokenId",
          "type": "uint256"
        }
      ],
      "name": "tokenURI",
      "outputs": [
        {
          "internalType": "string",
          "name": "",
          "type": "string"
        }
      ],
      "stateMutability": "view",
      "type": "function",
      "constant": true
    },
    {
      "inputs": [
        {
          "internalType": "address",
          "name": "from",
          "type": "address"
        },
        {
          "internalType": "address",
          "name": "to",
          "type": "address"
        },
        {
          "internalType": "uint256",
          "name": "tokenId",
          "type": "uint256"
        }
      ],
      "name": "transferFrom",
      "outputs": [],
      "stateMutability": "nonpayable",
      "type": "function"
    },
    {
      "inputs": [],
      "name": "winnerPool",
      "outputs": [
        {
          "internalType": "uint256",
          "name": "",
          "type": "uint256"
        }
      ],
      "stateMutability": "view",
      "type": "function",
      "constant": true
    },
    {
      "inputs": [
        {
          "internalType": "uint256",
          "name": "",
          "type": "uint256"
        }
      ],
      "name": "winners",
      "outputs": [
        {
          "internalType": "uint256",
          "name": "",
          "type": "uint256"
        }
      ],
      "stateMutability": "view",
      "type": "function",
      "constant": true
    },
    {
      "inputs": [
        {
          "internalType": "uint256",
          "name": "amount",
          "type": "uint256"
        }
      ],
      "name": "mintCard",
      "outputs": [],
      "stateMutability": "payable",
      "type": "function",
      "payable": true
    },
    {
      "inputs": [
        {
          "internalType": "bytes",
          "name": "checkData",
          "type": "bytes"
        }
      ],
      "name": "checkUpkeep",
      "outputs": [
        {
          "internalType": "bool",
          "name": "upkeepNeeded",
          "type": "bool"
        },
        {
          "internalType": "bytes",
          "name": "performData",
          "type": "bytes"
        }
      ],
      "stateMutability": "view",
      "type": "function",
      "constant": true
    },
    {
      "inputs": [
        {
          "internalType": "bytes",
          "name": "performData",
          "type": "bytes"
        }
      ],
      "name": "performUpkeep",
      "outputs": [],
      "stateMutability": "nonpayable",
      "type": "function"
    },
    {
      "inputs": [
        {
          "internalType": "uint256",
          "name": "cardId",
          "type": "uint256"
        }
      ],
      "name": "claimBingo",
      "outputs": [],
      "stateMutability": "payable",
      "type": "function",
      "payable": true
    },
    {
      "inputs": [
        {
          "internalType": "uint256",
          "name": "tokenId",
          "type": "uint256"
        }
      ],
      "name": "burn",
      "outputs": [],
      "stateMutability": "nonpayable",
      "type": "function"
    },
    {
      "inputs": [
        {
          "internalType": "uint256",
          "name": "cardId",
          "type": "uint256"
        }
      ],
      "name": "generateCard",
      "outputs": [
        {
          "components": [
            {
              "internalType": "uint256[5]",
              "name": "B",
              "type": "uint256[5]"
            },
            {
              "internalType": "uint256[5]",
              "name": "I",
              "type": "uint256[5]"
            },
            {
              "internalType": "uint256[5]",
              "name": "N",
              "type": "uint256[5]"
            },
            {
              "internalType": "uint256[5]",
              "name": "G",
              "type": "uint256[5]"
            },
            {
              "internalType": "uint256[5]",
              "name": "O",
              "type": "uint256[5]"
            }
          ],
          "internalType": "struct BingoGenerate.Card",
          "name": "",
          "type": "tuple"
        }
      ],
      "stateMutability": "view",
      "type": "function",
      "constant": true
    },
    {
      "inputs": [
        {
          "internalType": "uint256",
          "name": "cardId",
          "type": "uint256"
        }
      ],
      "name": "validateCard",
      "outputs": [
        {
          "internalType": "bool",
          "name": "",
          "type": "bool"
        }
      ],
      "stateMutability": "view",
      "type": "function",
      "constant": true
    },
    {
      "inputs": [],
      "name": "getCurrent",
      "outputs": [
        {
          "internalType": "uint256",
          "name": "game",
          "type": "uint256"
        },
        {
          "internalType": "uint256",
          "name": "token",
          "type": "uint256"
        }
      ],
      "stateMutability": "view",
      "type": "function",
      "constant": true
    },
    {
      "inputs": [
        {
          "internalType": "uint256",
          "name": "tokenId",
          "type": "uint256"
        }
      ],
      "name": "exists",
      "outputs": [
        {
          "internalType": "bool",
          "name": "",
          "type": "bool"
        }
      ],
      "stateMutability": "view",
      "type": "function",
      "constant": true
    },
    {
      "inputs": [
        {
          "internalType": "bool",
          "name": "_startGame",
          "type": "bool"
        },
        {
          "internalType": "bool",
          "name": "_startAuto",
          "type": "bool"
        },
        {
          "internalType": "uint256",
          "name": "_ballDrawTime",
          "type": "uint256"
        },
        {
          "internalType": "uint256",
          "name": "_minCardsPerGame",
          "type": "uint256"
        },
        {
          "internalType": "uint256",
          "name": "_maxCardsPerGame",
          "type": "uint256"
        },
        {
          "internalType": "uint256",
          "name": "_pricePerCard",
          "type": "uint256"
        },
        {
          "internalType": "uint256",
          "name": "_prizeSplit",
          "type": "uint256"
        },
        {
          "internalType": "uint256",
          "name": "_pattern",
          "type": "uint256"
        },
        {
          "internalType": "address",
          "name": "_owner",
          "type": "address"
        }
      ],
      "name": "contractSettings",
      "outputs": [],
      "stateMutability": "nonpayable",
      "type": "function"
    },
    {
      "inputs": [
        {
          "internalType": "contract IERC20",
          "name": "_token",
          "type": "address"
        },
        {
          "internalType": "uint256",
          "name": "_amount",
          "type": "uint256"
        }
      ],
      "name": "withdraw",
      "outputs": [],
      "stateMutability": "payable",
      "type": "function",
      "payable": true
    }
  ],
  "bytecode": "0x60c060405260016009556103e8600a55662386f26fc10000600b55603c600c556002600d556001600e553480156200003657600080fd5b50604051620063cf380380620063cf83398181016040528101906200005c919062000353565b73dd3782915140c8f3b190b5d67eac6dc5760c46e973a36085f69e2889c224210f603d836748e7dc00886040518060400160405280600581526020017f42696e676f0000000000000000000000000000000000000000000000000000008152506040518060400160405280600581526020017f42494e474f00000000000000000000000000000000000000000000000000000081525081600090805190602001906200010a9291906200028c565b508060019080519060200190620001239291906200028c565b5050508173ffffffffffffffffffffffffffffffffffffffff1660a08173ffffffffffffffffffffffffffffffffffffffff1660601b815250508073ffffffffffffffffffffffffffffffffffffffff1660808173ffffffffffffffffffffffffffffffffffffffff1660601b81525050505033601060006101000a81548173ffffffffffffffffffffffffffffffffffffffff021916908373ffffffffffffffffffffffffffffffffffffffff16021790555080600f60026101000a81548173ffffffffffffffffffffffffffffffffffffffff021916908373ffffffffffffffffffffffffffffffffffffffff1602179055507f6c3699283bda56ad74f6b855546325b68d482e983852a7a82979cc4807b641f460001b60178190555067016345785d8a00006018819055506200026860086200027660201b620020f41760201c565b426012819055505062000432565b6001816000016000828254019250508190555050565b8280546200029a90620003b3565b90600052602060002090601f016020900481019282620002be57600085556200030a565b82601f10620002d957805160ff19168380011785556200030a565b828001600101855582156200030a579182015b8281111562000309578251825591602001919060010190620002ec565b5b5090506200031991906200031d565b5090565b5b80821115620003385760008160009055506001016200031e565b5090565b6000815190506200034d8162000418565b92915050565b6000602082840312156200036657600080fd5b600062000376848285016200033c565b91505092915050565b60006200038c8262000393565b9050919050565b600073ffffffffffffffffffffffffffffffffffffffff82169050919050565b60006002820490506001821680620003cc57607f821691505b60208210811415620003e357620003e2620003e9565b5b50919050565b7f4e487b7100000000000000000000000000000000000000000000000000000000600052602260045260246000fd5b62000423816200037f565b81146200042f57600080fd5b50565b60805160601c60a05160601c615f5c62000473600039600081816117a3015261345d015260008181610e970152818161107b01526134210152615f5c6000f3fe6080604052600436106102465760003560e01c80636352211e11610139578063a319795a116100b6578063d65ab5f21161007a578063d65ab5f2146108c1578063dcde2519146108ec578063e985e9c514610908578063ec49e46c14610945578063f3fef3a314610982578063f8a7443c1461099e57610246565b8063a319795a146107dc578063a96f1c6914610805578063aad4df5214610830578063b88d4fde1461085b578063c87b56dd1461088457610246565b8063842005b5116100fd578063842005b5146106f757806394985ddd1461072257806395d89b411461074b578063a22cb46514610776578063a2fb11751461079f57610246565b80636352211e146105e95780636e04ff0d1461062657806370a082311461066457806371533047146106a1578063719ce73e146106cc57610246565b806341287355116101c75780634f558e791161018b5780634f558e79146104fd578063521eaea31461053a578063596a0b041461056557806360b47a5014610590578063630930ba146105ac57610246565b8063412873551461042c57806342842e0e1461045757806342966c68146104805780634585e33b146104a95780634725c409146104d257610246565b806311196afe1161020e57806311196afe1461034457806323b872dd1461036f57806329568350146103985780632b675f34146103c357806335a5cfcb1461040057610246565b806301ffc9a71461024b57806306fdde0314610288578063081812fc146102b357806308b237b5146102f0578063095ea7b31461031b575b600080fd5b34801561025757600080fd5b50610272600480360381019061026d9190614823565b6109c9565b60405161027f9190615005565b60405180910390f35b34801561029457600080fd5b5061029d610aab565b6040516102aa91906150d9565b60405180910390f35b3480156102bf57600080fd5b506102da60048036038101906102d591906148f6565b610b3d565b6040516102e79190614ed7565b60405180910390f35b3480156102fc57600080fd5b50610305610bc2565b6040516103129190615417565b60405180910390f35b34801561032757600080fd5b50610342600480360381019061033d91906146bc565b610bc8565b005b34801561035057600080fd5b50610359610ce0565b6040516103669190615417565b60405180910390f35b34801561037b57600080fd5b50610396600480360381019061039191906145b6565b610ce6565b005b3480156103a457600080fd5b506103ad610d46565b6040516103ba9190615005565b60405180910390f35b3480156103cf57600080fd5b506103ea60048036038101906103e591906148f6565b610d59565b6040516103f79190615005565b60405180910390f35b34801561040c57600080fd5b50610415610d83565b604051610423929190615469565b60405180910390f35b34801561043857600080fd5b50610441610da2565b60405161044e9190615417565b60405180910390f35b34801561046357600080fd5b5061047e600480360381019061047991906145b6565b610da8565b005b34801561048c57600080fd5b506104a760048036038101906104a291906148f6565b610dc8565b005b3480156104b557600080fd5b506104d060048036038101906104cb9190614875565b610e1d565b005b3480156104de57600080fd5b506104e7610fb5565b6040516104f49190615417565b60405180910390f35b34801561050957600080fd5b50610524600480360381019061051f91906148f6565b610fbb565b6040516105319190615005565b60405180910390f35b34801561054657600080fd5b5061054f610fcd565b60405161055c9190615417565b60405180910390f35b34801561057157600080fd5b5061057a610fd3565b6040516105879190615417565b60405180910390f35b6105aa60048036038101906105a591906148f6565b610fd9565b005b3480156105b857600080fd5b506105d360048036038101906105ce91906148f6565b611532565b6040516105e091906153fb565b60405180910390f35b3480156105f557600080fd5b50610610600480360381019061060b91906148f6565b61155d565b60405161061d9190614ed7565b60405180910390f35b34801561063257600080fd5b5061064d60048036038101906106489190614875565b61160f565b60405161065b929190615020565b60405180910390f35b34801561067057600080fd5b5061068b60048036038101906106869190614551565b6116ca565b6040516106989190615417565b60405180910390f35b3480156106ad57600080fd5b506106b6611782565b6040516106c39190615005565b60405180910390f35b3480156106d857600080fd5b506106e1611795565b6040516106ee9190615417565b60405180910390f35b34801561070357600080fd5b5061070c61179b565b6040516107199190615417565b60405180910390f35b34801561072e57600080fd5b50610749600480360381019061074491906147e7565b6117a1565b005b34801561075757600080fd5b5061076061183d565b60405161076d91906150d9565b60405180910390f35b34801561078257600080fd5b5061079d60048036038101906107989190614680565b6118cf565b005b3480156107ab57600080fd5b506107c660048036038101906107c191906148f6565b611a50565b6040516107d39190615417565b60405180910390f35b3480156107e857600080fd5b5061080360048036038101906107fe9190614721565b611a68565b005b34801561081157600080fd5b5061081a611b6c565b6040516108279190615417565b60405180910390f35b34801561083c57600080fd5b50610845611b72565b6040516108529190615417565b60405180910390f35b34801561086757600080fd5b50610882600480360381019061087d9190614605565b611b78565b005b34801561089057600080fd5b506108ab60048036038101906108a691906148f6565b611bda565b6040516108b891906150d9565b60405180910390f35b3480156108cd57600080fd5b506108d6611c81565b6040516108e39190615005565b60405180910390f35b610906600480360381019061090191906148f6565b611c94565b005b34801561091457600080fd5b5061092f600480360381019061092a919061457a565b611dc6565b60405161093c9190615005565b60405180910390f35b34801561095157600080fd5b5061096c600480360381019061096791906148f6565b611e5a565b6040516109799190615417565b60405180910390f35b61099c600480360381019061099791906148ba565b611e72565b005b3480156109aa57600080fd5b506109b36120ee565b6040516109c09190615050565b60405180910390f35b60007f80ac58cd000000000000000000000000000000000000000000000000000000007bffffffffffffffffffffffffffffffffffffffffffffffffffffffff1916827bffffffffffffffffffffffffffffffffffffffffffffffffffffffff19161480610a9457507f5b5e139f000000000000000000000000000000000000000000000000000000007bffffffffffffffffffffffffffffffffffffffffffffffffffffffff1916827bffffffffffffffffffffffffffffffffffffffffffffffffffffffff1916145b80610aa45750610aa38261210a565b5b9050919050565b606060008054610aba9061573f565b80601f0160208091040260200160405190810160405280929190818152602001828054610ae69061573f565b8015610b335780601f10610b0857610100808354040283529160200191610b33565b820191906000526020600020905b815481529060010190602001808311610b1657829003601f168201915b5050505050905090565b6000610b4882612174565b610b87576040517f08c379a0000000000000000000000000000000000000000000000000000000008152600401610b7e906152db565b60405180910390fd5b6004600083815260200190815260200160002060009054906101000a900473ffffffffffffffffffffffffffffffffffffffff169050919050565b600a5481565b6000610bd38261155d565b90508073ffffffffffffffffffffffffffffffffffffffff168373ffffffffffffffffffffffffffffffffffffffff161415610c44576040517f08c379a0000000000000000000000000000000000000000000000000000000008152600401610c3b9061535b565b60405180910390fd5b8073ffffffffffffffffffffffffffffffffffffffff16610c636121e0565b73ffffffffffffffffffffffffffffffffffffffff161480610c925750610c9181610c8c6121e0565b611dc6565b5b610cd1576040517f08c379a0000000000000000000000000000000000000000000000000000000008152600401610cc89061523b565b60405180910390fd5b610cdb83836121e8565b505050565b600c5481565b610cf7610cf16121e0565b826122a1565b610d36576040517f08c379a0000000000000000000000000000000000000000000000000000000008152600401610d2d9061539b565b60405180910390fd5b610d4183838361237f565b505050565b600f60019054906101000a900460ff1681565b6000610d7c601a600084815260200190815260200160002054601c600e546125db565b9050919050565b600080610d90600861307d565b9150610d9c600761307d565b90509091565b60155481565b610dc383838360405180602001604052806000815250611b78565b505050565b610dd233826122a1565b610e11576040517f08c379a0000000000000000000000000000000000000000000000000000000008152600401610e089061537b565b60405180910390fd5b610e1a8161308b565b50565b600c54601254610e2d9190615558565b42118015610e535750600954601154610e46600761307d565b610e509190615639565b10155b610e92576040517f08c379a0000000000000000000000000000000000000000000000000000000008152600401610e899061521b565b60405180910390fd5b6018547f000000000000000000000000000000000000000000000000000000000000000073ffffffffffffffffffffffffffffffffffffffff166370a08231306040518263ffffffff1660e01b8152600401610eee9190614ed7565b60206040518083038186803b158015610f0657600080fd5b505afa158015610f1a573d6000803e3d6000fd5b505050506040513d601f19601f82011682018060405250810190610f3e919061491f565b1015610f7f576040517f08c379a0000000000000000000000000000000000000000000000000000000008152600401610f76906152bb565b60405180910390fd5b6000610f8961319c565b90506000811415610fb05742601281905550610fa960175460185461341d565b6013819055505b505050565b60095481565b6000610fc682612174565b9050919050565b600b5481565b60125481565b600a8111158015610ff65750600f60009054906101000a900460ff165b801561102c5750600a5460115461101f83611011600761307d565b61357f90919063ffffffff16565b6110299190615639565b11155b61106b576040517f08c379a00000000000000000000000000000000000000000000000000000000081526004016110629061517b565b60405180910390fd5b8060185461107991906155df565b7f000000000000000000000000000000000000000000000000000000000000000073ffffffffffffffffffffffffffffffffffffffff166370a08231306040518263ffffffff1660e01b81526004016110d29190614ed7565b60206040518083038186803b1580156110ea57600080fd5b505afa1580156110fe573d6000803e3d6000fd5b505050506040513d601f19601f82011682018060405250810190611122919061491f565b1015611163576040517f08c379a000000000000000000000000000000000000000000000000000000000815260040161115a906152bb565b60405180910390fd5b60003411156111fa573461118282600b5461359590919063ffffffff16565b11156111c3576040517f08c379a00000000000000000000000000000000000000000000000000000000081526004016111ba906153bb565b60405180910390fd5b6000600d5411156111f557600d54346111dc91906155ae565b601460008282546111ed9190615558565b925050819055505b6114c5565b8068d8d726b7177a80000061120f91906155df565b600f60029054906101000a900473ffffffffffffffffffffffffffffffffffffffff1673ffffffffffffffffffffffffffffffffffffffff166370a08231336040518263ffffffff1660e01b815260040161126a9190614ed7565b60206040518083038186803b15801561128257600080fd5b505afa158015611296573d6000803e3d6000fd5b505050506040513d601f19601f820116820180604052508101906112ba919061491f565b10156112fb576040517f08c379a00000000000000000000000000000000000000000000000000000000081526004016112f29061515b565b60405180910390fd5b8068d8d726b7177a80000061131091906155df565b600f60029054906101000a900473ffffffffffffffffffffffffffffffffffffffff1673ffffffffffffffffffffffffffffffffffffffff1663dd62ed3e33306040518363ffffffff1660e01b815260040161136d929190614ef2565b60206040518083038186803b15801561138557600080fd5b505afa158015611399573d6000803e3d6000fd5b505050506040513d601f19601f820116820180604052508101906113bd919061491f565b10156113fe576040517f08c379a00000000000000000000000000000000000000000000000000000000081526004016113f5906153db565b60405180910390fd5b600f60029054906101000a900473ffffffffffffffffffffffffffffffffffffffff1673ffffffffffffffffffffffffffffffffffffffff166323b872dd33308468d8d726b7177a80000061145391906155df565b6040518463ffffffff1660e01b815260040161147193929190614f1b565b602060405180830381600087803b15801561148b57600080fd5b505af115801561149f573d6000803e3d6000fd5b505050506040513d601f19601f820116820180604052508101906114c391906146f8565b505b600080600090505b8281101561152d576114df60076120f4565b6114e9600761307d565b91506114f533836135ab565b816019600061150860175460185461341d565b8152602001908152602001600020819055508080611525906157a2565b9150506114cd565b505050565b61153a614322565b611556601a6000848152602001908152602001600020546135c9565b9050919050565b6000806002600084815260200190815260200160002060009054906101000a900473ffffffffffffffffffffffffffffffffffffffff169050600073ffffffffffffffffffffffffffffffffffffffff168173ffffffffffffffffffffffffffffffffffffffff161415611606576040517f08c379a00000000000000000000000000000000000000000000000000000000081526004016115fd9061527b565b60405180910390fd5b80915050919050565b60006060600954601154611623600761307d565b61162d9190615639565b1015801561167a5750600c546012546116469190615558565b421180156116615750601660009054906101000a900460ff16155b80156116795750600f60009054906101000a900460ff165b5b915083838080601f016020809104026020016040519081016040528093929190818152602001838380828437600081840152601f19601f8201169050808301925050505050505090509250929050565b60008073ffffffffffffffffffffffffffffffffffffffff168273ffffffffffffffffffffffffffffffffffffffff16141561173b576040517f08c379a00000000000000000000000000000000000000000000000000000000081526004016117329061525b565b60405180910390fd5b600360008373ffffffffffffffffffffffffffffffffffffffff1673ffffffffffffffffffffffffffffffffffffffff168152602001908152602001600020549050919050565b601660009054906101000a900460ff1681565b60145481565b60115481565b7f000000000000000000000000000000000000000000000000000000000000000073ffffffffffffffffffffffffffffffffffffffff163373ffffffffffffffffffffffffffffffffffffffff161461182f576040517f08c379a00000000000000000000000000000000000000000000000000000000081526004016118269061533b565b60405180910390fd5b61183982826137d4565b5050565b60606001805461184c9061573f565b80601f01602080910402602001604051908101604052809291908181526020018280546118789061573f565b80156118c55780601f1061189a576101008083540402835291602001916118c5565b820191906000526020600020905b8154815290600101906020018083116118a857829003601f168201915b5050505050905090565b6118d76121e0565b73ffffffffffffffffffffffffffffffffffffffff168273ffffffffffffffffffffffffffffffffffffffff161415611945576040517f08c379a000000000000000000000000000000000000000000000000000000000815260040161193c906151bb565b60405180910390fd5b80600560006119526121e0565b73ffffffffffffffffffffffffffffffffffffffff1673ffffffffffffffffffffffffffffffffffffffff16815260200190815260200160002060008473ffffffffffffffffffffffffffffffffffffffff1673ffffffffffffffffffffffffffffffffffffffff16815260200190815260200160002060006101000a81548160ff0219169083151502179055508173ffffffffffffffffffffffffffffffffffffffff166119ff6121e0565b73ffffffffffffffffffffffffffffffffffffffff167f17307eab39ab6107e8899845ad3d59bd9653f200f220920489ca2b5937696c3183604051611a449190615005565b60405180910390a35050565b601b6020528060005260406000206000915090505481565b601060009054906101000a900473ffffffffffffffffffffffffffffffffffffffff1673ffffffffffffffffffffffffffffffffffffffff163373ffffffffffffffffffffffffffffffffffffffff1614611ac257600080fd5b88600f60006101000a81548160ff02191690831515021790555087600f60016101000a81548160ff02191690831515021790555086600c819055508560098190555084600a8190555083600b8190555082600d8190555081600e8190555080601060006101000a81548173ffffffffffffffffffffffffffffffffffffffff021916908373ffffffffffffffffffffffffffffffffffffffff160217905550505050505050505050565b600e5481565b600d5481565b611b89611b836121e0565b836122a1565b611bc8576040517f08c379a0000000000000000000000000000000000000000000000000000000008152600401611bbf9061539b565b60405180910390fd5b611bd484848484613a35565b50505050565b6060611be582612174565b611c24576040517f08c379a0000000000000000000000000000000000000000000000000000000008152600401611c1b9061531b565b60405180910390fd5b6000611c2e613a91565b90506000815111611c4e5760405180602001604052806000815250611c79565b80611c5884613ab1565b604051602001611c69929190614eb3565b6040516020818303038152906040525b915050919050565b600f60009054906101000a900460ff1681565b6000601b600083815260200190815260200160002054118015611cea57503373ffffffffffffffffffffffffffffffffffffffff16611cd28261155d565b73ffffffffffffffffffffffffffffffffffffffff16145b611d29576040517f08c379a0000000000000000000000000000000000000000000000000000000008152600401611d20906150fb565b60405180910390fd5b3373ffffffffffffffffffffffffffffffffffffffff166108fc601b6000848152602001908152602001600020549081150290604051600060405180830381858888f19350505050158015611d82573d6000803e3d6000fd5b50601b600082815260200190815260200160002054601554611da49190615639565b6015819055506000601b60008381526020019081526020016000208190555050565b6000600560008473ffffffffffffffffffffffffffffffffffffffff1673ffffffffffffffffffffffffffffffffffffffff16815260200190815260200160002060008373ffffffffffffffffffffffffffffffffffffffff1673ffffffffffffffffffffffffffffffffffffffff16815260200190815260200160002060009054906101000a900460ff16905092915050565b601a6020528060005260406000206000915090505481565b601060009054906101000a900473ffffffffffffffffffffffffffffffffffffffff1673ffffffffffffffffffffffffffffffffffffffff163373ffffffffffffffffffffffffffffffffffffffff1614611ecc57600080fd5b6000811115611f68578173ffffffffffffffffffffffffffffffffffffffff1663a9059cbb33836040518363ffffffff1660e01b8152600401611f10929190614f9e565b602060405180830381600087803b158015611f2a57600080fd5b505af1158015611f3e573d6000803e3d6000fd5b505050506040513d601f19601f82011682018060405250810190611f6291906146f8565b506120ea565b6000611f9f6004611f91601554601454611f829190615558565b47613c5e90919063ffffffff16565b613c7490919063ffffffff16565b905072796e910bd0228ddf4cd79e3f353871a61c351c73ffffffffffffffffffffffffffffffffffffffff166108fc829081150290604051600060405180830381858888f19350505050611ff257600080fd5b737fc55376d5a29e0ee86c18c81bb2fc8f9f490e5073ffffffffffffffffffffffffffffffffffffffff166108fc829081150290604051600060405180830381858888f1935050505061204457600080fd5b73b58fb5372e9aa0c86c3b281179c05af3bb7a181b73ffffffffffffffffffffffffffffffffffffffff166108fc829081150290604051600060405180830381858888f1935050505061209657600080fd5b73d83dd8a288270512b8a46f581a8254cd971dcb0973ffffffffffffffffffffffffffffffffffffffff166108fc829081150290604051600060405180830381858888f193505050506120e857600080fd5b505b5050565b60135481565b6001816000016000828254019250508190555050565b60007f01ffc9a7000000000000000000000000000000000000000000000000000000007bffffffffffffffffffffffffffffffffffffffffffffffffffffffff1916827bffffffffffffffffffffffffffffffffffffffffffffffffffffffff1916149050919050565b60008073ffffffffffffffffffffffffffffffffffffffff166002600084815260200190815260200160002060009054906101000a900473ffffffffffffffffffffffffffffffffffffffff1673ffffffffffffffffffffffffffffffffffffffff1614159050919050565b600033905090565b816004600083815260200190815260200160002060006101000a81548173ffffffffffffffffffffffffffffffffffffffff021916908373ffffffffffffffffffffffffffffffffffffffff160217905550808273ffffffffffffffffffffffffffffffffffffffff1661225b8361155d565b73ffffffffffffffffffffffffffffffffffffffff167f8c5be1e5ebec7d5bd14f71427d1e84f3dd0314c0f7b2291e5b200ac8c7c3b92560405160405180910390a45050565b60006122ac82612174565b6122eb576040517f08c379a00000000000000000000000000000000000000000000000000000000081526004016122e2906151fb565b60405180910390fd5b60006122f68361155d565b90508073ffffffffffffffffffffffffffffffffffffffff168473ffffffffffffffffffffffffffffffffffffffff16148061236557508373ffffffffffffffffffffffffffffffffffffffff1661234d84610b3d565b73ffffffffffffffffffffffffffffffffffffffff16145b8061237657506123758185611dc6565b5b91505092915050565b8273ffffffffffffffffffffffffffffffffffffffff1661239f8261155d565b73ffffffffffffffffffffffffffffffffffffffff16146123f5576040517f08c379a00000000000000000000000000000000000000000000000000000000081526004016123ec906152fb565b60405180910390fd5b600073ffffffffffffffffffffffffffffffffffffffff168273ffffffffffffffffffffffffffffffffffffffff161415612465576040517f08c379a000000000000000000000000000000000000000000000000000000000815260040161245c9061519b565b60405180910390fd5b612470838383613c8a565b61247b6000826121e8565b6001600360008573ffffffffffffffffffffffffffffffffffffffff1673ffffffffffffffffffffffffffffffffffffffff16815260200190815260200160002060008282546124cb9190615639565b925050819055506001600360008473ffffffffffffffffffffffffffffffffffffffff1673ffffffffffffffffffffffffffffffffffffffff16815260200190815260200160002060008282546125229190615558565b92505081905550816002600083815260200190815260200160002060006101000a81548173ffffffffffffffffffffffffffffffffffffffff021916908373ffffffffffffffffffffffffffffffffffffffff160217905550808273ffffffffffffffffffffffffffffffffffffffff168473ffffffffffffffffffffffffffffffffffffffff167fddf252ad1be2c89b69c2b068fc378daa952ba7f163c4a11628f55a4df523b3ef60405160405180910390a4505050565b6000806125e7856135c9565b90506125f161436f565b60005b60058110156127bd576040518060a0016040528084600001518360058110612645577f4e487b7100000000000000000000000000000000000000000000000000000000600052603260045260246000fd5b602002015181526020018460200151836005811061268c577f4e487b7100000000000000000000000000000000000000000000000000000000600052603260045260246000fd5b60200201518152602001846040015183600581106126d3577f4e487b7100000000000000000000000000000000000000000000000000000000600052603260045260246000fd5b602002015181526020018460600151836005811061271a577f4e487b7100000000000000000000000000000000000000000000000000000000600052603260045260246000fd5b6020020151815260200184608001518360058110612761577f4e487b7100000000000000000000000000000000000000000000000000000000600052603260045260246000fd5b60200201518152508282600d81106127a2577f4e487b7100000000000000000000000000000000000000000000000000000000600052603260045260246000fd5b602002018190525080806127b5906157a2565b9150506125f4565b8260000151826005600d81106127fc577f4e487b7100000000000000000000000000000000000000000000000000000000600052603260045260246000fd5b60200201819052508260200151826006600d8110612843577f4e487b7100000000000000000000000000000000000000000000000000000000600052603260045260246000fd5b60200201819052508260400151826007600d811061288a577f4e487b7100000000000000000000000000000000000000000000000000000000600052603260045260246000fd5b60200201819052508260600151826008600d81106128d1577f4e487b7100000000000000000000000000000000000000000000000000000000600052603260045260246000fd5b60200201819052508260800151826009600d8110612918577f4e487b7100000000000000000000000000000000000000000000000000000000600052603260045260246000fd5b60200201819052506040518060a001604052808460000151600060058110612969577f4e487b7100000000000000000000000000000000000000000000000000000000600052603260045260246000fd5b6020020151815260200184602001516001600581106129b1577f4e487b7100000000000000000000000000000000000000000000000000000000600052603260045260246000fd5b6020020151815260200184604001516002600581106129f9577f4e487b7100000000000000000000000000000000000000000000000000000000600052603260045260246000fd5b602002015181526020018460600151600360058110612a41577f4e487b7100000000000000000000000000000000000000000000000000000000600052603260045260246000fd5b602002015181526020018460800151600460058110612a89577f4e487b7100000000000000000000000000000000000000000000000000000000600052603260045260246000fd5b602002015181525082600a600d8110612acb577f4e487b7100000000000000000000000000000000000000000000000000000000600052603260045260246000fd5b60200201819052506040518060a001604052808460000151600460058110612b1c577f4e487b7100000000000000000000000000000000000000000000000000000000600052603260045260246000fd5b602002015181526020018460200151600360058110612b64577f4e487b7100000000000000000000000000000000000000000000000000000000600052603260045260246000fd5b602002015181526020018460400151600260058110612bac577f4e487b7100000000000000000000000000000000000000000000000000000000600052603260045260246000fd5b602002015181526020018460600151600160058110612bf4577f4e487b7100000000000000000000000000000000000000000000000000000000600052603260045260246000fd5b602002015181526020018460800151600060058110612c3c577f4e487b7100000000000000000000000000000000000000000000000000000000600052603260045260246000fd5b602002015181525082600b600d8110612c7e577f4e487b7100000000000000000000000000000000000000000000000000000000600052603260045260246000fd5b60200201819052506040518060a001604052808460000151600060058110612ccf577f4e487b7100000000000000000000000000000000000000000000000000000000600052603260045260246000fd5b602002015181526020018460800151600060058110612d17577f4e487b7100000000000000000000000000000000000000000000000000000000600052603260045260246000fd5b602002015181526020018460000151600460058110612d5f577f4e487b7100000000000000000000000000000000000000000000000000000000600052603260045260246000fd5b602002015181526020018460800151600460058110612da7577f4e487b7100000000000000000000000000000000000000000000000000000000600052603260045260246000fd5b602002015181526020018460000151600060058110612def577f4e487b7100000000000000000000000000000000000000000000000000000000600052603260045260246000fd5b602002015181525082600c600d8110612e31577f4e487b7100000000000000000000000000000000000000000000000000000000600052603260045260246000fd5b602002018190525060009350600080600080600094505b600d85101561306f5760009050600091505b6005821015612fcc578960008787600d8110612e9f577f4e487b7100000000000000000000000000000000000000000000000000000000600052603260045260246000fd5b60200201518460058110612edc577f4e487b7100000000000000000000000000000000000000000000000000000000600052603260045260246000fd5b6020020151815260200190815260200160002060009054906101000a900460ff1680612f82575060638686600d8110612f3e577f4e487b7100000000000000000000000000000000000000000000000000000000600052603260045260246000fd5b60200201518360058110612f7b577f4e487b7100000000000000000000000000000000000000000000000000000000600052603260045260246000fd5b6020020151145b15612fb9578080612f92906157a2565b915050600a851480612fa45750600b85145b15612fb8578380612fb4906157a2565b9450505b5b8180612fc4906157a2565b925050612e5a565b6005811415612fe4578280612fe0906157a2565b9350505b600189148015612ff45750600581145b80156130015750600c8514155b8061301857506002891480156130175750600a84145b5b8061302f575060038914801561302e5750600c83145b5b8061305257506004891480156130455750600581145b80156130515750600c85145b5b1561305c57600197505b8480613067906157a2565b955050612e48565b505050505050509392505050565b600081600001549050919050565b60006130968261155d565b90506130a481600084613c8a565b6130af6000836121e8565b6001600360008373ffffffffffffffffffffffffffffffffffffffff1673ffffffffffffffffffffffffffffffffffffffff16815260200190815260200160002060008282546130ff9190615639565b925050819055506002600083815260200190815260200160002060006101000a81549073ffffffffffffffffffffffffffffffffffffffff021916905581600073ffffffffffffffffffffffffffffffffffffffff168273ffffffffffffffffffffffffffffffffffffffff167fddf252ad1be2c89b69c2b068fc378daa952ba7f163c4a11628f55a4df523b3ef60405160405180910390a45050565b60006060600060016011546131b19190615558565b90505b6131be600761307d565b8111613252576131e5601a600083815260200190815260200160002054601c600e546125db565b1561323f5780828481518110613224577f4e487b7100000000000000000000000000000000000000000000000000000000600052603260045260246000fd5b602002602001018181525050828061323b906157a2565b9350505b808061324a906157a2565b9150506131b4565b5060008211156134195760005b8281101561335a5760008282815181106132a2577f4e487b7100000000000000000000000000000000000000000000000000000000600052603260045260246000fd5b602002602001015190506132c184601454613c7490919063ffffffff16565b601b600083815260200190815260200160002081905550601b600082815260200190815260200160002054601560008282546132fd9190615558565b925050819055507f0c2d6c35fd2564fbc84ffefe68e7dbde67499851cca244dbbe1b09ce8d3d363861332f600861307d565b8260405161333e929190615469565b60405180910390a1508080613352906157a2565b91505061325f565b50600060148190555061336d60086120f4565b426012819055506000601660006101000a81548160ff021916908315150217905550613399600761307d565b601181905550600f60019054906101000a900460ff16600f60006101000a81548160ff0219169083151502179055506000600190505b604c811015613417576000601c600083815260200190815260200160002060006101000a81548160ff021916908315150217905550808061340f906157a2565b9150506133cf565b505b5090565b60007f000000000000000000000000000000000000000000000000000000000000000073ffffffffffffffffffffffffffffffffffffffff16634000aea07f00000000000000000000000000000000000000000000000000000000000000008486600060405160200161349192919061506b565b6040516020818303038152906040526040518463ffffffff1660e01b81526004016134be93929190614fc7565b602060405180830381600087803b1580156134d857600080fd5b505af11580156134ec573d6000803e3d6000fd5b505050506040513d601f19601f8201168201806040525081019061351091906146f8565b506000613533846000306006600089815260200190815260200160002054613c8f565b9050600160066000868152602001908152602001600020546135559190615558565b60066000868152602001908152602001600020819055506135768482613ccb565b91505092915050565b6000818361358d9190615558565b905092915050565b600081836135a391906155df565b905092915050565b6135c5828260405180602001604052806000815250613cfe565b5050565b6135d1614322565b60008214156135df576137cf565b6135e761439d565b600080600090505b60058110156137cb5761362c858260405160200161360e929190615469565b6040516020818303038152906040528051906020012060001c613d59565b9250600091505b60058210156137455760028114801561364c5750600282145b1561369a57606383836005811061368c577f4e487b7100000000000000000000000000000000000000000000000000000000600052603260045260246000fd5b602002018181525050613732565b600f816136a791906155df565b8383600581106136e0577f4e487b7100000000000000000000000000000000000000000000000000000000600052603260045260246000fd5b60200201516136ef9190615558565b838360058110613728577f4e487b7100000000000000000000000000000000000000000000000000000000600052603260045260246000fd5b6020020181815250505b818061373d906157a2565b925050613633565b600081141561375c578284600001819052506137b8565b6001811415613773578284602001819052506137b7565b600281141561378a578284604001819052506137b6565b60038114156137a1578284606001819052506137b5565b60048114156137b4578284608001819052505b5b5b5b5b80806137c3906157a2565b9150506135ef565b5050505b919050565b601354821415613957576013548214613822576040517f08c379a0000000000000000000000000000000000000000000000000000000008152600401613819906151db565b60405180910390fd5b600080600090505b604c8110156139465761386c600161385e604b613850858861357f90919063ffffffff16565b613f9490919063ffffffff16565b61357f90919063ffffffff16565b915060001515601c600084815260200190815260200160002060009054906101000a900460ff161515141561390e576001601c600084815260200190815260200160002060006101000a81548160ff0219169083151502179055507fd85a895f825d2064ec30917b67b720684fafc60d3c7e8c33b9d1abd623b0cb6d6138f2600861307d565b83604051613901929190615469565b60405180910390a1613946565b604b811415613933576001601660006101000a81548160ff0219169083151502179055505b808061393e906157a2565b91505061382a565b506000801b60138190555050613a31565b600060196000848152602001908152602001600020549050600081116139b2576040517f08c379a00000000000000000000000000000000000000000000000000000000081526004016139a99061537b565b60405180910390fd5b81601a600083815260200190815260200160002081905550600060196000858152602001908152602001600020819055507ff4667020580928dc83ab932094d72fc76e1b38d5d661a420dc5b5aea7de31ee3613a0e600861307d565b613a178361155d565b83604051613a2793929190615432565b60405180910390a1505b5050565b613a4084848461237f565b613a4c84848484613faa565b613a8b576040517f08c379a0000000000000000000000000000000000000000000000000000000008152600401613a829061511b565b60405180910390fd5b50505050565b6060604051806060016040528060258152602001615f0260259139905090565b60606000821415613af9576040518060400160405280600181526020017f30000000000000000000000000000000000000000000000000000000000000008152509050613c59565b600082905060005b60008214613b2b578080613b14906157a2565b915050600a82613b2491906155ae565b9150613b01565b60008167ffffffffffffffff811115613b6d577f4e487b7100000000000000000000000000000000000000000000000000000000600052604160045260246000fd5b6040519080825280601f01601f191660200182016040528015613b9f5781602001600182028036833780820191505090505b5090505b60008514613c5257600182613bb89190615639565b9150600a85613bc791906157ff565b6030613bd39190615558565b60f81b818381518110613c0f577f4e487b7100000000000000000000000000000000000000000000000000000000600052603260045260246000fd5b60200101907effffffffffffffffffffffffffffffffffffffffffffffffffffffffffffff1916908160001a905350600a85613c4b91906155ae565b9450613ba3565b8093505050505b919050565b60008183613c6c9190615639565b905092915050565b60008183613c8291906155ae565b905092915050565b505050565b600084848484604051602001613ca89493929190615094565b6040516020818303038152906040528051906020012060001c9050949350505050565b60008282604051602001613ce0929190614e87565b60405160208183030381529060405280519060200120905092915050565b613d088383614141565b613d156000848484613faa565b613d54576040517f08c379a0000000000000000000000000000000000000000000000000000000008152600401613d4b9061511b565b60405180910390fd5b505050565b613d6161439d565b613d696143bf565b60005b600f811015613dd757600181613d829190615558565b8282600f8110613dbb577f4e487b7100000000000000000000000000000000000000000000000000000000600052603260045260246000fd5b6020020181815250508080613dcf906157a2565b915050613d6c565b50600080600090505b6005811015613f8c57613e3f816001613df99190615558565b600f613e059190615639565b8683604051602001613e18929190615469565b6040516020818303038152906040528051906020012060001c613f9490919063ffffffff16565b91508282600f8110613e7a577f4e487b7100000000000000000000000000000000000000000000000000000000600052603260045260246000fd5b6020020151848260058110613eb8577f4e487b7100000000000000000000000000000000000000000000000000000000600052603260045260246000fd5b602002018181525050806001613ece9190615558565b600f613eda9190615639565b8214613f795782816001613eee9190615558565b600f613efa9190615639565b600f8110613f31577f4e487b7100000000000000000000000000000000000000000000000000000000600052603260045260246000fd5b60200201518383600f8110613f6f577f4e487b7100000000000000000000000000000000000000000000000000000000600052603260045260246000fd5b6020020181815250505b8080613f84906157a2565b915050613de0565b505050919050565b60008183613fa291906157ff565b905092915050565b6000613fcb8473ffffffffffffffffffffffffffffffffffffffff1661430f565b15614134578373ffffffffffffffffffffffffffffffffffffffff1663150b7a02613ff46121e0565b8786866040518563ffffffff1660e01b81526004016140169493929190614f52565b602060405180830381600087803b15801561403057600080fd5b505af192505050801561406157506040513d601f19601f8201168201806040525081019061405e919061484c565b60015b6140e4573d8060008114614091576040519150601f19603f3d011682016040523d82523d6000602084013e614096565b606091505b506000815114156140dc576040517f08c379a00000000000000000000000000000000000000000000000000000000081526004016140d39061511b565b60405180910390fd5b805181602001fd5b63150b7a0260e01b7bffffffffffffffffffffffffffffffffffffffffffffffffffffffff1916817bffffffffffffffffffffffffffffffffffffffffffffffffffffffff191614915050614139565b600190505b949350505050565b600073ffffffffffffffffffffffffffffffffffffffff168273ffffffffffffffffffffffffffffffffffffffff1614156141b1576040517f08c379a00000000000000000000000000000000000000000000000000000000081526004016141a89061529b565b60405180910390fd5b6141ba81612174565b156141fa576040517f08c379a00000000000000000000000000000000000000000000000000000000081526004016141f19061513b565b60405180910390fd5b61420660008383613c8a565b6001600360008473ffffffffffffffffffffffffffffffffffffffff1673ffffffffffffffffffffffffffffffffffffffff16815260200190815260200160002060008282546142569190615558565b92505081905550816002600083815260200190815260200160002060006101000a81548173ffffffffffffffffffffffffffffffffffffffff021916908373ffffffffffffffffffffffffffffffffffffffff160217905550808273ffffffffffffffffffffffffffffffffffffffff16600073ffffffffffffffffffffffffffffffffffffffff167fddf252ad1be2c89b69c2b068fc378daa952ba7f163c4a11628f55a4df523b3ef60405160405180910390a45050565b600080823b905060008111915050919050565b6040518060a0016040528061433561439d565b815260200161434261439d565b815260200161434f61439d565b815260200161435c61439d565b815260200161436961439d565b81525090565b604051806101a00160405280600d905b61438761439d565b81526020019060019003908161437f5790505090565b6040518060a00160405280600590602082028036833780820191505090505090565b604051806101e00160405280600f90602082028036833780820191505090505090565b60006143f56143f0846154b7565b615492565b90508281526020810184848401111561440d57600080fd5b6144188482856156fd565b509392505050565b60008135905061442f81615e77565b92915050565b60008135905061444481615e8e565b92915050565b60008151905061445981615e8e565b92915050565b60008135905061446e81615ea5565b92915050565b60008135905061448381615ebc565b92915050565b60008151905061449881615ebc565b92915050565b60008083601f8401126144b057600080fd5b8235905067ffffffffffffffff8111156144c957600080fd5b6020830191508360018202830111156144e157600080fd5b9250929050565b600082601f8301126144f957600080fd5b81356145098482602086016143e2565b91505092915050565b60008135905061452181615ed3565b92915050565b60008135905061453681615eea565b92915050565b60008151905061454b81615eea565b92915050565b60006020828403121561456357600080fd5b600061457184828501614420565b91505092915050565b6000806040838503121561458d57600080fd5b600061459b85828601614420565b92505060206145ac85828601614420565b9150509250929050565b6000806000606084860312156145cb57600080fd5b60006145d986828701614420565b93505060206145ea86828701614420565b92505060406145fb86828701614527565b9150509250925092565b6000806000806080858703121561461b57600080fd5b600061462987828801614420565b945050602061463a87828801614420565b935050604061464b87828801614527565b925050606085013567ffffffffffffffff81111561466857600080fd5b614674878288016144e8565b91505092959194509250565b6000806040838503121561469357600080fd5b60006146a185828601614420565b92505060206146b285828601614435565b9150509250929050565b600080604083850312156146cf57600080fd5b60006146dd85828601614420565b92505060206146ee85828601614527565b9150509250929050565b60006020828403121561470a57600080fd5b60006147188482850161444a565b91505092915050565b60008060008060008060008060006101208a8c03121561474057600080fd5b600061474e8c828d01614435565b995050602061475f8c828d01614435565b98505060406147708c828d01614527565b97505060606147818c828d01614527565b96505060806147928c828d01614527565b95505060a06147a38c828d01614527565b94505060c06147b48c828d01614527565b93505060e06147c58c828d01614527565b9250506101006147d78c828d01614420565b9150509295985092959850929598565b600080604083850312156147fa57600080fd5b60006148088582860161445f565b925050602061481985828601614527565b9150509250929050565b60006020828403121561483557600080fd5b600061484384828501614474565b91505092915050565b60006020828403121561485e57600080fd5b600061486c84828501614489565b91505092915050565b6000806020838503121561488857600080fd5b600083013567ffffffffffffffff8111156148a257600080fd5b6148ae8582860161449e565b92509250509250929050565b600080604083850312156148cd57600080fd5b60006148db85828601614512565b92505060206148ec85828601614527565b9150509250929050565b60006020828403121561490857600080fd5b600061491684828501614527565b91505092915050565b60006020828403121561493157600080fd5b600061493f8482850161453c565b91505092915050565b60006149548383614e52565b60208301905092915050565b6149698161566d565b82525050565b614978816154f2565b6149828184615520565b925061498d826154e8565b8060005b838110156149be5781516149a58782614948565b96506149b083615513565b925050600181019050614991565b505050505050565b6149cf8161567f565b82525050565b6149de8161568b565b82525050565b6149f56149f08261568b565b6157eb565b82525050565b6000614a06826154fd565b614a10818561552b565b9350614a2081856020860161570c565b614a29816158ec565b840191505092915050565b6000614a3f82615508565b614a49818561553c565b9350614a5981856020860161570c565b614a62816158ec565b840191505092915050565b6000614a7882615508565b614a82818561554d565b9350614a9281856020860161570c565b80840191505092915050565b6000614aab60018361553c565b9150614ab6826158fd565b602082019050919050565b6000614ace60328361553c565b9150614ad982615926565b604082019050919050565b6000614af1601c8361553c565b9150614afc82615975565b602082019050919050565b6000614b1460028361553c565b9150614b1f8261599e565b602082019050919050565b6000614b3760018361553c565b9150614b42826159c7565b602082019050919050565b6000614b5a60248361553c565b9150614b65826159f0565b604082019050919050565b6000614b7d60198361553c565b9150614b8882615a3f565b602082019050919050565b6000614ba060028361553c565b9150614bab82615a68565b602082019050919050565b6000614bc3602c8361553c565b9150614bce82615a91565b604082019050919050565b6000614be660028361553c565b9150614bf182615ae0565b602082019050919050565b6000614c0960388361553c565b9150614c1482615b09565b604082019050919050565b6000614c2c602a8361553c565b9150614c3782615b58565b604082019050919050565b6000614c4f60298361553c565b9150614c5a82615ba7565b604082019050919050565b6000614c7260208361553c565b9150614c7d82615bf6565b602082019050919050565b6000614c9560018361553c565b9150614ca082615c1f565b602082019050919050565b6000614cb8602c8361553c565b9150614cc382615c48565b604082019050919050565b6000614cdb60298361553c565b9150614ce682615c97565b604082019050919050565b6000614cfe602f8361553c565b9150614d0982615ce6565b604082019050919050565b6000614d21601f8361553c565b9150614d2c82615d35565b602082019050919050565b6000614d4460218361553c565b9150614d4f82615d5e565b604082019050919050565b6000614d6760028361553c565b9150614d7282615dad565b602082019050919050565b6000614d8a60318361553c565b9150614d9582615dd6565b604082019050919050565b6000614dad60028361553c565b9150614db882615e25565b602082019050919050565b6000614dd060028361553c565b9150614ddb82615e4e565b602082019050919050565b61032082016000820151614dfd600085018261496f565b506020820151614e1060a085018261496f565b506040820151614e2461014085018261496f565b506060820151614e386101e085018261496f565b506080820151614e4c61028085018261496f565b50505050565b614e5b816156f3565b82525050565b614e6a816156f3565b82525050565b614e81614e7c826156f3565b6157f5565b82525050565b6000614e9382856149e4565b602082019150614ea38284614e70565b6020820191508190509392505050565b6000614ebf8285614a6d565b9150614ecb8284614a6d565b91508190509392505050565b6000602082019050614eec6000830184614960565b92915050565b6000604082019050614f076000830185614960565b614f146020830184614960565b9392505050565b6000606082019050614f306000830186614960565b614f3d6020830185614960565b614f4a6040830184614e61565b949350505050565b6000608082019050614f676000830187614960565b614f746020830186614960565b614f816040830185614e61565b8181036060830152614f9381846149fb565b905095945050505050565b6000604082019050614fb36000830185614960565b614fc06020830184614e61565b9392505050565b6000606082019050614fdc6000830186614960565b614fe96020830185614e61565b8181036040830152614ffb81846149fb565b9050949350505050565b600060208201905061501a60008301846149c6565b92915050565b600060408201905061503560008301856149c6565b818103602083015261504781846149fb565b90509392505050565b600060208201905061506560008301846149d5565b92915050565b600060408201905061508060008301856149d5565b61508d6020830184614e61565b9392505050565b60006080820190506150a960008301876149d5565b6150b66020830186614e61565b6150c36040830185614960565b6150d06060830184614e61565b95945050505050565b600060208201905081810360008301526150f38184614a34565b905092915050565b6000602082019050818103600083015261511481614a9e565b9050919050565b6000602082019050818103600083015261513481614ac1565b9050919050565b6000602082019050818103600083015261515481614ae4565b9050919050565b6000602082019050818103600083015261517481614b07565b9050919050565b6000602082019050818103600083015261519481614b2a565b9050919050565b600060208201905081810360008301526151b481614b4d565b9050919050565b600060208201905081810360008301526151d481614b70565b9050919050565b600060208201905081810360008301526151f481614b93565b9050919050565b6000602082019050818103600083015261521481614bb6565b9050919050565b6000602082019050818103600083015261523481614bd9565b9050919050565b6000602082019050818103600083015261525481614bfc565b9050919050565b6000602082019050818103600083015261527481614c1f565b9050919050565b6000602082019050818103600083015261529481614c42565b9050919050565b600060208201905081810360008301526152b481614c65565b9050919050565b600060208201905081810360008301526152d481614c88565b9050919050565b600060208201905081810360008301526152f481614cab565b9050919050565b6000602082019050818103600083015261531481614cce565b9050919050565b6000602082019050818103600083015261533481614cf1565b9050919050565b6000602082019050818103600083015261535481614d14565b9050919050565b6000602082019050818103600083015261537481614d37565b9050919050565b6000602082019050818103600083015261539481614d5a565b9050919050565b600060208201905081810360008301526153b481614d7d565b9050919050565b600060208201905081810360008301526153d481614da0565b9050919050565b600060208201905081810360008301526153f481614dc3565b9050919050565b6000610320820190506154116000830184614de6565b92915050565b600060208201905061542c6000830184614e61565b92915050565b60006060820190506154476000830186614e61565b6154546020830185614960565b6154616040830184614e61565b949350505050565b600060408201905061547e6000830185614e61565b61548b6020830184614e61565b9392505050565b600061549c6154ad565b90506154a88282615771565b919050565b6000604051905090565b600067ffffffffffffffff8211156154d2576154d16158bd565b5b6154db826158ec565b9050602081019050919050565b6000819050919050565b600060059050919050565b600081519050919050565b600081519050919050565b6000602082019050919050565b600081905092915050565b600082825260208201905092915050565b600082825260208201905092915050565b600081905092915050565b6000615563826156f3565b915061556e836156f3565b9250827fffffffffffffffffffffffffffffffffffffffffffffffffffffffffffffffff038211156155a3576155a2615830565b5b828201905092915050565b60006155b9826156f3565b91506155c4836156f3565b9250826155d4576155d361585f565b5b828204905092915050565b60006155ea826156f3565b91506155f5836156f3565b9250817fffffffffffffffffffffffffffffffffffffffffffffffffffffffffffffffff048311821515161561562e5761562d615830565b5b828202905092915050565b6000615644826156f3565b915061564f836156f3565b92508282101561566257615661615830565b5b828203905092915050565b6000615678826156d3565b9050919050565b60008115159050919050565b6000819050919050565b60007fffffffff0000000000000000000000000000000000000000000000000000000082169050919050565b60006156cc8261566d565b9050919050565b600073ffffffffffffffffffffffffffffffffffffffff82169050919050565b6000819050919050565b82818337600083830152505050565b60005b8381101561572a57808201518184015260208101905061570f565b83811115615739576000848401525b50505050565b6000600282049050600182168061575757607f821691505b6020821081141561576b5761576a61588e565b5b50919050565b61577a826158ec565b810181811067ffffffffffffffff82111715615799576157986158bd565b5b80604052505050565b60006157ad826156f3565b91507fffffffffffffffffffffffffffffffffffffffffffffffffffffffffffffffff8214156157e0576157df615830565b5b600182019050919050565b6000819050919050565b6000819050919050565b600061580a826156f3565b9150615815836156f3565b9250826158255761582461585f565b5b828206905092915050565b7f4e487b7100000000000000000000000000000000000000000000000000000000600052601160045260246000fd5b7f4e487b7100000000000000000000000000000000000000000000000000000000600052601260045260246000fd5b7f4e487b7100000000000000000000000000000000000000000000000000000000600052602260045260246000fd5b7f4e487b7100000000000000000000000000000000000000000000000000000000600052604160045260246000fd5b6000601f19601f8301169050919050565b7f4300000000000000000000000000000000000000000000000000000000000000600082015250565b7f4552433732313a207472616e7366657220746f206e6f6e20455243373231526560008201527f63656976657220696d706c656d656e7465720000000000000000000000000000602082015250565b7f4552433732313a20746f6b656e20616c7265616479206d696e74656400000000600082015250565b7f4e42000000000000000000000000000000000000000000000000000000000000600082015250565b7f4500000000000000000000000000000000000000000000000000000000000000600082015250565b7f4552433732313a207472616e7366657220746f20746865207a65726f2061646460008201527f7265737300000000000000000000000000000000000000000000000000000000602082015250565b7f4552433732313a20617070726f766520746f2063616c6c657200000000000000600082015250565b7f4952000000000000000000000000000000000000000000000000000000000000600082015250565b7f4552433732313a206f70657261746f7220717565727920666f72206e6f6e657860008201527f697374656e7420746f6b656e0000000000000000000000000000000000000000602082015250565b7f4d54000000000000000000000000000000000000000000000000000000000000600082015250565b7f4552433732313a20617070726f76652063616c6c6572206973206e6f74206f7760008201527f6e6572206e6f7220617070726f76656420666f7220616c6c0000000000000000602082015250565b7f4552433732313a2062616c616e636520717565727920666f7220746865207a6560008201527f726f206164647265737300000000000000000000000000000000000000000000602082015250565b7f4552433732313a206f776e657220717565727920666f72206e6f6e657869737460008201527f656e7420746f6b656e0000000000000000000000000000000000000000000000602082015250565b7f4552433732313a206d696e7420746f20746865207a65726f2061646472657373600082015250565b7f4c00000000000000000000000000000000000000000000000000000000000000600082015250565b7f4552433732313a20617070726f76656420717565727920666f72206e6f6e657860008201527f697374656e7420746f6b656e0000000000000000000000000000000000000000602082015250565b7f4552433732313a207472616e73666572206f6620746f6b656e2074686174206960008201527f73206e6f74206f776e0000000000000000000000000000000000000000000000602082015250565b7f4552433732314d657461646174613a2055524920717565727920666f72206e6f60008201527f6e6578697374656e7420746f6b656e0000000000000000000000000000000000602082015250565b7f4f6e6c7920565246436f6f7264696e61746f722063616e2066756c66696c6c00600082015250565b7f4552433732313a20617070726f76616c20746f2063757272656e74206f776e6560008201527f7200000000000000000000000000000000000000000000000000000000000000602082015250565b7f4e41000000000000000000000000000000000000000000000000000000000000600082015250565b7f4552433732313a207472616e736665722063616c6c6572206973206e6f74206f60008201527f776e6572206e6f7220617070726f766564000000000000000000000000000000602082015250565b7f5750000000000000000000000000000000000000000000000000000000000000600082015250565b7f4e50000000000000000000000000000000000000000000000000000000000000600082015250565b615e808161566d565b8114615e8b57600080fd5b50565b615e978161567f565b8114615ea257600080fd5b50565b615eae8161568b565b8114615eb957600080fd5b50565b615ec581615695565b8114615ed057600080fd5b50565b615edc816156c1565b8114615ee757600080fd5b50565b615ef3816156f3565b8114615efe57600080fd5b5056fe68747470733a2f2f6170692e62696e676f737761702e6172742f62696e676f2d6a736f6e2fa2646970667358221220e6f51dc4d769439c812a684cd26e074a3745ae6809d863565d4e635ea98ae82564736f6c63430008040033",
  "immutableReferences": {
    "1649": [
      {
        "length": 32,
        "start": 3735
      },
      {
        "length": 32,
        "start": 4219
      },
      {
        "length": 32,
        "start": 13345
      }
    ],
    "1651": [
      {
        "length": 32,
        "start": 6051
      },
      {
        "length": 32,
        "start": 13405
      }
    ]
  },
  "source": "//                                  ___           ___           ___\n//       _____        ___          /__/\\         /  /\\         /  /\\\n//      /  /::\\      /  /\\         \\  \\:\\       /  /:/_       /  /::\\\n//     /  /:/\\:\\    /  /:/          \\  \\:\\     /  /:/ /\\     /  /:/\\:\\\n//    /  /:/~/::\\  /__/::\\      _____\\__\\:\\   /  /:/_/::\\   /  /:/  \\:\\\n//   /__/:/ /:/\\:| \\__\\/\\:\\__  /__/::::::::\\ /__/:/__\\/\\:\\ /__/:/ \\__\\:\\\n//   \\  \\:\\/:/~/:/    \\  \\:\\/\\ \\  \\:\\~~\\~~\\/ \\  \\:\\ /~~/:/ \\  \\:\\ /  /:/\n//    \\  \\::/ /:/      \\__\\::/  \\  \\:\\  ~~~   \\  \\:\\  /:/   \\  \\:\\  /:/\n//     \\  \\:\\/:/       /__/:/    \\  \\:\\        \\  \\:\\/:/     \\  \\:\\/:/\n//      \\  \\::/        \\__\\/      \\  \\:\\        \\  \\::/       \\  \\::/\n//       \\__\\/                     \\__\\/         \\__\\/         \\__\\/\n//\n// SPDX-License-Identifier: MIT\n\npragma solidity >=0.8.0 <0.9.0;\nimport '@openzeppelin/contracts/token/ERC721/ERC721.sol';\nimport \"@openzeppelin/contracts/utils/Counters.sol\";\nimport '@openzeppelin/contracts/token/ERC20/IERC20.sol';\nimport '@openzeppelin/contracts/utils/math/SafeMath.sol';\nimport \"@chainlink/contracts/src/v0.8/VRFConsumerBase.sol\";\nimport \"@chainlink/contracts/src/v0.8/interfaces/KeeperCompatibleInterface.sol\";\n\nlibrary BingoGenerate {\n    using SafeMath for uint256;\n\n    // Card\n    struct Card {\n        uint256[5] B;\n        uint256[5] I;\n        uint256[5] N;\n        uint256[5] G;\n        uint256[5] O;\n    }\n\n    // Settings\n    uint256 constant maxCount = 15;\n\n    function generateBingoCard(uint256 randomness) internal pure returns (Card memory card) {\n        if(randomness == 0) {\n            return card;\n        }\n        uint256[5] memory col;\n        uint256 i;\n\n        for(uint256 k=0; k<5; k++) {\n            col = generateColumn(uint256(keccak256(abi.encode(randomness, k))));\n            for(i=0;i<5;i++) {\n                if(k==2 && i==2) {\n                    col[i] = 99;\n                } else {\n                    col[i] = col[i] + (k*maxCount);\n                }\n            }\n\n            // Not sure how to do this better without switch :)\n            if(k == 0) {\n                card.B = col;\n            } else if(k == 1) {\n                card.I = col;\n            } else if(k == 2) {\n                card.N = col;\n            } else if(k == 3) {\n                card.G = col;\n            } else if(k == 4) {\n                card.O = col;\n            }\n        }\n\n        return card;\n    }\n\n    function generateColumn(uint256 randomness) internal pure returns(uint256[5] memory col) {\n        uint256[15] memory possible;\n        for(uint256 i=0; i<15; i++) {\n            possible[i] = i+1;\n        }\n        uint256 idx;\n        for(uint256 k=0; k<5; k++) {\n            idx = uint256(keccak256(abi.encode(randomness, k))).mod(maxCount-(1+k));\n            col[k] = possible[idx];\n            if(idx != 15 - (1+k)) {\n                possible[idx] = possible[15 - (1+k)];\n            }\n        }\n        return col;\n    }\n\n    function validateWinner(uint256 randomness,  mapping (uint256 => bool) storage Balls, uint256 pattern) internal view returns (bool found) {\n        /*\n        Patterns:\n            1 = line\n            2 = X\n            3 = Full card\n            4 = Four corners\n        */\n        Card memory card = generateBingoCard(randomness);\n        uint256[5][13] memory lines;\n        uint256 i;\n        for(i=0; i<5; i++) {\n            lines[i] = [card.B[i], card.I[i], card.N[i], card.G[i], card.O[i]];\n        }\n        lines[5] = uint256[5](card.B);\n        lines[6] = card.I;\n        lines[7] = card.N;\n        lines[8] = card.G;\n        lines[9] = card.O;\n        lines[10] = [card.B[0], card.I[1], card.N[2], card.G[3], card.O[4]];\n        lines[11] = [card.B[4], card.I[3], card.N[2], card.G[1], card.O[0]];\n        lines[12] = [card.B[0], card.O[0], card.B[4], card.O[4], card.B[0]]; // 4 corners\n\n        found = false;\n        uint256 foundDiagonal;\n        uint256 foundLines;\n        uint256 k;\n        uint256 matches;\n        for(i=0; i<13; i++) {\n            matches=0;\n            for(k=0; k<5; k++) {\n                if(Balls[lines[i][k]] || lines[i][k] == 99) {\n                    matches++;\n                    if(i == 10 || i == 11) {\n                        foundDiagonal++;\n                    }\n                }\n            }\n            if(matches == 5) {\n                foundLines++;\n            }\n            if((pattern == 1 && matches == 5 && i != 12)\n            || (pattern == 2 && foundDiagonal == 10)\n            || (pattern == 3 && foundLines == 12)\n            || (pattern == 4 && matches == 5 && i == 12)\n            ) {\n                found = true;\n            }\n        }\n    }\n}\n\n// Welcome to BINGO\ncontract Bingo is ERC721, VRFConsumerBase, KeeperCompatibleInterface {\n    using SafeMath for uint256;\n    using Counters for Counters.Counter;\n    Counters.Counter private _tokenIds;\n    Counters.Counter private _gameIds;\n\n    // Settings\n    uint256 public minCards = 1;     // 10\n    uint256 public maxCards = 1000;\n    uint256 public pricePerCard = 10000000000000000; // 0.01 ETH\n    uint256 public ballDrawTime = 60;   // 86400\n    uint256 public prizeSplit = 2;\n    uint256 public pattern = 1;\n    bool public startGame;\n    bool public startAuto;\n    address weedContract;\n    address owner;\n\n    // Game\n    uint256 public gameFloor;\n    uint256 public lastBallTime;\n    bytes32 public ballRequest;\n    uint256 public prizePool;\n    uint256 public winnerPool;\n    bool public outOfBalls;\n\n    // Random\n    bytes32 internal keyHash;\n    uint256 internal fee;\n\n    // Mappings\n    mapping (bytes32 => uint256) cardRequests;\n    mapping (uint256 => uint256) public cardRandomness;\n    mapping (uint256 => uint256) public winners;\n    mapping (uint256 => bool) Balls;\n\n    event BallPicked(uint256 game, uint256 ball);\n    event BingoWinner(uint256 game, uint256 tokenId);\n    event CardGenerated(uint256 game, address owner, uint256 tokenId);\n\n    modifier onlyOwner {\n        require(msg.sender == owner);\n        _;\n    }\n\n    constructor(address _weedContract)\n    ERC721(\"Bingo\", \"BINGO\")\n    VRFConsumerBase(\n        0xdD3782915140c8f3b190B5D67eAc6dc5760C46E9, // VRF Coordinator - Kovan\n        0xa36085F69e2889c224210F603D836748e7dC0088  // LINK Token - Kovan\n    )\n    {\n        owner = msg.sender;\n        weedContract = _weedContract;\n        keyHash = 0x6c3699283bda56ad74f6b855546325b68d482e983852a7a82979cc4807b641f4;\n        fee = 0.1 * 10 ** 18; // 0.1 LINK (Varies by network)\n\n        // Automatically start the first game\n        _gameIds.increment();\n        lastBallTime = block.timestamp;\n    }\n\n    /*\n    *   Purchase.\n    */\n    function mintCard(uint256 amount) public payable {\n        require(amount <= 10 && startGame && (_tokenIds.current().add(amount) - gameFloor) <= maxCards, \"E\");\n        require(LINK.balanceOf(address(this)) >= fee*amount, \"L\");\n\n        // Mint in ETH\n        if(msg.value > 0) {\n            require(pricePerCard.mul(amount) <= msg.value, \"WP\");\n            if(prizeSplit > 0) {\n                prizePool += msg.value / prizeSplit;\n            }\n        // Mint in WEED\n        } else {\n            require(IERC20(weedContract).balanceOf(msg.sender) >= 4000 * 1e18 * amount, \"NB\");\n            require(IERC20(weedContract).allowance(msg.sender, address(this)) >= 4000 * 1e18 * amount, \"NP\");\n            IERC20(weedContract).transferFrom(msg.sender, address(this), 4000 * 1e18 * amount);\n        }\n\n        uint256 cardId;\n        for(uint256 i=0; i<amount; i++) {\n            _tokenIds.increment();\n             cardId = _tokenIds.current();\n            _safeMint(msg.sender, cardId);\n            cardRequests[requestRandomness(keyHash, fee)] = cardId;\n        }\n    }\n\n    /*\n    *   Randomness.\n    */\n    function checkUpkeep(bytes calldata checkData) external view override returns (bool upkeepNeeded, bytes memory performData) {\n        upkeepNeeded = (_tokenIds.current() - gameFloor >= minCards) && (block.timestamp > lastBallTime+ballDrawTime && !outOfBalls && startGame);\n        performData = checkData;\n    }\n\n    function performUpkeep(bytes calldata performData) external override {\n        require(block.timestamp > lastBallTime+ballDrawTime && _tokenIds.current() - gameFloor >= minCards, \"MT\");\n        require(LINK.balanceOf(address(this)) >= fee, \"L\");\n        uint256 _winners = checkForWinners();\n        if(_winners == 0) {\n            lastBallTime = block.timestamp;\n            ballRequest = requestRandomness(keyHash, fee);\n        }\n        performData;\n    }\n\n    function fulfillRandomness(bytes32 requestId, uint256 randomness) internal override {\n        if(requestId == ballRequest) {\n            require(requestId == ballRequest, \"IR\");\n            uint256 choice;\n            for(uint256 idx=0; idx<76; idx++) {\n                choice = randomness.add(idx).mod(75).add(1);\n                if(Balls[choice] == false) {\n                    Balls[choice] = true;\n                    emit BallPicked(_gameIds.current(), choice);\n                    break;\n                } else if(idx == 75) {\n                    outOfBalls = true;\n                }\n            }\n            ballRequest = 0;\n        } else {\n            uint256 cardId = cardRequests[requestId];\n            require(cardId > 0, \"NA\");\n            cardRandomness[cardId] = randomness;\n            cardRequests[requestId] = 0;\n            emit CardGenerated(_gameIds.current(), ownerOf(cardId), cardId);\n        }\n    }\n\n    function checkForWinners() internal returns (uint256 winIdx) {\n        uint256[] memory _winners;\n        for(uint256 i=gameFloor+1; i<= _tokenIds.current(); i++) {\n            if(BingoGenerate.validateWinner(cardRandomness[i], Balls, pattern)) {\n                _winners[winIdx] = i;\n                winIdx++;\n            }\n        }\n        if(winIdx > 0) {\n            for(uint256 k=0; k<winIdx; k++) {\n                uint256 tokenId = _winners[k];\n                winners[tokenId] = prizePool.div(winIdx);\n                winnerPool += winners[tokenId];\n                emit BingoWinner(_gameIds.current(), tokenId);\n            }\n            // Reset game\n            prizePool = 0;\n            _gameIds.increment();\n            lastBallTime = block.timestamp;\n            outOfBalls = false;\n            gameFloor = _tokenIds.current();\n            startGame = startAuto;\n            for(uint256 b=1; b<76; b++) {\n                Balls[b] = false;\n            }\n        }\n    }\n\n    /*\n    *   Claim.\n    */\n    function claimBingo(uint256 cardId) public payable {\n        require(winners[cardId] > 0 && ownerOf(cardId) == msg.sender, 'C');\n        payable(msg.sender).transfer(winners[cardId]);\n        winnerPool = winnerPool - winners[cardId];\n        winners[cardId] = 0;\n    }\n\n    function burn(uint256 tokenId) public virtual {\n        require(_isApprovedOrOwner(msg.sender, tokenId), \"NA\");\n        _burn(tokenId);\n    }\n\n    /*\n    *   Getters.\n    */\n    function generateCard(uint256 cardId) public view returns (BingoGenerate.Card memory) {\n        return BingoGenerate.generateBingoCard(cardRandomness[cardId]);\n    }\n\n    function validateCard(uint256 cardId) public view returns (bool) {\n        return BingoGenerate.validateWinner(cardRandomness[cardId], Balls, pattern);\n    }\n\n    function getCurrent() public view returns (uint256 game, uint256 token) {\n        game = _gameIds.current();\n        token = _tokenIds.current();\n    }\n\n    function exists(uint256 tokenId) public view returns(bool) {\n        return _exists(tokenId);\n    }\n\n    function _baseURI() internal pure override returns (string memory) {\n        return \"https://api.bingoswap.art/bingo-json/\";\n    }\n\n    /*\n    *   Setters.\n    */\n    function contractSettings(bool _startGame, bool _startAuto, uint256 _ballDrawTime, uint256 _minCardsPerGame, uint256 _maxCardsPerGame, uint256 _pricePerCard, uint256 _prizeSplit, uint256 _pattern, address _owner) public onlyOwner {\n        startGame = _startGame;\n        startAuto = _startAuto;\n        ballDrawTime = _ballDrawTime;\n        minCards = _minCardsPerGame;\n        maxCards = _maxCardsPerGame;\n        pricePerCard = _pricePerCard;\n        prizeSplit = _prizeSplit;\n        pattern = _pattern;\n        owner = _owner;\n    }\n\n    /*\n    *   Money management.\n    */\n    function withdraw(IERC20 _token, uint256 _amount) public payable onlyOwner {\n        if(_amount > 0) {\n            _token.transfer(msg.sender, _amount);\n        } else {\n            uint256 _each = address(this).balance.sub(prizePool+winnerPool).div(4);\n            require(payable(0x00796e910Bd0228ddF4cd79e3f353871a61C351C).send(_each));   // sara\n            require(payable(0x7fc55376D5A29e0Ee86C18C81bb2fC8F9f490E50).send(_each));   // shaun\n            require(payable(0xB58Fb5372e9Aa0C86c3B281179c05Af3bB7a181b).send(_each));   // mark\n            require(payable(0xd83Dd8A288270512b8A46F581A8254CD971dCb09).send(_each));   // community (@todo replace)\n        }\n    }\n}\n",
  "sourcePath": "/Users/Shared/Code/experimental/bingo/bingo-contracts/contracts/Bingo.sol",
  "compiler": {
    "name": "solc",
    "version": "0.8.4+commit.c7e474f2.Emscripten.clang"
  },
  "schemaVersion": "3.4.1",
  "updatedAt": "2021-09-14T18:10:21.453Z",
  "networkType": "ethereum",
  "devdoc": {
    "kind": "dev",
    "methods": {
      "approve(address,uint256)": {
        "details": "See {IERC721-approve}."
      },
      "balanceOf(address)": {
        "details": "See {IERC721-balanceOf}."
      },
      "checkUpkeep(bytes)": {
        "params": {
          "checkData": "data passed to the contract when checking for upkeep."
        },
        "returns": {
          "performData": "bytes that the keeper should call performUpkeep with, if upkeep is needed.",
          "upkeepNeeded": "boolean to indicate whether the keeper should call performUpkeep or not."
        }
      },
      "getApproved(uint256)": {
        "details": "See {IERC721-getApproved}."
      },
      "isApprovedForAll(address,address)": {
        "details": "See {IERC721-isApprovedForAll}."
      },
      "name()": {
        "details": "See {IERC721Metadata-name}."
      },
      "ownerOf(uint256)": {
        "details": "See {IERC721-ownerOf}."
      },
      "performUpkeep(bytes)": {
        "params": {
          "performData": "is the data which was passed back from the checkData simulation."
        }
      },
      "safeTransferFrom(address,address,uint256)": {
        "details": "See {IERC721-safeTransferFrom}."
      },
      "safeTransferFrom(address,address,uint256,bytes)": {
        "details": "See {IERC721-safeTransferFrom}."
      },
      "setApprovalForAll(address,bool)": {
        "details": "See {IERC721-setApprovalForAll}."
      },
      "supportsInterface(bytes4)": {
        "details": "See {IERC165-supportsInterface}."
      },
      "symbol()": {
        "details": "See {IERC721Metadata-symbol}."
      },
      "tokenURI(uint256)": {
        "details": "See {IERC721Metadata-tokenURI}."
      },
      "transferFrom(address,address,uint256)": {
        "details": "See {IERC721-transferFrom}."
      }
    },
    "version": 1
  },
  "userdoc": {
    "kind": "user",
    "methods": {
      "checkUpkeep(bytes)": {
        "notice": "checks if the contract requires work to be done."
      },
      "performUpkeep(bytes)": {
        "notice": "Performs work on the contract. Executed by the keepers, via the registry."
      }
    },
    "version": 1
  }
}