{
  "contractName": "Bingo",
  "abi": [
    {
      "inputs": [
        {
          "internalType": "address",
          "name": "_weedContract",
          "type": "address"
        }
      ],
      "stateMutability": "nonpayable",
      "type": "constructor"
    },
    {
      "anonymous": false,
      "inputs": [
        {
          "indexed": true,
          "internalType": "address",
          "name": "owner",
          "type": "address"
        },
        {
          "indexed": true,
          "internalType": "address",
          "name": "approved",
          "type": "address"
        },
        {
          "indexed": true,
          "internalType": "uint256",
          "name": "tokenId",
          "type": "uint256"
        }
      ],
      "name": "Approval",
      "type": "event"
    },
    {
      "anonymous": false,
      "inputs": [
        {
          "indexed": true,
          "internalType": "address",
          "name": "owner",
          "type": "address"
        },
        {
          "indexed": true,
          "internalType": "address",
          "name": "operator",
          "type": "address"
        },
        {
          "indexed": false,
          "internalType": "bool",
          "name": "approved",
          "type": "bool"
        }
      ],
      "name": "ApprovalForAll",
      "type": "event"
    },
    {
      "anonymous": false,
      "inputs": [
        {
          "indexed": false,
          "internalType": "uint256",
          "name": "game",
          "type": "uint256"
        },
        {
          "indexed": false,
          "internalType": "uint256",
          "name": "ball",
          "type": "uint256"
        }
      ],
      "name": "BallPicked",
      "type": "event"
    },
    {
      "anonymous": false,
      "inputs": [
        {
          "indexed": false,
          "internalType": "uint256",
          "name": "game",
          "type": "uint256"
        },
        {
          "indexed": false,
          "internalType": "address",
          "name": "owner",
          "type": "address"
        },
        {
          "indexed": false,
          "internalType": "uint256",
          "name": "tokenId",
          "type": "uint256"
        }
      ],
      "name": "BingoWinner",
      "type": "event"
    },
    {
      "anonymous": false,
      "inputs": [
        {
          "indexed": false,
          "internalType": "uint256",
          "name": "game",
          "type": "uint256"
        },
        {
          "indexed": false,
          "internalType": "address",
          "name": "owner",
          "type": "address"
        },
        {
          "indexed": false,
          "internalType": "uint256",
          "name": "tokenId",
          "type": "uint256"
        }
      ],
      "name": "CardGenerated",
      "type": "event"
    },
    {
      "anonymous": false,
      "inputs": [
        {
          "indexed": true,
          "internalType": "address",
          "name": "from",
          "type": "address"
        },
        {
          "indexed": true,
          "internalType": "address",
          "name": "to",
          "type": "address"
        },
        {
          "indexed": true,
          "internalType": "uint256",
          "name": "tokenId",
          "type": "uint256"
        }
      ],
      "name": "Transfer",
      "type": "event"
    },
    {
      "inputs": [
        {
          "internalType": "uint256",
          "name": "",
          "type": "uint256"
        }
      ],
      "name": "Balls",
      "outputs": [
        {
          "internalType": "bool",
          "name": "",
          "type": "bool"
        }
      ],
      "stateMutability": "view",
      "type": "function",
      "constant": true
    },
    {
      "inputs": [],
      "name": "_gameIds",
      "outputs": [
        {
          "internalType": "uint256",
          "name": "_value",
          "type": "uint256"
        }
      ],
      "stateMutability": "view",
      "type": "function",
      "constant": true
    },
    {
      "inputs": [
        {
          "internalType": "address",
          "name": "to",
          "type": "address"
        },
        {
          "internalType": "uint256",
          "name": "tokenId",
          "type": "uint256"
        }
      ],
      "name": "approve",
      "outputs": [],
      "stateMutability": "nonpayable",
      "type": "function"
    },
    {
      "inputs": [
        {
          "internalType": "address",
          "name": "owner",
          "type": "address"
        }
      ],
      "name": "balanceOf",
      "outputs": [
        {
          "internalType": "uint256",
          "name": "",
          "type": "uint256"
        }
      ],
      "stateMutability": "view",
      "type": "function",
      "constant": true
    },
    {
      "inputs": [],
      "name": "ballDrawTime",
      "outputs": [
        {
          "internalType": "uint256",
          "name": "",
          "type": "uint256"
        }
      ],
      "stateMutability": "view",
      "type": "function",
      "constant": true
    },
    {
      "inputs": [],
      "name": "ballRequest",
      "outputs": [
        {
          "internalType": "bytes32",
          "name": "",
          "type": "bytes32"
        }
      ],
      "stateMutability": "view",
      "type": "function",
      "constant": true
    },
    {
      "inputs": [],
      "name": "baseUri",
      "outputs": [
        {
          "internalType": "string",
          "name": "",
          "type": "string"
        }
      ],
      "stateMutability": "view",
      "type": "function",
      "constant": true
    },
    {
      "inputs": [
        {
          "internalType": "uint256",
          "name": "",
          "type": "uint256"
        }
      ],
      "name": "cardRandomness",
      "outputs": [
        {
          "internalType": "uint256",
          "name": "",
          "type": "uint256"
        }
      ],
      "stateMutability": "view",
      "type": "function",
      "constant": true
    },
    {
      "inputs": [
        {
          "internalType": "bytes32",
          "name": "",
          "type": "bytes32"
        }
      ],
      "name": "cardRequests",
      "outputs": [
        {
          "internalType": "uint256",
          "name": "",
          "type": "uint256"
        }
      ],
      "stateMutability": "view",
      "type": "function",
      "constant": true
    },
    {
      "inputs": [],
      "name": "gameFloor",
      "outputs": [
        {
          "internalType": "uint256",
          "name": "",
          "type": "uint256"
        }
      ],
      "stateMutability": "view",
      "type": "function",
      "constant": true
    },
    {
      "inputs": [
        {
          "internalType": "uint256",
          "name": "tokenId",
          "type": "uint256"
        }
      ],
      "name": "getApproved",
      "outputs": [
        {
          "internalType": "address",
          "name": "",
          "type": "address"
        }
      ],
      "stateMutability": "view",
      "type": "function",
      "constant": true
    },
    {
      "inputs": [
        {
          "internalType": "address",
          "name": "owner",
          "type": "address"
        },
        {
          "internalType": "address",
          "name": "operator",
          "type": "address"
        }
      ],
      "name": "isApprovedForAll",
      "outputs": [
        {
          "internalType": "bool",
          "name": "",
          "type": "bool"
        }
      ],
      "stateMutability": "view",
      "type": "function",
      "constant": true
    },
    {
      "inputs": [],
      "name": "lastBallTime",
      "outputs": [
        {
          "internalType": "uint256",
          "name": "",
          "type": "uint256"
        }
      ],
      "stateMutability": "view",
      "type": "function",
      "constant": true
    },
    {
      "inputs": [],
      "name": "maxCards",
      "outputs": [
        {
          "internalType": "uint256",
          "name": "",
          "type": "uint256"
        }
      ],
      "stateMutability": "view",
      "type": "function",
      "constant": true
    },
    {
      "inputs": [],
      "name": "minCards",
      "outputs": [
        {
          "internalType": "uint256",
          "name": "",
          "type": "uint256"
        }
      ],
      "stateMutability": "view",
      "type": "function",
      "constant": true
    },
    {
      "inputs": [],
      "name": "name",
      "outputs": [
        {
          "internalType": "string",
          "name": "",
          "type": "string"
        }
      ],
      "stateMutability": "view",
      "type": "function",
      "constant": true
    },
    {
      "inputs": [],
      "name": "outOfBalls",
      "outputs": [
        {
          "internalType": "bool",
          "name": "",
          "type": "bool"
        }
      ],
      "stateMutability": "view",
      "type": "function",
      "constant": true
    },
    {
      "inputs": [
        {
          "internalType": "uint256",
          "name": "tokenId",
          "type": "uint256"
        }
      ],
      "name": "ownerOf",
      "outputs": [
        {
          "internalType": "address",
          "name": "",
          "type": "address"
        }
      ],
      "stateMutability": "view",
      "type": "function",
      "constant": true
    },
    {
      "inputs": [],
      "name": "pattern",
      "outputs": [
        {
          "internalType": "uint256",
          "name": "",
          "type": "uint256"
        }
      ],
      "stateMutability": "view",
      "type": "function",
      "constant": true
    },
    {
      "inputs": [],
      "name": "pricePerCard",
      "outputs": [
        {
          "internalType": "uint256",
          "name": "",
          "type": "uint256"
        }
      ],
      "stateMutability": "view",
      "type": "function",
      "constant": true
    },
    {
      "inputs": [],
      "name": "prizePool",
      "outputs": [
        {
          "internalType": "uint256",
          "name": "",
          "type": "uint256"
        }
      ],
      "stateMutability": "view",
      "type": "function",
      "constant": true
    },
    {
      "inputs": [],
      "name": "prizeSplit",
      "outputs": [
        {
          "internalType": "uint256",
          "name": "",
          "type": "uint256"
        }
      ],
      "stateMutability": "view",
      "type": "function",
      "constant": true
    },
    {
      "inputs": [
        {
          "internalType": "bytes32",
          "name": "requestId",
          "type": "bytes32"
        },
        {
          "internalType": "uint256",
          "name": "randomness",
          "type": "uint256"
        }
      ],
      "name": "rawFulfillRandomness",
      "outputs": [],
      "stateMutability": "nonpayable",
      "type": "function"
    },
    {
      "inputs": [
        {
          "internalType": "address",
          "name": "from",
          "type": "address"
        },
        {
          "internalType": "address",
          "name": "to",
          "type": "address"
        },
        {
          "internalType": "uint256",
          "name": "tokenId",
          "type": "uint256"
        }
      ],
      "name": "safeTransferFrom",
      "outputs": [],
      "stateMutability": "nonpayable",
      "type": "function"
    },
    {
      "inputs": [
        {
          "internalType": "address",
          "name": "from",
          "type": "address"
        },
        {
          "internalType": "address",
          "name": "to",
          "type": "address"
        },
        {
          "internalType": "uint256",
          "name": "tokenId",
          "type": "uint256"
        },
        {
          "internalType": "bytes",
          "name": "_data",
          "type": "bytes"
        }
      ],
      "name": "safeTransferFrom",
      "outputs": [],
      "stateMutability": "nonpayable",
      "type": "function"
    },
    {
      "inputs": [
        {
          "internalType": "address",
          "name": "operator",
          "type": "address"
        },
        {
          "internalType": "bool",
          "name": "approved",
          "type": "bool"
        }
      ],
      "name": "setApprovalForAll",
      "outputs": [],
      "stateMutability": "nonpayable",
      "type": "function"
    },
    {
      "inputs": [],
      "name": "startAuto",
      "outputs": [
        {
          "internalType": "bool",
          "name": "",
          "type": "bool"
        }
      ],
      "stateMutability": "view",
      "type": "function",
      "constant": true
    },
    {
      "inputs": [],
      "name": "startGame",
      "outputs": [
        {
          "internalType": "bool",
          "name": "",
          "type": "bool"
        }
      ],
      "stateMutability": "view",
      "type": "function",
      "constant": true
    },
    {
      "inputs": [
        {
          "internalType": "bytes4",
          "name": "interfaceId",
          "type": "bytes4"
        }
      ],
      "name": "supportsInterface",
      "outputs": [
        {
          "internalType": "bool",
          "name": "",
          "type": "bool"
        }
      ],
      "stateMutability": "view",
      "type": "function",
      "constant": true
    },
    {
      "inputs": [],
      "name": "symbol",
      "outputs": [
        {
          "internalType": "string",
          "name": "",
          "type": "string"
        }
      ],
      "stateMutability": "view",
      "type": "function",
      "constant": true
    },
    {
      "inputs": [
        {
          "internalType": "uint256",
          "name": "tokenId",
          "type": "uint256"
        }
      ],
      "name": "tokenURI",
      "outputs": [
        {
          "internalType": "string",
          "name": "",
          "type": "string"
        }
      ],
      "stateMutability": "view",
      "type": "function",
      "constant": true
    },
    {
      "inputs": [
        {
          "internalType": "address",
          "name": "from",
          "type": "address"
        },
        {
          "internalType": "address",
          "name": "to",
          "type": "address"
        },
        {
          "internalType": "uint256",
          "name": "tokenId",
          "type": "uint256"
        }
      ],
      "name": "transferFrom",
      "outputs": [],
      "stateMutability": "nonpayable",
      "type": "function"
    },
    {
      "inputs": [
        {
          "internalType": "uint256",
          "name": "amount",
          "type": "uint256"
        }
      ],
      "name": "mintCard",
      "outputs": [],
      "stateMutability": "payable",
      "type": "function",
      "payable": true
    },
    {
      "inputs": [
        {
          "internalType": "bytes",
          "name": "checkData",
          "type": "bytes"
        }
      ],
      "name": "checkUpkeep",
      "outputs": [
        {
          "internalType": "bool",
          "name": "upkeepNeeded",
          "type": "bool"
        },
        {
          "internalType": "bytes",
          "name": "performData",
          "type": "bytes"
        }
      ],
      "stateMutability": "view",
      "type": "function",
      "constant": true
    },
    {
      "inputs": [
        {
          "internalType": "bytes",
          "name": "performData",
          "type": "bytes"
        }
      ],
      "name": "performUpkeep",
      "outputs": [],
      "stateMutability": "nonpayable",
      "type": "function"
    },
    {
      "inputs": [
        {
          "internalType": "uint256",
          "name": "cardId",
          "type": "uint256"
        }
      ],
      "name": "claimBingo",
      "outputs": [],
      "stateMutability": "payable",
      "type": "function",
      "payable": true
    },
    {
      "inputs": [
        {
          "internalType": "uint256",
          "name": "cardId",
          "type": "uint256"
        }
      ],
      "name": "generateCard",
      "outputs": [
        {
          "components": [
            {
              "internalType": "uint256[5]",
              "name": "B",
              "type": "uint256[5]"
            },
            {
              "internalType": "uint256[5]",
              "name": "I",
              "type": "uint256[5]"
            },
            {
              "internalType": "uint256[5]",
              "name": "N",
              "type": "uint256[5]"
            },
            {
              "internalType": "uint256[5]",
              "name": "G",
              "type": "uint256[5]"
            },
            {
              "internalType": "uint256[5]",
              "name": "O",
              "type": "uint256[5]"
            }
          ],
          "internalType": "struct BingoGenerate.Card",
          "name": "",
          "type": "tuple"
        }
      ],
      "stateMutability": "view",
      "type": "function",
      "constant": true
    },
    {
      "inputs": [
        {
          "internalType": "uint256",
          "name": "cardId",
          "type": "uint256"
        }
      ],
      "name": "validateCard",
      "outputs": [
        {
          "internalType": "bool",
          "name": "",
          "type": "bool"
        }
      ],
      "stateMutability": "view",
      "type": "function",
      "constant": true
    },
    {
      "inputs": [],
      "name": "getCurrent",
      "outputs": [
        {
          "internalType": "uint256",
          "name": "game",
          "type": "uint256"
        },
        {
          "internalType": "uint256",
          "name": "token",
          "type": "uint256"
        }
      ],
      "stateMutability": "view",
      "type": "function",
      "constant": true
    },
    {
      "inputs": [
        {
          "internalType": "uint256",
          "name": "tokenId",
          "type": "uint256"
        }
      ],
      "name": "exists",
      "outputs": [
        {
          "internalType": "bool",
          "name": "",
          "type": "bool"
        }
      ],
      "stateMutability": "view",
      "type": "function",
      "constant": true
    },
    {
      "inputs": [
        {
          "internalType": "bool",
          "name": "_startGame",
          "type": "bool"
        },
        {
          "internalType": "bool",
          "name": "_startAuto",
          "type": "bool"
        },
        {
          "internalType": "uint256",
          "name": "_ballDrawTime",
          "type": "uint256"
        },
        {
          "internalType": "uint256",
          "name": "_minCardsPerGame",
          "type": "uint256"
        },
        {
          "internalType": "uint256",
          "name": "_maxCardsPerGame",
          "type": "uint256"
        },
        {
          "internalType": "uint256",
          "name": "_pricePerCard",
          "type": "uint256"
        },
        {
          "internalType": "uint256",
          "name": "_prizeSplit",
          "type": "uint256"
        },
        {
          "internalType": "uint256",
          "name": "_pattern",
          "type": "uint256"
        },
        {
          "internalType": "address",
          "name": "_owner",
          "type": "address"
        }
      ],
      "name": "contractSettings",
      "outputs": [],
      "stateMutability": "nonpayable",
      "type": "function"
    },
    {
      "inputs": [
        {
          "internalType": "contract IERC20",
          "name": "_token",
          "type": "address"
        },
        {
          "internalType": "uint256",
          "name": "_amount",
          "type": "uint256"
        }
      ],
      "name": "withdraw",
      "outputs": [],
      "stateMutability": "payable",
      "type": "function",
      "payable": true
    }
  ],
  "bytecode": "0x60c060405260016009556103e8600a55662386f26fc10000600b55603c600c556040518060600160405280602581526020016200642360259139600d908051906020019062000050929190620002be565b506002600e556001600f553480156200006857600080fd5b50604051620064483803806200644883398181016040528101906200008e919062000385565b73dd3782915140c8f3b190b5d67eac6dc5760c46e973a36085f69e2889c224210f603d836748e7dc00886040518060400160405280600581526020017f42696e676f0000000000000000000000000000000000000000000000000000008152506040518060400160405280600581526020017f42494e474f00000000000000000000000000000000000000000000000000000081525081600090805190602001906200013c929190620002be565b50806001908051906020019062000155929190620002be565b5050508173ffffffffffffffffffffffffffffffffffffffff1660a08173ffffffffffffffffffffffffffffffffffffffff1660601b815250508073ffffffffffffffffffffffffffffffffffffffff1660808173ffffffffffffffffffffffffffffffffffffffff1660601b81525050505033601160006101000a81548173ffffffffffffffffffffffffffffffffffffffff021916908373ffffffffffffffffffffffffffffffffffffffff16021790555080601060026101000a81548173ffffffffffffffffffffffffffffffffffffffff021916908373ffffffffffffffffffffffffffffffffffffffff1602179055507f6c3699283bda56ad74f6b855546325b68d482e983852a7a82979cc4807b641f460001b60178190555067016345785d8a00006018819055506200029a6008620002a860201b620022e51760201c565b426013819055505062000464565b6001816000016000828254019250508190555050565b828054620002cc90620003e5565b90600052602060002090601f016020900481019282620002f057600085556200033c565b82601f106200030b57805160ff19168380011785556200033c565b828001600101855582156200033c579182015b828111156200033b5782518255916020019190600101906200031e565b5b5090506200034b91906200034f565b5090565b5b808211156200036a57600081600090555060010162000350565b5090565b6000815190506200037f816200044a565b92915050565b6000602082840312156200039857600080fd5b6000620003a8848285016200036e565b91505092915050565b6000620003be82620003c5565b9050919050565b600073ffffffffffffffffffffffffffffffffffffffff82169050919050565b60006002820490506001821680620003fe57607f821691505b602082108114156200041557620004146200041b565b5b50919050565b7f4e487b7100000000000000000000000000000000000000000000000000000000600052602260045260246000fd5b6200045581620003b1565b81146200046157600080fd5b50565b60805160601c60a05160601c615f7e620004a5600039600081816117ca01526132bc015260008181610ebd015281816110a201526132800152615f7e6000f3fe6080604052600436106102515760003560e01c806370a0823111610139578063a96f1c69116100b6578063d65ab5f21161007a578063d65ab5f21461090b578063dcde251914610936578063e985e9c514610952578063ec49e46c1461098f578063f3fef3a3146109cc578063f8a7443c146109e857610251565b8063a96f1c6914610824578063aad4df521461084f578063aeccceee1461087a578063b88d4fde146108a5578063c87b56dd146108ce57610251565b806395d89b41116100fd57806395d89b411461073f5780639abc83201461076a5780639c15865b14610795578063a22cb465146107d2578063a319795a146107fb57610251565b806370a08231146106585780637153304714610695578063719ce73e146106c0578063842005b5146106eb57806394985ddd1461071657610251565b806342842e0e116101d2578063521eaea311610196578063521eaea31461052e578063596a0b041461055957806360b47a5014610584578063630930ba146105a05780636352211e146105dd5780636e04ff0d1461061a57610251565b806342842e0e146104375780634585e33b146104605780634725c409146104895780634f558e79146104b4578063501f51bb146104f157610251565b806311196afe1161021957806311196afe1461034f57806323b872dd1461037a57806329568350146103a35780632b675f34146103ce57806335a5cfcb1461040b57610251565b806301ffc9a71461025657806306fdde0314610293578063081812fc146102be57806308b237b5146102fb578063095ea7b314610326575b600080fd5b34801561026257600080fd5b5061027d60048036038101906102789190614726565b610a13565b60405161028a9190614f71565b60405180910390f35b34801561029f57600080fd5b506102a8610af5565b6040516102b59190615045565b60405180910390f35b3480156102ca57600080fd5b506102e560048036038101906102e091906147f9565b610b87565b6040516102f29190614e43565b60405180910390f35b34801561030757600080fd5b50610310610c0c565b60405161031d91906153e3565b60405180910390f35b34801561033257600080fd5b5061034d60048036038101906103489190614596565b610c12565b005b34801561035b57600080fd5b50610364610d2a565b60405161037191906153e3565b60405180910390f35b34801561038657600080fd5b506103a1600480360381019061039c9190614490565b610d30565b005b3480156103af57600080fd5b506103b8610d90565b6040516103c59190614f71565b60405180910390f35b3480156103da57600080fd5b506103f560048036038101906103f091906147f9565b610da3565b6040516104029190614f71565b60405180910390f35b34801561041757600080fd5b50610420610dcd565b60405161042e929190615435565b60405180910390f35b34801561044357600080fd5b5061045e60048036038101906104599190614490565b610dec565b005b34801561046c57600080fd5b5061048760048036038101906104829190614778565b610e0c565b005b34801561049557600080fd5b5061049e610fc4565b6040516104ab91906153e3565b60405180910390f35b3480156104c057600080fd5b506104db60048036038101906104d691906147f9565b610fca565b6040516104e89190614f71565b60405180910390f35b3480156104fd57600080fd5b50610518600480360381019061051391906146c1565b610fdc565b60405161052591906153e3565b60405180910390f35b34801561053a57600080fd5b50610543610ff4565b60405161055091906153e3565b60405180910390f35b34801561056557600080fd5b5061056e610ffa565b60405161057b91906153e3565b60405180910390f35b61059e600480360381019061059991906147f9565b611000565b005b3480156105ac57600080fd5b506105c760048036038101906105c291906147f9565b611559565b6040516105d491906153c7565b60405180910390f35b3480156105e957600080fd5b5061060460048036038101906105ff91906147f9565b611584565b6040516106119190614e43565b60405180910390f35b34801561062657600080fd5b50610641600480360381019061063c9190614778565b611636565b60405161064f929190614f8c565b60405180910390f35b34801561066457600080fd5b5061067f600480360381019061067a919061442b565b6116f1565b60405161068c91906153e3565b60405180910390f35b3480156106a157600080fd5b506106aa6117a9565b6040516106b79190614f71565b60405180910390f35b3480156106cc57600080fd5b506106d56117bc565b6040516106e291906153e3565b60405180910390f35b3480156106f757600080fd5b506107006117c2565b60405161070d91906153e3565b60405180910390f35b34801561072257600080fd5b5061073d600480360381019061073891906146ea565b6117c8565b005b34801561074b57600080fd5b50610754611864565b6040516107619190615045565b60405180910390f35b34801561077657600080fd5b5061077f6118f6565b60405161078c9190615045565b60405180910390f35b3480156107a157600080fd5b506107bc60048036038101906107b791906147f9565b611984565b6040516107c99190614f71565b60405180910390f35b3480156107de57600080fd5b506107f960048036038101906107f4919061455a565b6119a4565b005b34801561080757600080fd5b50610822600480360381019061081d91906145fb565b611b25565b005b34801561083057600080fd5b50610839611c29565b60405161084691906153e3565b60405180910390f35b34801561085b57600080fd5b50610864611c2f565b60405161087191906153e3565b60405180910390f35b34801561088657600080fd5b5061088f611c35565b60405161089c91906153e3565b60405180910390f35b3480156108b157600080fd5b506108cc60048036038101906108c791906144df565b611c41565b005b3480156108da57600080fd5b506108f560048036038101906108f091906147f9565b611ca3565b6040516109029190615045565b60405180910390f35b34801561091757600080fd5b50610920611d4a565b60405161092d9190614f71565b60405180910390f35b610950600480360381019061094b91906147f9565b611d5d565b005b34801561095e57600080fd5b5061097960048036038101906109749190614454565b611fc4565b6040516109869190614f71565b60405180910390f35b34801561099b57600080fd5b506109b660048036038101906109b191906147f9565b612058565b6040516109c391906153e3565b60405180910390f35b6109e660048036038101906109e191906147bd565b612070565b005b3480156109f457600080fd5b506109fd6122df565b604051610a0a9190614fbc565b60405180910390f35b60007f80ac58cd000000000000000000000000000000000000000000000000000000007bffffffffffffffffffffffffffffffffffffffffffffffffffffffff1916827bffffffffffffffffffffffffffffffffffffffffffffffffffffffff19161480610ade57507f5b5e139f000000000000000000000000000000000000000000000000000000007bffffffffffffffffffffffffffffffffffffffffffffffffffffffff1916827bffffffffffffffffffffffffffffffffffffffffffffffffffffffff1916145b80610aee5750610aed826122fb565b5b9050919050565b606060008054610b049061570b565b80601f0160208091040260200160405190810160405280929190818152602001828054610b309061570b565b8015610b7d5780601f10610b5257610100808354040283529160200191610b7d565b820191906000526020600020905b815481529060010190602001808311610b6057829003601f168201915b5050505050905090565b6000610b9282612365565b610bd1576040517f08c379a0000000000000000000000000000000000000000000000000000000008152600401610bc8906152a7565b60405180910390fd5b6004600083815260200190815260200160002060009054906101000a900473ffffffffffffffffffffffffffffffffffffffff169050919050565b600a5481565b6000610c1d82611584565b90508073ffffffffffffffffffffffffffffffffffffffff168373ffffffffffffffffffffffffffffffffffffffff161415610c8e576040517f08c379a0000000000000000000000000000000000000000000000000000000008152600401610c8590615327565b60405180910390fd5b8073ffffffffffffffffffffffffffffffffffffffff16610cad6123d1565b73ffffffffffffffffffffffffffffffffffffffff161480610cdc5750610cdb81610cd66123d1565b611fc4565b5b610d1b576040517f08c379a0000000000000000000000000000000000000000000000000000000008152600401610d12906151c7565b60405180910390fd5b610d2583836123d9565b505050565b600c5481565b610d41610d3b6123d1565b82612492565b610d80576040517f08c379a0000000000000000000000000000000000000000000000000000000008152600401610d7790615367565b60405180910390fd5b610d8b838383612570565b505050565b601060019054906101000a900460ff1681565b6000610dc6601a600084815260200190815260200160002054601b600f546127cc565b9050919050565b600080610dda600861326e565b9150610de6600761326e565b90509091565b610e0783838360405180602001604052806000815250611c41565b505050565b600c54601354610e1c9190615524565b4211610e5d576040517f08c379a0000000000000000000000000000000000000000000000000000000008152600401610e54906151a7565b60405180910390fd5b600954601254610e6d600761326e565b610e779190615605565b1015610eb8576040517f08c379a0000000000000000000000000000000000000000000000000000000008152600401610eaf90615227565b60405180910390fd5b6018547f000000000000000000000000000000000000000000000000000000000000000073ffffffffffffffffffffffffffffffffffffffff166370a08231306040518263ffffffff1660e01b8152600401610f149190614e43565b60206040518083038186803b158015610f2c57600080fd5b505afa158015610f40573d6000803e3d6000fd5b505050506040513d601f19601f82011682018060405250810190610f649190614822565b1015610fa5576040517f08c379a0000000000000000000000000000000000000000000000000000000008152600401610f9c90615267565b60405180910390fd5b42601381905550610fba60175460185461327c565b6014819055505050565b60095481565b6000610fd582612365565b9050919050565b60196020528060005260406000206000915090505481565b600b5481565b60135481565b600a811115801561101d5750601060009054906101000a900460ff165b80156110535750600a5460125461104683611038600761326e565b6133de90919063ffffffff16565b6110509190615605565b11155b611092576040517f08c379a0000000000000000000000000000000000000000000000000000000008152600401611089906150e7565b60405180910390fd5b806018546110a091906155ab565b7f000000000000000000000000000000000000000000000000000000000000000073ffffffffffffffffffffffffffffffffffffffff166370a08231306040518263ffffffff1660e01b81526004016110f99190614e43565b60206040518083038186803b15801561111157600080fd5b505afa158015611125573d6000803e3d6000fd5b505050506040513d601f19601f820116820180604052508101906111499190614822565b101561118a576040517f08c379a000000000000000000000000000000000000000000000000000000000815260040161118190615267565b60405180910390fd5b600034111561122157346111a982600b546133f490919063ffffffff16565b11156111ea576040517f08c379a00000000000000000000000000000000000000000000000000000000081526004016111e190615387565b60405180910390fd5b6000600e54111561121c57600e5434611203919061557a565b601560008282546112149190615524565b925050819055505b6114ec565b8068d8d726b7177a80000061123691906155ab565b601060029054906101000a900473ffffffffffffffffffffffffffffffffffffffff1673ffffffffffffffffffffffffffffffffffffffff166370a08231336040518263ffffffff1660e01b81526004016112919190614e43565b60206040518083038186803b1580156112a957600080fd5b505afa1580156112bd573d6000803e3d6000fd5b505050506040513d601f19601f820116820180604052508101906112e19190614822565b1015611322576040517f08c379a0000000000000000000000000000000000000000000000000000000008152600401611319906150c7565b60405180910390fd5b8068d8d726b7177a80000061133791906155ab565b601060029054906101000a900473ffffffffffffffffffffffffffffffffffffffff1673ffffffffffffffffffffffffffffffffffffffff1663dd62ed3e33306040518363ffffffff1660e01b8152600401611394929190614e5e565b60206040518083038186803b1580156113ac57600080fd5b505afa1580156113c0573d6000803e3d6000fd5b505050506040513d601f19601f820116820180604052508101906113e49190614822565b1015611425576040517f08c379a000000000000000000000000000000000000000000000000000000000815260040161141c906153a7565b60405180910390fd5b601060029054906101000a900473ffffffffffffffffffffffffffffffffffffffff1673ffffffffffffffffffffffffffffffffffffffff166323b872dd33308468d8d726b7177a80000061147a91906155ab565b6040518463ffffffff1660e01b815260040161149893929190614e87565b602060405180830381600087803b1580156114b257600080fd5b505af11580156114c6573d6000803e3d6000fd5b505050506040513d601f19601f820116820180604052508101906114ea91906145d2565b505b600080600090505b828110156115545761150660076122e5565b611510600761326e565b915061151c338361340a565b816019600061152f60175460185461327c565b815260200190815260200160002081905550808061154c9061576e565b9150506114f4565b505050565b6115616141fc565b61157d601a600084815260200190815260200160002054613428565b9050919050565b6000806002600084815260200190815260200160002060009054906101000a900473ffffffffffffffffffffffffffffffffffffffff169050600073ffffffffffffffffffffffffffffffffffffffff168173ffffffffffffffffffffffffffffffffffffffff16141561162d576040517f08c379a000000000000000000000000000000000000000000000000000000000815260040161162490615207565b60405180910390fd5b80915050919050565b6000606060095460125461164a600761326e565b6116549190615605565b101580156116a15750600c5460135461166d9190615524565b421180156116885750601660009054906101000a900460ff16155b80156116a05750601060009054906101000a900460ff165b5b915083838080601f016020809104026020016040519081016040528093929190818152602001838380828437600081840152601f19601f8201169050808301925050505050505090509250929050565b60008073ffffffffffffffffffffffffffffffffffffffff168273ffffffffffffffffffffffffffffffffffffffff161415611762576040517f08c379a0000000000000000000000000000000000000000000000000000000008152600401611759906151e7565b60405180910390fd5b600360008373ffffffffffffffffffffffffffffffffffffffff1673ffffffffffffffffffffffffffffffffffffffff168152602001908152602001600020549050919050565b601660009054906101000a900460ff1681565b60155481565b60125481565b7f000000000000000000000000000000000000000000000000000000000000000073ffffffffffffffffffffffffffffffffffffffff163373ffffffffffffffffffffffffffffffffffffffff1614611856576040517f08c379a000000000000000000000000000000000000000000000000000000000815260040161184d90615307565b60405180910390fd5b6118608282613633565b5050565b6060600180546118739061570b565b80601f016020809104026020016040519081016040528092919081815260200182805461189f9061570b565b80156118ec5780601f106118c1576101008083540402835291602001916118ec565b820191906000526020600020905b8154815290600101906020018083116118cf57829003601f168201915b5050505050905090565b600d80546119039061570b565b80601f016020809104026020016040519081016040528092919081815260200182805461192f9061570b565b801561197c5780601f106119515761010080835404028352916020019161197c565b820191906000526020600020905b81548152906001019060200180831161195f57829003601f168201915b505050505081565b601b6020528060005260406000206000915054906101000a900460ff1681565b6119ac6123d1565b73ffffffffffffffffffffffffffffffffffffffff168273ffffffffffffffffffffffffffffffffffffffff161415611a1a576040517f08c379a0000000000000000000000000000000000000000000000000000000008152600401611a1190615127565b60405180910390fd5b8060056000611a276123d1565b73ffffffffffffffffffffffffffffffffffffffff1673ffffffffffffffffffffffffffffffffffffffff16815260200190815260200160002060008473ffffffffffffffffffffffffffffffffffffffff1673ffffffffffffffffffffffffffffffffffffffff16815260200190815260200160002060006101000a81548160ff0219169083151502179055508173ffffffffffffffffffffffffffffffffffffffff16611ad46123d1565b73ffffffffffffffffffffffffffffffffffffffff167f17307eab39ab6107e8899845ad3d59bd9653f200f220920489ca2b5937696c3183604051611b199190614f71565b60405180910390a35050565b601160009054906101000a900473ffffffffffffffffffffffffffffffffffffffff1673ffffffffffffffffffffffffffffffffffffffff163373ffffffffffffffffffffffffffffffffffffffff1614611b7f57600080fd5b88601060006101000a81548160ff02191690831515021790555087601060016101000a81548160ff02191690831515021790555086600c819055508560098190555084600a8190555083600b8190555082600e8190555081600f8190555080601160006101000a81548173ffffffffffffffffffffffffffffffffffffffff021916908373ffffffffffffffffffffffffffffffffffffffff160217905550505050505050505050565b600f5481565b600e5481565b60088060000154905081565b611c52611c4c6123d1565b83612492565b611c91576040517f08c379a0000000000000000000000000000000000000000000000000000000008152600401611c8890615367565b60405180910390fd5b611c9d8484848461389d565b50505050565b6060611cae82612365565b611ced576040517f08c379a0000000000000000000000000000000000000000000000000000000008152600401611ce4906152e7565b60405180910390fd5b6000611cf76138f9565b90506000815111611d175760405180602001604052806000815250611d42565b80611d218461398b565b604051602001611d32929190614e1f565b6040516020818303038152906040525b915050919050565b601060009054906101000a900460ff1681565b3373ffffffffffffffffffffffffffffffffffffffff16611d7d82611584565b73ffffffffffffffffffffffffffffffffffffffff1614611dd3576040517f08c379a0000000000000000000000000000000000000000000000000000000008152600401611dca90615067565b60405180910390fd5b611df4601a600083815260200190815260200160002054601b600f546127cc565b611e33576040517f08c379a0000000000000000000000000000000000000000000000000000000008152600401611e2a90615147565b60405180910390fd5b6012548111611e77576040517f08c379a0000000000000000000000000000000000000000000000000000000008152600401611e6e90615287565b60405180910390fd5b3373ffffffffffffffffffffffffffffffffffffffff166108fc6015549081150290604051600060405180830381858888f19350505050158015611ebf573d6000803e3d6000fd5b507f8e08d027f26cf11e15667e420e375ebb34d5fc8976be18d4a341696c9a9e5dd0611eeb600861326e565b3383604051611efc939291906153fe565b60405180910390a16000601581905550611f1660086122e5565b426013819055506000601660006101000a81548160ff021916908315150217905550611f42600761326e565b601281905550601060019054906101000a900460ff16601060006101000a81548160ff0219169083151502179055506000600190505b604c811015611fc0576000601b600083815260200190815260200160002060006101000a81548160ff0219169083151502179055508080611fb89061576e565b915050611f78565b5050565b6000600560008473ffffffffffffffffffffffffffffffffffffffff1673ffffffffffffffffffffffffffffffffffffffff16815260200190815260200160002060008373ffffffffffffffffffffffffffffffffffffffff1673ffffffffffffffffffffffffffffffffffffffff16815260200190815260200160002060009054906101000a900460ff16905092915050565b601a6020528060005260406000206000915090505481565b601160009054906101000a900473ffffffffffffffffffffffffffffffffffffffff1673ffffffffffffffffffffffffffffffffffffffff163373ffffffffffffffffffffffffffffffffffffffff16146120ca57600080fd5b6000811115612166578173ffffffffffffffffffffffffffffffffffffffff1663a9059cbb33836040518363ffffffff1660e01b815260040161210e929190614f0a565b602060405180830381600087803b15801561212857600080fd5b505af115801561213c573d6000803e3d6000fd5b505050506040513d601f19601f8201168201806040525081019061216091906145d2565b506122db565b6000612190600461218260155447613b3890919063ffffffff16565b613b4e90919063ffffffff16565b905072796e910bd0228ddf4cd79e3f353871a61c351c73ffffffffffffffffffffffffffffffffffffffff166108fc829081150290604051600060405180830381858888f193505050506121e357600080fd5b737fc55376d5a29e0ee86c18c81bb2fc8f9f490e5073ffffffffffffffffffffffffffffffffffffffff166108fc829081150290604051600060405180830381858888f1935050505061223557600080fd5b73b58fb5372e9aa0c86c3b281179c05af3bb7a181b73ffffffffffffffffffffffffffffffffffffffff166108fc829081150290604051600060405180830381858888f1935050505061228757600080fd5b73d83dd8a288270512b8a46f581a8254cd971dcb0973ffffffffffffffffffffffffffffffffffffffff166108fc829081150290604051600060405180830381858888f193505050506122d957600080fd5b505b5050565b60145481565b6001816000016000828254019250508190555050565b60007f01ffc9a7000000000000000000000000000000000000000000000000000000007bffffffffffffffffffffffffffffffffffffffffffffffffffffffff1916827bffffffffffffffffffffffffffffffffffffffffffffffffffffffff1916149050919050565b60008073ffffffffffffffffffffffffffffffffffffffff166002600084815260200190815260200160002060009054906101000a900473ffffffffffffffffffffffffffffffffffffffff1673ffffffffffffffffffffffffffffffffffffffff1614159050919050565b600033905090565b816004600083815260200190815260200160002060006101000a81548173ffffffffffffffffffffffffffffffffffffffff021916908373ffffffffffffffffffffffffffffffffffffffff160217905550808273ffffffffffffffffffffffffffffffffffffffff1661244c83611584565b73ffffffffffffffffffffffffffffffffffffffff167f8c5be1e5ebec7d5bd14f71427d1e84f3dd0314c0f7b2291e5b200ac8c7c3b92560405160405180910390a45050565b600061249d82612365565b6124dc576040517f08c379a00000000000000000000000000000000000000000000000000000000081526004016124d390615187565b60405180910390fd5b60006124e783611584565b90508073ffffffffffffffffffffffffffffffffffffffff168473ffffffffffffffffffffffffffffffffffffffff16148061255657508373ffffffffffffffffffffffffffffffffffffffff1661253e84610b87565b73ffffffffffffffffffffffffffffffffffffffff16145b8061256757506125668185611fc4565b5b91505092915050565b8273ffffffffffffffffffffffffffffffffffffffff1661259082611584565b73ffffffffffffffffffffffffffffffffffffffff16146125e6576040517f08c379a00000000000000000000000000000000000000000000000000000000081526004016125dd906152c7565b60405180910390fd5b600073ffffffffffffffffffffffffffffffffffffffff168273ffffffffffffffffffffffffffffffffffffffff161415612656576040517f08c379a000000000000000000000000000000000000000000000000000000000815260040161264d90615107565b60405180910390fd5b612661838383613b64565b61266c6000826123d9565b6001600360008573ffffffffffffffffffffffffffffffffffffffff1673ffffffffffffffffffffffffffffffffffffffff16815260200190815260200160002060008282546126bc9190615605565b925050819055506001600360008473ffffffffffffffffffffffffffffffffffffffff1673ffffffffffffffffffffffffffffffffffffffff16815260200190815260200160002060008282546127139190615524565b92505081905550816002600083815260200190815260200160002060006101000a81548173ffffffffffffffffffffffffffffffffffffffff021916908373ffffffffffffffffffffffffffffffffffffffff160217905550808273ffffffffffffffffffffffffffffffffffffffff168473ffffffffffffffffffffffffffffffffffffffff167fddf252ad1be2c89b69c2b068fc378daa952ba7f163c4a11628f55a4df523b3ef60405160405180910390a4505050565b6000806127d885613428565b90506127e2614249565b60005b60058110156129ae576040518060a0016040528084600001518360058110612836577f4e487b7100000000000000000000000000000000000000000000000000000000600052603260045260246000fd5b602002015181526020018460200151836005811061287d577f4e487b7100000000000000000000000000000000000000000000000000000000600052603260045260246000fd5b60200201518152602001846040015183600581106128c4577f4e487b7100000000000000000000000000000000000000000000000000000000600052603260045260246000fd5b602002015181526020018460600151836005811061290b577f4e487b7100000000000000000000000000000000000000000000000000000000600052603260045260246000fd5b6020020151815260200184608001518360058110612952577f4e487b7100000000000000000000000000000000000000000000000000000000600052603260045260246000fd5b60200201518152508282600d8110612993577f4e487b7100000000000000000000000000000000000000000000000000000000600052603260045260246000fd5b602002018190525080806129a69061576e565b9150506127e5565b8260000151826005600d81106129ed577f4e487b7100000000000000000000000000000000000000000000000000000000600052603260045260246000fd5b60200201819052508260200151826006600d8110612a34577f4e487b7100000000000000000000000000000000000000000000000000000000600052603260045260246000fd5b60200201819052508260400151826007600d8110612a7b577f4e487b7100000000000000000000000000000000000000000000000000000000600052603260045260246000fd5b60200201819052508260600151826008600d8110612ac2577f4e487b7100000000000000000000000000000000000000000000000000000000600052603260045260246000fd5b60200201819052508260800151826009600d8110612b09577f4e487b7100000000000000000000000000000000000000000000000000000000600052603260045260246000fd5b60200201819052506040518060a001604052808460000151600060058110612b5a577f4e487b7100000000000000000000000000000000000000000000000000000000600052603260045260246000fd5b602002015181526020018460200151600160058110612ba2577f4e487b7100000000000000000000000000000000000000000000000000000000600052603260045260246000fd5b602002015181526020018460400151600260058110612bea577f4e487b7100000000000000000000000000000000000000000000000000000000600052603260045260246000fd5b602002015181526020018460600151600360058110612c32577f4e487b7100000000000000000000000000000000000000000000000000000000600052603260045260246000fd5b602002015181526020018460800151600460058110612c7a577f4e487b7100000000000000000000000000000000000000000000000000000000600052603260045260246000fd5b602002015181525082600a600d8110612cbc577f4e487b7100000000000000000000000000000000000000000000000000000000600052603260045260246000fd5b60200201819052506040518060a001604052808460000151600460058110612d0d577f4e487b7100000000000000000000000000000000000000000000000000000000600052603260045260246000fd5b602002015181526020018460200151600360058110612d55577f4e487b7100000000000000000000000000000000000000000000000000000000600052603260045260246000fd5b602002015181526020018460400151600260058110612d9d577f4e487b7100000000000000000000000000000000000000000000000000000000600052603260045260246000fd5b602002015181526020018460600151600160058110612de5577f4e487b7100000000000000000000000000000000000000000000000000000000600052603260045260246000fd5b602002015181526020018460800151600060058110612e2d577f4e487b7100000000000000000000000000000000000000000000000000000000600052603260045260246000fd5b602002015181525082600b600d8110612e6f577f4e487b7100000000000000000000000000000000000000000000000000000000600052603260045260246000fd5b60200201819052506040518060a001604052808460000151600060058110612ec0577f4e487b7100000000000000000000000000000000000000000000000000000000600052603260045260246000fd5b602002015181526020018460800151600060058110612f08577f4e487b7100000000000000000000000000000000000000000000000000000000600052603260045260246000fd5b602002015181526020018460000151600460058110612f50577f4e487b7100000000000000000000000000000000000000000000000000000000600052603260045260246000fd5b602002015181526020018460800151600460058110612f98577f4e487b7100000000000000000000000000000000000000000000000000000000600052603260045260246000fd5b602002015181526020018460000151600060058110612fe0577f4e487b7100000000000000000000000000000000000000000000000000000000600052603260045260246000fd5b602002015181525082600c600d8110613022577f4e487b7100000000000000000000000000000000000000000000000000000000600052603260045260246000fd5b602002018190525060009350600080600080600094505b600d8510156132605760009050600091505b60058210156131bd578960008787600d8110613090577f4e487b7100000000000000000000000000000000000000000000000000000000600052603260045260246000fd5b602002015184600581106130cd577f4e487b7100000000000000000000000000000000000000000000000000000000600052603260045260246000fd5b6020020151815260200190815260200160002060009054906101000a900460ff1680613173575060638686600d811061312f577f4e487b7100000000000000000000000000000000000000000000000000000000600052603260045260246000fd5b6020020151836005811061316c577f4e487b7100000000000000000000000000000000000000000000000000000000600052603260045260246000fd5b6020020151145b156131aa5780806131839061576e565b915050600a8514806131955750600b85145b156131a95783806131a59061576e565b9450505b5b81806131b59061576e565b92505061304b565b60058114156131d55782806131d19061576e565b9350505b6001891480156131e55750600581145b80156131f25750600c8514155b8061320957506002891480156132085750600a84145b5b80613220575060038914801561321f5750600c83145b5b8061324357506004891480156132365750600581145b80156132425750600c85145b5b1561324d57600197505b84806132589061576e565b955050613039565b505050505050509392505050565b600081600001549050919050565b60007f000000000000000000000000000000000000000000000000000000000000000073ffffffffffffffffffffffffffffffffffffffff16634000aea07f0000000000000000000000000000000000000000000000000000000000000000848660006040516020016132f0929190614fd7565b6040516020818303038152906040526040518463ffffffff1660e01b815260040161331d93929190614f33565b602060405180830381600087803b15801561333757600080fd5b505af115801561334b573d6000803e3d6000fd5b505050506040513d601f19601f8201168201806040525081019061336f91906145d2565b506000613392846000306006600089815260200190815260200160002054613b69565b9050600160066000868152602001908152602001600020546133b49190615524565b60066000868152602001908152602001600020819055506133d58482613ba5565b91505092915050565b600081836133ec9190615524565b905092915050565b6000818361340291906155ab565b905092915050565b613424828260405180602001604052806000815250613bd8565b5050565b6134306141fc565b600082141561343e5761362e565b613446614277565b600080600090505b600581101561362a5761348b858260405160200161346d929190615435565b6040516020818303038152906040528051906020012060001c613c33565b9250600091505b60058210156135a4576002811480156134ab5750600282145b156134f95760638383600581106134eb577f4e487b7100000000000000000000000000000000000000000000000000000000600052603260045260246000fd5b602002018181525050613591565b600f8161350691906155ab565b83836005811061353f577f4e487b7100000000000000000000000000000000000000000000000000000000600052603260045260246000fd5b602002015161354e9190615524565b838360058110613587577f4e487b7100000000000000000000000000000000000000000000000000000000600052603260045260246000fd5b6020020181815250505b818061359c9061576e565b925050613492565b60008114156135bb57828460000181905250613617565b60018114156135d257828460200181905250613616565b60028114156135e957828460400181905250613615565b600381141561360057828460600181905250613614565b6004811415613613578284608001819052505b5b5b5b5b80806136229061576e565b91505061344e565b5050505b919050565b6014548214156137ac576014548214613681576040517f08c379a000000000000000000000000000000000000000000000000000000000815260040161367890615167565b60405180910390fd5b600080600090505b604c8110156137a5576136cb60016136bd604b6136af85886133de90919063ffffffff16565b613e6e90919063ffffffff16565b6133de90919063ffffffff16565b915060001515601b600084815260200190815260200160002060009054906101000a900460ff161515141561376d576001601b600084815260200190815260200160002060006101000a81548160ff0219169083151502179055507fd85a895f825d2064ec30917b67b720684fafc60d3c7e8c33b9d1abd623b0cb6d613751600861326e565b83604051613760929190615435565b60405180910390a16137a5565b604b811415613792576001601660006101000a81548160ff0219169083151502179055505b808061379d9061576e565b915050613689565b5050613899565b6000601960008481526020019081526020016000205411613802576040517f08c379a00000000000000000000000000000000000000000000000000000000081526004016137f990615347565b60405180910390fd5b60006019600084815260200190815260200160002054905081601a600083815260200190815260200160002081905550600060196000858152602001908152602001600020819055507ff4667020580928dc83ab932094d72fc76e1b38d5d661a420dc5b5aea7de31ee3613876600861326e565b61387f83611584565b8360405161388f939291906153fe565b60405180910390a1505b5050565b6138a8848484612570565b6138b484848484613e84565b6138f3576040517f08c379a00000000000000000000000000000000000000000000000000000000081526004016138ea90615087565b60405180910390fd5b50505050565b6060600d80546139089061570b565b80601f01602080910402602001604051908101604052809291908181526020018280546139349061570b565b80156139815780601f1061395657610100808354040283529160200191613981565b820191906000526020600020905b81548152906001019060200180831161396457829003601f168201915b5050505050905090565b606060008214156139d3576040518060400160405280600181526020017f30000000000000000000000000000000000000000000000000000000000000008152509050613b33565b600082905060005b60008214613a055780806139ee9061576e565b915050600a826139fe919061557a565b91506139db565b60008167ffffffffffffffff811115613a47577f4e487b7100000000000000000000000000000000000000000000000000000000600052604160045260246000fd5b6040519080825280601f01601f191660200182016040528015613a795781602001600182028036833780820191505090505b5090505b60008514613b2c57600182613a929190615605565b9150600a85613aa191906157cb565b6030613aad9190615524565b60f81b818381518110613ae9577f4e487b7100000000000000000000000000000000000000000000000000000000600052603260045260246000fd5b60200101907effffffffffffffffffffffffffffffffffffffffffffffffffffffffffffff1916908160001a905350600a85613b25919061557a565b9450613a7d565b8093505050505b919050565b60008183613b469190615605565b905092915050565b60008183613b5c919061557a565b905092915050565b505050565b600084848484604051602001613b829493929190615000565b6040516020818303038152906040528051906020012060001c9050949350505050565b60008282604051602001613bba929190614df3565b60405160208183030381529060405280519060200120905092915050565b613be2838361401b565b613bef6000848484613e84565b613c2e576040517f08c379a0000000000000000000000000000000000000000000000000000000008152600401613c2590615087565b60405180910390fd5b505050565b613c3b614277565b613c43614299565b60005b600f811015613cb157600181613c5c9190615524565b8282600f8110613c95577f4e487b7100000000000000000000000000000000000000000000000000000000600052603260045260246000fd5b6020020181815250508080613ca99061576e565b915050613c46565b50600080600090505b6005811015613e6657613d19816001613cd39190615524565b600f613cdf9190615605565b8683604051602001613cf2929190615435565b6040516020818303038152906040528051906020012060001c613e6e90919063ffffffff16565b91508282600f8110613d54577f4e487b7100000000000000000000000000000000000000000000000000000000600052603260045260246000fd5b6020020151848260058110613d92577f4e487b7100000000000000000000000000000000000000000000000000000000600052603260045260246000fd5b602002018181525050806001613da89190615524565b600f613db49190615605565b8214613e535782816001613dc89190615524565b600f613dd49190615605565b600f8110613e0b577f4e487b7100000000000000000000000000000000000000000000000000000000600052603260045260246000fd5b60200201518383600f8110613e49577f4e487b7100000000000000000000000000000000000000000000000000000000600052603260045260246000fd5b6020020181815250505b8080613e5e9061576e565b915050613cba565b505050919050565b60008183613e7c91906157cb565b905092915050565b6000613ea58473ffffffffffffffffffffffffffffffffffffffff166141e9565b1561400e578373ffffffffffffffffffffffffffffffffffffffff1663150b7a02613ece6123d1565b8786866040518563ffffffff1660e01b8152600401613ef09493929190614ebe565b602060405180830381600087803b158015613f0a57600080fd5b505af1925050508015613f3b57506040513d601f19601f82011682018060405250810190613f38919061474f565b60015b613fbe573d8060008114613f6b576040519150601f19603f3d011682016040523d82523d6000602084013e613f70565b606091505b50600081511415613fb6576040517f08c379a0000000000000000000000000000000000000000000000000000000008152600401613fad90615087565b60405180910390fd5b805181602001fd5b63150b7a0260e01b7bffffffffffffffffffffffffffffffffffffffffffffffffffffffff1916817bffffffffffffffffffffffffffffffffffffffffffffffffffffffff191614915050614013565b600190505b949350505050565b600073ffffffffffffffffffffffffffffffffffffffff168273ffffffffffffffffffffffffffffffffffffffff16141561408b576040517f08c379a000000000000000000000000000000000000000000000000000000000815260040161408290615247565b60405180910390fd5b61409481612365565b156140d4576040517f08c379a00000000000000000000000000000000000000000000000000000000081526004016140cb906150a7565b60405180910390fd5b6140e060008383613b64565b6001600360008473ffffffffffffffffffffffffffffffffffffffff1673ffffffffffffffffffffffffffffffffffffffff16815260200190815260200160002060008282546141309190615524565b92505081905550816002600083815260200190815260200160002060006101000a81548173ffffffffffffffffffffffffffffffffffffffff021916908373ffffffffffffffffffffffffffffffffffffffff160217905550808273ffffffffffffffffffffffffffffffffffffffff16600073ffffffffffffffffffffffffffffffffffffffff167fddf252ad1be2c89b69c2b068fc378daa952ba7f163c4a11628f55a4df523b3ef60405160405180910390a45050565b600080823b905060008111915050919050565b6040518060a0016040528061420f614277565b815260200161421c614277565b8152602001614229614277565b8152602001614236614277565b8152602001614243614277565b81525090565b604051806101a00160405280600d905b614261614277565b8152602001906001900390816142595790505090565b6040518060a00160405280600590602082028036833780820191505090505090565b604051806101e00160405280600f90602082028036833780820191505090505090565b60006142cf6142ca84615483565b61545e565b9050828152602081018484840111156142e757600080fd5b6142f28482856156c9565b509392505050565b60008135905061430981615ebe565b92915050565b60008135905061431e81615ed5565b92915050565b60008151905061433381615ed5565b92915050565b60008135905061434881615eec565b92915050565b60008135905061435d81615f03565b92915050565b60008151905061437281615f03565b92915050565b60008083601f84011261438a57600080fd5b8235905067ffffffffffffffff8111156143a357600080fd5b6020830191508360018202830111156143bb57600080fd5b9250929050565b600082601f8301126143d357600080fd5b81356143e38482602086016142bc565b91505092915050565b6000813590506143fb81615f1a565b92915050565b60008135905061441081615f31565b92915050565b60008151905061442581615f31565b92915050565b60006020828403121561443d57600080fd5b600061444b848285016142fa565b91505092915050565b6000806040838503121561446757600080fd5b6000614475858286016142fa565b9250506020614486858286016142fa565b9150509250929050565b6000806000606084860312156144a557600080fd5b60006144b3868287016142fa565b93505060206144c4868287016142fa565b92505060406144d586828701614401565b9150509250925092565b600080600080608085870312156144f557600080fd5b6000614503878288016142fa565b9450506020614514878288016142fa565b935050604061452587828801614401565b925050606085013567ffffffffffffffff81111561454257600080fd5b61454e878288016143c2565b91505092959194509250565b6000806040838503121561456d57600080fd5b600061457b858286016142fa565b925050602061458c8582860161430f565b9150509250929050565b600080604083850312156145a957600080fd5b60006145b7858286016142fa565b92505060206145c885828601614401565b9150509250929050565b6000602082840312156145e457600080fd5b60006145f284828501614324565b91505092915050565b60008060008060008060008060006101208a8c03121561461a57600080fd5b60006146288c828d0161430f565b99505060206146398c828d0161430f565b985050604061464a8c828d01614401565b975050606061465b8c828d01614401565b965050608061466c8c828d01614401565b95505060a061467d8c828d01614401565b94505060c061468e8c828d01614401565b93505060e061469f8c828d01614401565b9250506101006146b18c828d016142fa565b9150509295985092959850929598565b6000602082840312156146d357600080fd5b60006146e184828501614339565b91505092915050565b600080604083850312156146fd57600080fd5b600061470b85828601614339565b925050602061471c85828601614401565b9150509250929050565b60006020828403121561473857600080fd5b60006147468482850161434e565b91505092915050565b60006020828403121561476157600080fd5b600061476f84828501614363565b91505092915050565b6000806020838503121561478b57600080fd5b600083013567ffffffffffffffff8111156147a557600080fd5b6147b185828601614378565b92509250509250929050565b600080604083850312156147d057600080fd5b60006147de858286016143ec565b92505060206147ef85828601614401565b9150509250929050565b60006020828403121561480b57600080fd5b600061481984828501614401565b91505092915050565b60006020828403121561483457600080fd5b600061484284828501614416565b91505092915050565b60006148578383614dbe565b60208301905092915050565b61486c81615639565b82525050565b61487b816154be565b61488581846154ec565b9250614890826154b4565b8060005b838110156148c15781516148a8878261484b565b96506148b3836154df565b925050600181019050614894565b505050505050565b6148d28161564b565b82525050565b6148e181615657565b82525050565b6148f86148f382615657565b6157b7565b82525050565b6000614909826154c9565b61491381856154f7565b93506149238185602086016156d8565b61492c816158b8565b840191505092915050565b6000614942826154d4565b61494c8185615508565b935061495c8185602086016156d8565b614965816158b8565b840191505092915050565b600061497b826154d4565b6149858185615519565b93506149958185602086016156d8565b80840191505092915050565b60006149ae600283615508565b91506149b9826158c9565b602082019050919050565b60006149d1603283615508565b91506149dc826158f2565b604082019050919050565b60006149f4601c83615508565b91506149ff82615941565b602082019050919050565b6000614a17600283615508565b9150614a228261596a565b602082019050919050565b6000614a3a600183615508565b9150614a4582615993565b602082019050919050565b6000614a5d602483615508565b9150614a68826159bc565b604082019050919050565b6000614a80601983615508565b9150614a8b82615a0b565b602082019050919050565b6000614aa3600283615508565b9150614aae82615a34565b602082019050919050565b6000614ac6600283615508565b9150614ad182615a5d565b602082019050919050565b6000614ae9602c83615508565b9150614af482615a86565b604082019050919050565b6000614b0c600283615508565b9150614b1782615ad5565b602082019050919050565b6000614b2f603883615508565b9150614b3a82615afe565b604082019050919050565b6000614b52602a83615508565b9150614b5d82615b4d565b604082019050919050565b6000614b75602983615508565b9150614b8082615b9c565b604082019050919050565b6000614b98600283615508565b9150614ba382615beb565b602082019050919050565b6000614bbb602083615508565b9150614bc682615c14565b602082019050919050565b6000614bde600183615508565b9150614be982615c3d565b602082019050919050565b6000614c01600283615508565b9150614c0c82615c66565b602082019050919050565b6000614c24602c83615508565b9150614c2f82615c8f565b604082019050919050565b6000614c47602983615508565b9150614c5282615cde565b604082019050919050565b6000614c6a602f83615508565b9150614c7582615d2d565b604082019050919050565b6000614c8d601f83615508565b9150614c9882615d7c565b602082019050919050565b6000614cb0602183615508565b9150614cbb82615da5565b604082019050919050565b6000614cd3600283615508565b9150614cde82615df4565b602082019050919050565b6000614cf6603183615508565b9150614d0182615e1d565b604082019050919050565b6000614d19600283615508565b9150614d2482615e6c565b602082019050919050565b6000614d3c600283615508565b9150614d4782615e95565b602082019050919050565b61032082016000820151614d696000850182614872565b506020820151614d7c60a0850182614872565b506040820151614d90610140850182614872565b506060820151614da46101e0850182614872565b506080820151614db8610280850182614872565b50505050565b614dc7816156bf565b82525050565b614dd6816156bf565b82525050565b614ded614de8826156bf565b6157c1565b82525050565b6000614dff82856148e7565b602082019150614e0f8284614ddc565b6020820191508190509392505050565b6000614e2b8285614970565b9150614e378284614970565b91508190509392505050565b6000602082019050614e586000830184614863565b92915050565b6000604082019050614e736000830185614863565b614e806020830184614863565b9392505050565b6000606082019050614e9c6000830186614863565b614ea96020830185614863565b614eb66040830184614dcd565b949350505050565b6000608082019050614ed36000830187614863565b614ee06020830186614863565b614eed6040830185614dcd565b8181036060830152614eff81846148fe565b905095945050505050565b6000604082019050614f1f6000830185614863565b614f2c6020830184614dcd565b9392505050565b6000606082019050614f486000830186614863565b614f556020830185614dcd565b8181036040830152614f6781846148fe565b9050949350505050565b6000602082019050614f8660008301846148c9565b92915050565b6000604082019050614fa160008301856148c9565b8181036020830152614fb381846148fe565b90509392505050565b6000602082019050614fd160008301846148d8565b92915050565b6000604082019050614fec60008301856148d8565b614ff96020830184614dcd565b9392505050565b600060808201905061501560008301876148d8565b6150226020830186614dcd565b61502f6040830185614863565b61503c6060830184614dcd565b95945050505050565b6000602082019050818103600083015261505f8184614937565b905092915050565b60006020820190508181036000830152615080816149a1565b9050919050565b600060208201905081810360008301526150a0816149c4565b9050919050565b600060208201905081810360008301526150c0816149e7565b9050919050565b600060208201905081810360008301526150e081614a0a565b9050919050565b6000602082019050818103600083015261510081614a2d565b9050919050565b6000602082019050818103600083015261512081614a50565b9050919050565b6000602082019050818103600083015261514081614a73565b9050919050565b6000602082019050818103600083015261516081614a96565b9050919050565b6000602082019050818103600083015261518081614ab9565b9050919050565b600060208201905081810360008301526151a081614adc565b9050919050565b600060208201905081810360008301526151c081614aff565b9050919050565b600060208201905081810360008301526151e081614b22565b9050919050565b6000602082019050818103600083015261520081614b45565b9050919050565b6000602082019050818103600083015261522081614b68565b9050919050565b6000602082019050818103600083015261524081614b8b565b9050919050565b6000602082019050818103600083015261526081614bae565b9050919050565b6000602082019050818103600083015261528081614bd1565b9050919050565b600060208201905081810360008301526152a081614bf4565b9050919050565b600060208201905081810360008301526152c081614c17565b9050919050565b600060208201905081810360008301526152e081614c3a565b9050919050565b6000602082019050818103600083015261530081614c5d565b9050919050565b6000602082019050818103600083015261532081614c80565b9050919050565b6000602082019050818103600083015261534081614ca3565b9050919050565b6000602082019050818103600083015261536081614cc6565b9050919050565b6000602082019050818103600083015261538081614ce9565b9050919050565b600060208201905081810360008301526153a081614d0c565b9050919050565b600060208201905081810360008301526153c081614d2f565b9050919050565b6000610320820190506153dd6000830184614d52565b92915050565b60006020820190506153f86000830184614dcd565b92915050565b60006060820190506154136000830186614dcd565b6154206020830185614863565b61542d6040830184614dcd565b949350505050565b600060408201905061544a6000830185614dcd565b6154576020830184614dcd565b9392505050565b6000615468615479565b9050615474828261573d565b919050565b6000604051905090565b600067ffffffffffffffff82111561549e5761549d615889565b5b6154a7826158b8565b9050602081019050919050565b6000819050919050565b600060059050919050565b600081519050919050565b600081519050919050565b6000602082019050919050565b600081905092915050565b600082825260208201905092915050565b600082825260208201905092915050565b600081905092915050565b600061552f826156bf565b915061553a836156bf565b9250827fffffffffffffffffffffffffffffffffffffffffffffffffffffffffffffffff0382111561556f5761556e6157fc565b5b828201905092915050565b6000615585826156bf565b9150615590836156bf565b9250826155a05761559f61582b565b5b828204905092915050565b60006155b6826156bf565b91506155c1836156bf565b9250817fffffffffffffffffffffffffffffffffffffffffffffffffffffffffffffffff04831182151516156155fa576155f96157fc565b5b828202905092915050565b6000615610826156bf565b915061561b836156bf565b92508282101561562e5761562d6157fc565b5b828203905092915050565b60006156448261569f565b9050919050565b60008115159050919050565b6000819050919050565b60007fffffffff0000000000000000000000000000000000000000000000000000000082169050919050565b600061569882615639565b9050919050565b600073ffffffffffffffffffffffffffffffffffffffff82169050919050565b6000819050919050565b82818337600083830152505050565b60005b838110156156f65780820151818401526020810190506156db565b83811115615705576000848401525b50505050565b6000600282049050600182168061572357607f821691505b602082108114156157375761573661585a565b5b50919050565b615746826158b8565b810181811067ffffffffffffffff8211171561576557615764615889565b5b80604052505050565b6000615779826156bf565b91507fffffffffffffffffffffffffffffffffffffffffffffffffffffffffffffffff8214156157ac576157ab6157fc565b5b600182019050919050565b6000819050919050565b6000819050919050565b60006157d6826156bf565b91506157e1836156bf565b9250826157f1576157f061582b565b5b828206905092915050565b7f4e487b7100000000000000000000000000000000000000000000000000000000600052601160045260246000fd5b7f4e487b7100000000000000000000000000000000000000000000000000000000600052601260045260246000fd5b7f4e487b7100000000000000000000000000000000000000000000000000000000600052602260045260246000fd5b7f4e487b7100000000000000000000000000000000000000000000000000000000600052604160045260246000fd5b6000601f19601f8301169050919050565b7f4e4f000000000000000000000000000000000000000000000000000000000000600082015250565b7f4552433732313a207472616e7366657220746f206e6f6e20455243373231526560008201527f63656976657220696d706c656d656e7465720000000000000000000000000000602082015250565b7f4552433732313a20746f6b656e20616c7265616479206d696e74656400000000600082015250565b7f4e42000000000000000000000000000000000000000000000000000000000000600082015250565b7f4500000000000000000000000000000000000000000000000000000000000000600082015250565b7f4552433732313a207472616e7366657220746f20746865207a65726f2061646460008201527f7265737300000000000000000000000000000000000000000000000000000000602082015250565b7f4552433732313a20617070726f766520746f2063616c6c657200000000000000600082015250565b7f4e57000000000000000000000000000000000000000000000000000000000000600082015250565b7f4952000000000000000000000000000000000000000000000000000000000000600082015250565b7f4552433732313a206f70657261746f7220717565727920666f72206e6f6e657860008201527f697374656e7420746f6b656e0000000000000000000000000000000000000000602082015250565b7f4d54000000000000000000000000000000000000000000000000000000000000600082015250565b7f4552433732313a20617070726f76652063616c6c6572206973206e6f74206f7760008201527f6e6572206e6f7220617070726f76656420666f7220616c6c0000000000000000602082015250565b7f4552433732313a2062616c616e636520717565727920666f7220746865207a6560008201527f726f206164647265737300000000000000000000000000000000000000000000602082015250565b7f4552433732313a206f776e657220717565727920666f72206e6f6e657869737460008201527f656e7420746f6b656e0000000000000000000000000000000000000000000000602082015250565b7f4d50000000000000000000000000000000000000000000000000000000000000600082015250565b7f4552433732313a206d696e7420746f20746865207a65726f2061646472657373600082015250565b7f4c00000000000000000000000000000000000000000000000000000000000000600082015250565b7f4e43000000000000000000000000000000000000000000000000000000000000600082015250565b7f4552433732313a20617070726f76656420717565727920666f72206e6f6e657860008201527f697374656e7420746f6b656e0000000000000000000000000000000000000000602082015250565b7f4552433732313a207472616e73666572206f6620746f6b656e2074686174206960008201527f73206e6f74206f776e0000000000000000000000000000000000000000000000602082015250565b7f4552433732314d657461646174613a2055524920717565727920666f72206e6f60008201527f6e6578697374656e7420746f6b656e0000000000000000000000000000000000602082015250565b7f4f6e6c7920565246436f6f7264696e61746f722063616e2066756c66696c6c00600082015250565b7f4552433732313a20617070726f76616c20746f2063757272656e74206f776e6560008201527f7200000000000000000000000000000000000000000000000000000000000000602082015250565b7f4e41000000000000000000000000000000000000000000000000000000000000600082015250565b7f4552433732313a207472616e736665722063616c6c6572206973206e6f74206f60008201527f776e6572206e6f7220617070726f766564000000000000000000000000000000602082015250565b7f5750000000000000000000000000000000000000000000000000000000000000600082015250565b7f4e50000000000000000000000000000000000000000000000000000000000000600082015250565b615ec781615639565b8114615ed257600080fd5b50565b615ede8161564b565b8114615ee957600080fd5b50565b615ef581615657565b8114615f0057600080fd5b50565b615f0c81615661565b8114615f1757600080fd5b50565b615f238161568d565b8114615f2e57600080fd5b50565b615f3a816156bf565b8114615f4557600080fd5b5056fea264697066735822122015077479f7d3036300a8dffe5bcbbb7783561400f525c2e89e239980d1fb13e564736f6c6343000804003368747470733a2f2f6170692e62696e676f737761702e6172742f62696e676f2d6a736f6e2f",
  "immutableReferences": {
    "1532": [
      {
        "length": 32,
        "start": 3773
      },
      {
        "length": 32,
        "start": 4258
      },
      {
        "length": 32,
        "start": 12928
      }
    ],
    "1534": [
      {
        "length": 32,
        "start": 6090
      },
      {
        "length": 32,
        "start": 12988
      }
    ]
  },
  "source": "//                                  ___           ___           ___\n//       _____        ___          /__/\\         /  /\\         /  /\\\n//      /  /::\\      /  /\\         \\  \\:\\       /  /:/_       /  /::\\\n//     /  /:/\\:\\    /  /:/          \\  \\:\\     /  /:/ /\\     /  /:/\\:\\\n//    /  /:/~/::\\  /__/::\\      _____\\__\\:\\   /  /:/_/::\\   /  /:/  \\:\\\n//   /__/:/ /:/\\:| \\__\\/\\:\\__  /__/::::::::\\ /__/:/__\\/\\:\\ /__/:/ \\__\\:\\\n//   \\  \\:\\/:/~/:/    \\  \\:\\/\\ \\  \\:\\~~\\~~\\/ \\  \\:\\ /~~/:/ \\  \\:\\ /  /:/\n//    \\  \\::/ /:/      \\__\\::/  \\  \\:\\  ~~~   \\  \\:\\  /:/   \\  \\:\\  /:/\n//     \\  \\:\\/:/       /__/:/    \\  \\:\\        \\  \\:\\/:/     \\  \\:\\/:/\n//      \\  \\::/        \\__\\/      \\  \\:\\        \\  \\::/       \\  \\::/\n//       \\__\\/                     \\__\\/         \\__\\/         \\__\\/\n//\n// SPDX-License-Identifier: MIT\n\npragma solidity >=0.8.0 <0.9.0;\nimport '@openzeppelin/contracts/token/ERC721/ERC721.sol';\nimport \"@openzeppelin/contracts/utils/Counters.sol\";\nimport '@openzeppelin/contracts/token/ERC20/IERC20.sol';\nimport '@openzeppelin/contracts/utils/math/SafeMath.sol';\nimport \"@chainlink/contracts/src/v0.8/VRFConsumerBase.sol\";\nimport \"@chainlink/contracts/src/v0.8/interfaces/KeeperCompatibleInterface.sol\";\n\nlibrary BingoGenerate {\n    using SafeMath for uint256;\n\n    // Card\n    struct Card {\n        uint256[5] B;\n        uint256[5] I;\n        uint256[5] N;\n        uint256[5] G;\n        uint256[5] O;\n    }\n\n    // Settings\n    uint256 constant maxCount = 15;\n\n    function generateBingoCard(uint256 randomness) internal pure returns (Card memory card) {\n        if(randomness == 0) {\n            return card;\n        }\n        uint256[5] memory col;\n        uint256 i;\n\n        for(uint256 k=0; k<5; k++) {\n            col = generateColumn(uint256(keccak256(abi.encode(randomness, k))));\n            for(i=0;i<5;i++) {\n                if(k==2 && i==2) {\n                    col[i] = 99;\n                } else {\n                    col[i] = col[i] + (k*maxCount);\n                }\n            }\n\n            // Not sure how to do this better without switch :)\n            if(k == 0) {\n                card.B = col;\n            } else if(k == 1) {\n                card.I = col;\n            } else if(k == 2) {\n                card.N = col;\n            } else if(k == 3) {\n                card.G = col;\n            } else if(k == 4) {\n                card.O = col;\n            }\n        }\n\n        return card;\n    }\n\n    function generateColumn(uint256 randomness) internal pure returns(uint256[5] memory col) {\n        uint256[15] memory possible;\n        for(uint256 i=0; i<15; i++) {\n            possible[i] = i+1;\n        }\n        uint256 idx;\n        for(uint256 k=0; k<5; k++) {\n            idx = uint256(keccak256(abi.encode(randomness, k))).mod(maxCount-(1+k));\n            col[k] = possible[idx];\n            if(idx != 15 - (1+k)) {\n                possible[idx] = possible[15 - (1+k)];\n            }\n        }\n        return col;\n    }\n\n    function validateWinner(uint256 randomness,  mapping (uint256 => bool) storage Balls, uint256 pattern) internal view returns (bool found) {\n        /*\n        Patterns:\n            1 = line\n            2 = X\n            3 = Full card\n            4 = Four corners\n        */\n        Card memory card = generateBingoCard(randomness);\n        uint256[5][13] memory lines;\n        uint256 i;\n        for(i=0; i<5; i++) {\n            lines[i] = [card.B[i], card.I[i], card.N[i], card.G[i], card.O[i]];\n        }\n        lines[5] = uint256[5](card.B);\n        lines[6] = card.I;\n        lines[7] = card.N;\n        lines[8] = card.G;\n        lines[9] = card.O;\n        lines[10] = [card.B[0], card.I[1], card.N[2], card.G[3], card.O[4]];\n        lines[11] = [card.B[4], card.I[3], card.N[2], card.G[1], card.O[0]];\n        lines[12] = [card.B[0], card.O[0], card.B[4], card.O[4], card.B[0]]; // 4 corners\n\n        found = false;\n        uint256 foundDiagonal;\n        uint256 foundLines;\n        uint256 k;\n        uint256 matches;\n        for(i=0; i<13; i++) {\n            matches=0;\n            for(k=0; k<5; k++) {\n                if(Balls[lines[i][k]] || lines[i][k] == 99) {\n                    matches++;\n                    if(i == 10 || i == 11) {\n                        foundDiagonal++;\n                    }\n                }\n            }\n            if(matches == 5) {\n                foundLines++;\n            }\n            if((pattern == 1 && matches == 5 && i != 12)\n            || (pattern == 2 && foundDiagonal == 10)\n            || (pattern == 3 && foundLines == 12)\n            || (pattern == 4 && matches == 5 && i == 12)\n            ) {\n                found = true;\n            }\n        }\n    }\n}\n\n// Welcome to BINGO\ncontract Bingo is ERC721, VRFConsumerBase, KeeperCompatibleInterface {\n    using SafeMath for uint256;\n    using Counters for Counters.Counter;\n    Counters.Counter private _tokenIds;\n    Counters.Counter public _gameIds;\n\n    // Settings\n    uint256 public minCards = 1;     // 10\n    uint256 public maxCards = 1000;\n    uint256 public pricePerCard = 10000000000000000; // 0.01 ETH\n    uint256 public ballDrawTime = 60;   // 86400\n    string public baseUri = 'https://api.bingoswap.art/bingo-json/';\n    uint256 public prizeSplit = 2;\n    uint256 public pattern = 1;\n    bool public startGame;\n    bool public startAuto;\n    address weedContract;\n    address owner;\n\n    // Game\n    uint256 public gameFloor;\n    uint256 public lastBallTime;\n    bytes32 public ballRequest;\n    uint256 public prizePool;\n    bool public outOfBalls;\n\n    // Random\n    bytes32 internal keyHash;\n    uint256 internal fee;\n\n    // Mappings\n    mapping (bytes32 => uint256) public cardRequests;\n    mapping (uint256 => uint256) public cardRandomness;\n    mapping (uint256 => bool) public Balls;\n\n    event BallPicked(uint256 game, uint256 ball);\n    event BingoWinner(uint256 game, address owner, uint256 tokenId);\n    event CardGenerated(uint256 game, address owner, uint256 tokenId);\n\n    modifier onlyOwner {\n        require(msg.sender == owner);\n        _;\n    }\n\n    constructor(address _weedContract)\n    ERC721(\"Bingo\", \"BINGO\")\n    VRFConsumerBase(\n        0xdD3782915140c8f3b190B5D67eAc6dc5760C46E9, // VRF Coordinator - Kovan\n        0xa36085F69e2889c224210F603D836748e7dC0088  // LINK Token - Kovan\n    )\n    {\n        owner = msg.sender;\n        weedContract = _weedContract;\n        keyHash = 0x6c3699283bda56ad74f6b855546325b68d482e983852a7a82979cc4807b641f4;\n        fee = 0.1 * 10 ** 18; // 0.1 LINK (Varies by network)\n\n        // Automatically start the first game\n        _gameIds.increment();\n        lastBallTime = block.timestamp;\n    }\n\n    /*\n    *   Purchase.\n    */\n    function mintCard(uint256 amount) public payable {\n        require(amount <= 10 && startGame && (_tokenIds.current().add(amount) - gameFloor) <= maxCards, \"E\");\n        require(LINK.balanceOf(address(this)) >= fee*amount, \"L\");\n\n        // Mint in ETH\n        if(msg.value > 0) {\n            require(pricePerCard.mul(amount) <= msg.value, \"WP\");\n            if(prizeSplit > 0) {\n                prizePool += msg.value / prizeSplit;\n            }\n        // Mint in WEED\n        } else {\n            require(IERC20(weedContract).balanceOf(msg.sender) >= 4000 * 1e18 * amount, \"NB\");\n            require(IERC20(weedContract).allowance(msg.sender, address(this)) >= 4000 * 1e18 * amount, \"NP\");\n            IERC20(weedContract).transferFrom(msg.sender, address(this), 4000 * 1e18 * amount);\n        }\n\n        uint256 cardId;\n        for(uint256 i=0; i<amount; i++) {\n            _tokenIds.increment();\n             cardId = _tokenIds.current();\n            _safeMint(msg.sender, cardId);\n            cardRequests[requestRandomness(keyHash, fee)] = cardId;\n        }\n    }\n\n    /*\n    *   Randomness.\n    */\n    function checkUpkeep(bytes calldata checkData) external view override returns (bool upkeepNeeded, bytes memory performData) {\n        upkeepNeeded = (_tokenIds.current() - gameFloor >= minCards) && (block.timestamp > lastBallTime+ballDrawTime && !outOfBalls && startGame);\n        performData = checkData;\n    }\n\n    function performUpkeep(bytes calldata performData) external override {\n        require(block.timestamp > lastBallTime+ballDrawTime, \"MT\");\n        require(_tokenIds.current() - gameFloor >= minCards, \"MP\");\n        require(LINK.balanceOf(address(this)) >= fee, \"L\");\n        lastBallTime = block.timestamp;\n        ballRequest = requestRandomness(keyHash, fee);\n        performData;\n    }\n\n    function fulfillRandomness(bytes32 requestId, uint256 randomness) internal override {\n        if(requestId == ballRequest) {\n            require(requestId == ballRequest, \"IR\");\n            uint256 choice;\n            for(uint256 idx=0; idx<76; idx++) {\n                choice = randomness.add(idx).mod(75).add(1);\n                if(Balls[choice] == false) {\n                    Balls[choice] = true;\n                    emit BallPicked(_gameIds.current(), choice);\n                    break;\n                } else if(idx == 75) {\n                    outOfBalls = true;\n                }\n            }\n        } else {\n            require(cardRequests[requestId] > 0, \"NA\");\n            uint256 cardId = cardRequests[requestId];\n            cardRandomness[cardId] = randomness;\n            cardRequests[requestId] = 0;\n            emit CardGenerated(_gameIds.current(), ownerOf(cardId), cardId);\n        }\n    }\n\n    /*\n    *   Claim.\n    */\n    function claimBingo(uint256 cardId) public payable {\n        require(ownerOf(cardId) == msg.sender, \"NO\");\n        require(BingoGenerate.validateWinner(cardRandomness[cardId], Balls, pattern), \"NW\");\n        require(cardId > gameFloor, \"NC\");\n\n        payable(msg.sender).transfer(prizePool);\n        emit BingoWinner(_gameIds.current(), msg.sender, cardId);\n\n        // Reset game\n        prizePool = 0;\n        _gameIds.increment();\n        lastBallTime = block.timestamp;\n        outOfBalls = false;\n        gameFloor = _tokenIds.current();\n        startGame = startAuto;\n        for(uint256 i=1; i<76; i++) {\n            Balls[i] = false;\n        }\n    }\n\n    /*\n    *   Getters.\n    */\n    function generateCard(uint256 cardId) public view returns (BingoGenerate.Card memory) {\n        return BingoGenerate.generateBingoCard(cardRandomness[cardId]);\n    }\n\n    function validateCard(uint256 cardId) public view returns (bool) {\n        return BingoGenerate.validateWinner(cardRandomness[cardId], Balls, pattern);\n    }\n\n    function getCurrent() public view returns (uint256 game, uint256 token) {\n        game = _gameIds.current();\n        token = _tokenIds.current();\n    }\n\n    function exists(uint256 tokenId) public view returns(bool) {\n        return _exists(tokenId);\n    }\n\n    function _baseURI() internal view override returns (string memory) {\n        return baseUri;\n    }\n\n    /*\n    *   Setters.\n    */\n    function contractSettings(bool _startGame, bool _startAuto, uint256 _ballDrawTime, uint256 _minCardsPerGame, uint256 _maxCardsPerGame, uint256 _pricePerCard, uint256 _prizeSplit, uint256 _pattern, address _owner) public onlyOwner {\n        startGame = _startGame;\n        startAuto = _startAuto;\n        ballDrawTime = _ballDrawTime;\n        minCards = _minCardsPerGame;\n        maxCards = _maxCardsPerGame;\n        pricePerCard = _pricePerCard;\n        prizeSplit = _prizeSplit;\n        pattern = _pattern;\n        owner = _owner;\n    }\n\n    /*\n    *   Money management.\n    */\n    function withdraw(IERC20 _token, uint256 _amount) public payable onlyOwner {\n        if(_amount > 0) {\n            _token.transfer(msg.sender, _amount);\n        } else {\n            uint256 _each = address(this).balance.sub(prizePool).div(4);\n            require(payable(0x00796e910Bd0228ddF4cd79e3f353871a61C351C).send(_each));   // sara\n            require(payable(0x7fc55376D5A29e0Ee86C18C81bb2fC8F9f490E50).send(_each));   // shaun\n            require(payable(0xB58Fb5372e9Aa0C86c3B281179c05Af3bB7a181b).send(_each));   // mark\n            require(payable(0xd83Dd8A288270512b8A46F581A8254CD971dCb09).send(_each));   // community (@todo replace)\n        }\n    }\n}\n",
  "sourcePath": "/Users/Shared/Code/experimental/bingo/bingo-contracts/contracts/Bingo.sol",
  "compiler": {
    "name": "solc",
    "version": "0.8.4+commit.c7e474f2.Emscripten.clang"
  },
  "schemaVersion": "3.4.1",
  "updatedAt": "2021-08-25T16:22:09.399Z",
  "networkType": "ethereum",
  "devdoc": {
    "kind": "dev",
    "methods": {
      "approve(address,uint256)": {
        "details": "See {IERC721-approve}."
      },
      "balanceOf(address)": {
        "details": "See {IERC721-balanceOf}."
      },
      "checkUpkeep(bytes)": {
        "params": {
          "checkData": "data passed to the contract when checking for upkeep."
        },
        "returns": {
          "performData": "bytes that the keeper should call performUpkeep with, if upkeep is needed.",
          "upkeepNeeded": "boolean to indicate whether the keeper should call performUpkeep or not."
        }
      },
      "getApproved(uint256)": {
        "details": "See {IERC721-getApproved}."
      },
      "isApprovedForAll(address,address)": {
        "details": "See {IERC721-isApprovedForAll}."
      },
      "name()": {
        "details": "See {IERC721Metadata-name}."
      },
      "ownerOf(uint256)": {
        "details": "See {IERC721-ownerOf}."
      },
      "performUpkeep(bytes)": {
        "params": {
          "performData": "is the data which was passed back from the checkData simulation."
        }
      },
      "safeTransferFrom(address,address,uint256)": {
        "details": "See {IERC721-safeTransferFrom}."
      },
      "safeTransferFrom(address,address,uint256,bytes)": {
        "details": "See {IERC721-safeTransferFrom}."
      },
      "setApprovalForAll(address,bool)": {
        "details": "See {IERC721-setApprovalForAll}."
      },
      "supportsInterface(bytes4)": {
        "details": "See {IERC165-supportsInterface}."
      },
      "symbol()": {
        "details": "See {IERC721Metadata-symbol}."
      },
      "tokenURI(uint256)": {
        "details": "See {IERC721Metadata-tokenURI}."
      },
      "transferFrom(address,address,uint256)": {
        "details": "See {IERC721-transferFrom}."
      }
    },
    "version": 1
  },
  "userdoc": {
    "kind": "user",
    "methods": {
      "checkUpkeep(bytes)": {
        "notice": "checks if the contract requires work to be done."
      },
      "performUpkeep(bytes)": {
        "notice": "Performs work on the contract. Executed by the keepers, via the registry."
      }
    },
    "version": 1
  }
}