{
  "contractName": "Bingo",
  "abi": [
    {
      "inputs": [
        {
          "internalType": "address",
          "name": "_weedContract",
          "type": "address"
        }
      ],
      "stateMutability": "nonpayable",
      "type": "constructor"
    },
    {
      "anonymous": false,
      "inputs": [
        {
          "indexed": true,
          "internalType": "address",
          "name": "owner",
          "type": "address"
        },
        {
          "indexed": true,
          "internalType": "address",
          "name": "approved",
          "type": "address"
        },
        {
          "indexed": true,
          "internalType": "uint256",
          "name": "tokenId",
          "type": "uint256"
        }
      ],
      "name": "Approval",
      "type": "event"
    },
    {
      "anonymous": false,
      "inputs": [
        {
          "indexed": true,
          "internalType": "address",
          "name": "owner",
          "type": "address"
        },
        {
          "indexed": true,
          "internalType": "address",
          "name": "operator",
          "type": "address"
        },
        {
          "indexed": false,
          "internalType": "bool",
          "name": "approved",
          "type": "bool"
        }
      ],
      "name": "ApprovalForAll",
      "type": "event"
    },
    {
      "anonymous": false,
      "inputs": [
        {
          "indexed": false,
          "internalType": "uint256",
          "name": "game",
          "type": "uint256"
        },
        {
          "indexed": false,
          "internalType": "uint256",
          "name": "choice",
          "type": "uint256"
        }
      ],
      "name": "BallPicked",
      "type": "event"
    },
    {
      "anonymous": false,
      "inputs": [
        {
          "indexed": false,
          "internalType": "address",
          "name": "winner",
          "type": "address"
        },
        {
          "indexed": false,
          "internalType": "uint256",
          "name": "tokenId",
          "type": "uint256"
        }
      ],
      "name": "BingoWinner",
      "type": "event"
    },
    {
      "anonymous": false,
      "inputs": [
        {
          "indexed": true,
          "internalType": "address",
          "name": "from",
          "type": "address"
        },
        {
          "indexed": true,
          "internalType": "address",
          "name": "to",
          "type": "address"
        },
        {
          "indexed": true,
          "internalType": "uint256",
          "name": "tokenId",
          "type": "uint256"
        }
      ],
      "name": "Transfer",
      "type": "event"
    },
    {
      "inputs": [
        {
          "internalType": "uint256",
          "name": "",
          "type": "uint256"
        }
      ],
      "name": "Balls",
      "outputs": [
        {
          "internalType": "bool",
          "name": "",
          "type": "bool"
        }
      ],
      "stateMutability": "view",
      "type": "function",
      "constant": true
    },
    {
      "inputs": [
        {
          "internalType": "address",
          "name": "to",
          "type": "address"
        },
        {
          "internalType": "uint256",
          "name": "tokenId",
          "type": "uint256"
        }
      ],
      "name": "approve",
      "outputs": [],
      "stateMutability": "nonpayable",
      "type": "function"
    },
    {
      "inputs": [
        {
          "internalType": "address",
          "name": "owner",
          "type": "address"
        }
      ],
      "name": "balanceOf",
      "outputs": [
        {
          "internalType": "uint256",
          "name": "",
          "type": "uint256"
        }
      ],
      "stateMutability": "view",
      "type": "function",
      "constant": true
    },
    {
      "inputs": [],
      "name": "ballDrawTime",
      "outputs": [
        {
          "internalType": "uint256",
          "name": "",
          "type": "uint256"
        }
      ],
      "stateMutability": "view",
      "type": "function",
      "constant": true
    },
    {
      "inputs": [],
      "name": "ballRequest",
      "outputs": [
        {
          "internalType": "bytes32",
          "name": "",
          "type": "bytes32"
        }
      ],
      "stateMutability": "view",
      "type": "function",
      "constant": true
    },
    {
      "inputs": [],
      "name": "baseUri",
      "outputs": [
        {
          "internalType": "string",
          "name": "",
          "type": "string"
        }
      ],
      "stateMutability": "view",
      "type": "function",
      "constant": true
    },
    {
      "inputs": [
        {
          "internalType": "uint256",
          "name": "",
          "type": "uint256"
        }
      ],
      "name": "cardRandomness",
      "outputs": [
        {
          "internalType": "uint256",
          "name": "",
          "type": "uint256"
        }
      ],
      "stateMutability": "view",
      "type": "function",
      "constant": true
    },
    {
      "inputs": [
        {
          "internalType": "bytes32",
          "name": "",
          "type": "bytes32"
        }
      ],
      "name": "cardRequests",
      "outputs": [
        {
          "internalType": "uint256",
          "name": "",
          "type": "uint256"
        }
      ],
      "stateMutability": "view",
      "type": "function",
      "constant": true
    },
    {
      "inputs": [
        {
          "internalType": "uint256",
          "name": "",
          "type": "uint256"
        }
      ],
      "name": "gameFloors",
      "outputs": [
        {
          "internalType": "uint256",
          "name": "",
          "type": "uint256"
        }
      ],
      "stateMutability": "view",
      "type": "function",
      "constant": true
    },
    {
      "inputs": [],
      "name": "gameId",
      "outputs": [
        {
          "internalType": "uint256",
          "name": "_value",
          "type": "uint256"
        }
      ],
      "stateMutability": "view",
      "type": "function",
      "constant": true
    },
    {
      "inputs": [
        {
          "internalType": "uint256",
          "name": "tokenId",
          "type": "uint256"
        }
      ],
      "name": "getApproved",
      "outputs": [
        {
          "internalType": "address",
          "name": "",
          "type": "address"
        }
      ],
      "stateMutability": "view",
      "type": "function",
      "constant": true
    },
    {
      "inputs": [
        {
          "internalType": "address",
          "name": "owner",
          "type": "address"
        },
        {
          "internalType": "address",
          "name": "operator",
          "type": "address"
        }
      ],
      "name": "isApprovedForAll",
      "outputs": [
        {
          "internalType": "bool",
          "name": "",
          "type": "bool"
        }
      ],
      "stateMutability": "view",
      "type": "function",
      "constant": true
    },
    {
      "inputs": [],
      "name": "lastBallTime",
      "outputs": [
        {
          "internalType": "uint256",
          "name": "",
          "type": "uint256"
        }
      ],
      "stateMutability": "view",
      "type": "function",
      "constant": true
    },
    {
      "inputs": [],
      "name": "maxCardPurchase",
      "outputs": [
        {
          "internalType": "uint256",
          "name": "",
          "type": "uint256"
        }
      ],
      "stateMutability": "view",
      "type": "function",
      "constant": true
    },
    {
      "inputs": [],
      "name": "maxCardsPerGame",
      "outputs": [
        {
          "internalType": "uint256",
          "name": "",
          "type": "uint256"
        }
      ],
      "stateMutability": "view",
      "type": "function",
      "constant": true
    },
    {
      "inputs": [],
      "name": "minCardsPerGame",
      "outputs": [
        {
          "internalType": "uint256",
          "name": "",
          "type": "uint256"
        }
      ],
      "stateMutability": "view",
      "type": "function",
      "constant": true
    },
    {
      "inputs": [],
      "name": "name",
      "outputs": [
        {
          "internalType": "string",
          "name": "",
          "type": "string"
        }
      ],
      "stateMutability": "view",
      "type": "function",
      "constant": true
    },
    {
      "inputs": [
        {
          "internalType": "uint256",
          "name": "tokenId",
          "type": "uint256"
        }
      ],
      "name": "ownerOf",
      "outputs": [
        {
          "internalType": "address",
          "name": "",
          "type": "address"
        }
      ],
      "stateMutability": "view",
      "type": "function",
      "constant": true
    },
    {
      "inputs": [],
      "name": "pricePerCard",
      "outputs": [
        {
          "internalType": "uint256",
          "name": "",
          "type": "uint256"
        }
      ],
      "stateMutability": "view",
      "type": "function",
      "constant": true
    },
    {
      "inputs": [],
      "name": "prizePool",
      "outputs": [
        {
          "internalType": "uint256",
          "name": "",
          "type": "uint256"
        }
      ],
      "stateMutability": "view",
      "type": "function",
      "constant": true
    },
    {
      "inputs": [
        {
          "internalType": "bytes32",
          "name": "requestId",
          "type": "bytes32"
        },
        {
          "internalType": "uint256",
          "name": "randomness",
          "type": "uint256"
        }
      ],
      "name": "rawFulfillRandomness",
      "outputs": [],
      "stateMutability": "nonpayable",
      "type": "function"
    },
    {
      "inputs": [
        {
          "internalType": "address",
          "name": "from",
          "type": "address"
        },
        {
          "internalType": "address",
          "name": "to",
          "type": "address"
        },
        {
          "internalType": "uint256",
          "name": "tokenId",
          "type": "uint256"
        }
      ],
      "name": "safeTransferFrom",
      "outputs": [],
      "stateMutability": "nonpayable",
      "type": "function"
    },
    {
      "inputs": [
        {
          "internalType": "address",
          "name": "from",
          "type": "address"
        },
        {
          "internalType": "address",
          "name": "to",
          "type": "address"
        },
        {
          "internalType": "uint256",
          "name": "tokenId",
          "type": "uint256"
        },
        {
          "internalType": "bytes",
          "name": "_data",
          "type": "bytes"
        }
      ],
      "name": "safeTransferFrom",
      "outputs": [],
      "stateMutability": "nonpayable",
      "type": "function"
    },
    {
      "inputs": [
        {
          "internalType": "address",
          "name": "operator",
          "type": "address"
        },
        {
          "internalType": "bool",
          "name": "approved",
          "type": "bool"
        }
      ],
      "name": "setApprovalForAll",
      "outputs": [],
      "stateMutability": "nonpayable",
      "type": "function"
    },
    {
      "inputs": [
        {
          "internalType": "bytes4",
          "name": "interfaceId",
          "type": "bytes4"
        }
      ],
      "name": "supportsInterface",
      "outputs": [
        {
          "internalType": "bool",
          "name": "",
          "type": "bool"
        }
      ],
      "stateMutability": "view",
      "type": "function",
      "constant": true
    },
    {
      "inputs": [],
      "name": "symbol",
      "outputs": [
        {
          "internalType": "string",
          "name": "",
          "type": "string"
        }
      ],
      "stateMutability": "view",
      "type": "function",
      "constant": true
    },
    {
      "inputs": [
        {
          "internalType": "uint256",
          "name": "tokenId",
          "type": "uint256"
        }
      ],
      "name": "tokenURI",
      "outputs": [
        {
          "internalType": "string",
          "name": "",
          "type": "string"
        }
      ],
      "stateMutability": "view",
      "type": "function",
      "constant": true
    },
    {
      "inputs": [
        {
          "internalType": "address",
          "name": "from",
          "type": "address"
        },
        {
          "internalType": "address",
          "name": "to",
          "type": "address"
        },
        {
          "internalType": "uint256",
          "name": "tokenId",
          "type": "uint256"
        }
      ],
      "name": "transferFrom",
      "outputs": [],
      "stateMutability": "nonpayable",
      "type": "function"
    },
    {
      "inputs": [],
      "name": "weedPerCard",
      "outputs": [
        {
          "internalType": "uint256",
          "name": "",
          "type": "uint256"
        }
      ],
      "stateMutability": "view",
      "type": "function",
      "constant": true
    },
    {
      "inputs": [
        {
          "internalType": "uint256",
          "name": "amount",
          "type": "uint256"
        }
      ],
      "name": "mintCardEth",
      "outputs": [],
      "stateMutability": "payable",
      "type": "function",
      "payable": true
    },
    {
      "inputs": [
        {
          "internalType": "uint256",
          "name": "amount",
          "type": "uint256"
        }
      ],
      "name": "mintCardWeed",
      "outputs": [],
      "stateMutability": "payable",
      "type": "function",
      "payable": true
    },
    {
      "inputs": [
        {
          "internalType": "bytes",
          "name": "checkData",
          "type": "bytes"
        }
      ],
      "name": "checkUpkeep",
      "outputs": [
        {
          "internalType": "bool",
          "name": "upkeepNeeded",
          "type": "bool"
        },
        {
          "internalType": "bytes",
          "name": "performData",
          "type": "bytes"
        }
      ],
      "stateMutability": "view",
      "type": "function",
      "constant": true
    },
    {
      "inputs": [
        {
          "internalType": "bytes",
          "name": "performData",
          "type": "bytes"
        }
      ],
      "name": "performUpkeep",
      "outputs": [],
      "stateMutability": "nonpayable",
      "type": "function"
    },
    {
      "inputs": [],
      "name": "requestRandomBall",
      "outputs": [],
      "stateMutability": "nonpayable",
      "type": "function"
    },
    {
      "inputs": [
        {
          "internalType": "uint256",
          "name": "cardId",
          "type": "uint256"
        }
      ],
      "name": "validateWinner",
      "outputs": [
        {
          "internalType": "bool",
          "name": "found",
          "type": "bool"
        }
      ],
      "stateMutability": "view",
      "type": "function",
      "constant": true
    },
    {
      "inputs": [
        {
          "internalType": "uint256",
          "name": "cardId",
          "type": "uint256"
        }
      ],
      "name": "claimBingo",
      "outputs": [],
      "stateMutability": "payable",
      "type": "function",
      "payable": true
    },
    {
      "inputs": [
        {
          "internalType": "uint256",
          "name": "cardId",
          "type": "uint256"
        }
      ],
      "name": "generateCard",
      "outputs": [
        {
          "components": [
            {
              "internalType": "uint256[5]",
              "name": "B",
              "type": "uint256[5]"
            },
            {
              "internalType": "uint256[5]",
              "name": "I",
              "type": "uint256[5]"
            },
            {
              "internalType": "uint256[5]",
              "name": "N",
              "type": "uint256[5]"
            },
            {
              "internalType": "uint256[5]",
              "name": "G",
              "type": "uint256[5]"
            },
            {
              "internalType": "uint256[5]",
              "name": "O",
              "type": "uint256[5]"
            }
          ],
          "internalType": "struct BingoGenerate.Card",
          "name": "",
          "type": "tuple"
        }
      ],
      "stateMutability": "view",
      "type": "function",
      "constant": true
    },
    {
      "inputs": [],
      "name": "getCurrentGame",
      "outputs": [
        {
          "internalType": "uint256",
          "name": "",
          "type": "uint256"
        }
      ],
      "stateMutability": "view",
      "type": "function",
      "constant": true
    },
    {
      "inputs": [],
      "name": "getCurrentToken",
      "outputs": [
        {
          "internalType": "uint256",
          "name": "",
          "type": "uint256"
        }
      ],
      "stateMutability": "view",
      "type": "function",
      "constant": true
    },
    {
      "inputs": [
        {
          "internalType": "address",
          "name": "_owner",
          "type": "address"
        }
      ],
      "name": "getCardsByOwner",
      "outputs": [
        {
          "internalType": "uint256[]",
          "name": "",
          "type": "uint256[]"
        }
      ],
      "stateMutability": "view",
      "type": "function",
      "constant": true
    },
    {
      "inputs": [
        {
          "internalType": "uint256",
          "name": "tokenId",
          "type": "uint256"
        }
      ],
      "name": "exists",
      "outputs": [
        {
          "internalType": "bool",
          "name": "",
          "type": "bool"
        }
      ],
      "stateMutability": "view",
      "type": "function",
      "constant": true
    },
    {
      "inputs": [
        {
          "internalType": "string",
          "name": "_baseUri",
          "type": "string"
        },
        {
          "internalType": "uint256",
          "name": "_ballDrawTime",
          "type": "uint256"
        },
        {
          "internalType": "uint256",
          "name": "_minCardsPerGame",
          "type": "uint256"
        },
        {
          "internalType": "uint256",
          "name": "_maxCardsPerGame",
          "type": "uint256"
        },
        {
          "internalType": "uint256",
          "name": "_pricePerCard",
          "type": "uint256"
        }
      ],
      "name": "contractSettings",
      "outputs": [],
      "stateMutability": "nonpayable",
      "type": "function"
    },
    {
      "inputs": [],
      "name": "withdraw",
      "outputs": [],
      "stateMutability": "payable",
      "type": "function",
      "payable": true
    }
  ],
  "bytecode": "0x60c06040526001600a556103e8600b55600a600c55662386f26fc10000600d55603c600e5568d8d726b7177a800000600f553480156200003e57600080fd5b50604051620064c2380380620064c28339818101604052810190620000649190620003ad565b73dd3782915140c8f3b190b5d67eac6dc5760c46e973a36085f69e2889c224210f603d836748e7dc00886040518060400160405280600581526020017f42696e676f0000000000000000000000000000000000000000000000000000008152506040518060400160405280600581526020017f42494e474f000000000000000000000000000000000000000000000000000000815250816000908051906020019062000112929190620002e6565b5080600190805190602001906200012b929190620002e6565b5050508173ffffffffffffffffffffffffffffffffffffffff1660a08173ffffffffffffffffffffffffffffffffffffffff1660601b815250508073ffffffffffffffffffffffffffffffffffffffff1660808173ffffffffffffffffffffffffffffffffffffffff1660601b81525050505033601160006101000a81548173ffffffffffffffffffffffffffffffffffffffff021916908373ffffffffffffffffffffffffffffffffffffffff16021790555080601060006101000a81548173ffffffffffffffffffffffffffffffffffffffff021916908373ffffffffffffffffffffffffffffffffffffffff1602179055507f6c3699283bda56ad74f6b855546325b68d482e983852a7a82979cc4807b641f460001b60158190555067016345785d8a0000601681905550620002706008620002c260201b62002ba71760201c565b426012819055506200028e6007620002d860201b62002bbd1760201c565b60196000620002a96008620002d860201b62002bbd1760201c565b815260200190815260200160002081905550506200048c565b6001816000016000828254019250508190555050565b600081600001549050919050565b828054620002f4906200040d565b90600052602060002090601f01602090048101928262000318576000855562000364565b82601f106200033357805160ff191683800117855562000364565b8280016001018555821562000364579182015b828111156200036357825182559160200191906001019062000346565b5b50905062000373919062000377565b5090565b5b808211156200039257600081600090555060010162000378565b5090565b600081519050620003a78162000472565b92915050565b600060208284031215620003c057600080fd5b6000620003d08482850162000396565b91505092915050565b6000620003e682620003ed565b9050919050565b600073ffffffffffffffffffffffffffffffffffffffff82169050919050565b600060028204905060018216806200042657607f821691505b602082108114156200043d576200043c62000443565b5b50919050565b7f4e487b7100000000000000000000000000000000000000000000000000000000600052602260045260246000fd5b6200047d81620003d9565b81146200048957600080fd5b50565b60805160601c60a05160601c615ff5620004cd60003960008181611bea01526134a0015260008181612027015281816130eb01526134640152615ff56000f3fe60806040526004361061025c5760003560e01c8063719ce73e11610144578063c87b56dd116100b6578063e985e9c51161007a578063e985e9c5146108ff578063eba73c7c1461093c578063ec49e46c14610979578063ef2d1746146109b6578063f03a980e146109e1578063f8a7443c14610a0c5761025c565b8063c87b56dd14610836578063d4ea9aeb14610873578063d7c81b551461089c578063dcde2519146108c7578063e23d0cf6146108e35761025c565b806396e098a51161010857806396e098a51461073a5780639abc8320146107655780639c15865b14610790578063a22cb465146107cd578063a94b29c6146107f6578063b88d4fde1461080d5761025c565b8063719ce73e146106655780637a9314161461069057806394985ddd146106bb57806395d89b41146106e4578063968d901b1461070f5761025c565b806342842e0e116101dd578063596a0b04116101a1578063596a0b041461050857806361e0698c14610533578063630930ba146105705780636352211e146105ad5780636e04ff0d146105ea57806370a08231146106285761025c565b806342842e0e146104115780634585e33b1461043a5780634f558e7914610463578063501f51bb146104a0578063521eaea3146104dd5761025c565b806311196afe1161022457806311196afe1461036c57806323b872dd14610397578063370bfeea146103c05780633c71f999146103dc5780633ccfd60b146104075761025c565b806301ffc9a7146102615780630215cb441461029e57806306fdde03146102db578063081812fc14610306578063095ea7b314610343575b600080fd5b34801561026d57600080fd5b5061028860048036038101906102839190614654565b610a37565b6040516102959190614f95565b60405180910390f35b3480156102aa57600080fd5b506102c560048036038101906102c0919061477a565b610b19565b6040516102d29190615427565b60405180910390f35b3480156102e757600080fd5b506102f0610b31565b6040516102fd9190615069565b60405180910390f35b34801561031257600080fd5b5061032d6004803603810190610328919061477a565b610bc3565b60405161033a9190614e45565b60405180910390f35b34801561034f57600080fd5b5061036a6004803603810190610365919061458a565b610c48565b005b34801561037857600080fd5b50610381610d60565b60405161038e9190615427565b60405180910390f35b3480156103a357600080fd5b506103be60048036038101906103b99190614484565b610d66565b005b6103da60048036038101906103d5919061477a565b610dc6565b005b3480156103e857600080fd5b506103f1610f5f565b6040516103fe9190615427565b60405180910390f35b61040f610f65565b005b34801561041d57600080fd5b5061043860048036038101906104339190614484565b6110e3565b005b34801561044657600080fd5b50610461600480360381019061045c91906146a6565b611103565b005b34801561046f57600080fd5b5061048a6004803603810190610485919061477a565b611116565b6040516104979190614f95565b60405180910390f35b3480156104ac57600080fd5b506104c760048036038101906104c291906145ef565b611128565b6040516104d49190615427565b60405180910390f35b3480156104e957600080fd5b506104f2611140565b6040516104ff9190615427565b60405180910390f35b34801561051457600080fd5b5061051d611146565b60405161052a9190615427565b60405180910390f35b34801561053f57600080fd5b5061055a6004803603810190610555919061477a565b61114c565b6040516105679190614f95565b60405180910390f35b34801561057c57600080fd5b506105976004803603810190610592919061477a565b6119a3565b6040516105a4919061540b565b60405180910390f35b3480156105b957600080fd5b506105d460048036038101906105cf919061477a565b6119ce565b6040516105e19190614e45565b60405180910390f35b3480156105f657600080fd5b50610611600480360381019061060c91906146a6565b611a80565b60405161061f929190614fb0565b60405180910390f35b34801561063457600080fd5b5061064f600480360381019061064a919061441f565b611b24565b60405161065c9190615427565b60405180910390f35b34801561067157600080fd5b5061067a611bdc565b6040516106879190615427565b60405180910390f35b34801561069c57600080fd5b506106a5611be2565b6040516106b29190615427565b60405180910390f35b3480156106c757600080fd5b506106e260048036038101906106dd9190614618565b611be8565b005b3480156106f057600080fd5b506106f9611c84565b6040516107069190615069565b60405180910390f35b34801561071b57600080fd5b50610724611d16565b6040516107319190615427565b60405180910390f35b34801561074657600080fd5b5061074f611d27565b60405161075c9190615427565b60405180910390f35b34801561077157600080fd5b5061077a611d2d565b6040516107879190615069565b60405180910390f35b34801561079c57600080fd5b506107b760048036038101906107b2919061477a565b611dbb565b6040516107c49190614f95565b60405180910390f35b3480156107d957600080fd5b506107f460048036038101906107ef919061454e565b611ddb565b005b34801561080257600080fd5b5061080b611f5c565b005b34801561081957600080fd5b50610834600480360381019061082f91906144d3565b612125565b005b34801561084257600080fd5b5061085d6004803603810190610858919061477a565b612187565b60405161086a9190615069565b60405180910390f35b34801561087f57600080fd5b5061089a600480360381019061089591906146eb565b61222e565b005b3480156108a857600080fd5b506108b16122c2565b6040516108be9190615427565b60405180910390f35b6108e160048036038101906108dc919061477a565b6122ce565b005b6108fd60048036038101906108f8919061477a565b612529565b005b34801561090b57600080fd5b5061092660048036038101906109219190614448565b6128fb565b6040516109339190614f95565b60405180910390f35b34801561094857600080fd5b50610963600480360381019061095e919061441f565b61298f565b6040516109709190614f73565b60405180910390f35b34801561098557600080fd5b506109a0600480360381019061099b919061477a565b612b72565b6040516109ad9190615427565b60405180910390f35b3480156109c257600080fd5b506109cb612b8a565b6040516109d89190615427565b60405180910390f35b3480156109ed57600080fd5b506109f6612b9b565b604051610a039190615427565b60405180910390f35b348015610a1857600080fd5b50610a21612ba1565b604051610a2e9190614fe0565b60405180910390f35b60007f80ac58cd000000000000000000000000000000000000000000000000000000007bffffffffffffffffffffffffffffffffffffffffffffffffffffffff1916827bffffffffffffffffffffffffffffffffffffffffffffffffffffffff19161480610b0257507f5b5e139f000000000000000000000000000000000000000000000000000000007bffffffffffffffffffffffffffffffffffffffffffffffffffffffff1916827bffffffffffffffffffffffffffffffffffffffffffffffffffffffff1916145b80610b125750610b1182612bcb565b5b9050919050565b60196020528060005260406000206000915090505481565b606060008054610b4090615770565b80601f0160208091040260200160405190810160405280929190818152602001828054610b6c90615770565b8015610bb95780601f10610b8e57610100808354040283529160200191610bb9565b820191906000526020600020905b815481529060010190602001808311610b9c57829003601f168201915b5050505050905090565b6000610bce82612c35565b610c0d576040517f08c379a0000000000000000000000000000000000000000000000000000000008152600401610c049061526b565b60405180910390fd5b6004600083815260200190815260200160002060009054906101000a900473ffffffffffffffffffffffffffffffffffffffff169050919050565b6000610c53826119ce565b90508073ffffffffffffffffffffffffffffffffffffffff168373ffffffffffffffffffffffffffffffffffffffff161415610cc4576040517f08c379a0000000000000000000000000000000000000000000000000000000008152600401610cbb9061532b565b60405180910390fd5b8073ffffffffffffffffffffffffffffffffffffffff16610ce3612ca1565b73ffffffffffffffffffffffffffffffffffffffff161480610d125750610d1181610d0c612ca1565b6128fb565b5b610d51576040517f08c379a0000000000000000000000000000000000000000000000000000000008152600401610d48906151cb565b60405180910390fd5b610d5b8383612ca9565b505050565b600e5481565b610d77610d71612ca1565b82612d62565b610db6576040517f08c379a0000000000000000000000000000000000000000000000000000000008152600401610dad9061538b565b60405180910390fd5b610dc1838383612e40565b505050565b600c54811115610e0b576040517f08c379a0000000000000000000000000000000000000000000000000000000008152600401610e02906153cb565b60405180910390fd5b600b5460196000610e1c6008612bbd565b815260200190815260200160002054610e4783610e396007612bbd565b61309c90919063ffffffff16565b610e51919061567c565b1115610e92576040517f08c379a0000000000000000000000000000000000000000000000000000000008152600401610e89906153ab565b60405180910390fd5b34610ea882600d546130b290919063ffffffff16565b1115610ee9576040517f08c379a0000000000000000000000000000000000000000000000000000000008152600401610ee0906152cb565b60405180910390fd5b60005b81811015610f3657610efe6007612ba7565b610f1133610f0c6007612bbd565b6130c8565b610f23610f1e6007612bbd565b6130e6565b8080610f2e906157d3565b915050610eec565b50600234610f4491906155f1565b60146000828254610f55919061559b565b9250508190555050565b600f5481565b601160009054906101000a900473ffffffffffffffffffffffffffffffffffffffff1673ffffffffffffffffffffffffffffffffffffffff163373ffffffffffffffffffffffffffffffffffffffff1614610fbf57600080fd5b6000610fe96003610fdb6014544761320190919063ffffffff16565b61321790919063ffffffff16565b905072796e910bd0228ddf4cd79e3f353871a61c351c73ffffffffffffffffffffffffffffffffffffffff166108fc829081150290604051600060405180830381858888f1935050505061103c57600080fd5b737fc55376d5a29e0ee86c18c81bb2fc8f9f490e5073ffffffffffffffffffffffffffffffffffffffff166108fc829081150290604051600060405180830381858888f1935050505061108e57600080fd5b73b58fb5372e9aa0c86c3b281179c05af3bb7a181b73ffffffffffffffffffffffffffffffffffffffff166108fc829081150290604051600060405180830381858888f193505050506110e057600080fd5b50565b6110fe83838360405180602001604052806000815250612125565b505050565b42601281905550611112611f5c565b5050565b600061112182612c35565b9050919050565b60176020528060005260406000206000915090505481565b600d5481565b60125481565b60008061116b601860008581526020019081526020016000205461322d565b90506111756140fa565b60005b6005811015611341576040518060a00160405280846000015183600581106111c9577f4e487b7100000000000000000000000000000000000000000000000000000000600052603260045260246000fd5b6020020151815260200184602001518360058110611210577f4e487b7100000000000000000000000000000000000000000000000000000000600052603260045260246000fd5b6020020151815260200184604001518360058110611257577f4e487b7100000000000000000000000000000000000000000000000000000000600052603260045260246000fd5b602002015181526020018460600151836005811061129e577f4e487b7100000000000000000000000000000000000000000000000000000000600052603260045260246000fd5b60200201518152602001846080015183600581106112e5577f4e487b7100000000000000000000000000000000000000000000000000000000600052603260045260246000fd5b60200201518152508282600c8110611326577f4e487b7100000000000000000000000000000000000000000000000000000000600052603260045260246000fd5b60200201819052508080611339906157d3565b915050611178565b8260000151826005600c8110611380577f4e487b7100000000000000000000000000000000000000000000000000000000600052603260045260246000fd5b60200201819052508260200151826006600c81106113c7577f4e487b7100000000000000000000000000000000000000000000000000000000600052603260045260246000fd5b60200201819052508260400151826007600c811061140e577f4e487b7100000000000000000000000000000000000000000000000000000000600052603260045260246000fd5b60200201819052508260600151826008600c8110611455577f4e487b7100000000000000000000000000000000000000000000000000000000600052603260045260246000fd5b60200201819052508260800151826009600c811061149c577f4e487b7100000000000000000000000000000000000000000000000000000000600052603260045260246000fd5b60200201819052506040518060a0016040528084600001516000600581106114ed577f4e487b7100000000000000000000000000000000000000000000000000000000600052603260045260246000fd5b602002015181526020018460200151600160058110611535577f4e487b7100000000000000000000000000000000000000000000000000000000600052603260045260246000fd5b60200201518152602001846040015160026005811061157d577f4e487b7100000000000000000000000000000000000000000000000000000000600052603260045260246000fd5b6020020151815260200184606001516003600581106115c5577f4e487b7100000000000000000000000000000000000000000000000000000000600052603260045260246000fd5b60200201518152602001846080015160046005811061160d577f4e487b7100000000000000000000000000000000000000000000000000000000600052603260045260246000fd5b602002015181525082600a600c811061164f577f4e487b7100000000000000000000000000000000000000000000000000000000600052603260045260246000fd5b60200201819052506040518060a0016040528084600001516004600581106116a0577f4e487b7100000000000000000000000000000000000000000000000000000000600052603260045260246000fd5b6020020151815260200184602001516003600581106116e8577f4e487b7100000000000000000000000000000000000000000000000000000000600052603260045260246000fd5b602002015181526020018460400151600260058110611730577f4e487b7100000000000000000000000000000000000000000000000000000000600052603260045260246000fd5b602002015181526020018460600151600160058110611778577f4e487b7100000000000000000000000000000000000000000000000000000000600052603260045260246000fd5b6020020151815260200184608001516000600581106117c0577f4e487b7100000000000000000000000000000000000000000000000000000000600052603260045260246000fd5b602002015181525082600b600c8110611802577f4e487b7100000000000000000000000000000000000000000000000000000000600052603260045260246000fd5b602002018190525060009350600080600092505b600c8310156119995760009050600091505b600582101561197857601a60008585600c811061186e577f4e487b7100000000000000000000000000000000000000000000000000000000600052603260045260246000fd5b602002015184600581106118ab577f4e487b7100000000000000000000000000000000000000000000000000000000600052603260045260246000fd5b6020020151815260200190815260200160002060009054906101000a900460ff1680611951575060638484600c811061190d577f4e487b7100000000000000000000000000000000000000000000000000000000600052603260045260246000fd5b6020020151836005811061194a577f4e487b7100000000000000000000000000000000000000000000000000000000600052603260045260246000fd5b6020020151145b15611965578080611961906157d3565b9150505b8180611970906157d3565b925050611828565b600581141561198657600195505b8280611991906157d3565b935050611816565b5050505050919050565b6119ab614128565b6119c7601860008481526020019081526020016000205461322d565b9050919050565b6000806002600084815260200190815260200160002060009054906101000a900473ffffffffffffffffffffffffffffffffffffffff169050600073ffffffffffffffffffffffffffffffffffffffff168173ffffffffffffffffffffffffffffffffffffffff161415611a77576040517f08c379a0000000000000000000000000000000000000000000000000000000008152600401611a6e9061520b565b60405180910390fd5b80915050919050565b60006060600a5460196000611a956008612bbd565b815260200190815260200160002054611aae6007612bbd565b611ab8919061567c565b10158015611ad45750600e54601254611ad1919061559b565b42115b915083838080601f016020809104026020016040519081016040528093929190818152602001838380828437600081840152601f19601f8201169050808301925050505050505090509250929050565b60008073ffffffffffffffffffffffffffffffffffffffff168273ffffffffffffffffffffffffffffffffffffffff161415611b95576040517f08c379a0000000000000000000000000000000000000000000000000000000008152600401611b8c906151eb565b60405180910390fd5b600360008373ffffffffffffffffffffffffffffffffffffffff1673ffffffffffffffffffffffffffffffffffffffff168152602001908152602001600020549050919050565b60145481565b600a5481565b7f000000000000000000000000000000000000000000000000000000000000000073ffffffffffffffffffffffffffffffffffffffff163373ffffffffffffffffffffffffffffffffffffffff1614611c76576040517f08c379a0000000000000000000000000000000000000000000000000000000008152600401611c6d9061530b565b60405180910390fd5b611c808282613438565b5050565b606060018054611c9390615770565b80601f0160208091040260200160405190810160405280929190818152602001828054611cbf90615770565b8015611d0c5780601f10611ce157610100808354040283529160200191611d0c565b820191906000526020600020905b815481529060010190602001808311611cef57829003601f168201915b5050505050905090565b6000611d226008612bbd565b905090565b600c5481565b60098054611d3a90615770565b80601f0160208091040260200160405190810160405280929190818152602001828054611d6690615770565b8015611db35780601f10611d8857610100808354040283529160200191611db3565b820191906000526020600020905b815481529060010190602001808311611d9657829003601f168201915b505050505081565b601a6020528060005260406000206000915054906101000a900460ff1681565b611de3612ca1565b73ffffffffffffffffffffffffffffffffffffffff168273ffffffffffffffffffffffffffffffffffffffff161415611e51576040517f08c379a0000000000000000000000000000000000000000000000000000000008152600401611e489061512b565b60405180910390fd5b8060056000611e5e612ca1565b73ffffffffffffffffffffffffffffffffffffffff1673ffffffffffffffffffffffffffffffffffffffff16815260200190815260200160002060008473ffffffffffffffffffffffffffffffffffffffff1673ffffffffffffffffffffffffffffffffffffffff16815260200190815260200160002060006101000a81548160ff0219169083151502179055508173ffffffffffffffffffffffffffffffffffffffff16611f0b612ca1565b73ffffffffffffffffffffffffffffffffffffffff167f17307eab39ab6107e8899845ad3d59bd9653f200f220920489ca2b5937696c3183604051611f509190614f95565b60405180910390a35050565b600e54601254611f6c919061559b565b4211611fad576040517f08c379a0000000000000000000000000000000000000000000000000000000008152600401611fa49061534b565b60405180910390fd5b600a5460196000611fbe6008612bbd565b815260200190815260200160002054611fd76007612bbd565b611fe1919061567c565b1015612022576040517f08c379a0000000000000000000000000000000000000000000000000000000008152600401612019906153eb565b60405180910390fd5b6016547f000000000000000000000000000000000000000000000000000000000000000073ffffffffffffffffffffffffffffffffffffffff166370a08231306040518263ffffffff1660e01b815260040161207e9190614e45565b60206040518083038186803b15801561209657600080fd5b505afa1580156120aa573d6000803e3d6000fd5b505050506040513d601f19601f820116820180604052508101906120ce91906147a3565b101561210f576040517f08c379a0000000000000000000000000000000000000000000000000000000008152600401612106906151ab565b60405180910390fd5b61211d601554601654613460565b601381905550565b612136612130612ca1565b83612d62565b612175576040517f08c379a000000000000000000000000000000000000000000000000000000000815260040161216c9061538b565b60405180910390fd5b612181848484846135c2565b50505050565b606061219282612c35565b6121d1576040517f08c379a00000000000000000000000000000000000000000000000000000000081526004016121c8906152eb565b60405180910390fd5b60006121db61361e565b905060008151116121fb5760405180602001604052806000815250612226565b80612205846136b0565b604051602001612216929190614e21565b6040516020818303038152906040525b915050919050565b601160009054906101000a900473ffffffffffffffffffffffffffffffffffffffff1673ffffffffffffffffffffffffffffffffffffffff163373ffffffffffffffffffffffffffffffffffffffff161461228857600080fd5b846009908051906020019061229e929190614175565b5083600e8190555082600a8190555081600b8190555080600d819055505050505050565b60088060000154905081565b3373ffffffffffffffffffffffffffffffffffffffff166122ee826119ce565b73ffffffffffffffffffffffffffffffffffffffff1614612344576040517f08c379a000000000000000000000000000000000000000000000000000000000815260040161233b9061514b565b60405180910390fd5b61234d8161114c565b61238c576040517f08c379a00000000000000000000000000000000000000000000000000000000081526004016123839061508b565b60405180910390fd5b6019600061239a6008612bbd565b81526020019081526020016000205481116123ea576040517f08c379a00000000000000000000000000000000000000000000000000000000081526004016123e1906150eb565b60405180910390fd5b3373ffffffffffffffffffffffffffffffffffffffff166108fc6014549081150290604051600060405180830381858888f19350505050158015612432573d6000803e3d6000fd5b507fc71c3aceb781f257d8a8c6637dcba36b2c2c726aa5111d01a4a3cad60e33d5e03382604051612464929190614f0c565b60405180910390a1600060148190555061247e6008612ba7565b4260128190555061248f6007612bbd565b6019600061249d6008612bbd565b8152602001908152602001600020819055506000600190505b604c81101561252557601a600082815260200190815260200160002060009054906101000a900460ff1615612512576000601a600083815260200190815260200160002060006101000a81548160ff0219169083151502179055505b808061251d906157d3565b9150506124b6565b5050565b600c5481111561256e576040517f08c379a0000000000000000000000000000000000000000000000000000000008152600401612565906153cb565b60405180910390fd5b600b546019600061257f6008612bbd565b8152602001908152602001600020546125aa8361259c6007612bbd565b61309c90919063ffffffff16565b6125b4919061567c565b11156125f5576040517f08c379a00000000000000000000000000000000000000000000000000000000081526004016125ec906153ab565b60405180910390fd5b80600f546126039190615622565b601060009054906101000a900473ffffffffffffffffffffffffffffffffffffffff1673ffffffffffffffffffffffffffffffffffffffff166370a08231336040518263ffffffff1660e01b815260040161265e9190614e45565b60206040518083038186803b15801561267657600080fd5b505afa15801561268a573d6000803e3d6000fd5b505050506040513d601f19601f820116820180604052508101906126ae91906147a3565b10156126ef576040517f08c379a00000000000000000000000000000000000000000000000000000000081526004016126e69061518b565b60405180910390fd5b80600f546126fd9190615622565b601060009054906101000a900473ffffffffffffffffffffffffffffffffffffffff1673ffffffffffffffffffffffffffffffffffffffff1663dd62ed3e33306040518363ffffffff1660e01b815260040161275a929190614e60565b60206040518083038186803b15801561277257600080fd5b505afa158015612786573d6000803e3d6000fd5b505050506040513d601f19601f820116820180604052508101906127aa91906147a3565b10156127eb576040517f08c379a00000000000000000000000000000000000000000000000000000000081526004016127e29061522b565b60405180910390fd5b601060009054906101000a900473ffffffffffffffffffffffffffffffffffffffff1673ffffffffffffffffffffffffffffffffffffffff166323b872dd333084600f546128399190615622565b6040518463ffffffff1660e01b815260040161285793929190614e89565b602060405180830381600087803b15801561287157600080fd5b505af1158015612885573d6000803e3d6000fd5b505050506040513d601f19601f820116820180604052508101906128a991906145c6565b5060005b818110156128f7576128bf6007612ba7565b6128d2336128cd6007612bbd565b6130c8565b6128e46128df6007612bbd565b6130e6565b80806128ef906157d3565b9150506128ad565b5050565b6000600560008473ffffffffffffffffffffffffffffffffffffffff1673ffffffffffffffffffffffffffffffffffffffff16815260200190815260200160002060008373ffffffffffffffffffffffffffffffffffffffff1673ffffffffffffffffffffffffffffffffffffffff16815260200190815260200160002060009054906101000a900460ff16905092915050565b6060600061299c83611b24565b90506000811415612a1f57600067ffffffffffffffff8111156129e8577f4e487b7100000000000000000000000000000000000000000000000000000000600052604160045260246000fd5b604051908082528060200260200182016040528015612a165781602001602082028036833780820191505090505b50915050612b6d565b60008167ffffffffffffffff811115612a61577f4e487b7100000000000000000000000000000000000000000000000000000000600052604160045260246000fd5b604051908082528060200260200182016040528015612a8f5781602001602082028036833780820191505090505b5090506000612a9e6007612bbd565b9050600080600190505b828111612b6457612ab881612c35565b8015612af757508673ffffffffffffffffffffffffffffffffffffffff16612adf826119ce565b73ffffffffffffffffffffffffffffffffffffffff16145b15612b515780848381518110612b36577f4e487b7100000000000000000000000000000000000000000000000000000000600052603260045260246000fd5b6020026020010181815250508180612b4d906157d3565b9250505b8080612b5c906157d3565b915050612aa8565b50829450505050505b919050565b60186020528060005260406000206000915090505481565b6000612b966007612bbd565b905090565b600b5481565b60135481565b6001816000016000828254019250508190555050565b600081600001549050919050565b60007f01ffc9a7000000000000000000000000000000000000000000000000000000007bffffffffffffffffffffffffffffffffffffffffffffffffffffffff1916827bffffffffffffffffffffffffffffffffffffffffffffffffffffffff1916149050919050565b60008073ffffffffffffffffffffffffffffffffffffffff166002600084815260200190815260200160002060009054906101000a900473ffffffffffffffffffffffffffffffffffffffff1673ffffffffffffffffffffffffffffffffffffffff1614159050919050565b600033905090565b816004600083815260200190815260200160002060006101000a81548173ffffffffffffffffffffffffffffffffffffffff021916908373ffffffffffffffffffffffffffffffffffffffff160217905550808273ffffffffffffffffffffffffffffffffffffffff16612d1c836119ce565b73ffffffffffffffffffffffffffffffffffffffff167f8c5be1e5ebec7d5bd14f71427d1e84f3dd0314c0f7b2291e5b200ac8c7c3b92560405160405180910390a45050565b6000612d6d82612c35565b612dac576040517f08c379a0000000000000000000000000000000000000000000000000000000008152600401612da39061516b565b60405180910390fd5b6000612db7836119ce565b90508073ffffffffffffffffffffffffffffffffffffffff168473ffffffffffffffffffffffffffffffffffffffff161480612e2657508373ffffffffffffffffffffffffffffffffffffffff16612e0e84610bc3565b73ffffffffffffffffffffffffffffffffffffffff16145b80612e375750612e3681856128fb565b5b91505092915050565b8273ffffffffffffffffffffffffffffffffffffffff16612e60826119ce565b73ffffffffffffffffffffffffffffffffffffffff1614612eb6576040517f08c379a0000000000000000000000000000000000000000000000000000000008152600401612ead906152ab565b60405180910390fd5b600073ffffffffffffffffffffffffffffffffffffffff168273ffffffffffffffffffffffffffffffffffffffff161415612f26576040517f08c379a0000000000000000000000000000000000000000000000000000000008152600401612f1d9061510b565b60405180910390fd5b612f3183838361385d565b612f3c600082612ca9565b6001600360008573ffffffffffffffffffffffffffffffffffffffff1673ffffffffffffffffffffffffffffffffffffffff1681526020019081526020016000206000828254612f8c919061567c565b925050819055506001600360008473ffffffffffffffffffffffffffffffffffffffff1673ffffffffffffffffffffffffffffffffffffffff1681526020019081526020016000206000828254612fe3919061559b565b92505081905550816002600083815260200190815260200160002060006101000a81548173ffffffffffffffffffffffffffffffffffffffff021916908373ffffffffffffffffffffffffffffffffffffffff160217905550808273ffffffffffffffffffffffffffffffffffffffff168473ffffffffffffffffffffffffffffffffffffffff167fddf252ad1be2c89b69c2b068fc378daa952ba7f163c4a11628f55a4df523b3ef60405160405180910390a4505050565b600081836130aa919061559b565b905092915050565b600081836130c09190615622565b905092915050565b6130e2828260405180602001604052806000815250613862565b5050565b6016547f000000000000000000000000000000000000000000000000000000000000000073ffffffffffffffffffffffffffffffffffffffff166370a08231306040518263ffffffff1660e01b81526004016131429190614e45565b60206040518083038186803b15801561315a57600080fd5b505afa15801561316e573d6000803e3d6000fd5b505050506040513d601f19601f8201168201806040525081019061319291906147a3565b10156131d3576040517f08c379a00000000000000000000000000000000000000000000000000000000081526004016131ca906151ab565b60405180910390fd5b60006131e3601554601654613460565b90508160176000838152602001908152602001600020819055505050565b6000818361320f919061567c565b905092915050565b6000818361322591906155f1565b905092915050565b613235614128565b600082141561324357613433565b61324b6141fb565b600080600090505b600581101561342f576132908582604051602001613272929190615442565b6040516020818303038152906040528051906020012060001c6138bd565b9250600091505b60058210156133a9576002811480156132b05750600282145b156132fe5760638383600581106132f0577f4e487b7100000000000000000000000000000000000000000000000000000000600052603260045260246000fd5b602002018181525050613396565b600f8161330b9190615622565b838360058110613344577f4e487b7100000000000000000000000000000000000000000000000000000000600052603260045260246000fd5b6020020151613353919061559b565b83836005811061338c577f4e487b7100000000000000000000000000000000000000000000000000000000600052603260045260246000fd5b6020020181815250505b81806133a1906157d3565b925050613297565b60008114156133c05782846000018190525061341c565b60018114156133d75782846020018190525061341b565b60028114156133ee5782846040018190525061341a565b600381141561340557828460600181905250613419565b6004811415613418578284608001819052505b5b5b5b5b8080613427906157d3565b915050613253565b5050505b919050565b6013548214156134515761344c8282613af8565b61345c565b61345b8282613c59565b5b5050565b60007f000000000000000000000000000000000000000000000000000000000000000073ffffffffffffffffffffffffffffffffffffffff16634000aea07f0000000000000000000000000000000000000000000000000000000000000000848660006040516020016134d4929190614ffb565b6040516020818303038152906040526040518463ffffffff1660e01b815260040161350193929190614f35565b602060405180830381600087803b15801561351b57600080fd5b505af115801561352f573d6000803e3d6000fd5b505050506040513d601f19601f8201168201806040525081019061355391906145c6565b506000613576846000306006600089815260200190815260200160002054613cfd565b905060016006600086815260200190815260200160002054613598919061559b565b60066000868152602001908152602001600020819055506135b98482613d39565b91505092915050565b6135cd848484612e40565b6135d984848484613d6c565b613618576040517f08c379a000000000000000000000000000000000000000000000000000000000815260040161360f906150ab565b60405180910390fd5b50505050565b60606009805461362d90615770565b80601f016020809104026020016040519081016040528092919081815260200182805461365990615770565b80156136a65780601f1061367b576101008083540402835291602001916136a6565b820191906000526020600020905b81548152906001019060200180831161368957829003601f168201915b5050505050905090565b606060008214156136f8576040518060400160405280600181526020017f30000000000000000000000000000000000000000000000000000000000000008152509050613858565b600082905060005b6000821461372a578080613713906157d3565b915050600a8261372391906155f1565b9150613700565b60008167ffffffffffffffff81111561376c577f4e487b7100000000000000000000000000000000000000000000000000000000600052604160045260246000fd5b6040519080825280601f01601f19166020018201604052801561379e5781602001600182028036833780820191505090505b5090505b60008514613851576001826137b7919061567c565b9150600a856137c69190615830565b60306137d2919061559b565b60f81b81838151811061380e577f4e487b7100000000000000000000000000000000000000000000000000000000600052603260045260246000fd5b60200101907effffffffffffffffffffffffffffffffffffffffffffffffffffffffffffff1916908160001a905350600a8561384a91906155f1565b94506137a2565b8093505050505b919050565b505050565b61386c8383613f03565b6138796000848484613d6c565b6138b8576040517f08c379a00000000000000000000000000000000000000000000000000000000081526004016138af906150ab565b60405180910390fd5b505050565b6138c56141fb565b6138cd61421d565b60005b600f81101561393b576001816138e6919061559b565b8282600f811061391f577f4e487b7100000000000000000000000000000000000000000000000000000000600052603260045260246000fd5b6020020181815250508080613933906157d3565b9150506138d0565b50600080600090505b6005811015613af0576139a381600161395d919061559b565b600f613969919061567c565b868360405160200161397c929190615442565b6040516020818303038152906040528051906020012060001c6140d190919063ffffffff16565b91508282600f81106139de577f4e487b7100000000000000000000000000000000000000000000000000000000600052603260045260246000fd5b6020020151848260058110613a1c577f4e487b7100000000000000000000000000000000000000000000000000000000600052603260045260246000fd5b602002018181525050806001613a32919061559b565b600f613a3e919061567c565b8214613add5782816001613a52919061559b565b600f613a5e919061567c565b600f8110613a95577f4e487b7100000000000000000000000000000000000000000000000000000000600052603260045260246000fd5b60200201518383600f8110613ad3577f4e487b7100000000000000000000000000000000000000000000000000000000600052603260045260246000fd5b6020020181815250505b8080613ae8906157d3565b915050613944565b505050919050565b6013548214613b3c576040517f08c379a0000000000000000000000000000000000000000000000000000000008152600401613b339061528b565b60405180910390fd5b6000806000600190505b600015158215151415613c1057613b986001613b8a6005600f613b699190615622565b613b7c858961309c90919063ffffffff16565b6140d190919063ffffffff16565b61309c90919063ffffffff16565b925060001515601a600085815260200190815260200160002060009054906101000a900460ff1615151415613bfc576001601a600085815260200190815260200160002060006101000a81548160ff02191690831515021790555060019150613c0b565b8080613c07906157d3565b9150505b613b46565b7fd85a895f825d2064ec30917b67b720684fafc60d3c7e8c33b9d1abd623b0cb6d613c3b6008612bbd565b84604051613c4a929190615442565b60405180910390a15050505050565b6000601760008481526020019081526020016000205411613caf576040517f08c379a0000000000000000000000000000000000000000000000000000000008152600401613ca69061536b565b60405180910390fd5b60006017600084815260200190815260200160002054905081601860008381526020019081526020016000208190555060006017600085815260200190815260200160002081905550505050565b600084848484604051602001613d169493929190615024565b6040516020818303038152906040528051906020012060001c9050949350505050565b60008282604051602001613d4e929190614df5565b60405160208183030381529060405280519060200120905092915050565b6000613d8d8473ffffffffffffffffffffffffffffffffffffffff166140e7565b15613ef6578373ffffffffffffffffffffffffffffffffffffffff1663150b7a02613db6612ca1565b8786866040518563ffffffff1660e01b8152600401613dd89493929190614ec0565b602060405180830381600087803b158015613df257600080fd5b505af1925050508015613e2357506040513d601f19601f82011682018060405250810190613e20919061467d565b60015b613ea6573d8060008114613e53576040519150601f19603f3d011682016040523d82523d6000602084013e613e58565b606091505b50600081511415613e9e576040517f08c379a0000000000000000000000000000000000000000000000000000000008152600401613e95906150ab565b60405180910390fd5b805181602001fd5b63150b7a0260e01b7bffffffffffffffffffffffffffffffffffffffffffffffffffffffff1916817bffffffffffffffffffffffffffffffffffffffffffffffffffffffff191614915050613efb565b600190505b949350505050565b600073ffffffffffffffffffffffffffffffffffffffff168273ffffffffffffffffffffffffffffffffffffffff161415613f73576040517f08c379a0000000000000000000000000000000000000000000000000000000008152600401613f6a9061524b565b60405180910390fd5b613f7c81612c35565b15613fbc576040517f08c379a0000000000000000000000000000000000000000000000000000000008152600401613fb3906150cb565b60405180910390fd5b613fc86000838361385d565b6001600360008473ffffffffffffffffffffffffffffffffffffffff1673ffffffffffffffffffffffffffffffffffffffff1681526020019081526020016000206000828254614018919061559b565b92505081905550816002600083815260200190815260200160002060006101000a81548173ffffffffffffffffffffffffffffffffffffffff021916908373ffffffffffffffffffffffffffffffffffffffff160217905550808273ffffffffffffffffffffffffffffffffffffffff16600073ffffffffffffffffffffffffffffffffffffffff167fddf252ad1be2c89b69c2b068fc378daa952ba7f163c4a11628f55a4df523b3ef60405160405180910390a45050565b600081836140df9190615830565b905092915050565b600080823b905060008111915050919050565b604051806101800160405280600c905b6141126141fb565b81526020019060019003908161410a5790505090565b6040518060a0016040528061413b6141fb565b81526020016141486141fb565b81526020016141556141fb565b81526020016141626141fb565b815260200161416f6141fb565b81525090565b82805461418190615770565b90600052602060002090601f0160209004810192826141a357600085556141ea565b82601f106141bc57805160ff19168380011785556141ea565b828001600101855582156141ea579182015b828111156141e95782518255916020019190600101906141ce565b5b5090506141f79190614240565b5090565b6040518060a00160405280600590602082028036833780820191505090505090565b604051806101e00160405280600f90602082028036833780820191505090505090565b5b80821115614259576000816000905550600101614241565b5090565b600061427061426b84615490565b61546b565b90508281526020810184848401111561428857600080fd5b61429384828561572e565b509392505050565b60006142ae6142a9846154c1565b61546b565b9050828152602081018484840111156142c657600080fd5b6142d184828561572e565b509392505050565b6000813590506142e881615f4c565b92915050565b6000813590506142fd81615f63565b92915050565b60008151905061431281615f63565b92915050565b60008135905061432781615f7a565b92915050565b60008135905061433c81615f91565b92915050565b60008151905061435181615f91565b92915050565b60008083601f84011261436957600080fd5b8235905067ffffffffffffffff81111561438257600080fd5b60208301915083600182028301111561439a57600080fd5b9250929050565b600082601f8301126143b257600080fd5b81356143c284826020860161425d565b91505092915050565b600082601f8301126143dc57600080fd5b81356143ec84826020860161429b565b91505092915050565b60008135905061440481615fa8565b92915050565b60008151905061441981615fa8565b92915050565b60006020828403121561443157600080fd5b600061443f848285016142d9565b91505092915050565b6000806040838503121561445b57600080fd5b6000614469858286016142d9565b925050602061447a858286016142d9565b9150509250929050565b60008060006060848603121561449957600080fd5b60006144a7868287016142d9565b93505060206144b8868287016142d9565b92505060406144c9868287016143f5565b9150509250925092565b600080600080608085870312156144e957600080fd5b60006144f7878288016142d9565b9450506020614508878288016142d9565b9350506040614519878288016143f5565b925050606085013567ffffffffffffffff81111561453657600080fd5b614542878288016143a1565b91505092959194509250565b6000806040838503121561456157600080fd5b600061456f858286016142d9565b9250506020614580858286016142ee565b9150509250929050565b6000806040838503121561459d57600080fd5b60006145ab858286016142d9565b92505060206145bc858286016143f5565b9150509250929050565b6000602082840312156145d857600080fd5b60006145e684828501614303565b91505092915050565b60006020828403121561460157600080fd5b600061460f84828501614318565b91505092915050565b6000806040838503121561462b57600080fd5b600061463985828601614318565b925050602061464a858286016143f5565b9150509250929050565b60006020828403121561466657600080fd5b60006146748482850161432d565b91505092915050565b60006020828403121561468f57600080fd5b600061469d84828501614342565b91505092915050565b600080602083850312156146b957600080fd5b600083013567ffffffffffffffff8111156146d357600080fd5b6146df85828601614357565b92509250509250929050565b600080600080600060a0868803121561470357600080fd5b600086013567ffffffffffffffff81111561471d57600080fd5b614729888289016143cb565b955050602061473a888289016143f5565b945050604061474b888289016143f5565b935050606061475c888289016143f5565b925050608061476d888289016143f5565b9150509295509295909350565b60006020828403121561478c57600080fd5b600061479a848285016143f5565b91505092915050565b6000602082840312156147b557600080fd5b60006147c38482850161440a565b91505092915050565b60006147d88383614dc0565b60208301905092915050565b6147ed816156b0565b82525050565b6147fc8161550c565b6148068184615552565b9250614811826154f2565b8060005b8381101561484257815161482987826147cc565b965061483483615538565b925050600181019050614815565b505050505050565b600061485582615517565b61485f818561555d565b935061486a836154fc565b8060005b8381101561489b57815161488288826147cc565b975061488d83615545565b92505060018101905061486e565b5085935050505092915050565b6148b1816156c2565b82525050565b6148c0816156ce565b82525050565b6148d76148d2826156ce565b61581c565b82525050565b60006148e882615522565b6148f2818561556e565b935061490281856020860161573d565b61490b8161591d565b840191505092915050565b60006149218261552d565b61492b818561557f565b935061493b81856020860161573d565b6149448161591d565b840191505092915050565b600061495a8261552d565b6149648185615590565b935061497481856020860161573d565b80840191505092915050565b600061498d600a8361557f565b91506149988261592e565b602082019050919050565b60006149b060328361557f565b91506149bb82615957565b604082019050919050565b60006149d3601c8361557f565b91506149de826159a6565b602082019050919050565b60006149f6600b8361557f565b9150614a01826159cf565b602082019050919050565b6000614a1960248361557f565b9150614a24826159f8565b604082019050919050565b6000614a3c60198361557f565b9150614a4782615a47565b602082019050919050565b6000614a5f60098361557f565b9150614a6a82615a70565b602082019050919050565b6000614a82602c8361557f565b9150614a8d82615a99565b604082019050919050565b6000614aa5600a8361557f565b9150614ab082615ae8565b602082019050919050565b6000614ac8600f8361557f565b9150614ad382615b11565b602082019050919050565b6000614aeb60388361557f565b9150614af682615b3a565b604082019050919050565b6000614b0e602a8361557f565b9150614b1982615b89565b604082019050919050565b6000614b3160298361557f565b9150614b3c82615bd8565b604082019050919050565b6000614b54600d8361557f565b9150614b5f82615c27565b602082019050919050565b6000614b7760208361557f565b9150614b8282615c50565b602082019050919050565b6000614b9a602c8361557f565b9150614ba582615c79565b604082019050919050565b6000614bbd600f8361557f565b9150614bc882615cc8565b602082019050919050565b6000614be060298361557f565b9150614beb82615cf1565b604082019050919050565b6000614c03600b8361557f565b9150614c0e82615d40565b602082019050919050565b6000614c26602f8361557f565b9150614c3182615d69565b604082019050919050565b6000614c49601f8361557f565b9150614c5482615db8565b602082019050919050565b6000614c6c60218361557f565b9150614c7782615de1565b604082019050919050565b6000614c8f60088361557f565b9150614c9a82615e30565b602082019050919050565b6000614cb260028361557f565b9150614cbd82615e59565b602082019050919050565b6000614cd560318361557f565b9150614ce082615e82565b604082019050919050565b6000614cf8600c8361557f565b9150614d0382615ed1565b602082019050919050565b6000614d1b60108361557f565b9150614d2682615efa565b602082019050919050565b6000614d3e600b8361557f565b9150614d4982615f23565b602082019050919050565b61032082016000820151614d6b60008501826147f3565b506020820151614d7e60a08501826147f3565b506040820151614d926101408501826147f3565b506060820151614da66101e08501826147f3565b506080820151614dba6102808501826147f3565b50505050565b614dc981615724565b82525050565b614dd881615724565b82525050565b614def614dea82615724565b615826565b82525050565b6000614e0182856148c6565b602082019150614e118284614dde565b6020820191508190509392505050565b6000614e2d828561494f565b9150614e39828461494f565b91508190509392505050565b6000602082019050614e5a60008301846147e4565b92915050565b6000604082019050614e7560008301856147e4565b614e8260208301846147e4565b9392505050565b6000606082019050614e9e60008301866147e4565b614eab60208301856147e4565b614eb86040830184614dcf565b949350505050565b6000608082019050614ed560008301876147e4565b614ee260208301866147e4565b614eef6040830185614dcf565b8181036060830152614f0181846148dd565b905095945050505050565b6000604082019050614f2160008301856147e4565b614f2e6020830184614dcf565b9392505050565b6000606082019050614f4a60008301866147e4565b614f576020830185614dcf565b8181036040830152614f6981846148dd565b9050949350505050565b60006020820190508181036000830152614f8d818461484a565b905092915050565b6000602082019050614faa60008301846148a8565b92915050565b6000604082019050614fc560008301856148a8565b8181036020830152614fd781846148dd565b90509392505050565b6000602082019050614ff560008301846148b7565b92915050565b600060408201905061501060008301856148b7565b61501d6020830184614dcf565b9392505050565b600060808201905061503960008301876148b7565b6150466020830186614dcf565b61505360408301856147e4565b6150606060830184614dcf565b95945050505050565b600060208201905081810360008301526150838184614916565b905092915050565b600060208201905081810360008301526150a481614980565b9050919050565b600060208201905081810360008301526150c4816149a3565b9050919050565b600060208201905081810360008301526150e4816149c6565b9050919050565b60006020820190508181036000830152615104816149e9565b9050919050565b6000602082019050818103600083015261512481614a0c565b9050919050565b6000602082019050818103600083015261514481614a2f565b9050919050565b6000602082019050818103600083015261516481614a52565b9050919050565b6000602082019050818103600083015261518481614a75565b9050919050565b600060208201905081810360008301526151a481614a98565b9050919050565b600060208201905081810360008301526151c481614abb565b9050919050565b600060208201905081810360008301526151e481614ade565b9050919050565b6000602082019050818103600083015261520481614b01565b9050919050565b6000602082019050818103600083015261522481614b24565b9050919050565b6000602082019050818103600083015261524481614b47565b9050919050565b6000602082019050818103600083015261526481614b6a565b9050919050565b6000602082019050818103600083015261528481614b8d565b9050919050565b600060208201905081810360008301526152a481614bb0565b9050919050565b600060208201905081810360008301526152c481614bd3565b9050919050565b600060208201905081810360008301526152e481614bf6565b9050919050565b6000602082019050818103600083015261530481614c19565b9050919050565b6000602082019050818103600083015261532481614c3c565b9050919050565b6000602082019050818103600083015261534481614c5f565b9050919050565b6000602082019050818103600083015261536481614c82565b9050919050565b6000602082019050818103600083015261538481614ca5565b9050919050565b600060208201905081810360008301526153a481614cc8565b9050919050565b600060208201905081810360008301526153c481614ceb565b9050919050565b600060208201905081810360008301526153e481614d0e565b9050919050565b6000602082019050818103600083015261540481614d31565b9050919050565b6000610320820190506154216000830184614d54565b92915050565b600060208201905061543c6000830184614dcf565b92915050565b60006040820190506154576000830185614dcf565b6154646020830184614dcf565b9392505050565b6000615475615486565b905061548182826157a2565b919050565b6000604051905090565b600067ffffffffffffffff8211156154ab576154aa6158ee565b5b6154b48261591d565b9050602081019050919050565b600067ffffffffffffffff8211156154dc576154db6158ee565b5b6154e58261591d565b9050602081019050919050565b6000819050919050565b6000819050602082019050919050565b600060059050919050565b600081519050919050565b600081519050919050565b600081519050919050565b6000602082019050919050565b6000602082019050919050565b600081905092915050565b600082825260208201905092915050565b600082825260208201905092915050565b600082825260208201905092915050565b600081905092915050565b60006155a682615724565b91506155b183615724565b9250827fffffffffffffffffffffffffffffffffffffffffffffffffffffffffffffffff038211156155e6576155e5615861565b5b828201905092915050565b60006155fc82615724565b915061560783615724565b92508261561757615616615890565b5b828204905092915050565b600061562d82615724565b915061563883615724565b9250817fffffffffffffffffffffffffffffffffffffffffffffffffffffffffffffffff048311821515161561567157615670615861565b5b828202905092915050565b600061568782615724565b915061569283615724565b9250828210156156a5576156a4615861565b5b828203905092915050565b60006156bb82615704565b9050919050565b60008115159050919050565b6000819050919050565b60007fffffffff0000000000000000000000000000000000000000000000000000000082169050919050565b600073ffffffffffffffffffffffffffffffffffffffff82169050919050565b6000819050919050565b82818337600083830152505050565b60005b8381101561575b578082015181840152602081019050615740565b8381111561576a576000848401525b50505050565b6000600282049050600182168061578857607f821691505b6020821081141561579c5761579b6158bf565b5b50919050565b6157ab8261591d565b810181811067ffffffffffffffff821117156157ca576157c96158ee565b5b80604052505050565b60006157de82615724565b91507fffffffffffffffffffffffffffffffffffffffffffffffffffffffffffffffff82141561581157615810615861565b5b600182019050919050565b6000819050919050565b6000819050919050565b600061583b82615724565b915061584683615724565b92508261585657615855615890565b5b828206905092915050565b7f4e487b7100000000000000000000000000000000000000000000000000000000600052601160045260246000fd5b7f4e487b7100000000000000000000000000000000000000000000000000000000600052601260045260246000fd5b7f4e487b7100000000000000000000000000000000000000000000000000000000600052602260045260246000fd5b7f4e487b7100000000000000000000000000000000000000000000000000000000600052604160045260246000fd5b6000601f19601f8301169050919050565b7f4e6f742057696e6e657200000000000000000000000000000000000000000000600082015250565b7f4552433732313a207472616e7366657220746f206e6f6e20455243373231526560008201527f63656976657220696d706c656d656e7465720000000000000000000000000000602082015250565b7f4552433732313a20746f6b656e20616c7265616479206d696e74656400000000600082015250565b7f4e6f742063757272656e74000000000000000000000000000000000000000000600082015250565b7f4552433732313a207472616e7366657220746f20746865207a65726f2061646460008201527f7265737300000000000000000000000000000000000000000000000000000000602082015250565b7f4552433732313a20617070726f766520746f2063616c6c657200000000000000600082015250565b7f4e6f74204f776e65720000000000000000000000000000000000000000000000600082015250565b7f4552433732313a206f70657261746f7220717565727920666f72206e6f6e657860008201527f697374656e7420746f6b656e0000000000000000000000000000000000000000602082015250565b7f4e6f2042616c616e636500000000000000000000000000000000000000000000600082015250565b7f4e6f7420656e6f756768204c494e4b0000000000000000000000000000000000600082015250565b7f4552433732313a20617070726f76652063616c6c6572206973206e6f74206f7760008201527f6e6572206e6f7220617070726f76656420666f7220616c6c0000000000000000602082015250565b7f4552433732313a2062616c616e636520717565727920666f7220746865207a6560008201527f726f206164647265737300000000000000000000000000000000000000000000602082015250565b7f4552433732313a206f776e657220717565727920666f72206e6f6e657869737460008201527f656e7420746f6b656e0000000000000000000000000000000000000000000000602082015250565b7f4e6f205065726d697373696f6e00000000000000000000000000000000000000600082015250565b7f4552433732313a206d696e7420746f20746865207a65726f2061646472657373600082015250565b7f4552433732313a20617070726f76656420717565727920666f72206e6f6e657860008201527f697374656e7420746f6b656e0000000000000000000000000000000000000000602082015250565b7f496e76616c696420526571756573740000000000000000000000000000000000600082015250565b7f4552433732313a207472616e73666572206f6620746f6b656e2074686174206960008201527f73206e6f74206f776e0000000000000000000000000000000000000000000000602082015250565b7f57726f6e67207072696365000000000000000000000000000000000000000000600082015250565b7f4552433732314d657461646174613a2055524920717565727920666f72206e6f60008201527f6e6578697374656e7420746f6b656e0000000000000000000000000000000000602082015250565b7f4f6e6c7920565246436f6f7264696e61746f722063616e2066756c66696c6c00600082015250565b7f4552433732313a20617070726f76616c20746f2063757272656e74206f776e6560008201527f7200000000000000000000000000000000000000000000000000000000000000602082015250565b7f4d696e2054696d65000000000000000000000000000000000000000000000000600082015250565b7f4e41000000000000000000000000000000000000000000000000000000000000600082015250565b7f4552433732313a207472616e736665722063616c6c6572206973206e6f74206f60008201527f776e6572206e6f7220617070726f766564000000000000000000000000000000602082015250565b7f457863656564732047616d650000000000000000000000000000000000000000600082015250565b7f4578636565647320507572636861736500000000000000000000000000000000600082015250565b7f4d696e20506c6179657273000000000000000000000000000000000000000000600082015250565b615f55816156b0565b8114615f6057600080fd5b50565b615f6c816156c2565b8114615f7757600080fd5b50565b615f83816156ce565b8114615f8e57600080fd5b50565b615f9a816156d8565b8114615fa557600080fd5b50565b615fb181615724565b8114615fbc57600080fd5b5056fea26469706673582212204ea4f265953325e7fbb67412299526fa90cc29ad68c52de4ee32990623f56fc764736f6c63430008040033",
  "immutableReferences": {
    "1530": [
      {
        "length": 32,
        "start": 8231
      },
      {
        "length": 32,
        "start": 12523
      },
      {
        "length": 32,
        "start": 13412
      }
    ],
    "1532": [
      {
        "length": 32,
        "start": 7146
      },
      {
        "length": 32,
        "start": 13472
      }
    ]
  },
  "source": "//                                  ___           ___           ___\n//       _____        ___          /__/\\         /  /\\         /  /\\\n//      /  /::\\      /  /\\         \\  \\:\\       /  /:/_       /  /::\\\n//     /  /:/\\:\\    /  /:/          \\  \\:\\     /  /:/ /\\     /  /:/\\:\\\n//    /  /:/~/::\\  /__/::\\      _____\\__\\:\\   /  /:/_/::\\   /  /:/  \\:\\\n//   /__/:/ /:/\\:| \\__\\/\\:\\__  /__/::::::::\\ /__/:/__\\/\\:\\ /__/:/ \\__\\:\\\n//   \\  \\:\\/:/~/:/    \\  \\:\\/\\ \\  \\:\\~~\\~~\\/ \\  \\:\\ /~~/:/ \\  \\:\\ /  /:/\n//    \\  \\::/ /:/      \\__\\::/  \\  \\:\\  ~~~   \\  \\:\\  /:/   \\  \\:\\  /:/\n//     \\  \\:\\/:/       /__/:/    \\  \\:\\        \\  \\:\\/:/     \\  \\:\\/:/\n//      \\  \\::/        \\__\\/      \\  \\:\\        \\  \\::/       \\  \\::/\n//       \\__\\/                     \\__\\/         \\__\\/         \\__\\/\n//\n// SPDX-License-Identifier: MIT\npragma solidity >=0.8.0 <0.9.0;\nimport '@openzeppelin/contracts/token/ERC721/ERC721.sol';\nimport \"@openzeppelin/contracts/utils/Counters.sol\";\nimport '@openzeppelin/contracts/token/ERC20/IERC20.sol';\nimport '@openzeppelin/contracts/utils/math/SafeMath.sol';\nimport \"@chainlink/contracts/src/v0.8/VRFConsumerBase.sol\";\nimport \"@chainlink/contracts/src/v0.8/interfaces/KeeperCompatibleInterface.sol\";\n\nlibrary BingoGenerate {\n    using SafeMath for uint256;\n\n    // Card\n    struct Card {\n        uint256[5] B;\n        uint256[5] I;\n        uint256[5] N;\n        uint256[5] G;\n        uint256[5] O;\n    }\n\n    // Settings\n    uint256 constant maxCount = 15;\n\n    function generateBingoCard(uint256 randomness) internal pure returns (Card memory card) {\n        if(randomness == 0) {\n            return card;\n        }\n        uint256[5] memory col;\n        uint256 i;\n\n        for(uint256 k=0; k<5; k++) {\n            col = generateColumn(uint256(keccak256(abi.encode(randomness, k))));\n            for(i=0;i<5;i++) {\n                if(k==2 && i==2) {\n                    col[i] = 99;\n                } else {\n                    col[i] = col[i] + (k*maxCount);\n                }\n            }\n\n            // Not sure how to do this better :)\n            if(k == 0) {\n                card.B = col;\n            } else if(k == 1) {\n                card.I = col;\n            } else if(k == 2) {\n                card.N = col;\n            } else if(k == 3) {\n                card.G = col;\n            } else if(k == 4) {\n                card.O = col;\n            }\n        }\n\n        return card;\n    }\n\n    function generateColumn(uint256 randomness) internal pure returns(uint256[5] memory col) {\n        uint256[15] memory possible;\n        for(uint256 i=0; i<15; i++) {\n            possible[i] = i+1;\n        }\n        uint256 idx;\n        for(uint256 k=0; k<5; k++) {\n            idx = uint256(keccak256(abi.encode(randomness, k))).mod(maxCount-(1+k));\n            col[k] = possible[idx];\n            if(idx != 15 - (1+k)) {\n                possible[idx] = possible[15 - (1+k)];\n            }\n        }\n        return col;\n    }\n}\n\n// Welcome to BINGO\ncontract Bingo is ERC721, VRFConsumerBase, KeeperCompatibleInterface {\n    using SafeMath for uint256;\n    using Counters for Counters.Counter;\n    Counters.Counter private _tokenIds;\n    Counters.Counter public gameId;\n\n    // Settings\n    string public baseUri;\n    uint256 public minCardsPerGame = 1;     // 10\n    uint256 public maxCardsPerGame = 1000;\n    uint256 public maxCardPurchase = 10;\n    uint256 public pricePerCard = 10000000000000000; // 0.01 ETH\n    uint256 public ballDrawTime = 60;   // 86400\n    uint256 public weedPerCard = 4000 * 1e18; // 4000 Weed\n    address weedContract;\n    address owner;\n\n    // Game\n    uint256 public lastBallTime;\n    bytes32 public ballRequest;\n    uint256 public prizePool;\n\n    // Random\n    bytes32 internal keyHash;\n    uint256 internal fee;\n\n    // Mappings\n    mapping (bytes32 => uint256) public cardRequests;\n    mapping (uint256 => uint256) public cardRandomness;\n    mapping (uint256 => uint256) public gameFloors;\n    mapping (uint256 => bool) public Balls;\n\n    event BallPicked(uint256 game, uint256 choice);\n    event BingoWinner(address winner, uint256 tokenId);\n\n    modifier onlyOwner {\n        require(msg.sender == owner);\n        _;\n    }\n\n    constructor(address _weedContract)\n    ERC721(\"Bingo\", \"BINGO\")\n    VRFConsumerBase(\n        0xdD3782915140c8f3b190B5D67eAc6dc5760C46E9, // VRF Coordinator - Kovan\n        0xa36085F69e2889c224210F603D836748e7dC0088  // LINK Token - Kovan\n    )\n    {\n        owner = msg.sender;\n        weedContract = _weedContract;\n        keyHash = 0x6c3699283bda56ad74f6b855546325b68d482e983852a7a82979cc4807b641f4;\n        fee = 0.1 * 10 ** 18; // 0.1 LINK (Varies by network)\n\n        // Automatically start the first game\n        gameId.increment();\n        lastBallTime = block.timestamp;\n        gameFloors[gameId.current()] = _tokenIds.current();\n    }\n\n    /*\n    *   Purchase.\n    */\n    function mintCardEth(uint256 amount) public payable {\n        require(amount <= maxCardPurchase, \"Exceeds Purchase\");\n        require((_tokenIds.current().add(amount) - gameFloors[gameId.current()]) <= maxCardsPerGame, \"Exceeds Game\");\n        require(pricePerCard.mul(amount) <= msg.value, \"Wrong price\");\n        for(uint256 i=0; i<amount; i++) {\n            _tokenIds.increment();\n            _safeMint(msg.sender, _tokenIds.current());\n            requestRandomCard(_tokenIds.current());\n        }\n        prizePool += msg.value / 2;\n    }\n\n    function mintCardWeed(uint256 amount) public payable {\n        require(amount <= maxCardPurchase, \"Exceeds Purchase\");\n        require((_tokenIds.current().add(amount) - gameFloors[gameId.current()]) <= maxCardsPerGame, \"Exceeds Game\");\n        require(IERC20(weedContract).balanceOf(msg.sender) >= weedPerCard * amount, \"No Balance\");\n        require(IERC20(weedContract).allowance(msg.sender, address(this)) >= weedPerCard * amount, \"No Permission\");\n        IERC20(weedContract).transferFrom(msg.sender, address(this), weedPerCard * amount);\n        for(uint256 i=0; i<amount; i++) {\n            _tokenIds.increment();\n            _safeMint(msg.sender, _tokenIds.current());\n            requestRandomCard(_tokenIds.current());\n        }\n    }\n\n    /*\n    *   Randomness.\n    */\n\n    function checkUpkeep(bytes calldata checkData) external view override returns (bool upkeepNeeded, bytes memory performData) {\n        upkeepNeeded = (_tokenIds.current() - gameFloors[gameId.current()] >= minCardsPerGame) && (block.timestamp > lastBallTime+ballDrawTime);\n        performData = checkData;\n    }\n\n    function performUpkeep(bytes calldata performData) external override {\n        lastBallTime = block.timestamp;\n        requestRandomBall();\n        performData;\n    }\n\n    function requestRandomCard(uint256 cardId) internal {\n        require(LINK.balanceOf(address(this)) >= fee, \"Not enough LINK\");\n        bytes32 requestId = requestRandomness(keyHash, fee);\n        cardRequests[requestId] = cardId;\n    }\n\n    function requestRandomBall() public {\n        require(block.timestamp > lastBallTime+ballDrawTime, \"Min Time\");\n        require((_tokenIds.current() - gameFloors[gameId.current()]) >= minCardsPerGame, \"Min Players\");\n        require(LINK.balanceOf(address(this)) >= fee, \"Not enough LINK\");\n        ballRequest = requestRandomness(keyHash, fee);\n    }\n\n    function fulfillRandomness(bytes32 requestId, uint256 randomness) internal override {\n        if(requestId == ballRequest) {\n            fulfillRandomBall(requestId, randomness);\n        } else {\n            fulfillRandomCard(requestId, randomness);\n        }\n    }\n\n    function fulfillRandomCard(bytes32 requestId, uint256 randomness) internal {\n        require(cardRequests[requestId] > 0, \"NA\");\n        uint256 cardId = cardRequests[requestId];\n        cardRandomness[cardId] = randomness;\n        cardRequests[requestId] = 0;\n    }\n\n    function fulfillRandomBall(bytes32 requestId, uint256 randomness) internal {\n        require(requestId == ballRequest, \"Invalid Request\");\n        uint256 choice;\n        bool found;\n        uint256 idx = 1;\n        while(found == false) {\n            choice = randomness.add(idx).mod(BingoGenerate.maxCount*5).add(1);\n            if(Balls[choice] == false) {\n                Balls[choice] = true;\n                found = true;\n            } else {\n                idx++;\n            }\n        }\n        emit BallPicked(gameId.current(), choice);\n    }\n\n    /*\n    *   Claim.\n    */\n\n    function validateWinner(uint256 cardId) public view returns (bool found) {\n        BingoGenerate.Card memory card = BingoGenerate.generateBingoCard(cardRandomness[cardId]);\n        uint256[5][12] memory lines;\n        uint256 i;\n        for(i=0; i<5; i++) {\n            lines[i] = [card.B[i], card.I[i], card.N[i], card.G[i], card.O[i]];\n        }\n        lines[5] = uint256[5](card.B);\n        lines[6] = card.I;\n        lines[7] = card.N;\n        lines[8] = card.G;\n        lines[9] = card.O;\n        lines[10] = [card.B[0], card.I[1], card.N[2], card.G[3], card.O[4]];\n        lines[11] = [card.B[4], card.I[3], card.N[2], card.G[1], card.O[0]];\n\n        found = false;\n        uint256 k;\n        uint256 matches;\n        for(i=0; i<12; i++) {\n            matches=0;\n            for(k=0; k<5; k++) {\n                if(Balls[lines[i][k]] || lines[i][k] == 99) {\n                    matches++;\n                }\n            }\n            if(matches == 5) {\n                found = true;\n            }\n        }\n    }\n\n    function claimBingo(uint256 cardId) public payable {\n        require(ownerOf(cardId) == msg.sender, \"Not Owner\");\n        require(validateWinner(cardId), \"Not Winner\");\n        require(cardId > gameFloors[gameId.current()], \"Not current\");\n\n        payable(msg.sender).transfer(prizePool);\n        emit BingoWinner(msg.sender, cardId);\n\n        // Reset game\n        prizePool = 0;\n        gameId.increment();\n        lastBallTime = block.timestamp;\n        gameFloors[gameId.current()] = _tokenIds.current();\n        for(uint256 i=1; i<76; i++) {\n            if(Balls[i]) {\n                Balls[i] = false;\n            }\n        }\n    }\n\n    /*\n    *   Getters.\n    */\n\n    function generateCard(uint256 cardId) public view returns (BingoGenerate.Card memory) {\n        return BingoGenerate.generateBingoCard(cardRandomness[cardId]);\n    }\n\n    function getCurrentGame() public view returns (uint256) {\n        return gameId.current();\n    }\n\n    function getCurrentToken() public view returns (uint256) {\n        return _tokenIds.current();\n    }\n\n    function getCardsByOwner(address _owner) view public returns(uint256[] memory) {\n        uint256 tokenCount = balanceOf(_owner);\n        if (tokenCount == 0) {\n            return new uint256[](0);\n        } else {\n            uint256[] memory result = new uint256[](tokenCount);\n            uint256 totalTokens = _tokenIds.current();\n            uint256 resultIndex = 0;\n            for (uint256 t = 1; t <= totalTokens; t++) {\n                if (_exists(t) && ownerOf(t) == _owner) {\n                    result[resultIndex] = t;\n                    resultIndex++;\n                }\n            }\n            return result;\n        }\n    }\n\n    function exists(uint256 tokenId) public view returns(bool) {\n        return _exists(tokenId);\n    }\n\n    function _baseURI() internal view override returns (string memory) {\n        return baseUri;\n    }\n\n    /*\n    *   Setters.\n    */\n\n    function contractSettings(string memory _baseUri, uint256 _ballDrawTime, uint256 _minCardsPerGame, uint256 _maxCardsPerGame, uint256 _pricePerCard) public onlyOwner {\n        baseUri = _baseUri;\n        ballDrawTime = _ballDrawTime;\n        minCardsPerGame = _minCardsPerGame;\n        maxCardsPerGame = _maxCardsPerGame;\n        pricePerCard = _pricePerCard;\n    }\n\n    /*\n    *   Money management.\n    */\n    function withdraw() public payable onlyOwner {\n        uint256 _each = address(this).balance.sub(prizePool).div(3);\n        require(payable(0x00796e910Bd0228ddF4cd79e3f353871a61C351C).send(_each));   // sara\n        require(payable(0x7fc55376D5A29e0Ee86C18C81bb2fC8F9f490E50).send(_each));   // shaun\n        require(payable(0xB58Fb5372e9Aa0C86c3B281179c05Af3bB7a181b).send(_each));   // mark\n    }\n}\n",
  "sourcePath": "/Users/Shared/Code/experimental/bingo/bingo-contracts/contracts/Bingo.sol",
  "compiler": {
    "name": "solc",
    "version": "0.8.4+commit.c7e474f2.Emscripten.clang"
  },
  "schemaVersion": "3.4.1",
  "updatedAt": "2021-08-10T18:08:09.529Z",
  "networkType": "ethereum",
  "devdoc": {
    "kind": "dev",
    "methods": {
      "approve(address,uint256)": {
        "details": "See {IERC721-approve}."
      },
      "balanceOf(address)": {
        "details": "See {IERC721-balanceOf}."
      },
      "checkUpkeep(bytes)": {
        "params": {
          "checkData": "data passed to the contract when checking for upkeep."
        },
        "returns": {
          "performData": "bytes that the keeper should call performUpkeep with, if upkeep is needed.",
          "upkeepNeeded": "boolean to indicate whether the keeper should call performUpkeep or not."
        }
      },
      "getApproved(uint256)": {
        "details": "See {IERC721-getApproved}."
      },
      "isApprovedForAll(address,address)": {
        "details": "See {IERC721-isApprovedForAll}."
      },
      "name()": {
        "details": "See {IERC721Metadata-name}."
      },
      "ownerOf(uint256)": {
        "details": "See {IERC721-ownerOf}."
      },
      "performUpkeep(bytes)": {
        "params": {
          "performData": "is the data which was passed back from the checkData simulation."
        }
      },
      "safeTransferFrom(address,address,uint256)": {
        "details": "See {IERC721-safeTransferFrom}."
      },
      "safeTransferFrom(address,address,uint256,bytes)": {
        "details": "See {IERC721-safeTransferFrom}."
      },
      "setApprovalForAll(address,bool)": {
        "details": "See {IERC721-setApprovalForAll}."
      },
      "supportsInterface(bytes4)": {
        "details": "See {IERC165-supportsInterface}."
      },
      "symbol()": {
        "details": "See {IERC721Metadata-symbol}."
      },
      "tokenURI(uint256)": {
        "details": "See {IERC721Metadata-tokenURI}."
      },
      "transferFrom(address,address,uint256)": {
        "details": "See {IERC721-transferFrom}."
      }
    },
    "version": 1
  },
  "userdoc": {
    "kind": "user",
    "methods": {
      "checkUpkeep(bytes)": {
        "notice": "checks if the contract requires work to be done."
      },
      "performUpkeep(bytes)": {
        "notice": "Performs work on the contract. Executed by the keepers, via the registry."
      }
    },
    "version": 1
  }
}