{
  "contractName": "Bingo",
  "abi": [
    {
      "inputs": [
        {
          "internalType": "address",
          "name": "_weedContract",
          "type": "address"
        }
      ],
      "stateMutability": "nonpayable",
      "type": "constructor"
    },
    {
      "anonymous": false,
      "inputs": [
        {
          "indexed": true,
          "internalType": "address",
          "name": "owner",
          "type": "address"
        },
        {
          "indexed": true,
          "internalType": "address",
          "name": "approved",
          "type": "address"
        },
        {
          "indexed": true,
          "internalType": "uint256",
          "name": "tokenId",
          "type": "uint256"
        }
      ],
      "name": "Approval",
      "type": "event"
    },
    {
      "anonymous": false,
      "inputs": [
        {
          "indexed": true,
          "internalType": "address",
          "name": "owner",
          "type": "address"
        },
        {
          "indexed": true,
          "internalType": "address",
          "name": "operator",
          "type": "address"
        },
        {
          "indexed": false,
          "internalType": "bool",
          "name": "approved",
          "type": "bool"
        }
      ],
      "name": "ApprovalForAll",
      "type": "event"
    },
    {
      "anonymous": false,
      "inputs": [
        {
          "indexed": false,
          "internalType": "uint256",
          "name": "game",
          "type": "uint256"
        },
        {
          "indexed": false,
          "internalType": "uint256",
          "name": "ball",
          "type": "uint256"
        }
      ],
      "name": "BallPicked",
      "type": "event"
    },
    {
      "anonymous": false,
      "inputs": [
        {
          "indexed": false,
          "internalType": "uint256",
          "name": "game",
          "type": "uint256"
        },
        {
          "indexed": false,
          "internalType": "uint256",
          "name": "tokenId",
          "type": "uint256"
        }
      ],
      "name": "BingoWinner",
      "type": "event"
    },
    {
      "anonymous": false,
      "inputs": [
        {
          "indexed": false,
          "internalType": "uint256",
          "name": "game",
          "type": "uint256"
        },
        {
          "indexed": false,
          "internalType": "address",
          "name": "owner",
          "type": "address"
        },
        {
          "indexed": false,
          "internalType": "uint256",
          "name": "tokenId",
          "type": "uint256"
        }
      ],
      "name": "CardGenerated",
      "type": "event"
    },
    {
      "anonymous": false,
      "inputs": [
        {
          "indexed": true,
          "internalType": "address",
          "name": "from",
          "type": "address"
        },
        {
          "indexed": true,
          "internalType": "address",
          "name": "to",
          "type": "address"
        },
        {
          "indexed": true,
          "internalType": "uint256",
          "name": "tokenId",
          "type": "uint256"
        }
      ],
      "name": "Transfer",
      "type": "event"
    },
    {
      "inputs": [
        {
          "internalType": "address",
          "name": "to",
          "type": "address"
        },
        {
          "internalType": "uint256",
          "name": "tokenId",
          "type": "uint256"
        }
      ],
      "name": "approve",
      "outputs": [],
      "stateMutability": "nonpayable",
      "type": "function"
    },
    {
      "inputs": [
        {
          "internalType": "address",
          "name": "owner",
          "type": "address"
        }
      ],
      "name": "balanceOf",
      "outputs": [
        {
          "internalType": "uint256",
          "name": "",
          "type": "uint256"
        }
      ],
      "stateMutability": "view",
      "type": "function",
      "constant": true
    },
    {
      "inputs": [],
      "name": "ballDrawTime",
      "outputs": [
        {
          "internalType": "uint256",
          "name": "",
          "type": "uint256"
        }
      ],
      "stateMutability": "view",
      "type": "function",
      "constant": true
    },
    {
      "inputs": [],
      "name": "ballRequest",
      "outputs": [
        {
          "internalType": "bytes32",
          "name": "",
          "type": "bytes32"
        }
      ],
      "stateMutability": "view",
      "type": "function",
      "constant": true
    },
    {
      "inputs": [
        {
          "internalType": "uint256",
          "name": "",
          "type": "uint256"
        }
      ],
      "name": "cardRandomness",
      "outputs": [
        {
          "internalType": "uint256",
          "name": "",
          "type": "uint256"
        }
      ],
      "stateMutability": "view",
      "type": "function",
      "constant": true
    },
    {
      "inputs": [],
      "name": "gameFloor",
      "outputs": [
        {
          "internalType": "uint256",
          "name": "",
          "type": "uint256"
        }
      ],
      "stateMutability": "view",
      "type": "function",
      "constant": true
    },
    {
      "inputs": [
        {
          "internalType": "uint256",
          "name": "tokenId",
          "type": "uint256"
        }
      ],
      "name": "getApproved",
      "outputs": [
        {
          "internalType": "address",
          "name": "",
          "type": "address"
        }
      ],
      "stateMutability": "view",
      "type": "function",
      "constant": true
    },
    {
      "inputs": [
        {
          "internalType": "address",
          "name": "owner",
          "type": "address"
        },
        {
          "internalType": "address",
          "name": "operator",
          "type": "address"
        }
      ],
      "name": "isApprovedForAll",
      "outputs": [
        {
          "internalType": "bool",
          "name": "",
          "type": "bool"
        }
      ],
      "stateMutability": "view",
      "type": "function",
      "constant": true
    },
    {
      "inputs": [],
      "name": "lastBallTime",
      "outputs": [
        {
          "internalType": "uint256",
          "name": "",
          "type": "uint256"
        }
      ],
      "stateMutability": "view",
      "type": "function",
      "constant": true
    },
    {
      "inputs": [],
      "name": "maxCards",
      "outputs": [
        {
          "internalType": "uint256",
          "name": "",
          "type": "uint256"
        }
      ],
      "stateMutability": "view",
      "type": "function",
      "constant": true
    },
    {
      "inputs": [],
      "name": "minCards",
      "outputs": [
        {
          "internalType": "uint256",
          "name": "",
          "type": "uint256"
        }
      ],
      "stateMutability": "view",
      "type": "function",
      "constant": true
    },
    {
      "inputs": [],
      "name": "name",
      "outputs": [
        {
          "internalType": "string",
          "name": "",
          "type": "string"
        }
      ],
      "stateMutability": "view",
      "type": "function",
      "constant": true
    },
    {
      "inputs": [],
      "name": "outOfBalls",
      "outputs": [
        {
          "internalType": "bool",
          "name": "",
          "type": "bool"
        }
      ],
      "stateMutability": "view",
      "type": "function",
      "constant": true
    },
    {
      "inputs": [
        {
          "internalType": "uint256",
          "name": "tokenId",
          "type": "uint256"
        }
      ],
      "name": "ownerOf",
      "outputs": [
        {
          "internalType": "address",
          "name": "",
          "type": "address"
        }
      ],
      "stateMutability": "view",
      "type": "function",
      "constant": true
    },
    {
      "inputs": [],
      "name": "pattern",
      "outputs": [
        {
          "internalType": "uint256",
          "name": "",
          "type": "uint256"
        }
      ],
      "stateMutability": "view",
      "type": "function",
      "constant": true
    },
    {
      "inputs": [],
      "name": "pricePerCard",
      "outputs": [
        {
          "internalType": "uint256",
          "name": "",
          "type": "uint256"
        }
      ],
      "stateMutability": "view",
      "type": "function",
      "constant": true
    },
    {
      "inputs": [],
      "name": "prizePool",
      "outputs": [
        {
          "internalType": "uint256",
          "name": "",
          "type": "uint256"
        }
      ],
      "stateMutability": "view",
      "type": "function",
      "constant": true
    },
    {
      "inputs": [],
      "name": "prizeSplit",
      "outputs": [
        {
          "internalType": "uint256",
          "name": "",
          "type": "uint256"
        }
      ],
      "stateMutability": "view",
      "type": "function",
      "constant": true
    },
    {
      "inputs": [
        {
          "internalType": "bytes32",
          "name": "requestId",
          "type": "bytes32"
        },
        {
          "internalType": "uint256",
          "name": "randomness",
          "type": "uint256"
        }
      ],
      "name": "rawFulfillRandomness",
      "outputs": [],
      "stateMutability": "nonpayable",
      "type": "function"
    },
    {
      "inputs": [
        {
          "internalType": "address",
          "name": "from",
          "type": "address"
        },
        {
          "internalType": "address",
          "name": "to",
          "type": "address"
        },
        {
          "internalType": "uint256",
          "name": "tokenId",
          "type": "uint256"
        }
      ],
      "name": "safeTransferFrom",
      "outputs": [],
      "stateMutability": "nonpayable",
      "type": "function"
    },
    {
      "inputs": [
        {
          "internalType": "address",
          "name": "from",
          "type": "address"
        },
        {
          "internalType": "address",
          "name": "to",
          "type": "address"
        },
        {
          "internalType": "uint256",
          "name": "tokenId",
          "type": "uint256"
        },
        {
          "internalType": "bytes",
          "name": "_data",
          "type": "bytes"
        }
      ],
      "name": "safeTransferFrom",
      "outputs": [],
      "stateMutability": "nonpayable",
      "type": "function"
    },
    {
      "inputs": [
        {
          "internalType": "address",
          "name": "operator",
          "type": "address"
        },
        {
          "internalType": "bool",
          "name": "approved",
          "type": "bool"
        }
      ],
      "name": "setApprovalForAll",
      "outputs": [],
      "stateMutability": "nonpayable",
      "type": "function"
    },
    {
      "inputs": [],
      "name": "startAuto",
      "outputs": [
        {
          "internalType": "bool",
          "name": "",
          "type": "bool"
        }
      ],
      "stateMutability": "view",
      "type": "function",
      "constant": true
    },
    {
      "inputs": [],
      "name": "startGame",
      "outputs": [
        {
          "internalType": "bool",
          "name": "",
          "type": "bool"
        }
      ],
      "stateMutability": "view",
      "type": "function",
      "constant": true
    },
    {
      "inputs": [
        {
          "internalType": "bytes4",
          "name": "interfaceId",
          "type": "bytes4"
        }
      ],
      "name": "supportsInterface",
      "outputs": [
        {
          "internalType": "bool",
          "name": "",
          "type": "bool"
        }
      ],
      "stateMutability": "view",
      "type": "function",
      "constant": true
    },
    {
      "inputs": [],
      "name": "symbol",
      "outputs": [
        {
          "internalType": "string",
          "name": "",
          "type": "string"
        }
      ],
      "stateMutability": "view",
      "type": "function",
      "constant": true
    },
    {
      "inputs": [
        {
          "internalType": "uint256",
          "name": "tokenId",
          "type": "uint256"
        }
      ],
      "name": "tokenURI",
      "outputs": [
        {
          "internalType": "string",
          "name": "",
          "type": "string"
        }
      ],
      "stateMutability": "view",
      "type": "function",
      "constant": true
    },
    {
      "inputs": [
        {
          "internalType": "address",
          "name": "from",
          "type": "address"
        },
        {
          "internalType": "address",
          "name": "to",
          "type": "address"
        },
        {
          "internalType": "uint256",
          "name": "tokenId",
          "type": "uint256"
        }
      ],
      "name": "transferFrom",
      "outputs": [],
      "stateMutability": "nonpayable",
      "type": "function"
    },
    {
      "inputs": [],
      "name": "winnerPool",
      "outputs": [
        {
          "internalType": "uint256",
          "name": "",
          "type": "uint256"
        }
      ],
      "stateMutability": "view",
      "type": "function",
      "constant": true
    },
    {
      "inputs": [
        {
          "internalType": "uint256",
          "name": "",
          "type": "uint256"
        }
      ],
      "name": "winners",
      "outputs": [
        {
          "internalType": "uint256",
          "name": "",
          "type": "uint256"
        }
      ],
      "stateMutability": "view",
      "type": "function",
      "constant": true
    },
    {
      "inputs": [
        {
          "internalType": "uint256",
          "name": "amount",
          "type": "uint256"
        }
      ],
      "name": "mintCard",
      "outputs": [],
      "stateMutability": "payable",
      "type": "function",
      "payable": true
    },
    {
      "inputs": [
        {
          "internalType": "bytes",
          "name": "checkData",
          "type": "bytes"
        }
      ],
      "name": "checkUpkeep",
      "outputs": [
        {
          "internalType": "bool",
          "name": "upkeepNeeded",
          "type": "bool"
        },
        {
          "internalType": "bytes",
          "name": "performData",
          "type": "bytes"
        }
      ],
      "stateMutability": "view",
      "type": "function",
      "constant": true
    },
    {
      "inputs": [
        {
          "internalType": "bytes",
          "name": "performData",
          "type": "bytes"
        }
      ],
      "name": "performUpkeep",
      "outputs": [],
      "stateMutability": "nonpayable",
      "type": "function"
    },
    {
      "inputs": [
        {
          "internalType": "uint256",
          "name": "cardId",
          "type": "uint256"
        }
      ],
      "name": "claimBingo",
      "outputs": [],
      "stateMutability": "payable",
      "type": "function",
      "payable": true
    },
    {
      "inputs": [
        {
          "internalType": "uint256",
          "name": "tokenId",
          "type": "uint256"
        }
      ],
      "name": "burn",
      "outputs": [],
      "stateMutability": "nonpayable",
      "type": "function"
    },
    {
      "inputs": [
        {
          "internalType": "uint256",
          "name": "cardId",
          "type": "uint256"
        }
      ],
      "name": "generateCard",
      "outputs": [
        {
          "components": [
            {
              "internalType": "uint256[5]",
              "name": "B",
              "type": "uint256[5]"
            },
            {
              "internalType": "uint256[5]",
              "name": "I",
              "type": "uint256[5]"
            },
            {
              "internalType": "uint256[5]",
              "name": "N",
              "type": "uint256[5]"
            },
            {
              "internalType": "uint256[5]",
              "name": "G",
              "type": "uint256[5]"
            },
            {
              "internalType": "uint256[5]",
              "name": "O",
              "type": "uint256[5]"
            }
          ],
          "internalType": "struct BingoGenerate.Card",
          "name": "",
          "type": "tuple"
        }
      ],
      "stateMutability": "view",
      "type": "function",
      "constant": true
    },
    {
      "inputs": [
        {
          "internalType": "uint256",
          "name": "cardId",
          "type": "uint256"
        }
      ],
      "name": "validateCard",
      "outputs": [
        {
          "internalType": "bool",
          "name": "",
          "type": "bool"
        }
      ],
      "stateMutability": "view",
      "type": "function",
      "constant": true
    },
    {
      "inputs": [],
      "name": "getCurrent",
      "outputs": [
        {
          "internalType": "uint256",
          "name": "game",
          "type": "uint256"
        },
        {
          "internalType": "uint256",
          "name": "token",
          "type": "uint256"
        }
      ],
      "stateMutability": "view",
      "type": "function",
      "constant": true
    },
    {
      "inputs": [
        {
          "internalType": "uint256",
          "name": "tokenId",
          "type": "uint256"
        }
      ],
      "name": "exists",
      "outputs": [
        {
          "internalType": "bool",
          "name": "",
          "type": "bool"
        }
      ],
      "stateMutability": "view",
      "type": "function",
      "constant": true
    },
    {
      "inputs": [
        {
          "internalType": "bool",
          "name": "_startGame",
          "type": "bool"
        },
        {
          "internalType": "bool",
          "name": "_startAuto",
          "type": "bool"
        },
        {
          "internalType": "uint256",
          "name": "_ballDrawTime",
          "type": "uint256"
        },
        {
          "internalType": "uint256",
          "name": "_minCardsPerGame",
          "type": "uint256"
        },
        {
          "internalType": "uint256",
          "name": "_maxCardsPerGame",
          "type": "uint256"
        },
        {
          "internalType": "uint256",
          "name": "_pricePerCard",
          "type": "uint256"
        },
        {
          "internalType": "uint256",
          "name": "_prizeSplit",
          "type": "uint256"
        },
        {
          "internalType": "uint256",
          "name": "_pattern",
          "type": "uint256"
        },
        {
          "internalType": "address",
          "name": "_owner",
          "type": "address"
        }
      ],
      "name": "contractSettings",
      "outputs": [],
      "stateMutability": "nonpayable",
      "type": "function"
    },
    {
      "inputs": [
        {
          "internalType": "contract IERC20",
          "name": "_token",
          "type": "address"
        },
        {
          "internalType": "uint256",
          "name": "_amount",
          "type": "uint256"
        }
      ],
      "name": "withdraw",
      "outputs": [],
      "stateMutability": "payable",
      "type": "function",
      "payable": true
    }
  ],
  "bytecode": "0x60c060405260016009556103e8600a55662386f26fc10000600b55603c600c556002600d556001600e553480156200003657600080fd5b50604051620062863803806200628683398181016040528101906200005c919062000353565b73dd3782915140c8f3b190b5d67eac6dc5760c46e973a36085f69e2889c224210f603d836748e7dc00886040518060400160405280600581526020017f42696e676f0000000000000000000000000000000000000000000000000000008152506040518060400160405280600581526020017f42494e474f00000000000000000000000000000000000000000000000000000081525081600090805190602001906200010a9291906200028c565b508060019080519060200190620001239291906200028c565b5050508173ffffffffffffffffffffffffffffffffffffffff1660a08173ffffffffffffffffffffffffffffffffffffffff1660601b815250508073ffffffffffffffffffffffffffffffffffffffff1660808173ffffffffffffffffffffffffffffffffffffffff1660601b81525050505033601060006101000a81548173ffffffffffffffffffffffffffffffffffffffff021916908373ffffffffffffffffffffffffffffffffffffffff16021790555080600f60026101000a81548173ffffffffffffffffffffffffffffffffffffffff021916908373ffffffffffffffffffffffffffffffffffffffff1602179055507f6c3699283bda56ad74f6b855546325b68d482e983852a7a82979cc4807b641f460001b60178190555067016345785d8a00006018819055506200026860086200027660201b620020be1760201c565b426012819055505062000432565b6001816000016000828254019250508190555050565b8280546200029a90620003b3565b90600052602060002090601f016020900481019282620002be57600085556200030a565b82601f10620002d957805160ff19168380011785556200030a565b828001600101855582156200030a579182015b8281111562000309578251825591602001919060010190620002ec565b5b5090506200031991906200031d565b5090565b5b80821115620003385760008160009055506001016200031e565b5090565b6000815190506200034d8162000418565b92915050565b6000602082840312156200036657600080fd5b600062000376848285016200033c565b91505092915050565b60006200038c8262000393565b9050919050565b600073ffffffffffffffffffffffffffffffffffffffff82169050919050565b60006002820490506001821680620003cc57607f821691505b60208210811415620003e357620003e2620003e9565b5b50919050565b7f4e487b7100000000000000000000000000000000000000000000000000000000600052602260045260246000fd5b62000423816200037f565b81146200042f57600080fd5b50565b60805160601c60a05160601c615e1a6200046c6000396000818161176d015261331b015260008181610eac01526132df0152615e1a6000f3fe6080604052600436106102465760003560e01c80636352211e11610139578063a319795a116100b6578063d65ab5f21161007a578063d65ab5f2146108c1578063dcde2519146108ec578063e985e9c514610908578063ec49e46c14610945578063f3fef3a314610982578063f8a7443c1461099e57610246565b8063a319795a146107dc578063a96f1c6914610805578063aad4df5214610830578063b88d4fde1461085b578063c87b56dd1461088457610246565b8063842005b5116100fd578063842005b5146106f757806394985ddd1461072257806395d89b411461074b578063a22cb46514610776578063a2fb11751461079f57610246565b80636352211e146105e95780636e04ff0d1461062657806370a082311461066457806371533047146106a1578063719ce73e146106cc57610246565b806341287355116101c75780634f558e791161018b5780634f558e79146104fd578063521eaea31461053a578063596a0b041461056557806360b47a5014610590578063630930ba146105ac57610246565b8063412873551461042c57806342842e0e1461045757806342966c68146104805780634585e33b146104a95780634725c409146104d257610246565b806311196afe1161020e57806311196afe1461034457806323b872dd1461036f57806329568350146103985780632b675f34146103c357806335a5cfcb1461040057610246565b806301ffc9a71461024b57806306fdde0314610288578063081812fc146102b357806308b237b5146102f0578063095ea7b31461031b575b600080fd5b34801561025757600080fd5b50610272600480360381019061026d91906146e1565b6109c9565b60405161027f9190614ec3565b60405180910390f35b34801561029457600080fd5b5061029d610aab565b6040516102aa9190614f97565b60405180910390f35b3480156102bf57600080fd5b506102da60048036038101906102d591906147b4565b610b3d565b6040516102e79190614d95565b60405180910390f35b3480156102fc57600080fd5b50610305610bc2565b60405161031291906152d5565b60405180910390f35b34801561032757600080fd5b50610342600480360381019061033d919061457a565b610bc8565b005b34801561035057600080fd5b50610359610ce0565b60405161036691906152d5565b60405180910390f35b34801561037b57600080fd5b5061039660048036038101906103919190614474565b610ce6565b005b3480156103a457600080fd5b506103ad610d46565b6040516103ba9190614ec3565b60405180910390f35b3480156103cf57600080fd5b506103ea60048036038101906103e591906147b4565b610d59565b6040516103f79190614ec3565b60405180910390f35b34801561040c57600080fd5b50610415610d83565b604051610423929190615327565b60405180910390f35b34801561043857600080fd5b50610441610da2565b60405161044e91906152d5565b60405180910390f35b34801561046357600080fd5b5061047e60048036038101906104799190614474565b610da8565b005b34801561048c57600080fd5b506104a760048036038101906104a291906147b4565b610dc8565b005b3480156104b557600080fd5b506104d060048036038101906104cb9190614733565b610e1d565b005b3480156104de57600080fd5b506104e7611077565b6040516104f491906152d5565b60405180910390f35b34801561050957600080fd5b50610524600480360381019061051f91906147b4565b61107d565b6040516105319190614ec3565b60405180910390f35b34801561054657600080fd5b5061054f61108f565b60405161055c91906152d5565b60405180910390f35b34801561057157600080fd5b5061057a611095565b60405161058791906152d5565b60405180910390f35b6105aa60048036038101906105a591906147b4565b61109b565b005b3480156105b857600080fd5b506105d360048036038101906105ce91906147b4565b6114fc565b6040516105e091906152b9565b60405180910390f35b3480156105f557600080fd5b50610610600480360381019061060b91906147b4565b611527565b60405161061d9190614d95565b60405180910390f35b34801561063257600080fd5b5061064d60048036038101906106489190614733565b6115d9565b60405161065b929190614ede565b60405180910390f35b34801561067057600080fd5b5061068b6004803603810190610686919061440f565b611694565b60405161069891906152d5565b60405180910390f35b3480156106ad57600080fd5b506106b661174c565b6040516106c39190614ec3565b60405180910390f35b3480156106d857600080fd5b506106e161175f565b6040516106ee91906152d5565b60405180910390f35b34801561070357600080fd5b5061070c611765565b60405161071991906152d5565b60405180910390f35b34801561072e57600080fd5b50610749600480360381019061074491906146a5565b61176b565b005b34801561075757600080fd5b50610760611807565b60405161076d9190614f97565b60405180910390f35b34801561078257600080fd5b5061079d6004803603810190610798919061453e565b611899565b005b3480156107ab57600080fd5b506107c660048036038101906107c191906147b4565b611a1a565b6040516107d391906152d5565b60405180910390f35b3480156107e857600080fd5b5061080360048036038101906107fe91906145df565b611a32565b005b34801561081157600080fd5b5061081a611b36565b60405161082791906152d5565b60405180910390f35b34801561083c57600080fd5b50610845611b3c565b60405161085291906152d5565b60405180910390f35b34801561086757600080fd5b50610882600480360381019061087d91906144c3565b611b42565b005b34801561089057600080fd5b506108ab60048036038101906108a691906147b4565b611ba4565b6040516108b89190614f97565b60405180910390f35b3480156108cd57600080fd5b506108d6611c4b565b6040516108e39190614ec3565b60405180910390f35b610906600480360381019061090191906147b4565b611c5e565b005b34801561091457600080fd5b5061092f600480360381019061092a9190614438565b611d90565b60405161093c9190614ec3565b60405180910390f35b34801561095157600080fd5b5061096c600480360381019061096791906147b4565b611e24565b60405161097991906152d5565b60405180910390f35b61099c60048036038101906109979190614778565b611e3c565b005b3480156109aa57600080fd5b506109b36120b8565b6040516109c09190614f0e565b60405180910390f35b60007f80ac58cd000000000000000000000000000000000000000000000000000000007bffffffffffffffffffffffffffffffffffffffffffffffffffffffff1916827bffffffffffffffffffffffffffffffffffffffffffffffffffffffff19161480610a9457507f5b5e139f000000000000000000000000000000000000000000000000000000007bffffffffffffffffffffffffffffffffffffffffffffffffffffffff1916827bffffffffffffffffffffffffffffffffffffffffffffffffffffffff1916145b80610aa45750610aa3826120d4565b5b9050919050565b606060008054610aba906155fd565b80601f0160208091040260200160405190810160405280929190818152602001828054610ae6906155fd565b8015610b335780601f10610b0857610100808354040283529160200191610b33565b820191906000526020600020905b815481529060010190602001808311610b1657829003601f168201915b5050505050905090565b6000610b488261213e565b610b87576040517f08c379a0000000000000000000000000000000000000000000000000000000008152600401610b7e90615199565b60405180910390fd5b6004600083815260200190815260200160002060009054906101000a900473ffffffffffffffffffffffffffffffffffffffff169050919050565b600a5481565b6000610bd382611527565b90508073ffffffffffffffffffffffffffffffffffffffff168373ffffffffffffffffffffffffffffffffffffffff161415610c44576040517f08c379a0000000000000000000000000000000000000000000000000000000008152600401610c3b90615219565b60405180910390fd5b8073ffffffffffffffffffffffffffffffffffffffff16610c636121aa565b73ffffffffffffffffffffffffffffffffffffffff161480610c925750610c9181610c8c6121aa565b611d90565b5b610cd1576040517f08c379a0000000000000000000000000000000000000000000000000000000008152600401610cc8906150f9565b60405180910390fd5b610cdb83836121b2565b505050565b600c5481565b610cf7610cf16121aa565b8261226b565b610d36576040517f08c379a0000000000000000000000000000000000000000000000000000000008152600401610d2d90615259565b60405180910390fd5b610d41838383612349565b505050565b600f60019054906101000a900460ff1681565b6000610d7c601a600084815260200190815260200160002054601c600e546125a5565b9050919050565b600080610d906008613047565b9150610d9c6007613047565b90509091565b60155481565b610dc383838360405180602001604052806000815250611b42565b505050565b610dd2338261226b565b610e11576040517f08c379a0000000000000000000000000000000000000000000000000000000008152600401610e0890615239565b60405180910390fd5b610e1a81613055565b50565b600c54601254610e2d9190615416565b42118015610e535750600954601154610e466007613047565b610e5091906154f7565b10155b610e92576040517f08c379a0000000000000000000000000000000000000000000000000000000008152600401610e89906150d9565b60405180910390fd5b6000610e9c613166565b90506000811415610fb4576018547f000000000000000000000000000000000000000000000000000000000000000073ffffffffffffffffffffffffffffffffffffffff166370a08231306040518263ffffffff1660e01b8152600401610f039190614d95565b60206040518083038186803b158015610f1b57600080fd5b505afa158015610f2f573d6000803e3d6000fd5b505050506040513d601f19601f82011682018060405250810190610f5391906147dd565b1015610f94576040517f08c379a0000000000000000000000000000000000000000000000000000000008152600401610f8b90615179565b60405180910390fd5b42601281905550610fa96017546018546132db565b601381905550611072565b6000601481905550610fc660086120be565b426012819055506000601660006101000a81548160ff021916908315150217905550610ff26007613047565b601181905550600f60019054906101000a900460ff16600f60006101000a81548160ff0219169083151502179055506000600190505b604c811015611070576000601c600083815260200190815260200160002060006101000a81548160ff021916908315150217905550808061106890615660565b915050611028565b505b505050565b60095481565b60006110888261213e565b9050919050565b600b5481565b60125481565b600a81111580156110b85750600f60009054906101000a900460ff165b80156110ee5750600a546011546110e1836110d36007613047565b61343d90919063ffffffff16565b6110eb91906154f7565b11155b61112d576040517f08c379a000000000000000000000000000000000000000000000000000000000815260040161112490615039565b60405180910390fd5b60003411156111c4573461114c82600b5461345390919063ffffffff16565b111561118d576040517f08c379a000000000000000000000000000000000000000000000000000000000815260040161118490615279565b60405180910390fd5b6000600d5411156111bf57600d54346111a6919061546c565b601460008282546111b79190615416565b925050819055505b61148f565b8068d8d726b7177a8000006111d9919061549d565b600f60029054906101000a900473ffffffffffffffffffffffffffffffffffffffff1673ffffffffffffffffffffffffffffffffffffffff166370a08231336040518263ffffffff1660e01b81526004016112349190614d95565b60206040518083038186803b15801561124c57600080fd5b505afa158015611260573d6000803e3d6000fd5b505050506040513d601f19601f8201168201806040525081019061128491906147dd565b10156112c5576040517f08c379a00000000000000000000000000000000000000000000000000000000081526004016112bc90615019565b60405180910390fd5b8068d8d726b7177a8000006112da919061549d565b600f60029054906101000a900473ffffffffffffffffffffffffffffffffffffffff1673ffffffffffffffffffffffffffffffffffffffff1663dd62ed3e33306040518363ffffffff1660e01b8152600401611337929190614db0565b60206040518083038186803b15801561134f57600080fd5b505afa158015611363573d6000803e3d6000fd5b505050506040513d601f19601f8201168201806040525081019061138791906147dd565b10156113c8576040517f08c379a00000000000000000000000000000000000000000000000000000000081526004016113bf90615299565b60405180910390fd5b600f60029054906101000a900473ffffffffffffffffffffffffffffffffffffffff1673ffffffffffffffffffffffffffffffffffffffff166323b872dd33308468d8d726b7177a80000061141d919061549d565b6040518463ffffffff1660e01b815260040161143b93929190614dd9565b602060405180830381600087803b15801561145557600080fd5b505af1158015611469573d6000803e3d6000fd5b505050506040513d601f19601f8201168201806040525081019061148d91906145b6565b505b600080600090505b828110156114f7576114a960076120be565b6114b36007613047565b91506114bf3383613469565b81601960006114d26017546018546132db565b81526020019081526020016000208190555080806114ef90615660565b915050611497565b505050565b6115046141e0565b611520601a600084815260200190815260200160002054613487565b9050919050565b6000806002600084815260200190815260200160002060009054906101000a900473ffffffffffffffffffffffffffffffffffffffff169050600073ffffffffffffffffffffffffffffffffffffffff168173ffffffffffffffffffffffffffffffffffffffff1614156115d0576040517f08c379a00000000000000000000000000000000000000000000000000000000081526004016115c790615139565b60405180910390fd5b80915050919050565b600060606009546011546115ed6007613047565b6115f791906154f7565b101580156116445750600c546012546116109190615416565b4211801561162b5750601660009054906101000a900460ff16155b80156116435750600f60009054906101000a900460ff165b5b915083838080601f016020809104026020016040519081016040528093929190818152602001838380828437600081840152601f19601f8201169050808301925050505050505090509250929050565b60008073ffffffffffffffffffffffffffffffffffffffff168273ffffffffffffffffffffffffffffffffffffffff161415611705576040517f08c379a00000000000000000000000000000000000000000000000000000000081526004016116fc90615119565b60405180910390fd5b600360008373ffffffffffffffffffffffffffffffffffffffff1673ffffffffffffffffffffffffffffffffffffffff168152602001908152602001600020549050919050565b601660009054906101000a900460ff1681565b60145481565b60115481565b7f000000000000000000000000000000000000000000000000000000000000000073ffffffffffffffffffffffffffffffffffffffff163373ffffffffffffffffffffffffffffffffffffffff16146117f9576040517f08c379a00000000000000000000000000000000000000000000000000000000081526004016117f0906151f9565b60405180910390fd5b6118038282613692565b5050565b606060018054611816906155fd565b80601f0160208091040260200160405190810160405280929190818152602001828054611842906155fd565b801561188f5780601f106118645761010080835404028352916020019161188f565b820191906000526020600020905b81548152906001019060200180831161187257829003601f168201915b5050505050905090565b6118a16121aa565b73ffffffffffffffffffffffffffffffffffffffff168273ffffffffffffffffffffffffffffffffffffffff16141561190f576040517f08c379a000000000000000000000000000000000000000000000000000000000815260040161190690615079565b60405180910390fd5b806005600061191c6121aa565b73ffffffffffffffffffffffffffffffffffffffff1673ffffffffffffffffffffffffffffffffffffffff16815260200190815260200160002060008473ffffffffffffffffffffffffffffffffffffffff1673ffffffffffffffffffffffffffffffffffffffff16815260200190815260200160002060006101000a81548160ff0219169083151502179055508173ffffffffffffffffffffffffffffffffffffffff166119c96121aa565b73ffffffffffffffffffffffffffffffffffffffff167f17307eab39ab6107e8899845ad3d59bd9653f200f220920489ca2b5937696c3183604051611a0e9190614ec3565b60405180910390a35050565b601b6020528060005260406000206000915090505481565b601060009054906101000a900473ffffffffffffffffffffffffffffffffffffffff1673ffffffffffffffffffffffffffffffffffffffff163373ffffffffffffffffffffffffffffffffffffffff1614611a8c57600080fd5b88600f60006101000a81548160ff02191690831515021790555087600f60016101000a81548160ff02191690831515021790555086600c819055508560098190555084600a8190555083600b8190555082600d8190555081600e8190555080601060006101000a81548173ffffffffffffffffffffffffffffffffffffffff021916908373ffffffffffffffffffffffffffffffffffffffff160217905550505050505050505050565b600e5481565b600d5481565b611b53611b4d6121aa565b8361226b565b611b92576040517f08c379a0000000000000000000000000000000000000000000000000000000008152600401611b8990615259565b60405180910390fd5b611b9e848484846138f3565b50505050565b6060611baf8261213e565b611bee576040517f08c379a0000000000000000000000000000000000000000000000000000000008152600401611be5906151d9565b60405180910390fd5b6000611bf861394f565b90506000815111611c185760405180602001604052806000815250611c43565b80611c228461396f565b604051602001611c33929190614d71565b6040516020818303038152906040525b915050919050565b600f60009054906101000a900460ff1681565b6000601b600083815260200190815260200160002054118015611cb457503373ffffffffffffffffffffffffffffffffffffffff16611c9c82611527565b73ffffffffffffffffffffffffffffffffffffffff16145b611cf3576040517f08c379a0000000000000000000000000000000000000000000000000000000008152600401611cea90614fb9565b60405180910390fd5b3373ffffffffffffffffffffffffffffffffffffffff166108fc601b6000848152602001908152602001600020549081150290604051600060405180830381858888f19350505050158015611d4c573d6000803e3d6000fd5b50601b600082815260200190815260200160002054601554611d6e91906154f7565b6015819055506000601b60008381526020019081526020016000208190555050565b6000600560008473ffffffffffffffffffffffffffffffffffffffff1673ffffffffffffffffffffffffffffffffffffffff16815260200190815260200160002060008373ffffffffffffffffffffffffffffffffffffffff1673ffffffffffffffffffffffffffffffffffffffff16815260200190815260200160002060009054906101000a900460ff16905092915050565b601a6020528060005260406000206000915090505481565b601060009054906101000a900473ffffffffffffffffffffffffffffffffffffffff1673ffffffffffffffffffffffffffffffffffffffff163373ffffffffffffffffffffffffffffffffffffffff1614611e9657600080fd5b6000811115611f32578173ffffffffffffffffffffffffffffffffffffffff1663a9059cbb33836040518363ffffffff1660e01b8152600401611eda929190614e5c565b602060405180830381600087803b158015611ef457600080fd5b505af1158015611f08573d6000803e3d6000fd5b505050506040513d601f19601f82011682018060405250810190611f2c91906145b6565b506120b4565b6000611f696004611f5b601554601454611f4c9190615416565b47613b1c90919063ffffffff16565b613b3290919063ffffffff16565b905072796e910bd0228ddf4cd79e3f353871a61c351c73ffffffffffffffffffffffffffffffffffffffff166108fc829081150290604051600060405180830381858888f19350505050611fbc57600080fd5b737fc55376d5a29e0ee86c18c81bb2fc8f9f490e5073ffffffffffffffffffffffffffffffffffffffff166108fc829081150290604051600060405180830381858888f1935050505061200e57600080fd5b73b58fb5372e9aa0c86c3b281179c05af3bb7a181b73ffffffffffffffffffffffffffffffffffffffff166108fc829081150290604051600060405180830381858888f1935050505061206057600080fd5b73d83dd8a288270512b8a46f581a8254cd971dcb0973ffffffffffffffffffffffffffffffffffffffff166108fc829081150290604051600060405180830381858888f193505050506120b257600080fd5b505b5050565b60135481565b6001816000016000828254019250508190555050565b60007f01ffc9a7000000000000000000000000000000000000000000000000000000007bffffffffffffffffffffffffffffffffffffffffffffffffffffffff1916827bffffffffffffffffffffffffffffffffffffffffffffffffffffffff1916149050919050565b60008073ffffffffffffffffffffffffffffffffffffffff166002600084815260200190815260200160002060009054906101000a900473ffffffffffffffffffffffffffffffffffffffff1673ffffffffffffffffffffffffffffffffffffffff1614159050919050565b600033905090565b816004600083815260200190815260200160002060006101000a81548173ffffffffffffffffffffffffffffffffffffffff021916908373ffffffffffffffffffffffffffffffffffffffff160217905550808273ffffffffffffffffffffffffffffffffffffffff1661222583611527565b73ffffffffffffffffffffffffffffffffffffffff167f8c5be1e5ebec7d5bd14f71427d1e84f3dd0314c0f7b2291e5b200ac8c7c3b92560405160405180910390a45050565b60006122768261213e565b6122b5576040517f08c379a00000000000000000000000000000000000000000000000000000000081526004016122ac906150b9565b60405180910390fd5b60006122c083611527565b90508073ffffffffffffffffffffffffffffffffffffffff168473ffffffffffffffffffffffffffffffffffffffff16148061232f57508373ffffffffffffffffffffffffffffffffffffffff1661231784610b3d565b73ffffffffffffffffffffffffffffffffffffffff16145b80612340575061233f8185611d90565b5b91505092915050565b8273ffffffffffffffffffffffffffffffffffffffff1661236982611527565b73ffffffffffffffffffffffffffffffffffffffff16146123bf576040517f08c379a00000000000000000000000000000000000000000000000000000000081526004016123b6906151b9565b60405180910390fd5b600073ffffffffffffffffffffffffffffffffffffffff168273ffffffffffffffffffffffffffffffffffffffff16141561242f576040517f08c379a000000000000000000000000000000000000000000000000000000000815260040161242690615059565b60405180910390fd5b61243a838383613b48565b6124456000826121b2565b6001600360008573ffffffffffffffffffffffffffffffffffffffff1673ffffffffffffffffffffffffffffffffffffffff168152602001908152602001600020600082825461249591906154f7565b925050819055506001600360008473ffffffffffffffffffffffffffffffffffffffff1673ffffffffffffffffffffffffffffffffffffffff16815260200190815260200160002060008282546124ec9190615416565b92505081905550816002600083815260200190815260200160002060006101000a81548173ffffffffffffffffffffffffffffffffffffffff021916908373ffffffffffffffffffffffffffffffffffffffff160217905550808273ffffffffffffffffffffffffffffffffffffffff168473ffffffffffffffffffffffffffffffffffffffff167fddf252ad1be2c89b69c2b068fc378daa952ba7f163c4a11628f55a4df523b3ef60405160405180910390a4505050565b6000806125b185613487565b90506125bb61422d565b60005b6005811015612787576040518060a001604052808460000151836005811061260f577f4e487b7100000000000000000000000000000000000000000000000000000000600052603260045260246000fd5b6020020151815260200184602001518360058110612656577f4e487b7100000000000000000000000000000000000000000000000000000000600052603260045260246000fd5b602002015181526020018460400151836005811061269d577f4e487b7100000000000000000000000000000000000000000000000000000000600052603260045260246000fd5b60200201518152602001846060015183600581106126e4577f4e487b7100000000000000000000000000000000000000000000000000000000600052603260045260246000fd5b602002015181526020018460800151836005811061272b577f4e487b7100000000000000000000000000000000000000000000000000000000600052603260045260246000fd5b60200201518152508282600d811061276c577f4e487b7100000000000000000000000000000000000000000000000000000000600052603260045260246000fd5b6020020181905250808061277f90615660565b9150506125be565b8260000151826005600d81106127c6577f4e487b7100000000000000000000000000000000000000000000000000000000600052603260045260246000fd5b60200201819052508260200151826006600d811061280d577f4e487b7100000000000000000000000000000000000000000000000000000000600052603260045260246000fd5b60200201819052508260400151826007600d8110612854577f4e487b7100000000000000000000000000000000000000000000000000000000600052603260045260246000fd5b60200201819052508260600151826008600d811061289b577f4e487b7100000000000000000000000000000000000000000000000000000000600052603260045260246000fd5b60200201819052508260800151826009600d81106128e2577f4e487b7100000000000000000000000000000000000000000000000000000000600052603260045260246000fd5b60200201819052506040518060a001604052808460000151600060058110612933577f4e487b7100000000000000000000000000000000000000000000000000000000600052603260045260246000fd5b60200201518152602001846020015160016005811061297b577f4e487b7100000000000000000000000000000000000000000000000000000000600052603260045260246000fd5b6020020151815260200184604001516002600581106129c3577f4e487b7100000000000000000000000000000000000000000000000000000000600052603260045260246000fd5b602002015181526020018460600151600360058110612a0b577f4e487b7100000000000000000000000000000000000000000000000000000000600052603260045260246000fd5b602002015181526020018460800151600460058110612a53577f4e487b7100000000000000000000000000000000000000000000000000000000600052603260045260246000fd5b602002015181525082600a600d8110612a95577f4e487b7100000000000000000000000000000000000000000000000000000000600052603260045260246000fd5b60200201819052506040518060a001604052808460000151600460058110612ae6577f4e487b7100000000000000000000000000000000000000000000000000000000600052603260045260246000fd5b602002015181526020018460200151600360058110612b2e577f4e487b7100000000000000000000000000000000000000000000000000000000600052603260045260246000fd5b602002015181526020018460400151600260058110612b76577f4e487b7100000000000000000000000000000000000000000000000000000000600052603260045260246000fd5b602002015181526020018460600151600160058110612bbe577f4e487b7100000000000000000000000000000000000000000000000000000000600052603260045260246000fd5b602002015181526020018460800151600060058110612c06577f4e487b7100000000000000000000000000000000000000000000000000000000600052603260045260246000fd5b602002015181525082600b600d8110612c48577f4e487b7100000000000000000000000000000000000000000000000000000000600052603260045260246000fd5b60200201819052506040518060a001604052808460000151600060058110612c99577f4e487b7100000000000000000000000000000000000000000000000000000000600052603260045260246000fd5b602002015181526020018460800151600060058110612ce1577f4e487b7100000000000000000000000000000000000000000000000000000000600052603260045260246000fd5b602002015181526020018460000151600460058110612d29577f4e487b7100000000000000000000000000000000000000000000000000000000600052603260045260246000fd5b602002015181526020018460800151600460058110612d71577f4e487b7100000000000000000000000000000000000000000000000000000000600052603260045260246000fd5b602002015181526020018460000151600060058110612db9577f4e487b7100000000000000000000000000000000000000000000000000000000600052603260045260246000fd5b602002015181525082600c600d8110612dfb577f4e487b7100000000000000000000000000000000000000000000000000000000600052603260045260246000fd5b602002018190525060009350600080600080600094505b600d8510156130395760009050600091505b6005821015612f96578960008787600d8110612e69577f4e487b7100000000000000000000000000000000000000000000000000000000600052603260045260246000fd5b60200201518460058110612ea6577f4e487b7100000000000000000000000000000000000000000000000000000000600052603260045260246000fd5b6020020151815260200190815260200160002060009054906101000a900460ff1680612f4c575060638686600d8110612f08577f4e487b7100000000000000000000000000000000000000000000000000000000600052603260045260246000fd5b60200201518360058110612f45577f4e487b7100000000000000000000000000000000000000000000000000000000600052603260045260246000fd5b6020020151145b15612f83578080612f5c90615660565b915050600a851480612f6e5750600b85145b15612f82578380612f7e90615660565b9450505b5b8180612f8e90615660565b925050612e24565b6005811415612fae578280612faa90615660565b9350505b600189148015612fbe5750600581145b8015612fcb5750600c8514155b80612fe25750600289148015612fe15750600a84145b5b80612ff95750600389148015612ff85750600c83145b5b8061301c575060048914801561300f5750600581145b801561301b5750600c85145b5b1561302657600197505b848061303190615660565b955050612e12565b505050505050509392505050565b600081600001549050919050565b600061306082611527565b905061306e81600084613b48565b6130796000836121b2565b6001600360008373ffffffffffffffffffffffffffffffffffffffff1673ffffffffffffffffffffffffffffffffffffffff16815260200190815260200160002060008282546130c991906154f7565b925050819055506002600083815260200190815260200160002060006101000a81549073ffffffffffffffffffffffffffffffffffffffff021916905581600073ffffffffffffffffffffffffffffffffffffffff168273ffffffffffffffffffffffffffffffffffffffff167fddf252ad1be2c89b69c2b068fc378daa952ba7f163c4a11628f55a4df523b3ef60405160405180910390a45050565b6000806000600160115461317a9190615416565b90505b6131876007613047565b81116131d5576131ae601a600083815260200190815260200160002054601c600e546125a5565b156131c25781806131be90615660565b9250505b80806131cd90615660565b91505061317d565b5060008111156132d457600060016011546131f09190615416565b90505b6131fd6007613047565b81116132d257613224601a600083815260200190815260200160002054601c600e546125a5565b156132bf5761323e82601454613b3290919063ffffffff16565b601b600083815260200190815260200160002081905550601b6000828152602001908152602001600020546015546132769190615416565b6015819055507f0c2d6c35fd2564fbc84ffefe68e7dbde67499851cca244dbbe1b09ce8d3d36386132a76008613047565b826040516132b6929190615327565b60405180910390a15b80806132ca90615660565b9150506131f3565b505b8091505090565b60007f000000000000000000000000000000000000000000000000000000000000000073ffffffffffffffffffffffffffffffffffffffff16634000aea07f00000000000000000000000000000000000000000000000000000000000000008486600060405160200161334f929190614f29565b6040516020818303038152906040526040518463ffffffff1660e01b815260040161337c93929190614e85565b602060405180830381600087803b15801561339657600080fd5b505af11580156133aa573d6000803e3d6000fd5b505050506040513d601f19601f820116820180604052508101906133ce91906145b6565b5060006133f1846000306006600089815260200190815260200160002054613b4d565b9050600160066000868152602001908152602001600020546134139190615416565b60066000868152602001908152602001600020819055506134348482613b89565b91505092915050565b6000818361344b9190615416565b905092915050565b60008183613461919061549d565b905092915050565b613483828260405180602001604052806000815250613bbc565b5050565b61348f6141e0565b600082141561349d5761368d565b6134a561425b565b600080600090505b6005811015613689576134ea85826040516020016134cc929190615327565b6040516020818303038152906040528051906020012060001c613c17565b9250600091505b60058210156136035760028114801561350a5750600282145b1561355857606383836005811061354a577f4e487b7100000000000000000000000000000000000000000000000000000000600052603260045260246000fd5b6020020181815250506135f0565b600f81613565919061549d565b83836005811061359e577f4e487b7100000000000000000000000000000000000000000000000000000000600052603260045260246000fd5b60200201516135ad9190615416565b8383600581106135e6577f4e487b7100000000000000000000000000000000000000000000000000000000600052603260045260246000fd5b6020020181815250505b81806135fb90615660565b9250506134f1565b600081141561361a57828460000181905250613676565b600181141561363157828460200181905250613675565b600281141561364857828460400181905250613674565b600381141561365f57828460600181905250613673565b6004811415613672578284608001819052505b5b5b5b5b808061368190615660565b9150506134ad565b5050505b919050565b6013548214156138155760135482146136e0576040517f08c379a00000000000000000000000000000000000000000000000000000000081526004016136d790615099565b60405180910390fd5b600080600090505b604c8110156138045761372a600161371c604b61370e858861343d90919063ffffffff16565b613e5290919063ffffffff16565b61343d90919063ffffffff16565b915060001515601c600084815260200190815260200160002060009054906101000a900460ff16151514156137cc576001601c600084815260200190815260200160002060006101000a81548160ff0219169083151502179055507fd85a895f825d2064ec30917b67b720684fafc60d3c7e8c33b9d1abd623b0cb6d6137b06008613047565b836040516137bf929190615327565b60405180910390a1613804565b604b8114156137f1576001601660006101000a81548160ff0219169083151502179055505b80806137fc90615660565b9150506136e8565b506000801b601381905550506138ef565b60006019600084815260200190815260200160002054905060008111613870576040517f08c379a000000000000000000000000000000000000000000000000000000000815260040161386790615239565b60405180910390fd5b81601a600083815260200190815260200160002081905550600060196000858152602001908152602001600020819055507ff4667020580928dc83ab932094d72fc76e1b38d5d661a420dc5b5aea7de31ee36138cc6008613047565b6138d583611527565b836040516138e5939291906152f0565b60405180910390a1505b5050565b6138fe848484612349565b61390a84848484613e68565b613949576040517f08c379a000000000000000000000000000000000000000000000000000000000815260040161394090614fd9565b60405180910390fd5b50505050565b6060604051806060016040528060258152602001615dc060259139905090565b606060008214156139b7576040518060400160405280600181526020017f30000000000000000000000000000000000000000000000000000000000000008152509050613b17565b600082905060005b600082146139e95780806139d290615660565b915050600a826139e2919061546c565b91506139bf565b60008167ffffffffffffffff811115613a2b577f4e487b7100000000000000000000000000000000000000000000000000000000600052604160045260246000fd5b6040519080825280601f01601f191660200182016040528015613a5d5781602001600182028036833780820191505090505b5090505b60008514613b1057600182613a7691906154f7565b9150600a85613a8591906156bd565b6030613a919190615416565b60f81b818381518110613acd577f4e487b7100000000000000000000000000000000000000000000000000000000600052603260045260246000fd5b60200101907effffffffffffffffffffffffffffffffffffffffffffffffffffffffffffff1916908160001a905350600a85613b09919061546c565b9450613a61565b8093505050505b919050565b60008183613b2a91906154f7565b905092915050565b60008183613b40919061546c565b905092915050565b505050565b600084848484604051602001613b669493929190614f52565b6040516020818303038152906040528051906020012060001c9050949350505050565b60008282604051602001613b9e929190614d45565b60405160208183030381529060405280519060200120905092915050565b613bc68383613fff565b613bd36000848484613e68565b613c12576040517f08c379a0000000000000000000000000000000000000000000000000000000008152600401613c0990614fd9565b60405180910390fd5b505050565b613c1f61425b565b613c2761427d565b60005b600f811015613c9557600181613c409190615416565b8282600f8110613c79577f4e487b7100000000000000000000000000000000000000000000000000000000600052603260045260246000fd5b6020020181815250508080613c8d90615660565b915050613c2a565b50600080600090505b6005811015613e4a57613cfd816001613cb79190615416565b600f613cc391906154f7565b8683604051602001613cd6929190615327565b6040516020818303038152906040528051906020012060001c613e5290919063ffffffff16565b91508282600f8110613d38577f4e487b7100000000000000000000000000000000000000000000000000000000600052603260045260246000fd5b6020020151848260058110613d76577f4e487b7100000000000000000000000000000000000000000000000000000000600052603260045260246000fd5b602002018181525050806001613d8c9190615416565b600f613d9891906154f7565b8214613e375782816001613dac9190615416565b600f613db891906154f7565b600f8110613def577f4e487b7100000000000000000000000000000000000000000000000000000000600052603260045260246000fd5b60200201518383600f8110613e2d577f4e487b7100000000000000000000000000000000000000000000000000000000600052603260045260246000fd5b6020020181815250505b8080613e4290615660565b915050613c9e565b505050919050565b60008183613e6091906156bd565b905092915050565b6000613e898473ffffffffffffffffffffffffffffffffffffffff166141cd565b15613ff2578373ffffffffffffffffffffffffffffffffffffffff1663150b7a02613eb26121aa565b8786866040518563ffffffff1660e01b8152600401613ed49493929190614e10565b602060405180830381600087803b158015613eee57600080fd5b505af1925050508015613f1f57506040513d601f19601f82011682018060405250810190613f1c919061470a565b60015b613fa2573d8060008114613f4f576040519150601f19603f3d011682016040523d82523d6000602084013e613f54565b606091505b50600081511415613f9a576040517f08c379a0000000000000000000000000000000000000000000000000000000008152600401613f9190614fd9565b60405180910390fd5b805181602001fd5b63150b7a0260e01b7bffffffffffffffffffffffffffffffffffffffffffffffffffffffff1916817bffffffffffffffffffffffffffffffffffffffffffffffffffffffff191614915050613ff7565b600190505b949350505050565b600073ffffffffffffffffffffffffffffffffffffffff168273ffffffffffffffffffffffffffffffffffffffff16141561406f576040517f08c379a000000000000000000000000000000000000000000000000000000000815260040161406690615159565b60405180910390fd5b6140788161213e565b156140b8576040517f08c379a00000000000000000000000000000000000000000000000000000000081526004016140af90614ff9565b60405180910390fd5b6140c460008383613b48565b6001600360008473ffffffffffffffffffffffffffffffffffffffff1673ffffffffffffffffffffffffffffffffffffffff16815260200190815260200160002060008282546141149190615416565b92505081905550816002600083815260200190815260200160002060006101000a81548173ffffffffffffffffffffffffffffffffffffffff021916908373ffffffffffffffffffffffffffffffffffffffff160217905550808273ffffffffffffffffffffffffffffffffffffffff16600073ffffffffffffffffffffffffffffffffffffffff167fddf252ad1be2c89b69c2b068fc378daa952ba7f163c4a11628f55a4df523b3ef60405160405180910390a45050565b600080823b905060008111915050919050565b6040518060a001604052806141f361425b565b815260200161420061425b565b815260200161420d61425b565b815260200161421a61425b565b815260200161422761425b565b81525090565b604051806101a00160405280600d905b61424561425b565b81526020019060019003908161423d5790505090565b6040518060a00160405280600590602082028036833780820191505090505090565b604051806101e00160405280600f90602082028036833780820191505090505090565b60006142b36142ae84615375565b615350565b9050828152602081018484840111156142cb57600080fd5b6142d68482856155bb565b509392505050565b6000813590506142ed81615d35565b92915050565b60008135905061430281615d4c565b92915050565b60008151905061431781615d4c565b92915050565b60008135905061432c81615d63565b92915050565b60008135905061434181615d7a565b92915050565b60008151905061435681615d7a565b92915050565b60008083601f84011261436e57600080fd5b8235905067ffffffffffffffff81111561438757600080fd5b60208301915083600182028301111561439f57600080fd5b9250929050565b600082601f8301126143b757600080fd5b81356143c78482602086016142a0565b91505092915050565b6000813590506143df81615d91565b92915050565b6000813590506143f481615da8565b92915050565b60008151905061440981615da8565b92915050565b60006020828403121561442157600080fd5b600061442f848285016142de565b91505092915050565b6000806040838503121561444b57600080fd5b6000614459858286016142de565b925050602061446a858286016142de565b9150509250929050565b60008060006060848603121561448957600080fd5b6000614497868287016142de565b93505060206144a8868287016142de565b92505060406144b9868287016143e5565b9150509250925092565b600080600080608085870312156144d957600080fd5b60006144e7878288016142de565b94505060206144f8878288016142de565b9350506040614509878288016143e5565b925050606085013567ffffffffffffffff81111561452657600080fd5b614532878288016143a6565b91505092959194509250565b6000806040838503121561455157600080fd5b600061455f858286016142de565b9250506020614570858286016142f3565b9150509250929050565b6000806040838503121561458d57600080fd5b600061459b858286016142de565b92505060206145ac858286016143e5565b9150509250929050565b6000602082840312156145c857600080fd5b60006145d684828501614308565b91505092915050565b60008060008060008060008060006101208a8c0312156145fe57600080fd5b600061460c8c828d016142f3565b995050602061461d8c828d016142f3565b985050604061462e8c828d016143e5565b975050606061463f8c828d016143e5565b96505060806146508c828d016143e5565b95505060a06146618c828d016143e5565b94505060c06146728c828d016143e5565b93505060e06146838c828d016143e5565b9250506101006146958c828d016142de565b9150509295985092959850929598565b600080604083850312156146b857600080fd5b60006146c68582860161431d565b92505060206146d7858286016143e5565b9150509250929050565b6000602082840312156146f357600080fd5b600061470184828501614332565b91505092915050565b60006020828403121561471c57600080fd5b600061472a84828501614347565b91505092915050565b6000806020838503121561474657600080fd5b600083013567ffffffffffffffff81111561476057600080fd5b61476c8582860161435c565b92509250509250929050565b6000806040838503121561478b57600080fd5b6000614799858286016143d0565b92505060206147aa858286016143e5565b9150509250929050565b6000602082840312156147c657600080fd5b60006147d4848285016143e5565b91505092915050565b6000602082840312156147ef57600080fd5b60006147fd848285016143fa565b91505092915050565b60006148128383614d10565b60208301905092915050565b6148278161552b565b82525050565b614836816153b0565b61484081846153de565b925061484b826153a6565b8060005b8381101561487c5781516148638782614806565b965061486e836153d1565b92505060018101905061484f565b505050505050565b61488d8161553d565b82525050565b61489c81615549565b82525050565b6148b36148ae82615549565b6156a9565b82525050565b60006148c4826153bb565b6148ce81856153e9565b93506148de8185602086016155ca565b6148e7816157aa565b840191505092915050565b60006148fd826153c6565b61490781856153fa565b93506149178185602086016155ca565b614920816157aa565b840191505092915050565b6000614936826153c6565b614940818561540b565b93506149508185602086016155ca565b80840191505092915050565b60006149696001836153fa565b9150614974826157bb565b602082019050919050565b600061498c6032836153fa565b9150614997826157e4565b604082019050919050565b60006149af601c836153fa565b91506149ba82615833565b602082019050919050565b60006149d26002836153fa565b91506149dd8261585c565b602082019050919050565b60006149f56001836153fa565b9150614a0082615885565b602082019050919050565b6000614a186024836153fa565b9150614a23826158ae565b604082019050919050565b6000614a3b6019836153fa565b9150614a46826158fd565b602082019050919050565b6000614a5e6002836153fa565b9150614a6982615926565b602082019050919050565b6000614a81602c836153fa565b9150614a8c8261594f565b604082019050919050565b6000614aa46002836153fa565b9150614aaf8261599e565b602082019050919050565b6000614ac76038836153fa565b9150614ad2826159c7565b604082019050919050565b6000614aea602a836153fa565b9150614af582615a16565b604082019050919050565b6000614b0d6029836153fa565b9150614b1882615a65565b604082019050919050565b6000614b306020836153fa565b9150614b3b82615ab4565b602082019050919050565b6000614b536001836153fa565b9150614b5e82615add565b602082019050919050565b6000614b76602c836153fa565b9150614b8182615b06565b604082019050919050565b6000614b996029836153fa565b9150614ba482615b55565b604082019050919050565b6000614bbc602f836153fa565b9150614bc782615ba4565b604082019050919050565b6000614bdf601f836153fa565b9150614bea82615bf3565b602082019050919050565b6000614c026021836153fa565b9150614c0d82615c1c565b604082019050919050565b6000614c256002836153fa565b9150614c3082615c6b565b602082019050919050565b6000614c486031836153fa565b9150614c5382615c94565b604082019050919050565b6000614c6b6002836153fa565b9150614c7682615ce3565b602082019050919050565b6000614c8e6002836153fa565b9150614c9982615d0c565b602082019050919050565b61032082016000820151614cbb600085018261482d565b506020820151614cce60a085018261482d565b506040820151614ce261014085018261482d565b506060820151614cf66101e085018261482d565b506080820151614d0a61028085018261482d565b50505050565b614d19816155b1565b82525050565b614d28816155b1565b82525050565b614d3f614d3a826155b1565b6156b3565b82525050565b6000614d5182856148a2565b602082019150614d618284614d2e565b6020820191508190509392505050565b6000614d7d828561492b565b9150614d89828461492b565b91508190509392505050565b6000602082019050614daa600083018461481e565b92915050565b6000604082019050614dc5600083018561481e565b614dd2602083018461481e565b9392505050565b6000606082019050614dee600083018661481e565b614dfb602083018561481e565b614e086040830184614d1f565b949350505050565b6000608082019050614e25600083018761481e565b614e32602083018661481e565b614e3f6040830185614d1f565b8181036060830152614e5181846148b9565b905095945050505050565b6000604082019050614e71600083018561481e565b614e7e6020830184614d1f565b9392505050565b6000606082019050614e9a600083018661481e565b614ea76020830185614d1f565b8181036040830152614eb981846148b9565b9050949350505050565b6000602082019050614ed86000830184614884565b92915050565b6000604082019050614ef36000830185614884565b8181036020830152614f0581846148b9565b90509392505050565b6000602082019050614f236000830184614893565b92915050565b6000604082019050614f3e6000830185614893565b614f4b6020830184614d1f565b9392505050565b6000608082019050614f676000830187614893565b614f746020830186614d1f565b614f81604083018561481e565b614f8e6060830184614d1f565b95945050505050565b60006020820190508181036000830152614fb181846148f2565b905092915050565b60006020820190508181036000830152614fd28161495c565b9050919050565b60006020820190508181036000830152614ff28161497f565b9050919050565b60006020820190508181036000830152615012816149a2565b9050919050565b60006020820190508181036000830152615032816149c5565b9050919050565b60006020820190508181036000830152615052816149e8565b9050919050565b6000602082019050818103600083015261507281614a0b565b9050919050565b6000602082019050818103600083015261509281614a2e565b9050919050565b600060208201905081810360008301526150b281614a51565b9050919050565b600060208201905081810360008301526150d281614a74565b9050919050565b600060208201905081810360008301526150f281614a97565b9050919050565b6000602082019050818103600083015261511281614aba565b9050919050565b6000602082019050818103600083015261513281614add565b9050919050565b6000602082019050818103600083015261515281614b00565b9050919050565b6000602082019050818103600083015261517281614b23565b9050919050565b6000602082019050818103600083015261519281614b46565b9050919050565b600060208201905081810360008301526151b281614b69565b9050919050565b600060208201905081810360008301526151d281614b8c565b9050919050565b600060208201905081810360008301526151f281614baf565b9050919050565b6000602082019050818103600083015261521281614bd2565b9050919050565b6000602082019050818103600083015261523281614bf5565b9050919050565b6000602082019050818103600083015261525281614c18565b9050919050565b6000602082019050818103600083015261527281614c3b565b9050919050565b6000602082019050818103600083015261529281614c5e565b9050919050565b600060208201905081810360008301526152b281614c81565b9050919050565b6000610320820190506152cf6000830184614ca4565b92915050565b60006020820190506152ea6000830184614d1f565b92915050565b60006060820190506153056000830186614d1f565b615312602083018561481e565b61531f6040830184614d1f565b949350505050565b600060408201905061533c6000830185614d1f565b6153496020830184614d1f565b9392505050565b600061535a61536b565b9050615366828261562f565b919050565b6000604051905090565b600067ffffffffffffffff8211156153905761538f61577b565b5b615399826157aa565b9050602081019050919050565b6000819050919050565b600060059050919050565b600081519050919050565b600081519050919050565b6000602082019050919050565b600081905092915050565b600082825260208201905092915050565b600082825260208201905092915050565b600081905092915050565b6000615421826155b1565b915061542c836155b1565b9250827fffffffffffffffffffffffffffffffffffffffffffffffffffffffffffffffff03821115615461576154606156ee565b5b828201905092915050565b6000615477826155b1565b9150615482836155b1565b9250826154925761549161571d565b5b828204905092915050565b60006154a8826155b1565b91506154b3836155b1565b9250817fffffffffffffffffffffffffffffffffffffffffffffffffffffffffffffffff04831182151516156154ec576154eb6156ee565b5b828202905092915050565b6000615502826155b1565b915061550d836155b1565b9250828210156155205761551f6156ee565b5b828203905092915050565b600061553682615591565b9050919050565b60008115159050919050565b6000819050919050565b60007fffffffff0000000000000000000000000000000000000000000000000000000082169050919050565b600061558a8261552b565b9050919050565b600073ffffffffffffffffffffffffffffffffffffffff82169050919050565b6000819050919050565b82818337600083830152505050565b60005b838110156155e85780820151818401526020810190506155cd565b838111156155f7576000848401525b50505050565b6000600282049050600182168061561557607f821691505b602082108114156156295761562861574c565b5b50919050565b615638826157aa565b810181811067ffffffffffffffff821117156156575761565661577b565b5b80604052505050565b600061566b826155b1565b91507fffffffffffffffffffffffffffffffffffffffffffffffffffffffffffffffff82141561569e5761569d6156ee565b5b600182019050919050565b6000819050919050565b6000819050919050565b60006156c8826155b1565b91506156d3836155b1565b9250826156e3576156e261571d565b5b828206905092915050565b7f4e487b7100000000000000000000000000000000000000000000000000000000600052601160045260246000fd5b7f4e487b7100000000000000000000000000000000000000000000000000000000600052601260045260246000fd5b7f4e487b7100000000000000000000000000000000000000000000000000000000600052602260045260246000fd5b7f4e487b7100000000000000000000000000000000000000000000000000000000600052604160045260246000fd5b6000601f19601f8301169050919050565b7f4300000000000000000000000000000000000000000000000000000000000000600082015250565b7f4552433732313a207472616e7366657220746f206e6f6e20455243373231526560008201527f63656976657220696d706c656d656e7465720000000000000000000000000000602082015250565b7f4552433732313a20746f6b656e20616c7265616479206d696e74656400000000600082015250565b7f4e42000000000000000000000000000000000000000000000000000000000000600082015250565b7f4500000000000000000000000000000000000000000000000000000000000000600082015250565b7f4552433732313a207472616e7366657220746f20746865207a65726f2061646460008201527f7265737300000000000000000000000000000000000000000000000000000000602082015250565b7f4552433732313a20617070726f766520746f2063616c6c657200000000000000600082015250565b7f4952000000000000000000000000000000000000000000000000000000000000600082015250565b7f4552433732313a206f70657261746f7220717565727920666f72206e6f6e657860008201527f697374656e7420746f6b656e0000000000000000000000000000000000000000602082015250565b7f4d54000000000000000000000000000000000000000000000000000000000000600082015250565b7f4552433732313a20617070726f76652063616c6c6572206973206e6f74206f7760008201527f6e6572206e6f7220617070726f76656420666f7220616c6c0000000000000000602082015250565b7f4552433732313a2062616c616e636520717565727920666f7220746865207a6560008201527f726f206164647265737300000000000000000000000000000000000000000000602082015250565b7f4552433732313a206f776e657220717565727920666f72206e6f6e657869737460008201527f656e7420746f6b656e0000000000000000000000000000000000000000000000602082015250565b7f4552433732313a206d696e7420746f20746865207a65726f2061646472657373600082015250565b7f4c00000000000000000000000000000000000000000000000000000000000000600082015250565b7f4552433732313a20617070726f76656420717565727920666f72206e6f6e657860008201527f697374656e7420746f6b656e0000000000000000000000000000000000000000602082015250565b7f4552433732313a207472616e73666572206f6620746f6b656e2074686174206960008201527f73206e6f74206f776e0000000000000000000000000000000000000000000000602082015250565b7f4552433732314d657461646174613a2055524920717565727920666f72206e6f60008201527f6e6578697374656e7420746f6b656e0000000000000000000000000000000000602082015250565b7f4f6e6c7920565246436f6f7264696e61746f722063616e2066756c66696c6c00600082015250565b7f4552433732313a20617070726f76616c20746f2063757272656e74206f776e6560008201527f7200000000000000000000000000000000000000000000000000000000000000602082015250565b7f4e41000000000000000000000000000000000000000000000000000000000000600082015250565b7f4552433732313a207472616e736665722063616c6c6572206973206e6f74206f60008201527f776e6572206e6f7220617070726f766564000000000000000000000000000000602082015250565b7f5750000000000000000000000000000000000000000000000000000000000000600082015250565b7f4e50000000000000000000000000000000000000000000000000000000000000600082015250565b615d3e8161552b565b8114615d4957600080fd5b50565b615d558161553d565b8114615d6057600080fd5b50565b615d6c81615549565b8114615d7757600080fd5b50565b615d8381615553565b8114615d8e57600080fd5b50565b615d9a8161557f565b8114615da557600080fd5b50565b615db1816155b1565b8114615dbc57600080fd5b5056fe68747470733a2f2f6170692e62696e676f737761702e6172742f62696e676f2d6a736f6e2fa2646970667358221220d0fe57005028f7ea50b1ab1b7c06f95110c0f3f7aa406e39877adbbc7f8e36db64736f6c63430008040033",
  "immutableReferences": {
    "1638": [
      {
        "length": 32,
        "start": 3756
      },
      {
        "length": 32,
        "start": 13023
      }
    ],
    "1640": [
      {
        "length": 32,
        "start": 5997
      },
      {
        "length": 32,
        "start": 13083
      }
    ]
  },
  "source": "//                                  ___           ___           ___\n//       _____        ___          /__/\\         /  /\\         /  /\\\n//      /  /::\\      /  /\\         \\  \\:\\       /  /:/_       /  /::\\\n//     /  /:/\\:\\    /  /:/          \\  \\:\\     /  /:/ /\\     /  /:/\\:\\\n//    /  /:/~/::\\  /__/::\\      _____\\__\\:\\   /  /:/_/::\\   /  /:/  \\:\\\n//   /__/:/ /:/\\:| \\__\\/\\:\\__  /__/::::::::\\ /__/:/__\\/\\:\\ /__/:/ \\__\\:\\\n//   \\  \\:\\/:/~/:/    \\  \\:\\/\\ \\  \\:\\~~\\~~\\/ \\  \\:\\ /~~/:/ \\  \\:\\ /  /:/\n//    \\  \\::/ /:/      \\__\\::/  \\  \\:\\  ~~~   \\  \\:\\  /:/   \\  \\:\\  /:/\n//     \\  \\:\\/:/       /__/:/    \\  \\:\\        \\  \\:\\/:/     \\  \\:\\/:/\n//      \\  \\::/        \\__\\/      \\  \\:\\        \\  \\::/       \\  \\::/\n//       \\__\\/                     \\__\\/         \\__\\/         \\__\\/\n//\n// SPDX-License-Identifier: MIT\n\npragma solidity >=0.8.0 <0.9.0;\nimport '@openzeppelin/contracts/token/ERC721/ERC721.sol';\nimport \"@openzeppelin/contracts/utils/Counters.sol\";\nimport '@openzeppelin/contracts/token/ERC20/IERC20.sol';\nimport '@openzeppelin/contracts/utils/math/SafeMath.sol';\nimport \"@chainlink/contracts/src/v0.8/VRFConsumerBase.sol\";\nimport \"@chainlink/contracts/src/v0.8/interfaces/KeeperCompatibleInterface.sol\";\n\nlibrary BingoGenerate {\n    using SafeMath for uint256;\n\n    // Card\n    struct Card {\n        uint256[5] B;\n        uint256[5] I;\n        uint256[5] N;\n        uint256[5] G;\n        uint256[5] O;\n    }\n\n    // Settings\n    uint256 constant maxCount = 15;\n\n    function generateBingoCard(uint256 randomness) internal pure returns (Card memory card) {\n        if(randomness == 0) {\n            return card;\n        }\n        uint256[5] memory col;\n        uint256 i;\n\n        for(uint256 k=0; k<5; k++) {\n            col = generateColumn(uint256(keccak256(abi.encode(randomness, k))));\n            for(i=0;i<5;i++) {\n                if(k==2 && i==2) {\n                    col[i] = 99;\n                } else {\n                    col[i] = col[i] + (k*maxCount);\n                }\n            }\n\n            // Not sure how to do this better without switch :)\n            if(k == 0) {\n                card.B = col;\n            } else if(k == 1) {\n                card.I = col;\n            } else if(k == 2) {\n                card.N = col;\n            } else if(k == 3) {\n                card.G = col;\n            } else if(k == 4) {\n                card.O = col;\n            }\n        }\n\n        return card;\n    }\n\n    function generateColumn(uint256 randomness) internal pure returns(uint256[5] memory col) {\n        uint256[15] memory possible;\n        for(uint256 i=0; i<15; i++) {\n            possible[i] = i+1;\n        }\n        uint256 idx;\n        for(uint256 k=0; k<5; k++) {\n            idx = uint256(keccak256(abi.encode(randomness, k))).mod(maxCount-(1+k));\n            col[k] = possible[idx];\n            if(idx != 15 - (1+k)) {\n                possible[idx] = possible[15 - (1+k)];\n            }\n        }\n        return col;\n    }\n\n    function validateWinner(uint256 randomness,  mapping (uint256 => bool) storage Balls, uint256 pattern) internal view returns (bool found) {\n        /*\n        Patterns:\n            1 = line\n            2 = X\n            3 = Full card\n            4 = Four corners\n        */\n        Card memory card = generateBingoCard(randomness);\n        uint256[5][13] memory lines;\n        uint256 i;\n        for(i=0; i<5; i++) {\n            lines[i] = [card.B[i], card.I[i], card.N[i], card.G[i], card.O[i]];\n        }\n        lines[5] = uint256[5](card.B);\n        lines[6] = card.I;\n        lines[7] = card.N;\n        lines[8] = card.G;\n        lines[9] = card.O;\n        lines[10] = [card.B[0], card.I[1], card.N[2], card.G[3], card.O[4]];\n        lines[11] = [card.B[4], card.I[3], card.N[2], card.G[1], card.O[0]];\n        lines[12] = [card.B[0], card.O[0], card.B[4], card.O[4], card.B[0]]; // 4 corners\n\n        found = false;\n        uint256 foundDiagonal;\n        uint256 foundLines;\n        uint256 k;\n        uint256 matches;\n        for(i=0; i<13; i++) {\n            matches=0;\n            for(k=0; k<5; k++) {\n                if(Balls[lines[i][k]] || lines[i][k] == 99) {\n                    matches++;\n                    if(i == 10 || i == 11) {\n                        foundDiagonal++;\n                    }\n                }\n            }\n            if(matches == 5) {\n                foundLines++;\n            }\n            if((pattern == 1 && matches == 5 && i != 12)\n            || (pattern == 2 && foundDiagonal == 10)\n            || (pattern == 3 && foundLines == 12)\n            || (pattern == 4 && matches == 5 && i == 12)\n            ) {\n                found = true;\n            }\n        }\n    }\n}\n\n// Welcome to BINGO\ncontract Bingo is ERC721, VRFConsumerBase, KeeperCompatibleInterface {\n    using SafeMath for uint256;\n    using Counters for Counters.Counter;\n    Counters.Counter private _tokenIds;\n    Counters.Counter private _gameIds;\n\n    // Settings\n    uint256 public minCards = 1;     // 10\n    uint256 public maxCards = 1000;\n    uint256 public pricePerCard = 10000000000000000; // 0.01 ETH\n    uint256 public ballDrawTime = 60;   // 86400\n    uint256 public prizeSplit = 2;\n    uint256 public pattern = 1;\n    bool public startGame;\n    bool public startAuto;\n    address weedContract;\n    address owner;\n\n    // Game\n    uint256 public gameFloor;\n    uint256 public lastBallTime;\n    bytes32 public ballRequest;\n    uint256 public prizePool;\n    uint256 public winnerPool;\n    bool public outOfBalls;\n\n    // Random\n    bytes32 internal keyHash;\n    uint256 internal fee;\n\n    // Mappings\n    mapping (bytes32 => uint256) cardRequests;\n    mapping (uint256 => uint256) public cardRandomness;\n    mapping (uint256 => uint256) public winners;\n    mapping (uint256 => bool) Balls;\n\n    event BallPicked(uint256 game, uint256 ball);\n    event BingoWinner(uint256 game, uint256 tokenId);\n    event CardGenerated(uint256 game, address owner, uint256 tokenId);\n\n    modifier onlyOwner {\n        require(msg.sender == owner);\n        _;\n    }\n\n    constructor(address _weedContract)\n    ERC721(\"Bingo\", \"BINGO\")\n    VRFConsumerBase(\n        0xdD3782915140c8f3b190B5D67eAc6dc5760C46E9, // VRF Coordinator - Kovan\n        0xa36085F69e2889c224210F603D836748e7dC0088  // LINK Token - Kovan\n    )\n    {\n        owner = msg.sender;\n        weedContract = _weedContract;\n        keyHash = 0x6c3699283bda56ad74f6b855546325b68d482e983852a7a82979cc4807b641f4;\n        fee = 0.1 * 10 ** 18; // 0.1 LINK (Varies by network)\n\n        // Automatically start the first game\n        _gameIds.increment();\n        lastBallTime = block.timestamp;\n    }\n\n    /*\n    *   Purchase.\n    */\n    function mintCard(uint256 amount) public payable {\n        require(amount <= 10 && startGame && (_tokenIds.current().add(amount) - gameFloor) <= maxCards, \"E\");\n\n        // Mint in ETH\n        if(msg.value > 0) {\n            require(pricePerCard.mul(amount) <= msg.value, \"WP\");\n            if(prizeSplit > 0) {\n                prizePool += msg.value / prizeSplit;\n            }\n        // Mint in WEED\n        } else {\n            require(IERC20(weedContract).balanceOf(msg.sender) >= 4000 * 1e18 * amount, \"NB\");\n            require(IERC20(weedContract).allowance(msg.sender, address(this)) >= 4000 * 1e18 * amount, \"NP\");\n            IERC20(weedContract).transferFrom(msg.sender, address(this), 4000 * 1e18 * amount);\n        }\n\n        uint256 cardId;\n        for(uint256 i=0; i<amount; i++) {\n            _tokenIds.increment();\n             cardId = _tokenIds.current();\n            _safeMint(msg.sender, cardId);\n            cardRequests[requestRandomness(keyHash, fee)] = cardId;\n        }\n    }\n\n    /*\n    *   Randomness.\n    */\n    function checkUpkeep(bytes calldata checkData) external view override returns (bool upkeepNeeded, bytes memory performData) {\n        upkeepNeeded = (_tokenIds.current() - gameFloor >= minCards) && (block.timestamp > lastBallTime+ballDrawTime && !outOfBalls && startGame);\n        performData = checkData;\n    }\n\n    function performUpkeep(bytes calldata performData) external override {\n        require(block.timestamp > lastBallTime+ballDrawTime && _tokenIds.current() - gameFloor >= minCards, \"MT\");\n        uint256 _winners = checkForWinners();\n        if(_winners == 0) {\n            require(LINK.balanceOf(address(this)) >= fee, \"L\");\n            lastBallTime = block.timestamp;\n            ballRequest = requestRandomness(keyHash, fee);\n        } else {\n            // Reset game\n            prizePool = 0;\n            _gameIds.increment();\n            lastBallTime = block.timestamp;\n            outOfBalls = false;\n            gameFloor = _tokenIds.current();\n            startGame = startAuto;\n            for(uint256 b=1; b<76; b++) {\n                Balls[b] = false;\n            }\n        }\n        performData;\n    }\n\n    function fulfillRandomness(bytes32 requestId, uint256 randomness) internal override {\n        if(requestId == ballRequest) {\n            require(requestId == ballRequest, \"IR\");\n            uint256 choice;\n            for(uint256 idx=0; idx<76; idx++) {\n                choice = randomness.add(idx).mod(75).add(1);\n                if(Balls[choice] == false) {\n                    Balls[choice] = true;\n                    emit BallPicked(_gameIds.current(), choice);\n                    break;\n                } else if(idx == 75) {\n                    outOfBalls = true;\n                }\n            }\n            ballRequest = 0;\n        } else {\n            uint256 cardId = cardRequests[requestId];\n            require(cardId > 0, \"NA\");\n            cardRandomness[cardId] = randomness;\n            cardRequests[requestId] = 0;\n            emit CardGenerated(_gameIds.current(), ownerOf(cardId), cardId);\n        }\n    }\n\n    function checkForWinners() internal returns (uint256) {\n        uint256 winIdx;\n        for(uint256 i=gameFloor+1; i<= _tokenIds.current(); i++) {\n            if(BingoGenerate.validateWinner(cardRandomness[i], Balls, pattern)) {\n                winIdx++;\n            }\n        }\n        if(winIdx > 0) {\n            for(uint256 k=gameFloor+1; k<= _tokenIds.current(); k++) {\n                if(BingoGenerate.validateWinner(cardRandomness[k], Balls, pattern)) {\n                    winners[k] = prizePool.div(winIdx);\n                    winnerPool = winnerPool + winners[k];\n                    emit BingoWinner(_gameIds.current(), k);\n                }\n            }\n        }\n        return winIdx;\n    }\n\n    /*\n    *   Claim.\n    */\n    function claimBingo(uint256 cardId) public payable {\n        require(winners[cardId] > 0 && ownerOf(cardId) == msg.sender, 'C');\n        payable(msg.sender).transfer(winners[cardId]);\n        winnerPool = winnerPool - winners[cardId];\n        winners[cardId] = 0;\n    }\n\n    function burn(uint256 tokenId) public virtual {\n        require(_isApprovedOrOwner(msg.sender, tokenId), \"NA\");\n        _burn(tokenId);\n    }\n\n    /*\n    *   Getters.\n    */\n    function generateCard(uint256 cardId) public view returns (BingoGenerate.Card memory) {\n        return BingoGenerate.generateBingoCard(cardRandomness[cardId]);\n    }\n\n    function validateCard(uint256 cardId) public view returns (bool) {\n        return BingoGenerate.validateWinner(cardRandomness[cardId], Balls, pattern);\n    }\n\n    function getCurrent() public view returns (uint256 game, uint256 token) {\n        game = _gameIds.current();\n        token = _tokenIds.current();\n    }\n\n    function exists(uint256 tokenId) public view returns(bool) {\n        return _exists(tokenId);\n    }\n\n    function _baseURI() internal pure override returns (string memory) {\n        return \"https://api.bingoswap.art/bingo-json/\";\n    }\n\n    /*\n    *   Setters.\n    */\n    function contractSettings(bool _startGame, bool _startAuto, uint256 _ballDrawTime, uint256 _minCardsPerGame, uint256 _maxCardsPerGame, uint256 _pricePerCard, uint256 _prizeSplit, uint256 _pattern, address _owner) public onlyOwner {\n        startGame = _startGame;\n        startAuto = _startAuto;\n        ballDrawTime = _ballDrawTime;\n        minCards = _minCardsPerGame;\n        maxCards = _maxCardsPerGame;\n        pricePerCard = _pricePerCard;\n        prizeSplit = _prizeSplit;\n        pattern = _pattern;\n        owner = _owner;\n    }\n\n    /*\n    *   Money management.\n    */\n    function withdraw(IERC20 _token, uint256 _amount) public payable onlyOwner {\n        if(_amount > 0) {\n            _token.transfer(msg.sender, _amount);\n        } else {\n            uint256 _each = address(this).balance.sub(prizePool+winnerPool).div(4);\n            require(payable(0x00796e910Bd0228ddF4cd79e3f353871a61C351C).send(_each));   // sara\n            require(payable(0x7fc55376D5A29e0Ee86C18C81bb2fC8F9f490E50).send(_each));   // shaun\n            require(payable(0xB58Fb5372e9Aa0C86c3B281179c05Af3bB7a181b).send(_each));   // mark\n            require(payable(0xd83Dd8A288270512b8A46F581A8254CD971dCb09).send(_each));   // community (@todo replace)\n        }\n    }\n}\n",
  "sourcePath": "/Users/Shared/Code/experimental/bingo/bingo-contracts/contracts/Bingo.sol",
  "compiler": {
    "name": "solc",
    "version": "0.8.4+commit.c7e474f2.Emscripten.clang"
  },
  "schemaVersion": "3.4.1",
  "updatedAt": "2021-09-15T14:59:20.474Z",
  "networkType": "ethereum",
  "devdoc": {
    "kind": "dev",
    "methods": {
      "approve(address,uint256)": {
        "details": "See {IERC721-approve}."
      },
      "balanceOf(address)": {
        "details": "See {IERC721-balanceOf}."
      },
      "checkUpkeep(bytes)": {
        "params": {
          "checkData": "data passed to the contract when checking for upkeep."
        },
        "returns": {
          "performData": "bytes that the keeper should call performUpkeep with, if upkeep is needed.",
          "upkeepNeeded": "boolean to indicate whether the keeper should call performUpkeep or not."
        }
      },
      "getApproved(uint256)": {
        "details": "See {IERC721-getApproved}."
      },
      "isApprovedForAll(address,address)": {
        "details": "See {IERC721-isApprovedForAll}."
      },
      "name()": {
        "details": "See {IERC721Metadata-name}."
      },
      "ownerOf(uint256)": {
        "details": "See {IERC721-ownerOf}."
      },
      "performUpkeep(bytes)": {
        "params": {
          "performData": "is the data which was passed back from the checkData simulation."
        }
      },
      "safeTransferFrom(address,address,uint256)": {
        "details": "See {IERC721-safeTransferFrom}."
      },
      "safeTransferFrom(address,address,uint256,bytes)": {
        "details": "See {IERC721-safeTransferFrom}."
      },
      "setApprovalForAll(address,bool)": {
        "details": "See {IERC721-setApprovalForAll}."
      },
      "supportsInterface(bytes4)": {
        "details": "See {IERC165-supportsInterface}."
      },
      "symbol()": {
        "details": "See {IERC721Metadata-symbol}."
      },
      "tokenURI(uint256)": {
        "details": "See {IERC721Metadata-tokenURI}."
      },
      "transferFrom(address,address,uint256)": {
        "details": "See {IERC721-transferFrom}."
      }
    },
    "version": 1
  },
  "userdoc": {
    "kind": "user",
    "methods": {
      "checkUpkeep(bytes)": {
        "notice": "checks if the contract requires work to be done."
      },
      "performUpkeep(bytes)": {
        "notice": "Performs work on the contract. Executed by the keepers, via the registry."
      }
    },
    "version": 1
  }
}