{
  "contractName": "Bingo",
  "abi": [
    {
      "inputs": [
        {
          "internalType": "address",
          "name": "_weedContract",
          "type": "address"
        }
      ],
      "stateMutability": "nonpayable",
      "type": "constructor"
    },
    {
      "anonymous": false,
      "inputs": [
        {
          "indexed": true,
          "internalType": "address",
          "name": "owner",
          "type": "address"
        },
        {
          "indexed": true,
          "internalType": "address",
          "name": "approved",
          "type": "address"
        },
        {
          "indexed": true,
          "internalType": "uint256",
          "name": "tokenId",
          "type": "uint256"
        }
      ],
      "name": "Approval",
      "type": "event"
    },
    {
      "anonymous": false,
      "inputs": [
        {
          "indexed": true,
          "internalType": "address",
          "name": "owner",
          "type": "address"
        },
        {
          "indexed": true,
          "internalType": "address",
          "name": "operator",
          "type": "address"
        },
        {
          "indexed": false,
          "internalType": "bool",
          "name": "approved",
          "type": "bool"
        }
      ],
      "name": "ApprovalForAll",
      "type": "event"
    },
    {
      "anonymous": false,
      "inputs": [
        {
          "indexed": false,
          "internalType": "uint256",
          "name": "game",
          "type": "uint256"
        },
        {
          "indexed": false,
          "internalType": "uint256",
          "name": "choice",
          "type": "uint256"
        }
      ],
      "name": "BallPicked",
      "type": "event"
    },
    {
      "anonymous": false,
      "inputs": [
        {
          "indexed": false,
          "internalType": "address",
          "name": "winner",
          "type": "address"
        },
        {
          "indexed": false,
          "internalType": "uint256",
          "name": "tokenId",
          "type": "uint256"
        }
      ],
      "name": "BingoWinner",
      "type": "event"
    },
    {
      "anonymous": false,
      "inputs": [
        {
          "indexed": true,
          "internalType": "address",
          "name": "from",
          "type": "address"
        },
        {
          "indexed": true,
          "internalType": "address",
          "name": "to",
          "type": "address"
        },
        {
          "indexed": true,
          "internalType": "uint256",
          "name": "tokenId",
          "type": "uint256"
        }
      ],
      "name": "Transfer",
      "type": "event"
    },
    {
      "inputs": [
        {
          "internalType": "uint256",
          "name": "",
          "type": "uint256"
        }
      ],
      "name": "Balls",
      "outputs": [
        {
          "internalType": "bool",
          "name": "",
          "type": "bool"
        }
      ],
      "stateMutability": "view",
      "type": "function",
      "constant": true
    },
    {
      "inputs": [
        {
          "internalType": "address",
          "name": "to",
          "type": "address"
        },
        {
          "internalType": "uint256",
          "name": "tokenId",
          "type": "uint256"
        }
      ],
      "name": "approve",
      "outputs": [],
      "stateMutability": "nonpayable",
      "type": "function"
    },
    {
      "inputs": [
        {
          "internalType": "address",
          "name": "owner",
          "type": "address"
        }
      ],
      "name": "balanceOf",
      "outputs": [
        {
          "internalType": "uint256",
          "name": "",
          "type": "uint256"
        }
      ],
      "stateMutability": "view",
      "type": "function",
      "constant": true
    },
    {
      "inputs": [],
      "name": "ballDrawTime",
      "outputs": [
        {
          "internalType": "uint256",
          "name": "",
          "type": "uint256"
        }
      ],
      "stateMutability": "view",
      "type": "function",
      "constant": true
    },
    {
      "inputs": [],
      "name": "ballRequest",
      "outputs": [
        {
          "internalType": "bytes32",
          "name": "",
          "type": "bytes32"
        }
      ],
      "stateMutability": "view",
      "type": "function",
      "constant": true
    },
    {
      "inputs": [],
      "name": "baseUri",
      "outputs": [
        {
          "internalType": "string",
          "name": "",
          "type": "string"
        }
      ],
      "stateMutability": "view",
      "type": "function",
      "constant": true
    },
    {
      "inputs": [
        {
          "internalType": "uint256",
          "name": "",
          "type": "uint256"
        }
      ],
      "name": "cardRandomness",
      "outputs": [
        {
          "internalType": "uint256",
          "name": "",
          "type": "uint256"
        }
      ],
      "stateMutability": "view",
      "type": "function",
      "constant": true
    },
    {
      "inputs": [
        {
          "internalType": "bytes32",
          "name": "",
          "type": "bytes32"
        }
      ],
      "name": "cardRequests",
      "outputs": [
        {
          "internalType": "uint256",
          "name": "",
          "type": "uint256"
        }
      ],
      "stateMutability": "view",
      "type": "function",
      "constant": true
    },
    {
      "inputs": [
        {
          "internalType": "uint256",
          "name": "",
          "type": "uint256"
        }
      ],
      "name": "gameFloors",
      "outputs": [
        {
          "internalType": "uint256",
          "name": "",
          "type": "uint256"
        }
      ],
      "stateMutability": "view",
      "type": "function",
      "constant": true
    },
    {
      "inputs": [],
      "name": "gameId",
      "outputs": [
        {
          "internalType": "uint256",
          "name": "_value",
          "type": "uint256"
        }
      ],
      "stateMutability": "view",
      "type": "function",
      "constant": true
    },
    {
      "inputs": [
        {
          "internalType": "uint256",
          "name": "tokenId",
          "type": "uint256"
        }
      ],
      "name": "getApproved",
      "outputs": [
        {
          "internalType": "address",
          "name": "",
          "type": "address"
        }
      ],
      "stateMutability": "view",
      "type": "function",
      "constant": true
    },
    {
      "inputs": [
        {
          "internalType": "address",
          "name": "owner",
          "type": "address"
        },
        {
          "internalType": "address",
          "name": "operator",
          "type": "address"
        }
      ],
      "name": "isApprovedForAll",
      "outputs": [
        {
          "internalType": "bool",
          "name": "",
          "type": "bool"
        }
      ],
      "stateMutability": "view",
      "type": "function",
      "constant": true
    },
    {
      "inputs": [],
      "name": "lastBallTime",
      "outputs": [
        {
          "internalType": "uint256",
          "name": "",
          "type": "uint256"
        }
      ],
      "stateMutability": "view",
      "type": "function",
      "constant": true
    },
    {
      "inputs": [],
      "name": "maxCardPurchase",
      "outputs": [
        {
          "internalType": "uint256",
          "name": "",
          "type": "uint256"
        }
      ],
      "stateMutability": "view",
      "type": "function",
      "constant": true
    },
    {
      "inputs": [],
      "name": "maxCardsPerGame",
      "outputs": [
        {
          "internalType": "uint256",
          "name": "",
          "type": "uint256"
        }
      ],
      "stateMutability": "view",
      "type": "function",
      "constant": true
    },
    {
      "inputs": [],
      "name": "minCardsPerGame",
      "outputs": [
        {
          "internalType": "uint256",
          "name": "",
          "type": "uint256"
        }
      ],
      "stateMutability": "view",
      "type": "function",
      "constant": true
    },
    {
      "inputs": [],
      "name": "name",
      "outputs": [
        {
          "internalType": "string",
          "name": "",
          "type": "string"
        }
      ],
      "stateMutability": "view",
      "type": "function",
      "constant": true
    },
    {
      "inputs": [
        {
          "internalType": "uint256",
          "name": "tokenId",
          "type": "uint256"
        }
      ],
      "name": "ownerOf",
      "outputs": [
        {
          "internalType": "address",
          "name": "",
          "type": "address"
        }
      ],
      "stateMutability": "view",
      "type": "function",
      "constant": true
    },
    {
      "inputs": [],
      "name": "pricePerCard",
      "outputs": [
        {
          "internalType": "uint256",
          "name": "",
          "type": "uint256"
        }
      ],
      "stateMutability": "view",
      "type": "function",
      "constant": true
    },
    {
      "inputs": [],
      "name": "prizePool",
      "outputs": [
        {
          "internalType": "uint256",
          "name": "",
          "type": "uint256"
        }
      ],
      "stateMutability": "view",
      "type": "function",
      "constant": true
    },
    {
      "inputs": [
        {
          "internalType": "bytes32",
          "name": "requestId",
          "type": "bytes32"
        },
        {
          "internalType": "uint256",
          "name": "randomness",
          "type": "uint256"
        }
      ],
      "name": "rawFulfillRandomness",
      "outputs": [],
      "stateMutability": "nonpayable",
      "type": "function"
    },
    {
      "inputs": [
        {
          "internalType": "address",
          "name": "from",
          "type": "address"
        },
        {
          "internalType": "address",
          "name": "to",
          "type": "address"
        },
        {
          "internalType": "uint256",
          "name": "tokenId",
          "type": "uint256"
        }
      ],
      "name": "safeTransferFrom",
      "outputs": [],
      "stateMutability": "nonpayable",
      "type": "function"
    },
    {
      "inputs": [
        {
          "internalType": "address",
          "name": "from",
          "type": "address"
        },
        {
          "internalType": "address",
          "name": "to",
          "type": "address"
        },
        {
          "internalType": "uint256",
          "name": "tokenId",
          "type": "uint256"
        },
        {
          "internalType": "bytes",
          "name": "_data",
          "type": "bytes"
        }
      ],
      "name": "safeTransferFrom",
      "outputs": [],
      "stateMutability": "nonpayable",
      "type": "function"
    },
    {
      "inputs": [
        {
          "internalType": "address",
          "name": "operator",
          "type": "address"
        },
        {
          "internalType": "bool",
          "name": "approved",
          "type": "bool"
        }
      ],
      "name": "setApprovalForAll",
      "outputs": [],
      "stateMutability": "nonpayable",
      "type": "function"
    },
    {
      "inputs": [
        {
          "internalType": "bytes4",
          "name": "interfaceId",
          "type": "bytes4"
        }
      ],
      "name": "supportsInterface",
      "outputs": [
        {
          "internalType": "bool",
          "name": "",
          "type": "bool"
        }
      ],
      "stateMutability": "view",
      "type": "function",
      "constant": true
    },
    {
      "inputs": [],
      "name": "symbol",
      "outputs": [
        {
          "internalType": "string",
          "name": "",
          "type": "string"
        }
      ],
      "stateMutability": "view",
      "type": "function",
      "constant": true
    },
    {
      "inputs": [
        {
          "internalType": "uint256",
          "name": "tokenId",
          "type": "uint256"
        }
      ],
      "name": "tokenURI",
      "outputs": [
        {
          "internalType": "string",
          "name": "",
          "type": "string"
        }
      ],
      "stateMutability": "view",
      "type": "function",
      "constant": true
    },
    {
      "inputs": [
        {
          "internalType": "address",
          "name": "from",
          "type": "address"
        },
        {
          "internalType": "address",
          "name": "to",
          "type": "address"
        },
        {
          "internalType": "uint256",
          "name": "tokenId",
          "type": "uint256"
        }
      ],
      "name": "transferFrom",
      "outputs": [],
      "stateMutability": "nonpayable",
      "type": "function"
    },
    {
      "inputs": [],
      "name": "weedPerCard",
      "outputs": [
        {
          "internalType": "uint256",
          "name": "",
          "type": "uint256"
        }
      ],
      "stateMutability": "view",
      "type": "function",
      "constant": true
    },
    {
      "inputs": [
        {
          "internalType": "uint256",
          "name": "amount",
          "type": "uint256"
        }
      ],
      "name": "mintCardEth",
      "outputs": [],
      "stateMutability": "payable",
      "type": "function",
      "payable": true
    },
    {
      "inputs": [
        {
          "internalType": "uint256",
          "name": "amount",
          "type": "uint256"
        }
      ],
      "name": "mintCardWeed",
      "outputs": [],
      "stateMutability": "payable",
      "type": "function",
      "payable": true
    },
    {
      "inputs": [
        {
          "internalType": "bytes",
          "name": "checkData",
          "type": "bytes"
        }
      ],
      "name": "checkUpkeep",
      "outputs": [
        {
          "internalType": "bool",
          "name": "upkeepNeeded",
          "type": "bool"
        },
        {
          "internalType": "bytes",
          "name": "performData",
          "type": "bytes"
        }
      ],
      "stateMutability": "view",
      "type": "function",
      "constant": true
    },
    {
      "inputs": [
        {
          "internalType": "bytes",
          "name": "performData",
          "type": "bytes"
        }
      ],
      "name": "performUpkeep",
      "outputs": [],
      "stateMutability": "nonpayable",
      "type": "function"
    },
    {
      "inputs": [
        {
          "internalType": "uint256",
          "name": "cardId",
          "type": "uint256"
        }
      ],
      "name": "validateWinner",
      "outputs": [
        {
          "internalType": "bool",
          "name": "found",
          "type": "bool"
        }
      ],
      "stateMutability": "view",
      "type": "function",
      "constant": true
    },
    {
      "inputs": [
        {
          "internalType": "uint256",
          "name": "cardId",
          "type": "uint256"
        }
      ],
      "name": "claimBingo",
      "outputs": [],
      "stateMutability": "payable",
      "type": "function",
      "payable": true
    },
    {
      "inputs": [
        {
          "internalType": "uint256",
          "name": "cardId",
          "type": "uint256"
        }
      ],
      "name": "generateCard",
      "outputs": [
        {
          "components": [
            {
              "internalType": "uint256[5]",
              "name": "B",
              "type": "uint256[5]"
            },
            {
              "internalType": "uint256[5]",
              "name": "I",
              "type": "uint256[5]"
            },
            {
              "internalType": "uint256[5]",
              "name": "N",
              "type": "uint256[5]"
            },
            {
              "internalType": "uint256[5]",
              "name": "G",
              "type": "uint256[5]"
            },
            {
              "internalType": "uint256[5]",
              "name": "O",
              "type": "uint256[5]"
            }
          ],
          "internalType": "struct BingoGenerate.Card",
          "name": "",
          "type": "tuple"
        }
      ],
      "stateMutability": "view",
      "type": "function",
      "constant": true
    },
    {
      "inputs": [],
      "name": "getCurrentGame",
      "outputs": [
        {
          "internalType": "uint256",
          "name": "",
          "type": "uint256"
        }
      ],
      "stateMutability": "view",
      "type": "function",
      "constant": true
    },
    {
      "inputs": [],
      "name": "getCurrentToken",
      "outputs": [
        {
          "internalType": "uint256",
          "name": "",
          "type": "uint256"
        }
      ],
      "stateMutability": "view",
      "type": "function",
      "constant": true
    },
    {
      "inputs": [
        {
          "internalType": "address",
          "name": "_owner",
          "type": "address"
        }
      ],
      "name": "getCardsByOwner",
      "outputs": [
        {
          "internalType": "uint256[]",
          "name": "",
          "type": "uint256[]"
        }
      ],
      "stateMutability": "view",
      "type": "function",
      "constant": true
    },
    {
      "inputs": [
        {
          "internalType": "uint256",
          "name": "tokenId",
          "type": "uint256"
        }
      ],
      "name": "exists",
      "outputs": [
        {
          "internalType": "bool",
          "name": "",
          "type": "bool"
        }
      ],
      "stateMutability": "view",
      "type": "function",
      "constant": true
    },
    {
      "inputs": [
        {
          "internalType": "string",
          "name": "_baseUri",
          "type": "string"
        },
        {
          "internalType": "uint256",
          "name": "_ballDrawTime",
          "type": "uint256"
        },
        {
          "internalType": "uint256",
          "name": "_minCardsPerGame",
          "type": "uint256"
        },
        {
          "internalType": "uint256",
          "name": "_maxCardsPerGame",
          "type": "uint256"
        },
        {
          "internalType": "uint256",
          "name": "_pricePerCard",
          "type": "uint256"
        }
      ],
      "name": "contractSettings",
      "outputs": [],
      "stateMutability": "nonpayable",
      "type": "function"
    },
    {
      "inputs": [],
      "name": "withdraw",
      "outputs": [],
      "stateMutability": "payable",
      "type": "function",
      "payable": true
    }
  ],
  "bytecode": "0x60c06040526001600a556103e8600b55600a600c55662386f26fc10000600d55603c600e5568d8d726b7177a800000600f553480156200003e57600080fd5b50604051620064a0380380620064a08339818101604052810190620000649190620003ad565b73dd3782915140c8f3b190b5d67eac6dc5760c46e973a36085f69e2889c224210f603d836748e7dc00886040518060400160405280600581526020017f42696e676f0000000000000000000000000000000000000000000000000000008152506040518060400160405280600581526020017f42494e474f000000000000000000000000000000000000000000000000000000815250816000908051906020019062000112929190620002e6565b5080600190805190602001906200012b929190620002e6565b5050508173ffffffffffffffffffffffffffffffffffffffff1660a08173ffffffffffffffffffffffffffffffffffffffff1660601b815250508073ffffffffffffffffffffffffffffffffffffffff1660808173ffffffffffffffffffffffffffffffffffffffff1660601b81525050505033601160006101000a81548173ffffffffffffffffffffffffffffffffffffffff021916908373ffffffffffffffffffffffffffffffffffffffff16021790555080601060006101000a81548173ffffffffffffffffffffffffffffffffffffffff021916908373ffffffffffffffffffffffffffffffffffffffff1602179055507f6c3699283bda56ad74f6b855546325b68d482e983852a7a82979cc4807b641f460001b60158190555067016345785d8a0000601681905550620002706008620002c260201b62002a821760201c565b426012819055506200028e6007620002d860201b62002a981760201c565b60196000620002a96008620002d860201b62002a981760201c565b815260200190815260200160002081905550506200048c565b6001816000016000828254019250508190555050565b600081600001549050919050565b828054620002f4906200040d565b90600052602060002090601f01602090048101928262000318576000855562000364565b82601f106200033357805160ff191683800117855562000364565b8280016001018555821562000364579182015b828111156200036357825182559160200191906001019062000346565b5b50905062000373919062000377565b5090565b5b808211156200039257600081600090555060010162000378565b5090565b600081519050620003a78162000472565b92915050565b600060208284031215620003c057600080fd5b6000620003d08482850162000396565b91505092915050565b6000620003e682620003ed565b9050919050565b600073ffffffffffffffffffffffffffffffffffffffff82169050919050565b600060028204905060018216806200042657607f821691505b602082108114156200043d576200043c62000443565b5b50919050565b7f4e487b7100000000000000000000000000000000000000000000000000000000600052602260045260246000fd5b6200047d81620003d9565b81146200048957600080fd5b50565b60805160601c60a05160601c615fd3620004cd60003960008181611c8e0152613779015260008181612fc60152818161310d015261373d0152615fd36000f3fe6080604052600436106102515760003560e01c8063719ce73e11610139578063c87b56dd116100b6578063e985e9c51161007a578063e985e9c5146108dd578063eba73c7c1461091a578063ec49e46c14610957578063ef2d174614610994578063f03a980e146109bf578063f8a7443c146109ea57610251565b8063c87b56dd14610814578063d4ea9aeb14610851578063d7c81b551461087a578063dcde2519146108a5578063e23d0cf6146108c157610251565b806396e098a5116100fd57806396e098a51461072f5780639abc83201461075a5780639c15865b14610785578063a22cb465146107c2578063b88d4fde146107eb57610251565b8063719ce73e1461065a5780637a9314161461068557806394985ddd146106b057806395d89b41146106d9578063968d901b1461070457610251565b806342842e0e116101d2578063596a0b0411610196578063596a0b04146104fd57806361e0698c14610528578063630930ba146105655780636352211e146105a25780636e04ff0d146105df57806370a082311461061d57610251565b806342842e0e146104065780634585e33b1461042f5780634f558e7914610458578063501f51bb14610495578063521eaea3146104d257610251565b806311196afe1161021957806311196afe1461036157806323b872dd1461038c578063370bfeea146103b55780633c71f999146103d15780633ccfd60b146103fc57610251565b806301ffc9a7146102565780630215cb441461029357806306fdde03146102d0578063081812fc146102fb578063095ea7b314610338575b600080fd5b34801561026257600080fd5b5061027d60048036038101906102789190614632565b610a15565b60405161028a9190614f73565b60405180910390f35b34801561029f57600080fd5b506102ba60048036038101906102b59190614758565b610af7565b6040516102c79190615405565b60405180910390f35b3480156102dc57600080fd5b506102e5610b0f565b6040516102f29190615047565b60405180910390f35b34801561030757600080fd5b50610322600480360381019061031d9190614758565b610ba1565b60405161032f9190614e23565b60405180910390f35b34801561034457600080fd5b5061035f600480360381019061035a9190614568565b610c26565b005b34801561036d57600080fd5b50610376610d3e565b6040516103839190615405565b60405180910390f35b34801561039857600080fd5b506103b360048036038101906103ae9190614462565b610d44565b005b6103cf60048036038101906103ca9190614758565b610da4565b005b3480156103dd57600080fd5b506103e6610f3d565b6040516103f39190615405565b60405180910390f35b610404610f43565b005b34801561041257600080fd5b5061042d60048036038101906104289190614462565b6110c1565b005b34801561043b57600080fd5b5061045660048036038101906104519190614684565b6110e1565b005b34801561046457600080fd5b5061047f600480360381019061047a9190614758565b6111ba565b60405161048c9190614f73565b60405180910390f35b3480156104a157600080fd5b506104bc60048036038101906104b791906145cd565b6111cc565b6040516104c99190615405565b60405180910390f35b3480156104de57600080fd5b506104e76111e4565b6040516104f49190615405565b60405180910390f35b34801561050957600080fd5b506105126111ea565b60405161051f9190615405565b60405180910390f35b34801561053457600080fd5b5061054f600480360381019061054a9190614758565b6111f0565b60405161055c9190614f73565b60405180910390f35b34801561057157600080fd5b5061058c60048036038101906105879190614758565b611a47565b60405161059991906153e9565b60405180910390f35b3480156105ae57600080fd5b506105c960048036038101906105c49190614758565b611a72565b6040516105d69190614e23565b60405180910390f35b3480156105eb57600080fd5b5061060660048036038101906106019190614684565b611b24565b604051610614929190614f8e565b60405180910390f35b34801561062957600080fd5b50610644600480360381019061063f91906143fd565b611bc8565b6040516106519190615405565b60405180910390f35b34801561066657600080fd5b5061066f611c80565b60405161067c9190615405565b60405180910390f35b34801561069157600080fd5b5061069a611c86565b6040516106a79190615405565b60405180910390f35b3480156106bc57600080fd5b506106d760048036038101906106d291906145f6565b611c8c565b005b3480156106e557600080fd5b506106ee611d28565b6040516106fb9190615047565b60405180910390f35b34801561071057600080fd5b50610719611dba565b6040516107269190615405565b60405180910390f35b34801561073b57600080fd5b50610744611dcb565b6040516107519190615405565b60405180910390f35b34801561076657600080fd5b5061076f611dd1565b60405161077c9190615047565b60405180910390f35b34801561079157600080fd5b506107ac60048036038101906107a79190614758565b611e5f565b6040516107b99190614f73565b60405180910390f35b3480156107ce57600080fd5b506107e960048036038101906107e4919061452c565b611e7f565b005b3480156107f757600080fd5b50610812600480360381019061080d91906144b1565b612000565b005b34801561082057600080fd5b5061083b60048036038101906108369190614758565b612062565b6040516108489190615047565b60405180910390f35b34801561085d57600080fd5b50610878600480360381019061087391906146c9565b612109565b005b34801561088657600080fd5b5061088f61219d565b60405161089c9190615405565b60405180910390f35b6108bf60048036038101906108ba9190614758565b6121a9565b005b6108db60048036038101906108d69190614758565b612404565b005b3480156108e957600080fd5b5061090460048036038101906108ff9190614426565b6127d6565b6040516109119190614f73565b60405180910390f35b34801561092657600080fd5b50610941600480360381019061093c91906143fd565b61286a565b60405161094e9190614f51565b60405180910390f35b34801561096357600080fd5b5061097e60048036038101906109799190614758565b612a4d565b60405161098b9190615405565b60405180910390f35b3480156109a057600080fd5b506109a9612a65565b6040516109b69190615405565b60405180910390f35b3480156109cb57600080fd5b506109d4612a76565b6040516109e19190615405565b60405180910390f35b3480156109f657600080fd5b506109ff612a7c565b604051610a0c9190614fbe565b60405180910390f35b60007f80ac58cd000000000000000000000000000000000000000000000000000000007bffffffffffffffffffffffffffffffffffffffffffffffffffffffff1916827bffffffffffffffffffffffffffffffffffffffffffffffffffffffff19161480610ae057507f5b5e139f000000000000000000000000000000000000000000000000000000007bffffffffffffffffffffffffffffffffffffffffffffffffffffffff1916827bffffffffffffffffffffffffffffffffffffffffffffffffffffffff1916145b80610af05750610aef82612aa6565b5b9050919050565b60196020528060005260406000206000915090505481565b606060008054610b1e9061574e565b80601f0160208091040260200160405190810160405280929190818152602001828054610b4a9061574e565b8015610b975780601f10610b6c57610100808354040283529160200191610b97565b820191906000526020600020905b815481529060010190602001808311610b7a57829003601f168201915b5050505050905090565b6000610bac82612b10565b610beb576040517f08c379a0000000000000000000000000000000000000000000000000000000008152600401610be290615249565b60405180910390fd5b6004600083815260200190815260200160002060009054906101000a900473ffffffffffffffffffffffffffffffffffffffff169050919050565b6000610c3182611a72565b90508073ffffffffffffffffffffffffffffffffffffffff168373ffffffffffffffffffffffffffffffffffffffff161415610ca2576040517f08c379a0000000000000000000000000000000000000000000000000000000008152600401610c9990615309565b60405180910390fd5b8073ffffffffffffffffffffffffffffffffffffffff16610cc1612b7c565b73ffffffffffffffffffffffffffffffffffffffff161480610cf05750610cef81610cea612b7c565b6127d6565b5b610d2f576040517f08c379a0000000000000000000000000000000000000000000000000000000008152600401610d26906151a9565b60405180910390fd5b610d398383612b84565b505050565b600e5481565b610d55610d4f612b7c565b82612c3d565b610d94576040517f08c379a0000000000000000000000000000000000000000000000000000000008152600401610d8b90615369565b60405180910390fd5b610d9f838383612d1b565b505050565b600c54811115610de9576040517f08c379a0000000000000000000000000000000000000000000000000000000008152600401610de0906153a9565b60405180910390fd5b600b5460196000610dfa6008612a98565b815260200190815260200160002054610e2583610e176007612a98565b612f7790919063ffffffff16565b610e2f919061565a565b1115610e70576040517f08c379a0000000000000000000000000000000000000000000000000000000008152600401610e6790615389565b60405180910390fd5b34610e8682600d54612f8d90919063ffffffff16565b1115610ec7576040517f08c379a0000000000000000000000000000000000000000000000000000000008152600401610ebe906152a9565b60405180910390fd5b60005b81811015610f1457610edc6007612a82565b610eef33610eea6007612a98565b612fa3565b610f01610efc6007612a98565b612fc1565b8080610f0c906157b1565b915050610eca565b50600234610f2291906155cf565b60146000828254610f339190615579565b9250508190555050565b600f5481565b601160009054906101000a900473ffffffffffffffffffffffffffffffffffffffff1673ffffffffffffffffffffffffffffffffffffffff163373ffffffffffffffffffffffffffffffffffffffff1614610f9d57600080fd5b6000610fc76003610fb9601454476130dc90919063ffffffff16565b6130f290919063ffffffff16565b905072796e910bd0228ddf4cd79e3f353871a61c351c73ffffffffffffffffffffffffffffffffffffffff166108fc829081150290604051600060405180830381858888f1935050505061101a57600080fd5b737fc55376d5a29e0ee86c18c81bb2fc8f9f490e5073ffffffffffffffffffffffffffffffffffffffff166108fc829081150290604051600060405180830381858888f1935050505061106c57600080fd5b73b58fb5372e9aa0c86c3b281179c05af3bb7a181b73ffffffffffffffffffffffffffffffffffffffff166108fc829081150290604051600060405180830381858888f193505050506110be57600080fd5b50565b6110dc83838360405180602001604052806000815250612000565b505050565b600e546012546110f19190615579565b4211611132576040517f08c379a000000000000000000000000000000000000000000000000000000000815260040161112990615329565b60405180910390fd5b600a54601960006111436008612a98565b81526020019081526020016000205461115c6007612a98565b611166919061565a565b10156111a7576040517f08c379a000000000000000000000000000000000000000000000000000000000815260040161119e906153c9565b60405180910390fd5b426012819055506111b6613108565b5050565b60006111c582612b10565b9050919050565b60176020528060005260406000206000915090505481565b600d5481565b60125481565b60008061120f601860008581526020019081526020016000205461320b565b90506112196140d8565b60005b60058110156113e5576040518060a001604052808460000151836005811061126d577f4e487b7100000000000000000000000000000000000000000000000000000000600052603260045260246000fd5b60200201518152602001846020015183600581106112b4577f4e487b7100000000000000000000000000000000000000000000000000000000600052603260045260246000fd5b60200201518152602001846040015183600581106112fb577f4e487b7100000000000000000000000000000000000000000000000000000000600052603260045260246000fd5b6020020151815260200184606001518360058110611342577f4e487b7100000000000000000000000000000000000000000000000000000000600052603260045260246000fd5b6020020151815260200184608001518360058110611389577f4e487b7100000000000000000000000000000000000000000000000000000000600052603260045260246000fd5b60200201518152508282600c81106113ca577f4e487b7100000000000000000000000000000000000000000000000000000000600052603260045260246000fd5b602002018190525080806113dd906157b1565b91505061121c565b8260000151826005600c8110611424577f4e487b7100000000000000000000000000000000000000000000000000000000600052603260045260246000fd5b60200201819052508260200151826006600c811061146b577f4e487b7100000000000000000000000000000000000000000000000000000000600052603260045260246000fd5b60200201819052508260400151826007600c81106114b2577f4e487b7100000000000000000000000000000000000000000000000000000000600052603260045260246000fd5b60200201819052508260600151826008600c81106114f9577f4e487b7100000000000000000000000000000000000000000000000000000000600052603260045260246000fd5b60200201819052508260800151826009600c8110611540577f4e487b7100000000000000000000000000000000000000000000000000000000600052603260045260246000fd5b60200201819052506040518060a001604052808460000151600060058110611591577f4e487b7100000000000000000000000000000000000000000000000000000000600052603260045260246000fd5b6020020151815260200184602001516001600581106115d9577f4e487b7100000000000000000000000000000000000000000000000000000000600052603260045260246000fd5b602002015181526020018460400151600260058110611621577f4e487b7100000000000000000000000000000000000000000000000000000000600052603260045260246000fd5b602002015181526020018460600151600360058110611669577f4e487b7100000000000000000000000000000000000000000000000000000000600052603260045260246000fd5b6020020151815260200184608001516004600581106116b1577f4e487b7100000000000000000000000000000000000000000000000000000000600052603260045260246000fd5b602002015181525082600a600c81106116f3577f4e487b7100000000000000000000000000000000000000000000000000000000600052603260045260246000fd5b60200201819052506040518060a001604052808460000151600460058110611744577f4e487b7100000000000000000000000000000000000000000000000000000000600052603260045260246000fd5b60200201518152602001846020015160036005811061178c577f4e487b7100000000000000000000000000000000000000000000000000000000600052603260045260246000fd5b6020020151815260200184604001516002600581106117d4577f4e487b7100000000000000000000000000000000000000000000000000000000600052603260045260246000fd5b60200201518152602001846060015160016005811061181c577f4e487b7100000000000000000000000000000000000000000000000000000000600052603260045260246000fd5b602002015181526020018460800151600060058110611864577f4e487b7100000000000000000000000000000000000000000000000000000000600052603260045260246000fd5b602002015181525082600b600c81106118a6577f4e487b7100000000000000000000000000000000000000000000000000000000600052603260045260246000fd5b602002018190525060009350600080600092505b600c831015611a3d5760009050600091505b6005821015611a1c57601a60008585600c8110611912577f4e487b7100000000000000000000000000000000000000000000000000000000600052603260045260246000fd5b6020020151846005811061194f577f4e487b7100000000000000000000000000000000000000000000000000000000600052603260045260246000fd5b6020020151815260200190815260200160002060009054906101000a900460ff16806119f5575060638484600c81106119b1577f4e487b7100000000000000000000000000000000000000000000000000000000600052603260045260246000fd5b602002015183600581106119ee577f4e487b7100000000000000000000000000000000000000000000000000000000600052603260045260246000fd5b6020020151145b15611a09578080611a05906157b1565b9150505b8180611a14906157b1565b9250506118cc565b6005811415611a2a57600195505b8280611a35906157b1565b9350506118ba565b5050505050919050565b611a4f614106565b611a6b601860008481526020019081526020016000205461320b565b9050919050565b6000806002600084815260200190815260200160002060009054906101000a900473ffffffffffffffffffffffffffffffffffffffff169050600073ffffffffffffffffffffffffffffffffffffffff168173ffffffffffffffffffffffffffffffffffffffff161415611b1b576040517f08c379a0000000000000000000000000000000000000000000000000000000008152600401611b12906151e9565b60405180910390fd5b80915050919050565b60006060600a5460196000611b396008612a98565b815260200190815260200160002054611b526007612a98565b611b5c919061565a565b10158015611b785750600e54601254611b759190615579565b42115b915083838080601f016020809104026020016040519081016040528093929190818152602001838380828437600081840152601f19601f8201169050808301925050505050505090509250929050565b60008073ffffffffffffffffffffffffffffffffffffffff168273ffffffffffffffffffffffffffffffffffffffff161415611c39576040517f08c379a0000000000000000000000000000000000000000000000000000000008152600401611c30906151c9565b60405180910390fd5b600360008373ffffffffffffffffffffffffffffffffffffffff1673ffffffffffffffffffffffffffffffffffffffff168152602001908152602001600020549050919050565b60145481565b600a5481565b7f000000000000000000000000000000000000000000000000000000000000000073ffffffffffffffffffffffffffffffffffffffff163373ffffffffffffffffffffffffffffffffffffffff1614611d1a576040517f08c379a0000000000000000000000000000000000000000000000000000000008152600401611d11906152e9565b60405180910390fd5b611d248282613416565b5050565b606060018054611d379061574e565b80601f0160208091040260200160405190810160405280929190818152602001828054611d639061574e565b8015611db05780601f10611d8557610100808354040283529160200191611db0565b820191906000526020600020905b815481529060010190602001808311611d9357829003601f168201915b5050505050905090565b6000611dc66008612a98565b905090565b600c5481565b60098054611dde9061574e565b80601f0160208091040260200160405190810160405280929190818152602001828054611e0a9061574e565b8015611e575780601f10611e2c57610100808354040283529160200191611e57565b820191906000526020600020905b815481529060010190602001808311611e3a57829003601f168201915b505050505081565b601a6020528060005260406000206000915054906101000a900460ff1681565b611e87612b7c565b73ffffffffffffffffffffffffffffffffffffffff168273ffffffffffffffffffffffffffffffffffffffff161415611ef5576040517f08c379a0000000000000000000000000000000000000000000000000000000008152600401611eec90615109565b60405180910390fd5b8060056000611f02612b7c565b73ffffffffffffffffffffffffffffffffffffffff1673ffffffffffffffffffffffffffffffffffffffff16815260200190815260200160002060008473ffffffffffffffffffffffffffffffffffffffff1673ffffffffffffffffffffffffffffffffffffffff16815260200190815260200160002060006101000a81548160ff0219169083151502179055508173ffffffffffffffffffffffffffffffffffffffff16611faf612b7c565b73ffffffffffffffffffffffffffffffffffffffff167f17307eab39ab6107e8899845ad3d59bd9653f200f220920489ca2b5937696c3183604051611ff49190614f73565b60405180910390a35050565b61201161200b612b7c565b83612c3d565b612050576040517f08c379a000000000000000000000000000000000000000000000000000000000815260040161204790615369565b60405180910390fd5b61205c8484848461343e565b50505050565b606061206d82612b10565b6120ac576040517f08c379a00000000000000000000000000000000000000000000000000000000081526004016120a3906152c9565b60405180910390fd5b60006120b661349a565b905060008151116120d65760405180602001604052806000815250612101565b806120e08461352c565b6040516020016120f1929190614dff565b6040516020818303038152906040525b915050919050565b601160009054906101000a900473ffffffffffffffffffffffffffffffffffffffff1673ffffffffffffffffffffffffffffffffffffffff163373ffffffffffffffffffffffffffffffffffffffff161461216357600080fd5b8460099080519060200190612179929190614153565b5083600e8190555082600a8190555081600b8190555080600d819055505050505050565b60088060000154905081565b3373ffffffffffffffffffffffffffffffffffffffff166121c982611a72565b73ffffffffffffffffffffffffffffffffffffffff161461221f576040517f08c379a000000000000000000000000000000000000000000000000000000000815260040161221690615129565b60405180910390fd5b612228816111f0565b612267576040517f08c379a000000000000000000000000000000000000000000000000000000000815260040161225e90615069565b60405180910390fd5b601960006122756008612a98565b81526020019081526020016000205481116122c5576040517f08c379a00000000000000000000000000000000000000000000000000000000081526004016122bc906150c9565b60405180910390fd5b3373ffffffffffffffffffffffffffffffffffffffff166108fc6014549081150290604051600060405180830381858888f1935050505015801561230d573d6000803e3d6000fd5b507fc71c3aceb781f257d8a8c6637dcba36b2c2c726aa5111d01a4a3cad60e33d5e0338260405161233f929190614eea565b60405180910390a160006014819055506123596008612a82565b4260128190555061236a6007612a98565b601960006123786008612a98565b8152602001908152602001600020819055506000600190505b604c81101561240057601a600082815260200190815260200160002060009054906101000a900460ff16156123ed576000601a600083815260200190815260200160002060006101000a81548160ff0219169083151502179055505b80806123f8906157b1565b915050612391565b5050565b600c54811115612449576040517f08c379a0000000000000000000000000000000000000000000000000000000008152600401612440906153a9565b60405180910390fd5b600b546019600061245a6008612a98565b815260200190815260200160002054612485836124776007612a98565b612f7790919063ffffffff16565b61248f919061565a565b11156124d0576040517f08c379a00000000000000000000000000000000000000000000000000000000081526004016124c790615389565b60405180910390fd5b80600f546124de9190615600565b601060009054906101000a900473ffffffffffffffffffffffffffffffffffffffff1673ffffffffffffffffffffffffffffffffffffffff166370a08231336040518263ffffffff1660e01b81526004016125399190614e23565b60206040518083038186803b15801561255157600080fd5b505afa158015612565573d6000803e3d6000fd5b505050506040513d601f19601f820116820180604052508101906125899190614781565b10156125ca576040517f08c379a00000000000000000000000000000000000000000000000000000000081526004016125c190615169565b60405180910390fd5b80600f546125d89190615600565b601060009054906101000a900473ffffffffffffffffffffffffffffffffffffffff1673ffffffffffffffffffffffffffffffffffffffff1663dd62ed3e33306040518363ffffffff1660e01b8152600401612635929190614e3e565b60206040518083038186803b15801561264d57600080fd5b505afa158015612661573d6000803e3d6000fd5b505050506040513d601f19601f820116820180604052508101906126859190614781565b10156126c6576040517f08c379a00000000000000000000000000000000000000000000000000000000081526004016126bd90615209565b60405180910390fd5b601060009054906101000a900473ffffffffffffffffffffffffffffffffffffffff1673ffffffffffffffffffffffffffffffffffffffff166323b872dd333084600f546127149190615600565b6040518463ffffffff1660e01b815260040161273293929190614e67565b602060405180830381600087803b15801561274c57600080fd5b505af1158015612760573d6000803e3d6000fd5b505050506040513d601f19601f8201168201806040525081019061278491906145a4565b5060005b818110156127d25761279a6007612a82565b6127ad336127a86007612a98565b612fa3565b6127bf6127ba6007612a98565b612fc1565b80806127ca906157b1565b915050612788565b5050565b6000600560008473ffffffffffffffffffffffffffffffffffffffff1673ffffffffffffffffffffffffffffffffffffffff16815260200190815260200160002060008373ffffffffffffffffffffffffffffffffffffffff1673ffffffffffffffffffffffffffffffffffffffff16815260200190815260200160002060009054906101000a900460ff16905092915050565b6060600061287783611bc8565b905060008114156128fa57600067ffffffffffffffff8111156128c3577f4e487b7100000000000000000000000000000000000000000000000000000000600052604160045260246000fd5b6040519080825280602002602001820160405280156128f15781602001602082028036833780820191505090505b50915050612a48565b60008167ffffffffffffffff81111561293c577f4e487b7100000000000000000000000000000000000000000000000000000000600052604160045260246000fd5b60405190808252806020026020018201604052801561296a5781602001602082028036833780820191505090505b50905060006129796007612a98565b9050600080600190505b828111612a3f5761299381612b10565b80156129d257508673ffffffffffffffffffffffffffffffffffffffff166129ba82611a72565b73ffffffffffffffffffffffffffffffffffffffff16145b15612a2c5780848381518110612a11577f4e487b7100000000000000000000000000000000000000000000000000000000600052603260045260246000fd5b6020026020010181815250508180612a28906157b1565b9250505b8080612a37906157b1565b915050612983565b50829450505050505b919050565b60186020528060005260406000206000915090505481565b6000612a716007612a98565b905090565b600b5481565b60135481565b6001816000016000828254019250508190555050565b600081600001549050919050565b60007f01ffc9a7000000000000000000000000000000000000000000000000000000007bffffffffffffffffffffffffffffffffffffffffffffffffffffffff1916827bffffffffffffffffffffffffffffffffffffffffffffffffffffffff1916149050919050565b60008073ffffffffffffffffffffffffffffffffffffffff166002600084815260200190815260200160002060009054906101000a900473ffffffffffffffffffffffffffffffffffffffff1673ffffffffffffffffffffffffffffffffffffffff1614159050919050565b600033905090565b816004600083815260200190815260200160002060006101000a81548173ffffffffffffffffffffffffffffffffffffffff021916908373ffffffffffffffffffffffffffffffffffffffff160217905550808273ffffffffffffffffffffffffffffffffffffffff16612bf783611a72565b73ffffffffffffffffffffffffffffffffffffffff167f8c5be1e5ebec7d5bd14f71427d1e84f3dd0314c0f7b2291e5b200ac8c7c3b92560405160405180910390a45050565b6000612c4882612b10565b612c87576040517f08c379a0000000000000000000000000000000000000000000000000000000008152600401612c7e90615149565b60405180910390fd5b6000612c9283611a72565b90508073ffffffffffffffffffffffffffffffffffffffff168473ffffffffffffffffffffffffffffffffffffffff161480612d0157508373ffffffffffffffffffffffffffffffffffffffff16612ce984610ba1565b73ffffffffffffffffffffffffffffffffffffffff16145b80612d125750612d1181856127d6565b5b91505092915050565b8273ffffffffffffffffffffffffffffffffffffffff16612d3b82611a72565b73ffffffffffffffffffffffffffffffffffffffff1614612d91576040517f08c379a0000000000000000000000000000000000000000000000000000000008152600401612d8890615289565b60405180910390fd5b600073ffffffffffffffffffffffffffffffffffffffff168273ffffffffffffffffffffffffffffffffffffffff161415612e01576040517f08c379a0000000000000000000000000000000000000000000000000000000008152600401612df8906150e9565b60405180910390fd5b612e0c8383836136d9565b612e17600082612b84565b6001600360008573ffffffffffffffffffffffffffffffffffffffff1673ffffffffffffffffffffffffffffffffffffffff1681526020019081526020016000206000828254612e67919061565a565b925050819055506001600360008473ffffffffffffffffffffffffffffffffffffffff1673ffffffffffffffffffffffffffffffffffffffff1681526020019081526020016000206000828254612ebe9190615579565b92505081905550816002600083815260200190815260200160002060006101000a81548173ffffffffffffffffffffffffffffffffffffffff021916908373ffffffffffffffffffffffffffffffffffffffff160217905550808273ffffffffffffffffffffffffffffffffffffffff168473ffffffffffffffffffffffffffffffffffffffff167fddf252ad1be2c89b69c2b068fc378daa952ba7f163c4a11628f55a4df523b3ef60405160405180910390a4505050565b60008183612f859190615579565b905092915050565b60008183612f9b9190615600565b905092915050565b612fbd8282604051806020016040528060008152506136de565b5050565b6016547f000000000000000000000000000000000000000000000000000000000000000073ffffffffffffffffffffffffffffffffffffffff166370a08231306040518263ffffffff1660e01b815260040161301d9190614e23565b60206040518083038186803b15801561303557600080fd5b505afa158015613049573d6000803e3d6000fd5b505050506040513d601f19601f8201168201806040525081019061306d9190614781565b10156130ae576040517f08c379a00000000000000000000000000000000000000000000000000000000081526004016130a590615189565b60405180910390fd5b60006130be601554601654613739565b90508160176000838152602001908152602001600020819055505050565b600081836130ea919061565a565b905092915050565b6000818361310091906155cf565b905092915050565b6016547f000000000000000000000000000000000000000000000000000000000000000073ffffffffffffffffffffffffffffffffffffffff166370a08231306040518263ffffffff1660e01b81526004016131649190614e23565b60206040518083038186803b15801561317c57600080fd5b505afa158015613190573d6000803e3d6000fd5b505050506040513d601f19601f820116820180604052508101906131b49190614781565b10156131f5576040517f08c379a00000000000000000000000000000000000000000000000000000000081526004016131ec90615189565b60405180910390fd5b613203601554601654613739565b601381905550565b613213614106565b600082141561322157613411565b6132296141d9565b600080600090505b600581101561340d5761326e8582604051602001613250929190615420565b6040516020818303038152906040528051906020012060001c61389b565b9250600091505b60058210156133875760028114801561328e5750600282145b156132dc5760638383600581106132ce577f4e487b7100000000000000000000000000000000000000000000000000000000600052603260045260246000fd5b602002018181525050613374565b600f816132e99190615600565b838360058110613322577f4e487b7100000000000000000000000000000000000000000000000000000000600052603260045260246000fd5b60200201516133319190615579565b83836005811061336a577f4e487b7100000000000000000000000000000000000000000000000000000000600052603260045260246000fd5b6020020181815250505b818061337f906157b1565b925050613275565b600081141561339e578284600001819052506133fa565b60018114156133b5578284602001819052506133f9565b60028114156133cc578284604001819052506133f8565b60038114156133e3578284606001819052506133f7565b60048114156133f6578284608001819052505b5b5b5b5b8080613405906157b1565b915050613231565b5050505b919050565b60135482141561342f5761342a8282613ad6565b61343a565b6134398282613c37565b5b5050565b613449848484612d1b565b61345584848484613cdb565b613494576040517f08c379a000000000000000000000000000000000000000000000000000000000815260040161348b90615089565b60405180910390fd5b50505050565b6060600980546134a99061574e565b80601f01602080910402602001604051908101604052809291908181526020018280546134d59061574e565b80156135225780601f106134f757610100808354040283529160200191613522565b820191906000526020600020905b81548152906001019060200180831161350557829003601f168201915b5050505050905090565b60606000821415613574576040518060400160405280600181526020017f300000000000000000000000000000000000000000000000000000000000000081525090506136d4565b600082905060005b600082146135a657808061358f906157b1565b915050600a8261359f91906155cf565b915061357c565b60008167ffffffffffffffff8111156135e8577f4e487b7100000000000000000000000000000000000000000000000000000000600052604160045260246000fd5b6040519080825280601f01601f19166020018201604052801561361a5781602001600182028036833780820191505090505b5090505b600085146136cd57600182613633919061565a565b9150600a85613642919061580e565b603061364e9190615579565b60f81b81838151811061368a577f4e487b7100000000000000000000000000000000000000000000000000000000600052603260045260246000fd5b60200101907effffffffffffffffffffffffffffffffffffffffffffffffffffffffffffff1916908160001a905350600a856136c691906155cf565b945061361e565b8093505050505b919050565b505050565b6136e88383613e72565b6136f56000848484613cdb565b613734576040517f08c379a000000000000000000000000000000000000000000000000000000000815260040161372b90615089565b60405180910390fd5b505050565b60007f000000000000000000000000000000000000000000000000000000000000000073ffffffffffffffffffffffffffffffffffffffff16634000aea07f0000000000000000000000000000000000000000000000000000000000000000848660006040516020016137ad929190614fd9565b6040516020818303038152906040526040518463ffffffff1660e01b81526004016137da93929190614f13565b602060405180830381600087803b1580156137f457600080fd5b505af1158015613808573d6000803e3d6000fd5b505050506040513d601f19601f8201168201806040525081019061382c91906145a4565b50600061384f846000306006600089815260200190815260200160002054614040565b9050600160066000868152602001908152602001600020546138719190615579565b6006600086815260200190815260200160002081905550613892848261407c565b91505092915050565b6138a36141d9565b6138ab6141fb565b60005b600f811015613919576001816138c49190615579565b8282600f81106138fd577f4e487b7100000000000000000000000000000000000000000000000000000000600052603260045260246000fd5b6020020181815250508080613911906157b1565b9150506138ae565b50600080600090505b6005811015613ace5761398181600161393b9190615579565b600f613947919061565a565b868360405160200161395a929190615420565b6040516020818303038152906040528051906020012060001c6140af90919063ffffffff16565b91508282600f81106139bc577f4e487b7100000000000000000000000000000000000000000000000000000000600052603260045260246000fd5b60200201518482600581106139fa577f4e487b7100000000000000000000000000000000000000000000000000000000600052603260045260246000fd5b602002018181525050806001613a109190615579565b600f613a1c919061565a565b8214613abb5782816001613a309190615579565b600f613a3c919061565a565b600f8110613a73577f4e487b7100000000000000000000000000000000000000000000000000000000600052603260045260246000fd5b60200201518383600f8110613ab1577f4e487b7100000000000000000000000000000000000000000000000000000000600052603260045260246000fd5b6020020181815250505b8080613ac6906157b1565b915050613922565b505050919050565b6013548214613b1a576040517f08c379a0000000000000000000000000000000000000000000000000000000008152600401613b1190615269565b60405180910390fd5b6000806000600190505b600015158215151415613bee57613b766001613b686005600f613b479190615600565b613b5a8589612f7790919063ffffffff16565b6140af90919063ffffffff16565b612f7790919063ffffffff16565b925060001515601a600085815260200190815260200160002060009054906101000a900460ff1615151415613bda576001601a600085815260200190815260200160002060006101000a81548160ff02191690831515021790555060019150613be9565b8080613be5906157b1565b9150505b613b24565b7fd85a895f825d2064ec30917b67b720684fafc60d3c7e8c33b9d1abd623b0cb6d613c196008612a98565b84604051613c28929190615420565b60405180910390a15050505050565b6000601760008481526020019081526020016000205411613c8d576040517f08c379a0000000000000000000000000000000000000000000000000000000008152600401613c8490615349565b60405180910390fd5b60006017600084815260200190815260200160002054905081601860008381526020019081526020016000208190555060006017600085815260200190815260200160002081905550505050565b6000613cfc8473ffffffffffffffffffffffffffffffffffffffff166140c5565b15613e65578373ffffffffffffffffffffffffffffffffffffffff1663150b7a02613d25612b7c565b8786866040518563ffffffff1660e01b8152600401613d479493929190614e9e565b602060405180830381600087803b158015613d6157600080fd5b505af1925050508015613d9257506040513d601f19601f82011682018060405250810190613d8f919061465b565b60015b613e15573d8060008114613dc2576040519150601f19603f3d011682016040523d82523d6000602084013e613dc7565b606091505b50600081511415613e0d576040517f08c379a0000000000000000000000000000000000000000000000000000000008152600401613e0490615089565b60405180910390fd5b805181602001fd5b63150b7a0260e01b7bffffffffffffffffffffffffffffffffffffffffffffffffffffffff1916817bffffffffffffffffffffffffffffffffffffffffffffffffffffffff191614915050613e6a565b600190505b949350505050565b600073ffffffffffffffffffffffffffffffffffffffff168273ffffffffffffffffffffffffffffffffffffffff161415613ee2576040517f08c379a0000000000000000000000000000000000000000000000000000000008152600401613ed990615229565b60405180910390fd5b613eeb81612b10565b15613f2b576040517f08c379a0000000000000000000000000000000000000000000000000000000008152600401613f22906150a9565b60405180910390fd5b613f37600083836136d9565b6001600360008473ffffffffffffffffffffffffffffffffffffffff1673ffffffffffffffffffffffffffffffffffffffff1681526020019081526020016000206000828254613f879190615579565b92505081905550816002600083815260200190815260200160002060006101000a81548173ffffffffffffffffffffffffffffffffffffffff021916908373ffffffffffffffffffffffffffffffffffffffff160217905550808273ffffffffffffffffffffffffffffffffffffffff16600073ffffffffffffffffffffffffffffffffffffffff167fddf252ad1be2c89b69c2b068fc378daa952ba7f163c4a11628f55a4df523b3ef60405160405180910390a45050565b6000848484846040516020016140599493929190615002565b6040516020818303038152906040528051906020012060001c9050949350505050565b60008282604051602001614091929190614dd3565b60405160208183030381529060405280519060200120905092915050565b600081836140bd919061580e565b905092915050565b600080823b905060008111915050919050565b604051806101800160405280600c905b6140f06141d9565b8152602001906001900390816140e85790505090565b6040518060a001604052806141196141d9565b81526020016141266141d9565b81526020016141336141d9565b81526020016141406141d9565b815260200161414d6141d9565b81525090565b82805461415f9061574e565b90600052602060002090601f01602090048101928261418157600085556141c8565b82601f1061419a57805160ff19168380011785556141c8565b828001600101855582156141c8579182015b828111156141c75782518255916020019190600101906141ac565b5b5090506141d5919061421e565b5090565b6040518060a00160405280600590602082028036833780820191505090505090565b604051806101e00160405280600f90602082028036833780820191505090505090565b5b8082111561423757600081600090555060010161421f565b5090565b600061424e6142498461546e565b615449565b90508281526020810184848401111561426657600080fd5b61427184828561570c565b509392505050565b600061428c6142878461549f565b615449565b9050828152602081018484840111156142a457600080fd5b6142af84828561570c565b509392505050565b6000813590506142c681615f2a565b92915050565b6000813590506142db81615f41565b92915050565b6000815190506142f081615f41565b92915050565b60008135905061430581615f58565b92915050565b60008135905061431a81615f6f565b92915050565b60008151905061432f81615f6f565b92915050565b60008083601f84011261434757600080fd5b8235905067ffffffffffffffff81111561436057600080fd5b60208301915083600182028301111561437857600080fd5b9250929050565b600082601f83011261439057600080fd5b81356143a084826020860161423b565b91505092915050565b600082601f8301126143ba57600080fd5b81356143ca848260208601614279565b91505092915050565b6000813590506143e281615f86565b92915050565b6000815190506143f781615f86565b92915050565b60006020828403121561440f57600080fd5b600061441d848285016142b7565b91505092915050565b6000806040838503121561443957600080fd5b6000614447858286016142b7565b9250506020614458858286016142b7565b9150509250929050565b60008060006060848603121561447757600080fd5b6000614485868287016142b7565b9350506020614496868287016142b7565b92505060406144a7868287016143d3565b9150509250925092565b600080600080608085870312156144c757600080fd5b60006144d5878288016142b7565b94505060206144e6878288016142b7565b93505060406144f7878288016143d3565b925050606085013567ffffffffffffffff81111561451457600080fd5b6145208782880161437f565b91505092959194509250565b6000806040838503121561453f57600080fd5b600061454d858286016142b7565b925050602061455e858286016142cc565b9150509250929050565b6000806040838503121561457b57600080fd5b6000614589858286016142b7565b925050602061459a858286016143d3565b9150509250929050565b6000602082840312156145b657600080fd5b60006145c4848285016142e1565b91505092915050565b6000602082840312156145df57600080fd5b60006145ed848285016142f6565b91505092915050565b6000806040838503121561460957600080fd5b6000614617858286016142f6565b9250506020614628858286016143d3565b9150509250929050565b60006020828403121561464457600080fd5b60006146528482850161430b565b91505092915050565b60006020828403121561466d57600080fd5b600061467b84828501614320565b91505092915050565b6000806020838503121561469757600080fd5b600083013567ffffffffffffffff8111156146b157600080fd5b6146bd85828601614335565b92509250509250929050565b600080600080600060a086880312156146e157600080fd5b600086013567ffffffffffffffff8111156146fb57600080fd5b614707888289016143a9565b9550506020614718888289016143d3565b9450506040614729888289016143d3565b935050606061473a888289016143d3565b925050608061474b888289016143d3565b9150509295509295909350565b60006020828403121561476a57600080fd5b6000614778848285016143d3565b91505092915050565b60006020828403121561479357600080fd5b60006147a1848285016143e8565b91505092915050565b60006147b68383614d9e565b60208301905092915050565b6147cb8161568e565b82525050565b6147da816154ea565b6147e48184615530565b92506147ef826154d0565b8060005b8381101561482057815161480787826147aa565b965061481283615516565b9250506001810190506147f3565b505050505050565b6000614833826154f5565b61483d818561553b565b9350614848836154da565b8060005b8381101561487957815161486088826147aa565b975061486b83615523565b92505060018101905061484c565b5085935050505092915050565b61488f816156a0565b82525050565b61489e816156ac565b82525050565b6148b56148b0826156ac565b6157fa565b82525050565b60006148c682615500565b6148d0818561554c565b93506148e081856020860161571b565b6148e9816158fb565b840191505092915050565b60006148ff8261550b565b614909818561555d565b935061491981856020860161571b565b614922816158fb565b840191505092915050565b60006149388261550b565b614942818561556e565b935061495281856020860161571b565b80840191505092915050565b600061496b600a8361555d565b91506149768261590c565b602082019050919050565b600061498e60328361555d565b915061499982615935565b604082019050919050565b60006149b1601c8361555d565b91506149bc82615984565b602082019050919050565b60006149d4600b8361555d565b91506149df826159ad565b602082019050919050565b60006149f760248361555d565b9150614a02826159d6565b604082019050919050565b6000614a1a60198361555d565b9150614a2582615a25565b602082019050919050565b6000614a3d60098361555d565b9150614a4882615a4e565b602082019050919050565b6000614a60602c8361555d565b9150614a6b82615a77565b604082019050919050565b6000614a83600a8361555d565b9150614a8e82615ac6565b602082019050919050565b6000614aa6600f8361555d565b9150614ab182615aef565b602082019050919050565b6000614ac960388361555d565b9150614ad482615b18565b604082019050919050565b6000614aec602a8361555d565b9150614af782615b67565b604082019050919050565b6000614b0f60298361555d565b9150614b1a82615bb6565b604082019050919050565b6000614b32600d8361555d565b9150614b3d82615c05565b602082019050919050565b6000614b5560208361555d565b9150614b6082615c2e565b602082019050919050565b6000614b78602c8361555d565b9150614b8382615c57565b604082019050919050565b6000614b9b600f8361555d565b9150614ba682615ca6565b602082019050919050565b6000614bbe60298361555d565b9150614bc982615ccf565b604082019050919050565b6000614be1600b8361555d565b9150614bec82615d1e565b602082019050919050565b6000614c04602f8361555d565b9150614c0f82615d47565b604082019050919050565b6000614c27601f8361555d565b9150614c3282615d96565b602082019050919050565b6000614c4a60218361555d565b9150614c5582615dbf565b604082019050919050565b6000614c6d60088361555d565b9150614c7882615e0e565b602082019050919050565b6000614c9060028361555d565b9150614c9b82615e37565b602082019050919050565b6000614cb360318361555d565b9150614cbe82615e60565b604082019050919050565b6000614cd6600c8361555d565b9150614ce182615eaf565b602082019050919050565b6000614cf960108361555d565b9150614d0482615ed8565b602082019050919050565b6000614d1c600b8361555d565b9150614d2782615f01565b602082019050919050565b61032082016000820151614d4960008501826147d1565b506020820151614d5c60a08501826147d1565b506040820151614d706101408501826147d1565b506060820151614d846101e08501826147d1565b506080820151614d986102808501826147d1565b50505050565b614da781615702565b82525050565b614db681615702565b82525050565b614dcd614dc882615702565b615804565b82525050565b6000614ddf82856148a4565b602082019150614def8284614dbc565b6020820191508190509392505050565b6000614e0b828561492d565b9150614e17828461492d565b91508190509392505050565b6000602082019050614e3860008301846147c2565b92915050565b6000604082019050614e5360008301856147c2565b614e6060208301846147c2565b9392505050565b6000606082019050614e7c60008301866147c2565b614e8960208301856147c2565b614e966040830184614dad565b949350505050565b6000608082019050614eb360008301876147c2565b614ec060208301866147c2565b614ecd6040830185614dad565b8181036060830152614edf81846148bb565b905095945050505050565b6000604082019050614eff60008301856147c2565b614f0c6020830184614dad565b9392505050565b6000606082019050614f2860008301866147c2565b614f356020830185614dad565b8181036040830152614f4781846148bb565b9050949350505050565b60006020820190508181036000830152614f6b8184614828565b905092915050565b6000602082019050614f886000830184614886565b92915050565b6000604082019050614fa36000830185614886565b8181036020830152614fb581846148bb565b90509392505050565b6000602082019050614fd36000830184614895565b92915050565b6000604082019050614fee6000830185614895565b614ffb6020830184614dad565b9392505050565b60006080820190506150176000830187614895565b6150246020830186614dad565b61503160408301856147c2565b61503e6060830184614dad565b95945050505050565b6000602082019050818103600083015261506181846148f4565b905092915050565b600060208201905081810360008301526150828161495e565b9050919050565b600060208201905081810360008301526150a281614981565b9050919050565b600060208201905081810360008301526150c2816149a4565b9050919050565b600060208201905081810360008301526150e2816149c7565b9050919050565b60006020820190508181036000830152615102816149ea565b9050919050565b6000602082019050818103600083015261512281614a0d565b9050919050565b6000602082019050818103600083015261514281614a30565b9050919050565b6000602082019050818103600083015261516281614a53565b9050919050565b6000602082019050818103600083015261518281614a76565b9050919050565b600060208201905081810360008301526151a281614a99565b9050919050565b600060208201905081810360008301526151c281614abc565b9050919050565b600060208201905081810360008301526151e281614adf565b9050919050565b6000602082019050818103600083015261520281614b02565b9050919050565b6000602082019050818103600083015261522281614b25565b9050919050565b6000602082019050818103600083015261524281614b48565b9050919050565b6000602082019050818103600083015261526281614b6b565b9050919050565b6000602082019050818103600083015261528281614b8e565b9050919050565b600060208201905081810360008301526152a281614bb1565b9050919050565b600060208201905081810360008301526152c281614bd4565b9050919050565b600060208201905081810360008301526152e281614bf7565b9050919050565b6000602082019050818103600083015261530281614c1a565b9050919050565b6000602082019050818103600083015261532281614c3d565b9050919050565b6000602082019050818103600083015261534281614c60565b9050919050565b6000602082019050818103600083015261536281614c83565b9050919050565b6000602082019050818103600083015261538281614ca6565b9050919050565b600060208201905081810360008301526153a281614cc9565b9050919050565b600060208201905081810360008301526153c281614cec565b9050919050565b600060208201905081810360008301526153e281614d0f565b9050919050565b6000610320820190506153ff6000830184614d32565b92915050565b600060208201905061541a6000830184614dad565b92915050565b60006040820190506154356000830185614dad565b6154426020830184614dad565b9392505050565b6000615453615464565b905061545f8282615780565b919050565b6000604051905090565b600067ffffffffffffffff821115615489576154886158cc565b5b615492826158fb565b9050602081019050919050565b600067ffffffffffffffff8211156154ba576154b96158cc565b5b6154c3826158fb565b9050602081019050919050565b6000819050919050565b6000819050602082019050919050565b600060059050919050565b600081519050919050565b600081519050919050565b600081519050919050565b6000602082019050919050565b6000602082019050919050565b600081905092915050565b600082825260208201905092915050565b600082825260208201905092915050565b600082825260208201905092915050565b600081905092915050565b600061558482615702565b915061558f83615702565b9250827fffffffffffffffffffffffffffffffffffffffffffffffffffffffffffffffff038211156155c4576155c361583f565b5b828201905092915050565b60006155da82615702565b91506155e583615702565b9250826155f5576155f461586e565b5b828204905092915050565b600061560b82615702565b915061561683615702565b9250817fffffffffffffffffffffffffffffffffffffffffffffffffffffffffffffffff048311821515161561564f5761564e61583f565b5b828202905092915050565b600061566582615702565b915061567083615702565b9250828210156156835761568261583f565b5b828203905092915050565b6000615699826156e2565b9050919050565b60008115159050919050565b6000819050919050565b60007fffffffff0000000000000000000000000000000000000000000000000000000082169050919050565b600073ffffffffffffffffffffffffffffffffffffffff82169050919050565b6000819050919050565b82818337600083830152505050565b60005b8381101561573957808201518184015260208101905061571e565b83811115615748576000848401525b50505050565b6000600282049050600182168061576657607f821691505b6020821081141561577a5761577961589d565b5b50919050565b615789826158fb565b810181811067ffffffffffffffff821117156157a8576157a76158cc565b5b80604052505050565b60006157bc82615702565b91507fffffffffffffffffffffffffffffffffffffffffffffffffffffffffffffffff8214156157ef576157ee61583f565b5b600182019050919050565b6000819050919050565b6000819050919050565b600061581982615702565b915061582483615702565b9250826158345761583361586e565b5b828206905092915050565b7f4e487b7100000000000000000000000000000000000000000000000000000000600052601160045260246000fd5b7f4e487b7100000000000000000000000000000000000000000000000000000000600052601260045260246000fd5b7f4e487b7100000000000000000000000000000000000000000000000000000000600052602260045260246000fd5b7f4e487b7100000000000000000000000000000000000000000000000000000000600052604160045260246000fd5b6000601f19601f8301169050919050565b7f4e6f742057696e6e657200000000000000000000000000000000000000000000600082015250565b7f4552433732313a207472616e7366657220746f206e6f6e20455243373231526560008201527f63656976657220696d706c656d656e7465720000000000000000000000000000602082015250565b7f4552433732313a20746f6b656e20616c7265616479206d696e74656400000000600082015250565b7f4e6f742063757272656e74000000000000000000000000000000000000000000600082015250565b7f4552433732313a207472616e7366657220746f20746865207a65726f2061646460008201527f7265737300000000000000000000000000000000000000000000000000000000602082015250565b7f4552433732313a20617070726f766520746f2063616c6c657200000000000000600082015250565b7f4e6f74204f776e65720000000000000000000000000000000000000000000000600082015250565b7f4552433732313a206f70657261746f7220717565727920666f72206e6f6e657860008201527f697374656e7420746f6b656e0000000000000000000000000000000000000000602082015250565b7f4e6f2042616c616e636500000000000000000000000000000000000000000000600082015250565b7f4e6f7420656e6f756768204c494e4b0000000000000000000000000000000000600082015250565b7f4552433732313a20617070726f76652063616c6c6572206973206e6f74206f7760008201527f6e6572206e6f7220617070726f76656420666f7220616c6c0000000000000000602082015250565b7f4552433732313a2062616c616e636520717565727920666f7220746865207a6560008201527f726f206164647265737300000000000000000000000000000000000000000000602082015250565b7f4552433732313a206f776e657220717565727920666f72206e6f6e657869737460008201527f656e7420746f6b656e0000000000000000000000000000000000000000000000602082015250565b7f4e6f205065726d697373696f6e00000000000000000000000000000000000000600082015250565b7f4552433732313a206d696e7420746f20746865207a65726f2061646472657373600082015250565b7f4552433732313a20617070726f76656420717565727920666f72206e6f6e657860008201527f697374656e7420746f6b656e0000000000000000000000000000000000000000602082015250565b7f496e76616c696420526571756573740000000000000000000000000000000000600082015250565b7f4552433732313a207472616e73666572206f6620746f6b656e2074686174206960008201527f73206e6f74206f776e0000000000000000000000000000000000000000000000602082015250565b7f57726f6e67207072696365000000000000000000000000000000000000000000600082015250565b7f4552433732314d657461646174613a2055524920717565727920666f72206e6f60008201527f6e6578697374656e7420746f6b656e0000000000000000000000000000000000602082015250565b7f4f6e6c7920565246436f6f7264696e61746f722063616e2066756c66696c6c00600082015250565b7f4552433732313a20617070726f76616c20746f2063757272656e74206f776e6560008201527f7200000000000000000000000000000000000000000000000000000000000000602082015250565b7f4d696e2054696d65000000000000000000000000000000000000000000000000600082015250565b7f4e41000000000000000000000000000000000000000000000000000000000000600082015250565b7f4552433732313a207472616e736665722063616c6c6572206973206e6f74206f60008201527f776e6572206e6f7220617070726f766564000000000000000000000000000000602082015250565b7f457863656564732047616d650000000000000000000000000000000000000000600082015250565b7f4578636565647320507572636861736500000000000000000000000000000000600082015250565b7f4d696e20506c6179657273000000000000000000000000000000000000000000600082015250565b615f338161568e565b8114615f3e57600080fd5b50565b615f4a816156a0565b8114615f5557600080fd5b50565b615f61816156ac565b8114615f6c57600080fd5b50565b615f78816156b6565b8114615f8357600080fd5b50565b615f8f81615702565b8114615f9a57600080fd5b5056fea2646970667358221220d2dfd32d1ed23b0d4bd8f7ca949b451dd22cf5e561f991c02a5ead35109adfb264736f6c63430008040033",
  "immutableReferences": {
    "1530": [
      {
        "length": 32,
        "start": 12230
      },
      {
        "length": 32,
        "start": 12557
      },
      {
        "length": 32,
        "start": 14141
      }
    ],
    "1532": [
      {
        "length": 32,
        "start": 7310
      },
      {
        "length": 32,
        "start": 14201
      }
    ]
  },
  "source": "//                                  ___           ___           ___\n//       _____        ___          /__/\\         /  /\\         /  /\\\n//      /  /::\\      /  /\\         \\  \\:\\       /  /:/_       /  /::\\\n//     /  /:/\\:\\    /  /:/          \\  \\:\\     /  /:/ /\\     /  /:/\\:\\\n//    /  /:/~/::\\  /__/::\\      _____\\__\\:\\   /  /:/_/::\\   /  /:/  \\:\\\n//   /__/:/ /:/\\:| \\__\\/\\:\\__  /__/::::::::\\ /__/:/__\\/\\:\\ /__/:/ \\__\\:\\\n//   \\  \\:\\/:/~/:/    \\  \\:\\/\\ \\  \\:\\~~\\~~\\/ \\  \\:\\ /~~/:/ \\  \\:\\ /  /:/\n//    \\  \\::/ /:/      \\__\\::/  \\  \\:\\  ~~~   \\  \\:\\  /:/   \\  \\:\\  /:/\n//     \\  \\:\\/:/       /__/:/    \\  \\:\\        \\  \\:\\/:/     \\  \\:\\/:/\n//      \\  \\::/        \\__\\/      \\  \\:\\        \\  \\::/       \\  \\::/\n//       \\__\\/                     \\__\\/         \\__\\/         \\__\\/\n//\n// SPDX-License-Identifier: MIT\npragma solidity >=0.8.0 <0.9.0;\nimport '@openzeppelin/contracts/token/ERC721/ERC721.sol';\nimport \"@openzeppelin/contracts/utils/Counters.sol\";\nimport '@openzeppelin/contracts/token/ERC20/IERC20.sol';\nimport '@openzeppelin/contracts/utils/math/SafeMath.sol';\nimport \"@chainlink/contracts/src/v0.8/VRFConsumerBase.sol\";\nimport \"@chainlink/contracts/src/v0.8/interfaces/KeeperCompatibleInterface.sol\";\n\nlibrary BingoGenerate {\n    using SafeMath for uint256;\n\n    // Card\n    struct Card {\n        uint256[5] B;\n        uint256[5] I;\n        uint256[5] N;\n        uint256[5] G;\n        uint256[5] O;\n    }\n\n    // Settings\n    uint256 constant maxCount = 15;\n\n    function generateBingoCard(uint256 randomness) internal pure returns (Card memory card) {\n        if(randomness == 0) {\n            return card;\n        }\n        uint256[5] memory col;\n        uint256 i;\n\n        for(uint256 k=0; k<5; k++) {\n            col = generateColumn(uint256(keccak256(abi.encode(randomness, k))));\n            for(i=0;i<5;i++) {\n                if(k==2 && i==2) {\n                    col[i] = 99;\n                } else {\n                    col[i] = col[i] + (k*maxCount);\n                }\n            }\n\n            // Not sure how to do this better :)\n            if(k == 0) {\n                card.B = col;\n            } else if(k == 1) {\n                card.I = col;\n            } else if(k == 2) {\n                card.N = col;\n            } else if(k == 3) {\n                card.G = col;\n            } else if(k == 4) {\n                card.O = col;\n            }\n        }\n\n        return card;\n    }\n\n    function generateColumn(uint256 randomness) internal pure returns(uint256[5] memory col) {\n        uint256[15] memory possible;\n        for(uint256 i=0; i<15; i++) {\n            possible[i] = i+1;\n        }\n        uint256 idx;\n        for(uint256 k=0; k<5; k++) {\n            idx = uint256(keccak256(abi.encode(randomness, k))).mod(maxCount-(1+k));\n            col[k] = possible[idx];\n            if(idx != 15 - (1+k)) {\n                possible[idx] = possible[15 - (1+k)];\n            }\n        }\n        return col;\n    }\n}\n\n// Welcome to BINGO\ncontract Bingo is ERC721, VRFConsumerBase, KeeperCompatibleInterface {\n    using SafeMath for uint256;\n    using Counters for Counters.Counter;\n    Counters.Counter private _tokenIds;\n    Counters.Counter public gameId;\n\n    // Settings\n    string public baseUri;\n    uint256 public minCardsPerGame = 1;     // 10\n    uint256 public maxCardsPerGame = 1000;\n    uint256 public maxCardPurchase = 10;\n    uint256 public pricePerCard = 10000000000000000; // 0.01 ETH\n    uint256 public ballDrawTime = 60;   // 86400\n    uint256 public weedPerCard = 4000 * 1e18; // 4000 Weed\n    address weedContract;\n    address owner;\n\n    // Game\n    uint256 public lastBallTime;\n    bytes32 public ballRequest;\n    uint256 public prizePool;\n\n    // Random\n    bytes32 internal keyHash;\n    uint256 internal fee;\n\n    // Mappings\n    mapping (bytes32 => uint256) public cardRequests;\n    mapping (uint256 => uint256) public cardRandomness;\n    mapping (uint256 => uint256) public gameFloors;\n    mapping (uint256 => bool) public Balls;\n\n    event BallPicked(uint256 game, uint256 choice);\n    event BingoWinner(address winner, uint256 tokenId);\n\n    modifier onlyOwner {\n        require(msg.sender == owner);\n        _;\n    }\n\n    constructor(address _weedContract)\n    ERC721(\"Bingo\", \"BINGO\")\n    VRFConsumerBase(\n        0xdD3782915140c8f3b190B5D67eAc6dc5760C46E9, // VRF Coordinator - Kovan\n        0xa36085F69e2889c224210F603D836748e7dC0088  // LINK Token - Kovan\n    )\n    {\n        owner = msg.sender;\n        weedContract = _weedContract;\n        keyHash = 0x6c3699283bda56ad74f6b855546325b68d482e983852a7a82979cc4807b641f4;\n        fee = 0.1 * 10 ** 18; // 0.1 LINK (Varies by network)\n\n        // Automatically start the first game\n        gameId.increment();\n        lastBallTime = block.timestamp;\n        gameFloors[gameId.current()] = _tokenIds.current();\n    }\n\n    /*\n    *   Purchase.\n    */\n    function mintCardEth(uint256 amount) public payable {\n        require(amount <= maxCardPurchase, \"Exceeds Purchase\");\n        require((_tokenIds.current().add(amount) - gameFloors[gameId.current()]) <= maxCardsPerGame, \"Exceeds Game\");\n        require(pricePerCard.mul(amount) <= msg.value, \"Wrong price\");\n        for(uint256 i=0; i<amount; i++) {\n            _tokenIds.increment();\n            _safeMint(msg.sender, _tokenIds.current());\n            requestRandomCard(_tokenIds.current());\n        }\n        prizePool += msg.value / 2;\n    }\n\n    function mintCardWeed(uint256 amount) public payable {\n        require(amount <= maxCardPurchase, \"Exceeds Purchase\");\n        require((_tokenIds.current().add(amount) - gameFloors[gameId.current()]) <= maxCardsPerGame, \"Exceeds Game\");\n        require(IERC20(weedContract).balanceOf(msg.sender) >= weedPerCard * amount, \"No Balance\");\n        require(IERC20(weedContract).allowance(msg.sender, address(this)) >= weedPerCard * amount, \"No Permission\");\n        IERC20(weedContract).transferFrom(msg.sender, address(this), weedPerCard * amount);\n        for(uint256 i=0; i<amount; i++) {\n            _tokenIds.increment();\n            _safeMint(msg.sender, _tokenIds.current());\n            requestRandomCard(_tokenIds.current());\n        }\n    }\n\n    /*\n    *   Randomness.\n    */\n\n    function checkUpkeep(bytes calldata checkData) external view override returns (bool upkeepNeeded, bytes memory performData) {\n        upkeepNeeded = (_tokenIds.current() - gameFloors[gameId.current()] >= minCardsPerGame) && (block.timestamp > lastBallTime+ballDrawTime);\n        performData = checkData;\n    }\n\n    function performUpkeep(bytes calldata performData) external override {\n        require(block.timestamp > lastBallTime+ballDrawTime, \"Min Time\");\n        require((_tokenIds.current() - gameFloors[gameId.current()]) >= minCardsPerGame, \"Min Players\");\n\n        lastBallTime = block.timestamp;\n        requestRandomBall();\n        performData;\n    }\n\n    function requestRandomCard(uint256 cardId) internal {\n        require(LINK.balanceOf(address(this)) >= fee, \"Not enough LINK\");\n        bytes32 requestId = requestRandomness(keyHash, fee);\n        cardRequests[requestId] = cardId;\n    }\n\n    function requestRandomBall() internal {\n        require(LINK.balanceOf(address(this)) >= fee, \"Not enough LINK\");\n        ballRequest = requestRandomness(keyHash, fee);\n    }\n\n    function fulfillRandomness(bytes32 requestId, uint256 randomness) internal override {\n        if(requestId == ballRequest) {\n            fulfillRandomBall(requestId, randomness);\n        } else {\n            fulfillRandomCard(requestId, randomness);\n        }\n    }\n\n    function fulfillRandomCard(bytes32 requestId, uint256 randomness) internal {\n        require(cardRequests[requestId] > 0, \"NA\");\n        uint256 cardId = cardRequests[requestId];\n        cardRandomness[cardId] = randomness;\n        cardRequests[requestId] = 0;\n    }\n\n    function fulfillRandomBall(bytes32 requestId, uint256 randomness) internal {\n        require(requestId == ballRequest, \"Invalid Request\");\n        uint256 choice;\n        bool found;\n        uint256 idx = 1;\n        while(found == false) {\n            choice = randomness.add(idx).mod(BingoGenerate.maxCount*5).add(1);\n            if(Balls[choice] == false) {\n                Balls[choice] = true;\n                found = true;\n            } else {\n                idx++;\n            }\n        }\n        emit BallPicked(gameId.current(), choice);\n    }\n\n    /*\n    *   Claim.\n    */\n\n    function validateWinner(uint256 cardId) public view returns (bool found) {\n        BingoGenerate.Card memory card = BingoGenerate.generateBingoCard(cardRandomness[cardId]);\n        uint256[5][12] memory lines;\n        uint256 i;\n        for(i=0; i<5; i++) {\n            lines[i] = [card.B[i], card.I[i], card.N[i], card.G[i], card.O[i]];\n        }\n        lines[5] = uint256[5](card.B);\n        lines[6] = card.I;\n        lines[7] = card.N;\n        lines[8] = card.G;\n        lines[9] = card.O;\n        lines[10] = [card.B[0], card.I[1], card.N[2], card.G[3], card.O[4]];\n        lines[11] = [card.B[4], card.I[3], card.N[2], card.G[1], card.O[0]];\n\n        found = false;\n        uint256 k;\n        uint256 matches;\n        for(i=0; i<12; i++) {\n            matches=0;\n            for(k=0; k<5; k++) {\n                if(Balls[lines[i][k]] || lines[i][k] == 99) {\n                    matches++;\n                }\n            }\n            if(matches == 5) {\n                found = true;\n            }\n        }\n    }\n\n    function claimBingo(uint256 cardId) public payable {\n        require(ownerOf(cardId) == msg.sender, \"Not Owner\");\n        require(validateWinner(cardId), \"Not Winner\");\n        require(cardId > gameFloors[gameId.current()], \"Not current\");\n\n        payable(msg.sender).transfer(prizePool);\n        emit BingoWinner(msg.sender, cardId);\n\n        // Reset game\n        prizePool = 0;\n        gameId.increment();\n        lastBallTime = block.timestamp;\n        gameFloors[gameId.current()] = _tokenIds.current();\n        for(uint256 i=1; i<76; i++) {\n            if(Balls[i]) {\n                Balls[i] = false;\n            }\n        }\n    }\n\n    /*\n    *   Getters.\n    */\n\n    function generateCard(uint256 cardId) public view returns (BingoGenerate.Card memory) {\n        return BingoGenerate.generateBingoCard(cardRandomness[cardId]);\n    }\n\n    function getCurrentGame() public view returns (uint256) {\n        return gameId.current();\n    }\n\n    function getCurrentToken() public view returns (uint256) {\n        return _tokenIds.current();\n    }\n\n    function getCardsByOwner(address _owner) view public returns(uint256[] memory) {\n        uint256 tokenCount = balanceOf(_owner);\n        if (tokenCount == 0) {\n            return new uint256[](0);\n        } else {\n            uint256[] memory result = new uint256[](tokenCount);\n            uint256 totalTokens = _tokenIds.current();\n            uint256 resultIndex = 0;\n            for (uint256 t = 1; t <= totalTokens; t++) {\n                if (_exists(t) && ownerOf(t) == _owner) {\n                    result[resultIndex] = t;\n                    resultIndex++;\n                }\n            }\n            return result;\n        }\n    }\n\n    function exists(uint256 tokenId) public view returns(bool) {\n        return _exists(tokenId);\n    }\n\n    function _baseURI() internal view override returns (string memory) {\n        return baseUri;\n    }\n\n    /*\n    *   Setters.\n    */\n\n    function contractSettings(string memory _baseUri, uint256 _ballDrawTime, uint256 _minCardsPerGame, uint256 _maxCardsPerGame, uint256 _pricePerCard) public onlyOwner {\n        baseUri = _baseUri;\n        ballDrawTime = _ballDrawTime;\n        minCardsPerGame = _minCardsPerGame;\n        maxCardsPerGame = _maxCardsPerGame;\n        pricePerCard = _pricePerCard;\n    }\n\n    /*\n    *   Money management.\n    */\n    function withdraw() public payable onlyOwner {\n        uint256 _each = address(this).balance.sub(prizePool).div(3);\n        require(payable(0x00796e910Bd0228ddF4cd79e3f353871a61C351C).send(_each));   // sara\n        require(payable(0x7fc55376D5A29e0Ee86C18C81bb2fC8F9f490E50).send(_each));   // shaun\n        require(payable(0xB58Fb5372e9Aa0C86c3B281179c05Af3bB7a181b).send(_each));   // mark\n    }\n}\n",
  "sourcePath": "/Users/Shared/Code/experimental/bingo/bingo-contracts/contracts/Bingo.sol",
  "compiler": {
    "name": "solc",
    "version": "0.8.4+commit.c7e474f2.Emscripten.clang"
  },
  "schemaVersion": "3.4.1",
  "updatedAt": "2021-08-11T13:34:45.433Z",
  "networkType": "ethereum",
  "devdoc": {
    "kind": "dev",
    "methods": {
      "approve(address,uint256)": {
        "details": "See {IERC721-approve}."
      },
      "balanceOf(address)": {
        "details": "See {IERC721-balanceOf}."
      },
      "checkUpkeep(bytes)": {
        "params": {
          "checkData": "data passed to the contract when checking for upkeep."
        },
        "returns": {
          "performData": "bytes that the keeper should call performUpkeep with, if upkeep is needed.",
          "upkeepNeeded": "boolean to indicate whether the keeper should call performUpkeep or not."
        }
      },
      "getApproved(uint256)": {
        "details": "See {IERC721-getApproved}."
      },
      "isApprovedForAll(address,address)": {
        "details": "See {IERC721-isApprovedForAll}."
      },
      "name()": {
        "details": "See {IERC721Metadata-name}."
      },
      "ownerOf(uint256)": {
        "details": "See {IERC721-ownerOf}."
      },
      "performUpkeep(bytes)": {
        "params": {
          "performData": "is the data which was passed back from the checkData simulation."
        }
      },
      "safeTransferFrom(address,address,uint256)": {
        "details": "See {IERC721-safeTransferFrom}."
      },
      "safeTransferFrom(address,address,uint256,bytes)": {
        "details": "See {IERC721-safeTransferFrom}."
      },
      "setApprovalForAll(address,bool)": {
        "details": "See {IERC721-setApprovalForAll}."
      },
      "supportsInterface(bytes4)": {
        "details": "See {IERC165-supportsInterface}."
      },
      "symbol()": {
        "details": "See {IERC721Metadata-symbol}."
      },
      "tokenURI(uint256)": {
        "details": "See {IERC721Metadata-tokenURI}."
      },
      "transferFrom(address,address,uint256)": {
        "details": "See {IERC721-transferFrom}."
      }
    },
    "version": 1
  },
  "userdoc": {
    "kind": "user",
    "methods": {
      "checkUpkeep(bytes)": {
        "notice": "checks if the contract requires work to be done."
      },
      "performUpkeep(bytes)": {
        "notice": "Performs work on the contract. Executed by the keepers, via the registry."
      }
    },
    "version": 1
  }
}