{
  "contractName": "Bingo",
  "abi": [
    {
      "inputs": [
        {
          "internalType": "address",
          "name": "_weedContract",
          "type": "address"
        }
      ],
      "stateMutability": "nonpayable",
      "type": "constructor"
    },
    {
      "anonymous": false,
      "inputs": [
        {
          "indexed": true,
          "internalType": "address",
          "name": "owner",
          "type": "address"
        },
        {
          "indexed": true,
          "internalType": "address",
          "name": "approved",
          "type": "address"
        },
        {
          "indexed": true,
          "internalType": "uint256",
          "name": "tokenId",
          "type": "uint256"
        }
      ],
      "name": "Approval",
      "type": "event"
    },
    {
      "anonymous": false,
      "inputs": [
        {
          "indexed": true,
          "internalType": "address",
          "name": "owner",
          "type": "address"
        },
        {
          "indexed": true,
          "internalType": "address",
          "name": "operator",
          "type": "address"
        },
        {
          "indexed": false,
          "internalType": "bool",
          "name": "approved",
          "type": "bool"
        }
      ],
      "name": "ApprovalForAll",
      "type": "event"
    },
    {
      "anonymous": false,
      "inputs": [
        {
          "indexed": false,
          "internalType": "uint256",
          "name": "game",
          "type": "uint256"
        },
        {
          "indexed": false,
          "internalType": "uint256",
          "name": "ball",
          "type": "uint256"
        }
      ],
      "name": "BallPicked",
      "type": "event"
    },
    {
      "anonymous": false,
      "inputs": [
        {
          "indexed": false,
          "internalType": "uint256",
          "name": "game",
          "type": "uint256"
        },
        {
          "indexed": false,
          "internalType": "address",
          "name": "owner",
          "type": "address"
        },
        {
          "indexed": false,
          "internalType": "uint256",
          "name": "tokenId",
          "type": "uint256"
        }
      ],
      "name": "BingoWinner",
      "type": "event"
    },
    {
      "anonymous": false,
      "inputs": [
        {
          "indexed": false,
          "internalType": "uint256",
          "name": "game",
          "type": "uint256"
        },
        {
          "indexed": false,
          "internalType": "address",
          "name": "owner",
          "type": "address"
        },
        {
          "indexed": false,
          "internalType": "uint256",
          "name": "tokenId",
          "type": "uint256"
        }
      ],
      "name": "CardGenerated",
      "type": "event"
    },
    {
      "anonymous": false,
      "inputs": [
        {
          "indexed": true,
          "internalType": "address",
          "name": "from",
          "type": "address"
        },
        {
          "indexed": true,
          "internalType": "address",
          "name": "to",
          "type": "address"
        },
        {
          "indexed": true,
          "internalType": "uint256",
          "name": "tokenId",
          "type": "uint256"
        }
      ],
      "name": "Transfer",
      "type": "event"
    },
    {
      "inputs": [
        {
          "internalType": "address",
          "name": "to",
          "type": "address"
        },
        {
          "internalType": "uint256",
          "name": "tokenId",
          "type": "uint256"
        }
      ],
      "name": "approve",
      "outputs": [],
      "stateMutability": "nonpayable",
      "type": "function"
    },
    {
      "inputs": [
        {
          "internalType": "address",
          "name": "owner",
          "type": "address"
        }
      ],
      "name": "balanceOf",
      "outputs": [
        {
          "internalType": "uint256",
          "name": "",
          "type": "uint256"
        }
      ],
      "stateMutability": "view",
      "type": "function",
      "constant": true
    },
    {
      "inputs": [],
      "name": "ballDrawTime",
      "outputs": [
        {
          "internalType": "uint256",
          "name": "",
          "type": "uint256"
        }
      ],
      "stateMutability": "view",
      "type": "function",
      "constant": true
    },
    {
      "inputs": [],
      "name": "ballRequest",
      "outputs": [
        {
          "internalType": "bytes32",
          "name": "",
          "type": "bytes32"
        }
      ],
      "stateMutability": "view",
      "type": "function",
      "constant": true
    },
    {
      "inputs": [],
      "name": "gameFloor",
      "outputs": [
        {
          "internalType": "uint256",
          "name": "",
          "type": "uint256"
        }
      ],
      "stateMutability": "view",
      "type": "function",
      "constant": true
    },
    {
      "inputs": [
        {
          "internalType": "uint256",
          "name": "tokenId",
          "type": "uint256"
        }
      ],
      "name": "getApproved",
      "outputs": [
        {
          "internalType": "address",
          "name": "",
          "type": "address"
        }
      ],
      "stateMutability": "view",
      "type": "function",
      "constant": true
    },
    {
      "inputs": [
        {
          "internalType": "address",
          "name": "owner",
          "type": "address"
        },
        {
          "internalType": "address",
          "name": "operator",
          "type": "address"
        }
      ],
      "name": "isApprovedForAll",
      "outputs": [
        {
          "internalType": "bool",
          "name": "",
          "type": "bool"
        }
      ],
      "stateMutability": "view",
      "type": "function",
      "constant": true
    },
    {
      "inputs": [],
      "name": "lastBallTime",
      "outputs": [
        {
          "internalType": "uint256",
          "name": "",
          "type": "uint256"
        }
      ],
      "stateMutability": "view",
      "type": "function",
      "constant": true
    },
    {
      "inputs": [],
      "name": "maxCards",
      "outputs": [
        {
          "internalType": "uint256",
          "name": "",
          "type": "uint256"
        }
      ],
      "stateMutability": "view",
      "type": "function",
      "constant": true
    },
    {
      "inputs": [],
      "name": "minCards",
      "outputs": [
        {
          "internalType": "uint256",
          "name": "",
          "type": "uint256"
        }
      ],
      "stateMutability": "view",
      "type": "function",
      "constant": true
    },
    {
      "inputs": [],
      "name": "name",
      "outputs": [
        {
          "internalType": "string",
          "name": "",
          "type": "string"
        }
      ],
      "stateMutability": "view",
      "type": "function",
      "constant": true
    },
    {
      "inputs": [],
      "name": "outOfBalls",
      "outputs": [
        {
          "internalType": "bool",
          "name": "",
          "type": "bool"
        }
      ],
      "stateMutability": "view",
      "type": "function",
      "constant": true
    },
    {
      "inputs": [
        {
          "internalType": "uint256",
          "name": "tokenId",
          "type": "uint256"
        }
      ],
      "name": "ownerOf",
      "outputs": [
        {
          "internalType": "address",
          "name": "",
          "type": "address"
        }
      ],
      "stateMutability": "view",
      "type": "function",
      "constant": true
    },
    {
      "inputs": [],
      "name": "pattern",
      "outputs": [
        {
          "internalType": "uint256",
          "name": "",
          "type": "uint256"
        }
      ],
      "stateMutability": "view",
      "type": "function",
      "constant": true
    },
    {
      "inputs": [],
      "name": "pricePerCard",
      "outputs": [
        {
          "internalType": "uint256",
          "name": "",
          "type": "uint256"
        }
      ],
      "stateMutability": "view",
      "type": "function",
      "constant": true
    },
    {
      "inputs": [],
      "name": "prizePool",
      "outputs": [
        {
          "internalType": "uint256",
          "name": "",
          "type": "uint256"
        }
      ],
      "stateMutability": "view",
      "type": "function",
      "constant": true
    },
    {
      "inputs": [],
      "name": "prizeSplit",
      "outputs": [
        {
          "internalType": "uint256",
          "name": "",
          "type": "uint256"
        }
      ],
      "stateMutability": "view",
      "type": "function",
      "constant": true
    },
    {
      "inputs": [
        {
          "internalType": "bytes32",
          "name": "requestId",
          "type": "bytes32"
        },
        {
          "internalType": "uint256",
          "name": "randomness",
          "type": "uint256"
        }
      ],
      "name": "rawFulfillRandomness",
      "outputs": [],
      "stateMutability": "nonpayable",
      "type": "function"
    },
    {
      "inputs": [
        {
          "internalType": "address",
          "name": "from",
          "type": "address"
        },
        {
          "internalType": "address",
          "name": "to",
          "type": "address"
        },
        {
          "internalType": "uint256",
          "name": "tokenId",
          "type": "uint256"
        }
      ],
      "name": "safeTransferFrom",
      "outputs": [],
      "stateMutability": "nonpayable",
      "type": "function"
    },
    {
      "inputs": [
        {
          "internalType": "address",
          "name": "from",
          "type": "address"
        },
        {
          "internalType": "address",
          "name": "to",
          "type": "address"
        },
        {
          "internalType": "uint256",
          "name": "tokenId",
          "type": "uint256"
        },
        {
          "internalType": "bytes",
          "name": "_data",
          "type": "bytes"
        }
      ],
      "name": "safeTransferFrom",
      "outputs": [],
      "stateMutability": "nonpayable",
      "type": "function"
    },
    {
      "inputs": [
        {
          "internalType": "address",
          "name": "operator",
          "type": "address"
        },
        {
          "internalType": "bool",
          "name": "approved",
          "type": "bool"
        }
      ],
      "name": "setApprovalForAll",
      "outputs": [],
      "stateMutability": "nonpayable",
      "type": "function"
    },
    {
      "inputs": [],
      "name": "startAuto",
      "outputs": [
        {
          "internalType": "bool",
          "name": "",
          "type": "bool"
        }
      ],
      "stateMutability": "view",
      "type": "function",
      "constant": true
    },
    {
      "inputs": [],
      "name": "startGame",
      "outputs": [
        {
          "internalType": "bool",
          "name": "",
          "type": "bool"
        }
      ],
      "stateMutability": "view",
      "type": "function",
      "constant": true
    },
    {
      "inputs": [
        {
          "internalType": "bytes4",
          "name": "interfaceId",
          "type": "bytes4"
        }
      ],
      "name": "supportsInterface",
      "outputs": [
        {
          "internalType": "bool",
          "name": "",
          "type": "bool"
        }
      ],
      "stateMutability": "view",
      "type": "function",
      "constant": true
    },
    {
      "inputs": [],
      "name": "symbol",
      "outputs": [
        {
          "internalType": "string",
          "name": "",
          "type": "string"
        }
      ],
      "stateMutability": "view",
      "type": "function",
      "constant": true
    },
    {
      "inputs": [
        {
          "internalType": "uint256",
          "name": "tokenId",
          "type": "uint256"
        }
      ],
      "name": "tokenURI",
      "outputs": [
        {
          "internalType": "string",
          "name": "",
          "type": "string"
        }
      ],
      "stateMutability": "view",
      "type": "function",
      "constant": true
    },
    {
      "inputs": [
        {
          "internalType": "address",
          "name": "from",
          "type": "address"
        },
        {
          "internalType": "address",
          "name": "to",
          "type": "address"
        },
        {
          "internalType": "uint256",
          "name": "tokenId",
          "type": "uint256"
        }
      ],
      "name": "transferFrom",
      "outputs": [],
      "stateMutability": "nonpayable",
      "type": "function"
    },
    {
      "inputs": [],
      "name": "winnerPool",
      "outputs": [
        {
          "internalType": "uint256",
          "name": "",
          "type": "uint256"
        }
      ],
      "stateMutability": "view",
      "type": "function",
      "constant": true
    },
    {
      "inputs": [
        {
          "internalType": "uint256",
          "name": "",
          "type": "uint256"
        }
      ],
      "name": "winners",
      "outputs": [
        {
          "internalType": "uint256",
          "name": "",
          "type": "uint256"
        }
      ],
      "stateMutability": "view",
      "type": "function",
      "constant": true
    },
    {
      "inputs": [
        {
          "internalType": "uint256",
          "name": "amount",
          "type": "uint256"
        }
      ],
      "name": "mintCard",
      "outputs": [],
      "stateMutability": "payable",
      "type": "function",
      "payable": true
    },
    {
      "inputs": [
        {
          "internalType": "bytes",
          "name": "checkData",
          "type": "bytes"
        }
      ],
      "name": "checkUpkeep",
      "outputs": [
        {
          "internalType": "bool",
          "name": "upkeepNeeded",
          "type": "bool"
        },
        {
          "internalType": "bytes",
          "name": "performData",
          "type": "bytes"
        }
      ],
      "stateMutability": "view",
      "type": "function",
      "constant": true
    },
    {
      "inputs": [
        {
          "internalType": "bytes",
          "name": "performData",
          "type": "bytes"
        }
      ],
      "name": "performUpkeep",
      "outputs": [],
      "stateMutability": "nonpayable",
      "type": "function"
    },
    {
      "inputs": [
        {
          "internalType": "uint256",
          "name": "cardId",
          "type": "uint256"
        }
      ],
      "name": "claimBingo",
      "outputs": [],
      "stateMutability": "payable",
      "type": "function",
      "payable": true
    },
    {
      "inputs": [
        {
          "internalType": "uint256",
          "name": "tokenId",
          "type": "uint256"
        }
      ],
      "name": "burn",
      "outputs": [],
      "stateMutability": "nonpayable",
      "type": "function"
    },
    {
      "inputs": [
        {
          "internalType": "uint256",
          "name": "cardId",
          "type": "uint256"
        }
      ],
      "name": "generateCard",
      "outputs": [
        {
          "components": [
            {
              "internalType": "uint256[5]",
              "name": "B",
              "type": "uint256[5]"
            },
            {
              "internalType": "uint256[5]",
              "name": "I",
              "type": "uint256[5]"
            },
            {
              "internalType": "uint256[5]",
              "name": "N",
              "type": "uint256[5]"
            },
            {
              "internalType": "uint256[5]",
              "name": "G",
              "type": "uint256[5]"
            },
            {
              "internalType": "uint256[5]",
              "name": "O",
              "type": "uint256[5]"
            }
          ],
          "internalType": "struct BingoGenerate.Card",
          "name": "",
          "type": "tuple"
        }
      ],
      "stateMutability": "view",
      "type": "function",
      "constant": true
    },
    {
      "inputs": [
        {
          "internalType": "uint256",
          "name": "cardId",
          "type": "uint256"
        }
      ],
      "name": "validateCard",
      "outputs": [
        {
          "internalType": "bool",
          "name": "",
          "type": "bool"
        }
      ],
      "stateMutability": "view",
      "type": "function",
      "constant": true
    },
    {
      "inputs": [],
      "name": "getCurrent",
      "outputs": [
        {
          "internalType": "uint256",
          "name": "game",
          "type": "uint256"
        },
        {
          "internalType": "uint256",
          "name": "token",
          "type": "uint256"
        }
      ],
      "stateMutability": "view",
      "type": "function",
      "constant": true
    },
    {
      "inputs": [
        {
          "internalType": "uint256",
          "name": "tokenId",
          "type": "uint256"
        }
      ],
      "name": "exists",
      "outputs": [
        {
          "internalType": "bool",
          "name": "",
          "type": "bool"
        }
      ],
      "stateMutability": "view",
      "type": "function",
      "constant": true
    },
    {
      "inputs": [
        {
          "internalType": "bool",
          "name": "_startGame",
          "type": "bool"
        },
        {
          "internalType": "bool",
          "name": "_startAuto",
          "type": "bool"
        },
        {
          "internalType": "uint256",
          "name": "_ballDrawTime",
          "type": "uint256"
        },
        {
          "internalType": "uint256",
          "name": "_minCardsPerGame",
          "type": "uint256"
        },
        {
          "internalType": "uint256",
          "name": "_maxCardsPerGame",
          "type": "uint256"
        },
        {
          "internalType": "uint256",
          "name": "_pricePerCard",
          "type": "uint256"
        },
        {
          "internalType": "uint256",
          "name": "_prizeSplit",
          "type": "uint256"
        },
        {
          "internalType": "uint256",
          "name": "_pattern",
          "type": "uint256"
        },
        {
          "internalType": "address",
          "name": "_owner",
          "type": "address"
        }
      ],
      "name": "contractSettings",
      "outputs": [],
      "stateMutability": "nonpayable",
      "type": "function"
    },
    {
      "inputs": [
        {
          "internalType": "contract IERC20",
          "name": "_token",
          "type": "address"
        },
        {
          "internalType": "uint256",
          "name": "_amount",
          "type": "uint256"
        }
      ],
      "name": "withdraw",
      "outputs": [],
      "stateMutability": "payable",
      "type": "function",
      "payable": true
    }
  ],
  "bytecode": "0x60c060405260016009556103e8600a55662386f26fc10000600b55603c600c556002600d556001600e553480156200003657600080fd5b50604051620063cb380380620063cb83398181016040528101906200005c919062000353565b73dd3782915140c8f3b190b5d67eac6dc5760c46e973a36085f69e2889c224210f603d836748e7dc00886040518060400160405280600581526020017f42696e676f0000000000000000000000000000000000000000000000000000008152506040518060400160405280600581526020017f42494e474f00000000000000000000000000000000000000000000000000000081525081600090805190602001906200010a9291906200028c565b508060019080519060200190620001239291906200028c565b5050508173ffffffffffffffffffffffffffffffffffffffff1660a08173ffffffffffffffffffffffffffffffffffffffff1660601b815250508073ffffffffffffffffffffffffffffffffffffffff1660808173ffffffffffffffffffffffffffffffffffffffff1660601b81525050505033601060006101000a81548173ffffffffffffffffffffffffffffffffffffffff021916908373ffffffffffffffffffffffffffffffffffffffff16021790555080600f60026101000a81548173ffffffffffffffffffffffffffffffffffffffff021916908373ffffffffffffffffffffffffffffffffffffffff1602179055507f6c3699283bda56ad74f6b855546325b68d482e983852a7a82979cc4807b641f460001b60178190555067016345785d8a00006018819055506200026860086200027660201b620020671760201c565b426012819055505062000432565b6001816000016000828254019250508190555050565b8280546200029a90620003b3565b90600052602060002090601f016020900481019282620002be57600085556200030a565b82601f10620002d957805160ff19168380011785556200030a565b828001600101855582156200030a579182015b8281111562000309578251825591602001919060010190620002ec565b5b5090506200031991906200031d565b5090565b5b80821115620003385760008160009055506001016200031e565b5090565b6000815190506200034d8162000418565b92915050565b6000602082840312156200036657600080fd5b600062000376848285016200033c565b91505092915050565b60006200038c8262000393565b9050919050565b600073ffffffffffffffffffffffffffffffffffffffff82169050919050565b60006002820490506001821680620003cc57607f821691505b60208210811415620003e357620003e2620003e9565b5b50919050565b7f4e487b7100000000000000000000000000000000000000000000000000000000600052602260045260246000fd5b62000423816200037f565b81146200042f57600080fd5b50565b60805160601c60a05160601c615f5862000473600039600081816117550152613459015260008181610e4f0152818161102d015261341d0152615f586000f3fe60806040526004361061023b5760003560e01c80636352211e1161012e578063a319795a116100ab578063d65ab5f21161006f578063d65ab5f2146108b6578063dcde2519146108e1578063e985e9c5146108fd578063f3fef3a31461093a578063f8a7443c146109565761023b565b8063a319795a146107d1578063a96f1c69146107fa578063aad4df5214610825578063b88d4fde14610850578063c87b56dd146108795761023b565b8063842005b5116100f2578063842005b5146106ec57806394985ddd1461071757806395d89b4114610740578063a22cb4651461076b578063a2fb1175146107945761023b565b80636352211e146105de5780636e04ff0d1461061b57806370a08231146106595780637153304714610696578063719ce73e146106c15761023b565b806341287355116101bc5780634f558e79116101805780634f558e79146104f2578063521eaea31461052f578063596a0b041461055a57806360b47a5014610585578063630930ba146105a15761023b565b8063412873551461042157806342842e0e1461044c57806342966c68146104755780634585e33b1461049e5780634725c409146104c75761023b565b806311196afe1161020357806311196afe1461033957806323b872dd14610364578063295683501461038d5780632b675f34146103b857806335a5cfcb146103f55761023b565b806301ffc9a71461024057806306fdde031461027d578063081812fc146102a857806308b237b5146102e5578063095ea7b314610310575b600080fd5b34801561024c57600080fd5b506102676004803603810190610262919061481f565b610981565b6040516102749190615001565b60405180910390f35b34801561028957600080fd5b50610292610a63565b60405161029f91906150d5565b60405180910390f35b3480156102b457600080fd5b506102cf60048036038101906102ca91906148f2565b610af5565b6040516102dc9190614ed3565b60405180910390f35b3480156102f157600080fd5b506102fa610b7a565b6040516103079190615413565b60405180910390f35b34801561031c57600080fd5b50610337600480360381019061033291906146b8565b610b80565b005b34801561034557600080fd5b5061034e610c98565b60405161035b9190615413565b60405180910390f35b34801561037057600080fd5b5061038b600480360381019061038691906145b2565b610c9e565b005b34801561039957600080fd5b506103a2610cfe565b6040516103af9190615001565b60405180910390f35b3480156103c457600080fd5b506103df60048036038101906103da91906148f2565b610d11565b6040516103ec9190615001565b60405180910390f35b34801561040157600080fd5b5061040a610d3b565b604051610418929190615465565b60405180910390f35b34801561042d57600080fd5b50610436610d5a565b6040516104439190615413565b60405180910390f35b34801561045857600080fd5b50610473600480360381019061046e91906145b2565b610d60565b005b34801561048157600080fd5b5061049c600480360381019061049791906148f2565b610d80565b005b3480156104aa57600080fd5b506104c560048036038101906104c09190614871565b610dd5565b005b3480156104d357600080fd5b506104dc610f67565b6040516104e99190615413565b60405180910390f35b3480156104fe57600080fd5b50610519600480360381019061051491906148f2565b610f6d565b6040516105269190615001565b60405180910390f35b34801561053b57600080fd5b50610544610f7f565b6040516105519190615413565b60405180910390f35b34801561056657600080fd5b5061056f610f85565b60405161057c9190615413565b60405180910390f35b61059f600480360381019061059a91906148f2565b610f8b565b005b3480156105ad57600080fd5b506105c860048036038101906105c391906148f2565b6114e4565b6040516105d591906153f7565b60405180910390f35b3480156105ea57600080fd5b50610605600480360381019061060091906148f2565b61150f565b6040516106129190614ed3565b60405180910390f35b34801561062757600080fd5b50610642600480360381019061063d9190614871565b6115c1565b60405161065092919061501c565b60405180910390f35b34801561066557600080fd5b50610680600480360381019061067b919061454d565b61167c565b60405161068d9190615413565b60405180910390f35b3480156106a257600080fd5b506106ab611734565b6040516106b89190615001565b60405180910390f35b3480156106cd57600080fd5b506106d6611747565b6040516106e39190615413565b60405180910390f35b3480156106f857600080fd5b5061070161174d565b60405161070e9190615413565b60405180910390f35b34801561072357600080fd5b5061073e600480360381019061073991906147e3565b611753565b005b34801561074c57600080fd5b506107556117ef565b60405161076291906150d5565b60405180910390f35b34801561077757600080fd5b50610792600480360381019061078d919061467c565b611881565b005b3480156107a057600080fd5b506107bb60048036038101906107b691906148f2565b611a02565b6040516107c89190615413565b60405180910390f35b3480156107dd57600080fd5b506107f860048036038101906107f3919061471d565b611a1a565b005b34801561080657600080fd5b5061080f611b1e565b60405161081c9190615413565b60405180910390f35b34801561083157600080fd5b5061083a611b24565b6040516108479190615413565b60405180910390f35b34801561085c57600080fd5b5061087760048036038101906108729190614601565b611b2a565b005b34801561088557600080fd5b506108a0600480360381019061089b91906148f2565b611b8c565b6040516108ad91906150d5565b60405180910390f35b3480156108c257600080fd5b506108cb611c33565b6040516108d89190615001565b60405180910390f35b6108fb60048036038101906108f691906148f2565b611c46565b005b34801561090957600080fd5b50610924600480360381019061091f9190614576565b611d51565b6040516109319190615001565b60405180910390f35b610954600480360381019061094f91906148b6565b611de5565b005b34801561096257600080fd5b5061096b612061565b604051610978919061504c565b60405180910390f35b60007f80ac58cd000000000000000000000000000000000000000000000000000000007bffffffffffffffffffffffffffffffffffffffffffffffffffffffff1916827bffffffffffffffffffffffffffffffffffffffffffffffffffffffff19161480610a4c57507f5b5e139f000000000000000000000000000000000000000000000000000000007bffffffffffffffffffffffffffffffffffffffffffffffffffffffff1916827bffffffffffffffffffffffffffffffffffffffffffffffffffffffff1916145b80610a5c5750610a5b8261207d565b5b9050919050565b606060008054610a729061573b565b80601f0160208091040260200160405190810160405280929190818152602001828054610a9e9061573b565b8015610aeb5780601f10610ac057610100808354040283529160200191610aeb565b820191906000526020600020905b815481529060010190602001808311610ace57829003601f168201915b5050505050905090565b6000610b00826120e7565b610b3f576040517f08c379a0000000000000000000000000000000000000000000000000000000008152600401610b36906152d7565b60405180910390fd5b6004600083815260200190815260200160002060009054906101000a900473ffffffffffffffffffffffffffffffffffffffff169050919050565b600a5481565b6000610b8b8261150f565b90508073ffffffffffffffffffffffffffffffffffffffff168373ffffffffffffffffffffffffffffffffffffffff161415610bfc576040517f08c379a0000000000000000000000000000000000000000000000000000000008152600401610bf390615357565b60405180910390fd5b8073ffffffffffffffffffffffffffffffffffffffff16610c1b612153565b73ffffffffffffffffffffffffffffffffffffffff161480610c4a5750610c4981610c44612153565b611d51565b5b610c89576040517f08c379a0000000000000000000000000000000000000000000000000000000008152600401610c8090615237565b60405180910390fd5b610c93838361215b565b505050565b600c5481565b610caf610ca9612153565b82612214565b610cee576040517f08c379a0000000000000000000000000000000000000000000000000000000008152600401610ce590615397565b60405180910390fd5b610cf98383836122f2565b505050565b600f60019054906101000a900460ff1681565b6000610d34601a600084815260200190815260200160002054601c600e5461254e565b9050919050565b600080610d486008612ff0565b9150610d546007612ff0565b90509091565b60155481565b610d7b83838360405180602001604052806000815250611b2a565b505050565b610d8a3382612214565b610dc9576040517f08c379a0000000000000000000000000000000000000000000000000000000008152600401610dc090615377565b60405180910390fd5b610dd281612ffe565b50565b600c54601254610de59190615554565b42118015610e0b5750600954601154610dfe6007612ff0565b610e089190615635565b10155b610e4a576040517f08c379a0000000000000000000000000000000000000000000000000000000008152600401610e4190615217565b60405180910390fd5b6018547f000000000000000000000000000000000000000000000000000000000000000073ffffffffffffffffffffffffffffffffffffffff166370a08231306040518263ffffffff1660e01b8152600401610ea69190614ed3565b60206040518083038186803b158015610ebe57600080fd5b505afa158015610ed2573d6000803e3d6000fd5b505050506040513d601f19601f82011682018060405250810190610ef6919061491b565b1015610f37576040517f08c379a0000000000000000000000000000000000000000000000000000000008152600401610f2e906152b7565b60405180910390fd5b6000610f4161310f565b1415610f635742601281905550610f5c601754601854613419565b6013819055505b5050565b60095481565b6000610f78826120e7565b9050919050565b600b5481565b60125481565b600a8111158015610fa85750600f60009054906101000a900460ff165b8015610fde5750600a54601154610fd183610fc36007612ff0565b61357b90919063ffffffff16565b610fdb9190615635565b11155b61101d576040517f08c379a000000000000000000000000000000000000000000000000000000000815260040161101490615177565b60405180910390fd5b8060185461102b91906155db565b7f000000000000000000000000000000000000000000000000000000000000000073ffffffffffffffffffffffffffffffffffffffff166370a08231306040518263ffffffff1660e01b81526004016110849190614ed3565b60206040518083038186803b15801561109c57600080fd5b505afa1580156110b0573d6000803e3d6000fd5b505050506040513d601f19601f820116820180604052508101906110d4919061491b565b1015611115576040517f08c379a000000000000000000000000000000000000000000000000000000000815260040161110c906152b7565b60405180910390fd5b60003411156111ac573461113482600b5461359190919063ffffffff16565b1115611175576040517f08c379a000000000000000000000000000000000000000000000000000000000815260040161116c906153b7565b60405180910390fd5b6000600d5411156111a757600d543461118e91906155aa565b6014600082825461119f9190615554565b925050819055505b611477565b8068d8d726b7177a8000006111c191906155db565b600f60029054906101000a900473ffffffffffffffffffffffffffffffffffffffff1673ffffffffffffffffffffffffffffffffffffffff166370a08231336040518263ffffffff1660e01b815260040161121c9190614ed3565b60206040518083038186803b15801561123457600080fd5b505afa158015611248573d6000803e3d6000fd5b505050506040513d601f19601f8201168201806040525081019061126c919061491b565b10156112ad576040517f08c379a00000000000000000000000000000000000000000000000000000000081526004016112a490615157565b60405180910390fd5b8068d8d726b7177a8000006112c291906155db565b600f60029054906101000a900473ffffffffffffffffffffffffffffffffffffffff1673ffffffffffffffffffffffffffffffffffffffff1663dd62ed3e33306040518363ffffffff1660e01b815260040161131f929190614eee565b60206040518083038186803b15801561133757600080fd5b505afa15801561134b573d6000803e3d6000fd5b505050506040513d601f19601f8201168201806040525081019061136f919061491b565b10156113b0576040517f08c379a00000000000000000000000000000000000000000000000000000000081526004016113a7906153d7565b60405180910390fd5b600f60029054906101000a900473ffffffffffffffffffffffffffffffffffffffff1673ffffffffffffffffffffffffffffffffffffffff166323b872dd33308468d8d726b7177a80000061140591906155db565b6040518463ffffffff1660e01b815260040161142393929190614f17565b602060405180830381600087803b15801561143d57600080fd5b505af1158015611451573d6000803e3d6000fd5b505050506040513d601f19601f8201168201806040525081019061147591906146f4565b505b600080600090505b828110156114df576114916007612067565b61149b6007612ff0565b91506114a733836135a7565b81601960006114ba601754601854613419565b81526020019081526020016000208190555080806114d79061579e565b91505061147f565b505050565b6114ec61431e565b611508601a6000848152602001908152602001600020546135c5565b9050919050565b6000806002600084815260200190815260200160002060009054906101000a900473ffffffffffffffffffffffffffffffffffffffff169050600073ffffffffffffffffffffffffffffffffffffffff168173ffffffffffffffffffffffffffffffffffffffff1614156115b8576040517f08c379a00000000000000000000000000000000000000000000000000000000081526004016115af90615277565b60405180910390fd5b80915050919050565b600060606009546011546115d56007612ff0565b6115df9190615635565b1015801561162c5750600c546012546115f89190615554565b421180156116135750601660009054906101000a900460ff16155b801561162b5750600f60009054906101000a900460ff165b5b915083838080601f016020809104026020016040519081016040528093929190818152602001838380828437600081840152601f19601f8201169050808301925050505050505090509250929050565b60008073ffffffffffffffffffffffffffffffffffffffff168273ffffffffffffffffffffffffffffffffffffffff1614156116ed576040517f08c379a00000000000000000000000000000000000000000000000000000000081526004016116e490615257565b60405180910390fd5b600360008373ffffffffffffffffffffffffffffffffffffffff1673ffffffffffffffffffffffffffffffffffffffff168152602001908152602001600020549050919050565b601660009054906101000a900460ff1681565b60145481565b60115481565b7f000000000000000000000000000000000000000000000000000000000000000073ffffffffffffffffffffffffffffffffffffffff163373ffffffffffffffffffffffffffffffffffffffff16146117e1576040517f08c379a00000000000000000000000000000000000000000000000000000000081526004016117d890615337565b60405180910390fd5b6117eb82826137d0565b5050565b6060600180546117fe9061573b565b80601f016020809104026020016040519081016040528092919081815260200182805461182a9061573b565b80156118775780601f1061184c57610100808354040283529160200191611877565b820191906000526020600020905b81548152906001019060200180831161185a57829003601f168201915b5050505050905090565b611889612153565b73ffffffffffffffffffffffffffffffffffffffff168273ffffffffffffffffffffffffffffffffffffffff1614156118f7576040517f08c379a00000000000000000000000000000000000000000000000000000000081526004016118ee906151b7565b60405180910390fd5b8060056000611904612153565b73ffffffffffffffffffffffffffffffffffffffff1673ffffffffffffffffffffffffffffffffffffffff16815260200190815260200160002060008473ffffffffffffffffffffffffffffffffffffffff1673ffffffffffffffffffffffffffffffffffffffff16815260200190815260200160002060006101000a81548160ff0219169083151502179055508173ffffffffffffffffffffffffffffffffffffffff166119b1612153565b73ffffffffffffffffffffffffffffffffffffffff167f17307eab39ab6107e8899845ad3d59bd9653f200f220920489ca2b5937696c31836040516119f69190615001565b60405180910390a35050565b601b6020528060005260406000206000915090505481565b601060009054906101000a900473ffffffffffffffffffffffffffffffffffffffff1673ffffffffffffffffffffffffffffffffffffffff163373ffffffffffffffffffffffffffffffffffffffff1614611a7457600080fd5b88600f60006101000a81548160ff02191690831515021790555087600f60016101000a81548160ff02191690831515021790555086600c819055508560098190555084600a8190555083600b8190555082600d8190555081600e8190555080601060006101000a81548173ffffffffffffffffffffffffffffffffffffffff021916908373ffffffffffffffffffffffffffffffffffffffff160217905550505050505050505050565b600e5481565b600d5481565b611b3b611b35612153565b83612214565b611b7a576040517f08c379a0000000000000000000000000000000000000000000000000000000008152600401611b7190615397565b60405180910390fd5b611b8684848484613a31565b50505050565b6060611b97826120e7565b611bd6576040517f08c379a0000000000000000000000000000000000000000000000000000000008152600401611bcd90615317565b60405180910390fd5b6000611be0613a8d565b90506000815111611c005760405180602001604052806000815250611c2b565b80611c0a84613aad565b604051602001611c1b929190614eaf565b6040516020818303038152906040525b915050919050565b600f60009054906101000a900460ff1681565b6000601b600083815260200190815260200160002054118015611c9c57503373ffffffffffffffffffffffffffffffffffffffff16611c848261150f565b73ffffffffffffffffffffffffffffffffffffffff16145b611cdb576040517f08c379a0000000000000000000000000000000000000000000000000000000008152600401611cd2906150f7565b60405180910390fd5b3373ffffffffffffffffffffffffffffffffffffffff166108fc601b6000848152602001908152602001600020549081150290604051600060405180830381858888f19350505050158015611d34573d6000803e3d6000fd5b506000601b60008381526020019081526020016000208190555050565b6000600560008473ffffffffffffffffffffffffffffffffffffffff1673ffffffffffffffffffffffffffffffffffffffff16815260200190815260200160002060008373ffffffffffffffffffffffffffffffffffffffff1673ffffffffffffffffffffffffffffffffffffffff16815260200190815260200160002060009054906101000a900460ff16905092915050565b601060009054906101000a900473ffffffffffffffffffffffffffffffffffffffff1673ffffffffffffffffffffffffffffffffffffffff163373ffffffffffffffffffffffffffffffffffffffff1614611e3f57600080fd5b6000811115611edb578173ffffffffffffffffffffffffffffffffffffffff1663a9059cbb33836040518363ffffffff1660e01b8152600401611e83929190614f9a565b602060405180830381600087803b158015611e9d57600080fd5b505af1158015611eb1573d6000803e3d6000fd5b505050506040513d601f19601f82011682018060405250810190611ed591906146f4565b5061205d565b6000611f126004611f04601554601454611ef59190615554565b47613c5a90919063ffffffff16565b613c7090919063ffffffff16565b905072796e910bd0228ddf4cd79e3f353871a61c351c73ffffffffffffffffffffffffffffffffffffffff166108fc829081150290604051600060405180830381858888f19350505050611f6557600080fd5b737fc55376d5a29e0ee86c18c81bb2fc8f9f490e5073ffffffffffffffffffffffffffffffffffffffff166108fc829081150290604051600060405180830381858888f19350505050611fb757600080fd5b73b58fb5372e9aa0c86c3b281179c05af3bb7a181b73ffffffffffffffffffffffffffffffffffffffff166108fc829081150290604051600060405180830381858888f1935050505061200957600080fd5b73d83dd8a288270512b8a46f581a8254cd971dcb0973ffffffffffffffffffffffffffffffffffffffff166108fc829081150290604051600060405180830381858888f1935050505061205b57600080fd5b505b5050565b60135481565b6001816000016000828254019250508190555050565b60007f01ffc9a7000000000000000000000000000000000000000000000000000000007bffffffffffffffffffffffffffffffffffffffffffffffffffffffff1916827bffffffffffffffffffffffffffffffffffffffffffffffffffffffff1916149050919050565b60008073ffffffffffffffffffffffffffffffffffffffff166002600084815260200190815260200160002060009054906101000a900473ffffffffffffffffffffffffffffffffffffffff1673ffffffffffffffffffffffffffffffffffffffff1614159050919050565b600033905090565b816004600083815260200190815260200160002060006101000a81548173ffffffffffffffffffffffffffffffffffffffff021916908373ffffffffffffffffffffffffffffffffffffffff160217905550808273ffffffffffffffffffffffffffffffffffffffff166121ce8361150f565b73ffffffffffffffffffffffffffffffffffffffff167f8c5be1e5ebec7d5bd14f71427d1e84f3dd0314c0f7b2291e5b200ac8c7c3b92560405160405180910390a45050565b600061221f826120e7565b61225e576040517f08c379a0000000000000000000000000000000000000000000000000000000008152600401612255906151f7565b60405180910390fd5b60006122698361150f565b90508073ffffffffffffffffffffffffffffffffffffffff168473ffffffffffffffffffffffffffffffffffffffff1614806122d857508373ffffffffffffffffffffffffffffffffffffffff166122c084610af5565b73ffffffffffffffffffffffffffffffffffffffff16145b806122e957506122e88185611d51565b5b91505092915050565b8273ffffffffffffffffffffffffffffffffffffffff166123128261150f565b73ffffffffffffffffffffffffffffffffffffffff1614612368576040517f08c379a000000000000000000000000000000000000000000000000000000000815260040161235f906152f7565b60405180910390fd5b600073ffffffffffffffffffffffffffffffffffffffff168273ffffffffffffffffffffffffffffffffffffffff1614156123d8576040517f08c379a00000000000000000000000000000000000000000000000000000000081526004016123cf90615197565b60405180910390fd5b6123e3838383613c86565b6123ee60008261215b565b6001600360008573ffffffffffffffffffffffffffffffffffffffff1673ffffffffffffffffffffffffffffffffffffffff168152602001908152602001600020600082825461243e9190615635565b925050819055506001600360008473ffffffffffffffffffffffffffffffffffffffff1673ffffffffffffffffffffffffffffffffffffffff16815260200190815260200160002060008282546124959190615554565b92505081905550816002600083815260200190815260200160002060006101000a81548173ffffffffffffffffffffffffffffffffffffffff021916908373ffffffffffffffffffffffffffffffffffffffff160217905550808273ffffffffffffffffffffffffffffffffffffffff168473ffffffffffffffffffffffffffffffffffffffff167fddf252ad1be2c89b69c2b068fc378daa952ba7f163c4a11628f55a4df523b3ef60405160405180910390a4505050565b60008061255a856135c5565b905061256461436b565b60005b6005811015612730576040518060a00160405280846000015183600581106125b8577f4e487b7100000000000000000000000000000000000000000000000000000000600052603260045260246000fd5b60200201518152602001846020015183600581106125ff577f4e487b7100000000000000000000000000000000000000000000000000000000600052603260045260246000fd5b6020020151815260200184604001518360058110612646577f4e487b7100000000000000000000000000000000000000000000000000000000600052603260045260246000fd5b602002015181526020018460600151836005811061268d577f4e487b7100000000000000000000000000000000000000000000000000000000600052603260045260246000fd5b60200201518152602001846080015183600581106126d4577f4e487b7100000000000000000000000000000000000000000000000000000000600052603260045260246000fd5b60200201518152508282600d8110612715577f4e487b7100000000000000000000000000000000000000000000000000000000600052603260045260246000fd5b602002018190525080806127289061579e565b915050612567565b8260000151826005600d811061276f577f4e487b7100000000000000000000000000000000000000000000000000000000600052603260045260246000fd5b60200201819052508260200151826006600d81106127b6577f4e487b7100000000000000000000000000000000000000000000000000000000600052603260045260246000fd5b60200201819052508260400151826007600d81106127fd577f4e487b7100000000000000000000000000000000000000000000000000000000600052603260045260246000fd5b60200201819052508260600151826008600d8110612844577f4e487b7100000000000000000000000000000000000000000000000000000000600052603260045260246000fd5b60200201819052508260800151826009600d811061288b577f4e487b7100000000000000000000000000000000000000000000000000000000600052603260045260246000fd5b60200201819052506040518060a0016040528084600001516000600581106128dc577f4e487b7100000000000000000000000000000000000000000000000000000000600052603260045260246000fd5b602002015181526020018460200151600160058110612924577f4e487b7100000000000000000000000000000000000000000000000000000000600052603260045260246000fd5b60200201518152602001846040015160026005811061296c577f4e487b7100000000000000000000000000000000000000000000000000000000600052603260045260246000fd5b6020020151815260200184606001516003600581106129b4577f4e487b7100000000000000000000000000000000000000000000000000000000600052603260045260246000fd5b6020020151815260200184608001516004600581106129fc577f4e487b7100000000000000000000000000000000000000000000000000000000600052603260045260246000fd5b602002015181525082600a600d8110612a3e577f4e487b7100000000000000000000000000000000000000000000000000000000600052603260045260246000fd5b60200201819052506040518060a001604052808460000151600460058110612a8f577f4e487b7100000000000000000000000000000000000000000000000000000000600052603260045260246000fd5b602002015181526020018460200151600360058110612ad7577f4e487b7100000000000000000000000000000000000000000000000000000000600052603260045260246000fd5b602002015181526020018460400151600260058110612b1f577f4e487b7100000000000000000000000000000000000000000000000000000000600052603260045260246000fd5b602002015181526020018460600151600160058110612b67577f4e487b7100000000000000000000000000000000000000000000000000000000600052603260045260246000fd5b602002015181526020018460800151600060058110612baf577f4e487b7100000000000000000000000000000000000000000000000000000000600052603260045260246000fd5b602002015181525082600b600d8110612bf1577f4e487b7100000000000000000000000000000000000000000000000000000000600052603260045260246000fd5b60200201819052506040518060a001604052808460000151600060058110612c42577f4e487b7100000000000000000000000000000000000000000000000000000000600052603260045260246000fd5b602002015181526020018460800151600060058110612c8a577f4e487b7100000000000000000000000000000000000000000000000000000000600052603260045260246000fd5b602002015181526020018460000151600460058110612cd2577f4e487b7100000000000000000000000000000000000000000000000000000000600052603260045260246000fd5b602002015181526020018460800151600460058110612d1a577f4e487b7100000000000000000000000000000000000000000000000000000000600052603260045260246000fd5b602002015181526020018460000151600060058110612d62577f4e487b7100000000000000000000000000000000000000000000000000000000600052603260045260246000fd5b602002015181525082600c600d8110612da4577f4e487b7100000000000000000000000000000000000000000000000000000000600052603260045260246000fd5b602002018190525060009350600080600080600094505b600d851015612fe25760009050600091505b6005821015612f3f578960008787600d8110612e12577f4e487b7100000000000000000000000000000000000000000000000000000000600052603260045260246000fd5b60200201518460058110612e4f577f4e487b7100000000000000000000000000000000000000000000000000000000600052603260045260246000fd5b6020020151815260200190815260200160002060009054906101000a900460ff1680612ef5575060638686600d8110612eb1577f4e487b7100000000000000000000000000000000000000000000000000000000600052603260045260246000fd5b60200201518360058110612eee577f4e487b7100000000000000000000000000000000000000000000000000000000600052603260045260246000fd5b6020020151145b15612f2c578080612f059061579e565b915050600a851480612f175750600b85145b15612f2b578380612f279061579e565b9450505b5b8180612f379061579e565b925050612dcd565b6005811415612f57578280612f539061579e565b9350505b600189148015612f675750600581145b8015612f745750600c8514155b80612f8b5750600289148015612f8a5750600a84145b5b80612fa25750600389148015612fa15750600c83145b5b80612fc55750600489148015612fb85750600581145b8015612fc45750600c85145b5b15612fcf57600197505b8480612fda9061579e565b955050612dbb565b505050505050509392505050565b600081600001549050919050565b60006130098261150f565b905061301781600084613c86565b61302260008361215b565b6001600360008373ffffffffffffffffffffffffffffffffffffffff1673ffffffffffffffffffffffffffffffffffffffff16815260200190815260200160002060008282546130729190615635565b925050819055506002600083815260200190815260200160002060006101000a81549073ffffffffffffffffffffffffffffffffffffffff021916905581600073ffffffffffffffffffffffffffffffffffffffff168273ffffffffffffffffffffffffffffffffffffffff167fddf252ad1be2c89b69c2b068fc378daa952ba7f163c4a11628f55a4df523b3ef60405160405180910390a45050565b60006060600060016011546131249190615554565b90505b6131316007612ff0565b81116131c557613158601a600083815260200190815260200160002054601c600e5461254e565b156131b25780828481518110613197577f4e487b7100000000000000000000000000000000000000000000000000000000600052603260045260246000fd5b60200260200101818152505082806131ae9061579e565b9350505b80806131bd9061579e565b915050613127565b5060008211156134155760005b8281101561335657826014546131e891906155aa565b601b6000848481518110613225577f4e487b7100000000000000000000000000000000000000000000000000000000600052603260045260246000fd5b60200260200101518152602001908152602001600020600082825461324a9190615554565b925050819055508260145461325f91906155aa565b601560008282546132709190615554565b925050819055507f8e08d027f26cf11e15667e420e375ebb34d5fc8976be18d4a341696c9a9e5dd06132a26008612ff0565b6132eb8484815181106132de577f4e487b7100000000000000000000000000000000000000000000000000000000600052603260045260246000fd5b602002602001015161150f565b848481518110613324577f4e487b7100000000000000000000000000000000000000000000000000000000600052603260045260246000fd5b602002602001015160405161333b9392919061542e565b60405180910390a1808061334e9061579e565b9150506131d2565b5060006014819055506133696008612067565b426012819055506000601660006101000a81548160ff0219169083151502179055506133956007612ff0565b601181905550600f60019054906101000a900460ff16600f60006101000a81548160ff0219169083151502179055506000600190505b604c811015613413576000601c600083815260200190815260200160002060006101000a81548160ff021916908315150217905550808061340b9061579e565b9150506133cb565b505b5090565b60007f000000000000000000000000000000000000000000000000000000000000000073ffffffffffffffffffffffffffffffffffffffff16634000aea07f00000000000000000000000000000000000000000000000000000000000000008486600060405160200161348d929190615067565b6040516020818303038152906040526040518463ffffffff1660e01b81526004016134ba93929190614fc3565b602060405180830381600087803b1580156134d457600080fd5b505af11580156134e8573d6000803e3d6000fd5b505050506040513d601f19601f8201168201806040525081019061350c91906146f4565b50600061352f846000306006600089815260200190815260200160002054613c8b565b9050600160066000868152602001908152602001600020546135519190615554565b60066000868152602001908152602001600020819055506135728482613cc7565b91505092915050565b600081836135899190615554565b905092915050565b6000818361359f91906155db565b905092915050565b6135c1828260405180602001604052806000815250613cfa565b5050565b6135cd61431e565b60008214156135db576137cb565b6135e3614399565b600080600090505b60058110156137c757613628858260405160200161360a929190615465565b6040516020818303038152906040528051906020012060001c613d55565b9250600091505b6005821015613741576002811480156136485750600282145b15613696576063838360058110613688577f4e487b7100000000000000000000000000000000000000000000000000000000600052603260045260246000fd5b60200201818152505061372e565b600f816136a391906155db565b8383600581106136dc577f4e487b7100000000000000000000000000000000000000000000000000000000600052603260045260246000fd5b60200201516136eb9190615554565b838360058110613724577f4e487b7100000000000000000000000000000000000000000000000000000000600052603260045260246000fd5b6020020181815250505b81806137399061579e565b92505061362f565b6000811415613758578284600001819052506137b4565b600181141561376f578284602001819052506137b3565b6002811415613786578284604001819052506137b2565b600381141561379d578284606001819052506137b1565b60048114156137b0578284608001819052505b5b5b5b5b80806137bf9061579e565b9150506135eb565b5050505b919050565b60135482141561395357601354821461381e576040517f08c379a0000000000000000000000000000000000000000000000000000000008152600401613815906151d7565b60405180910390fd5b600080600090505b604c81101561394257613868600161385a604b61384c858861357b90919063ffffffff16565b613f9090919063ffffffff16565b61357b90919063ffffffff16565b915060001515601c600084815260200190815260200160002060009054906101000a900460ff161515141561390a576001601c600084815260200190815260200160002060006101000a81548160ff0219169083151502179055507fd85a895f825d2064ec30917b67b720684fafc60d3c7e8c33b9d1abd623b0cb6d6138ee6008612ff0565b836040516138fd929190615465565b60405180910390a1613942565b604b81141561392f576001601660006101000a81548160ff0219169083151502179055505b808061393a9061579e565b915050613826565b506000801b60138190555050613a2d565b600060196000848152602001908152602001600020549050600081116139ae576040517f08c379a00000000000000000000000000000000000000000000000000000000081526004016139a590615377565b60405180910390fd5b81601a600083815260200190815260200160002081905550600060196000858152602001908152602001600020819055507ff4667020580928dc83ab932094d72fc76e1b38d5d661a420dc5b5aea7de31ee3613a0a6008612ff0565b613a138361150f565b83604051613a239392919061542e565b60405180910390a1505b5050565b613a3c8484846122f2565b613a4884848484613fa6565b613a87576040517f08c379a0000000000000000000000000000000000000000000000000000000008152600401613a7e90615117565b60405180910390fd5b50505050565b6060604051806060016040528060258152602001615efe60259139905090565b60606000821415613af5576040518060400160405280600181526020017f30000000000000000000000000000000000000000000000000000000000000008152509050613c55565b600082905060005b60008214613b27578080613b109061579e565b915050600a82613b2091906155aa565b9150613afd565b60008167ffffffffffffffff811115613b69577f4e487b7100000000000000000000000000000000000000000000000000000000600052604160045260246000fd5b6040519080825280601f01601f191660200182016040528015613b9b5781602001600182028036833780820191505090505b5090505b60008514613c4e57600182613bb49190615635565b9150600a85613bc391906157fb565b6030613bcf9190615554565b60f81b818381518110613c0b577f4e487b7100000000000000000000000000000000000000000000000000000000600052603260045260246000fd5b60200101907effffffffffffffffffffffffffffffffffffffffffffffffffffffffffffff1916908160001a905350600a85613c4791906155aa565b9450613b9f565b8093505050505b919050565b60008183613c689190615635565b905092915050565b60008183613c7e91906155aa565b905092915050565b505050565b600084848484604051602001613ca49493929190615090565b6040516020818303038152906040528051906020012060001c9050949350505050565b60008282604051602001613cdc929190614e83565b60405160208183030381529060405280519060200120905092915050565b613d04838361413d565b613d116000848484613fa6565b613d50576040517f08c379a0000000000000000000000000000000000000000000000000000000008152600401613d4790615117565b60405180910390fd5b505050565b613d5d614399565b613d656143bb565b60005b600f811015613dd357600181613d7e9190615554565b8282600f8110613db7577f4e487b7100000000000000000000000000000000000000000000000000000000600052603260045260246000fd5b6020020181815250508080613dcb9061579e565b915050613d68565b50600080600090505b6005811015613f8857613e3b816001613df59190615554565b600f613e019190615635565b8683604051602001613e14929190615465565b6040516020818303038152906040528051906020012060001c613f9090919063ffffffff16565b91508282600f8110613e76577f4e487b7100000000000000000000000000000000000000000000000000000000600052603260045260246000fd5b6020020151848260058110613eb4577f4e487b7100000000000000000000000000000000000000000000000000000000600052603260045260246000fd5b602002018181525050806001613eca9190615554565b600f613ed69190615635565b8214613f755782816001613eea9190615554565b600f613ef69190615635565b600f8110613f2d577f4e487b7100000000000000000000000000000000000000000000000000000000600052603260045260246000fd5b60200201518383600f8110613f6b577f4e487b7100000000000000000000000000000000000000000000000000000000600052603260045260246000fd5b6020020181815250505b8080613f809061579e565b915050613ddc565b505050919050565b60008183613f9e91906157fb565b905092915050565b6000613fc78473ffffffffffffffffffffffffffffffffffffffff1661430b565b15614130578373ffffffffffffffffffffffffffffffffffffffff1663150b7a02613ff0612153565b8786866040518563ffffffff1660e01b81526004016140129493929190614f4e565b602060405180830381600087803b15801561402c57600080fd5b505af192505050801561405d57506040513d601f19601f8201168201806040525081019061405a9190614848565b60015b6140e0573d806000811461408d576040519150601f19603f3d011682016040523d82523d6000602084013e614092565b606091505b506000815114156140d8576040517f08c379a00000000000000000000000000000000000000000000000000000000081526004016140cf90615117565b60405180910390fd5b805181602001fd5b63150b7a0260e01b7bffffffffffffffffffffffffffffffffffffffffffffffffffffffff1916817bffffffffffffffffffffffffffffffffffffffffffffffffffffffff191614915050614135565b600190505b949350505050565b600073ffffffffffffffffffffffffffffffffffffffff168273ffffffffffffffffffffffffffffffffffffffff1614156141ad576040517f08c379a00000000000000000000000000000000000000000000000000000000081526004016141a490615297565b60405180910390fd5b6141b6816120e7565b156141f6576040517f08c379a00000000000000000000000000000000000000000000000000000000081526004016141ed90615137565b60405180910390fd5b61420260008383613c86565b6001600360008473ffffffffffffffffffffffffffffffffffffffff1673ffffffffffffffffffffffffffffffffffffffff16815260200190815260200160002060008282546142529190615554565b92505081905550816002600083815260200190815260200160002060006101000a81548173ffffffffffffffffffffffffffffffffffffffff021916908373ffffffffffffffffffffffffffffffffffffffff160217905550808273ffffffffffffffffffffffffffffffffffffffff16600073ffffffffffffffffffffffffffffffffffffffff167fddf252ad1be2c89b69c2b068fc378daa952ba7f163c4a11628f55a4df523b3ef60405160405180910390a45050565b600080823b905060008111915050919050565b6040518060a00160405280614331614399565b815260200161433e614399565b815260200161434b614399565b8152602001614358614399565b8152602001614365614399565b81525090565b604051806101a00160405280600d905b614383614399565b81526020019060019003908161437b5790505090565b6040518060a00160405280600590602082028036833780820191505090505090565b604051806101e00160405280600f90602082028036833780820191505090505090565b60006143f16143ec846154b3565b61548e565b90508281526020810184848401111561440957600080fd5b6144148482856156f9565b509392505050565b60008135905061442b81615e73565b92915050565b60008135905061444081615e8a565b92915050565b60008151905061445581615e8a565b92915050565b60008135905061446a81615ea1565b92915050565b60008135905061447f81615eb8565b92915050565b60008151905061449481615eb8565b92915050565b60008083601f8401126144ac57600080fd5b8235905067ffffffffffffffff8111156144c557600080fd5b6020830191508360018202830111156144dd57600080fd5b9250929050565b600082601f8301126144f557600080fd5b81356145058482602086016143de565b91505092915050565b60008135905061451d81615ecf565b92915050565b60008135905061453281615ee6565b92915050565b60008151905061454781615ee6565b92915050565b60006020828403121561455f57600080fd5b600061456d8482850161441c565b91505092915050565b6000806040838503121561458957600080fd5b60006145978582860161441c565b92505060206145a88582860161441c565b9150509250929050565b6000806000606084860312156145c757600080fd5b60006145d58682870161441c565b93505060206145e68682870161441c565b92505060406145f786828701614523565b9150509250925092565b6000806000806080858703121561461757600080fd5b60006146258782880161441c565b94505060206146368782880161441c565b935050604061464787828801614523565b925050606085013567ffffffffffffffff81111561466457600080fd5b614670878288016144e4565b91505092959194509250565b6000806040838503121561468f57600080fd5b600061469d8582860161441c565b92505060206146ae85828601614431565b9150509250929050565b600080604083850312156146cb57600080fd5b60006146d98582860161441c565b92505060206146ea85828601614523565b9150509250929050565b60006020828403121561470657600080fd5b600061471484828501614446565b91505092915050565b60008060008060008060008060006101208a8c03121561473c57600080fd5b600061474a8c828d01614431565b995050602061475b8c828d01614431565b985050604061476c8c828d01614523565b975050606061477d8c828d01614523565b965050608061478e8c828d01614523565b95505060a061479f8c828d01614523565b94505060c06147b08c828d01614523565b93505060e06147c18c828d01614523565b9250506101006147d38c828d0161441c565b9150509295985092959850929598565b600080604083850312156147f657600080fd5b60006148048582860161445b565b925050602061481585828601614523565b9150509250929050565b60006020828403121561483157600080fd5b600061483f84828501614470565b91505092915050565b60006020828403121561485a57600080fd5b600061486884828501614485565b91505092915050565b6000806020838503121561488457600080fd5b600083013567ffffffffffffffff81111561489e57600080fd5b6148aa8582860161449a565b92509250509250929050565b600080604083850312156148c957600080fd5b60006148d78582860161450e565b92505060206148e885828601614523565b9150509250929050565b60006020828403121561490457600080fd5b600061491284828501614523565b91505092915050565b60006020828403121561492d57600080fd5b600061493b84828501614538565b91505092915050565b60006149508383614e4e565b60208301905092915050565b61496581615669565b82525050565b614974816154ee565b61497e818461551c565b9250614989826154e4565b8060005b838110156149ba5781516149a18782614944565b96506149ac8361550f565b92505060018101905061498d565b505050505050565b6149cb8161567b565b82525050565b6149da81615687565b82525050565b6149f16149ec82615687565b6157e7565b82525050565b6000614a02826154f9565b614a0c8185615527565b9350614a1c818560208601615708565b614a25816158e8565b840191505092915050565b6000614a3b82615504565b614a458185615538565b9350614a55818560208601615708565b614a5e816158e8565b840191505092915050565b6000614a7482615504565b614a7e8185615549565b9350614a8e818560208601615708565b80840191505092915050565b6000614aa7600183615538565b9150614ab2826158f9565b602082019050919050565b6000614aca603283615538565b9150614ad582615922565b604082019050919050565b6000614aed601c83615538565b9150614af882615971565b602082019050919050565b6000614b10600283615538565b9150614b1b8261599a565b602082019050919050565b6000614b33600183615538565b9150614b3e826159c3565b602082019050919050565b6000614b56602483615538565b9150614b61826159ec565b604082019050919050565b6000614b79601983615538565b9150614b8482615a3b565b602082019050919050565b6000614b9c600283615538565b9150614ba782615a64565b602082019050919050565b6000614bbf602c83615538565b9150614bca82615a8d565b604082019050919050565b6000614be2600283615538565b9150614bed82615adc565b602082019050919050565b6000614c05603883615538565b9150614c1082615b05565b604082019050919050565b6000614c28602a83615538565b9150614c3382615b54565b604082019050919050565b6000614c4b602983615538565b9150614c5682615ba3565b604082019050919050565b6000614c6e602083615538565b9150614c7982615bf2565b602082019050919050565b6000614c91600183615538565b9150614c9c82615c1b565b602082019050919050565b6000614cb4602c83615538565b9150614cbf82615c44565b604082019050919050565b6000614cd7602983615538565b9150614ce282615c93565b604082019050919050565b6000614cfa602f83615538565b9150614d0582615ce2565b604082019050919050565b6000614d1d601f83615538565b9150614d2882615d31565b602082019050919050565b6000614d40602183615538565b9150614d4b82615d5a565b604082019050919050565b6000614d63600283615538565b9150614d6e82615da9565b602082019050919050565b6000614d86603183615538565b9150614d9182615dd2565b604082019050919050565b6000614da9600283615538565b9150614db482615e21565b602082019050919050565b6000614dcc600283615538565b9150614dd782615e4a565b602082019050919050565b61032082016000820151614df9600085018261496b565b506020820151614e0c60a085018261496b565b506040820151614e2061014085018261496b565b506060820151614e346101e085018261496b565b506080820151614e4861028085018261496b565b50505050565b614e57816156ef565b82525050565b614e66816156ef565b82525050565b614e7d614e78826156ef565b6157f1565b82525050565b6000614e8f82856149e0565b602082019150614e9f8284614e6c565b6020820191508190509392505050565b6000614ebb8285614a69565b9150614ec78284614a69565b91508190509392505050565b6000602082019050614ee8600083018461495c565b92915050565b6000604082019050614f03600083018561495c565b614f10602083018461495c565b9392505050565b6000606082019050614f2c600083018661495c565b614f39602083018561495c565b614f466040830184614e5d565b949350505050565b6000608082019050614f63600083018761495c565b614f70602083018661495c565b614f7d6040830185614e5d565b8181036060830152614f8f81846149f7565b905095945050505050565b6000604082019050614faf600083018561495c565b614fbc6020830184614e5d565b9392505050565b6000606082019050614fd8600083018661495c565b614fe56020830185614e5d565b8181036040830152614ff781846149f7565b9050949350505050565b600060208201905061501660008301846149c2565b92915050565b600060408201905061503160008301856149c2565b818103602083015261504381846149f7565b90509392505050565b600060208201905061506160008301846149d1565b92915050565b600060408201905061507c60008301856149d1565b6150896020830184614e5d565b9392505050565b60006080820190506150a560008301876149d1565b6150b26020830186614e5d565b6150bf604083018561495c565b6150cc6060830184614e5d565b95945050505050565b600060208201905081810360008301526150ef8184614a30565b905092915050565b6000602082019050818103600083015261511081614a9a565b9050919050565b6000602082019050818103600083015261513081614abd565b9050919050565b6000602082019050818103600083015261515081614ae0565b9050919050565b6000602082019050818103600083015261517081614b03565b9050919050565b6000602082019050818103600083015261519081614b26565b9050919050565b600060208201905081810360008301526151b081614b49565b9050919050565b600060208201905081810360008301526151d081614b6c565b9050919050565b600060208201905081810360008301526151f081614b8f565b9050919050565b6000602082019050818103600083015261521081614bb2565b9050919050565b6000602082019050818103600083015261523081614bd5565b9050919050565b6000602082019050818103600083015261525081614bf8565b9050919050565b6000602082019050818103600083015261527081614c1b565b9050919050565b6000602082019050818103600083015261529081614c3e565b9050919050565b600060208201905081810360008301526152b081614c61565b9050919050565b600060208201905081810360008301526152d081614c84565b9050919050565b600060208201905081810360008301526152f081614ca7565b9050919050565b6000602082019050818103600083015261531081614cca565b9050919050565b6000602082019050818103600083015261533081614ced565b9050919050565b6000602082019050818103600083015261535081614d10565b9050919050565b6000602082019050818103600083015261537081614d33565b9050919050565b6000602082019050818103600083015261539081614d56565b9050919050565b600060208201905081810360008301526153b081614d79565b9050919050565b600060208201905081810360008301526153d081614d9c565b9050919050565b600060208201905081810360008301526153f081614dbf565b9050919050565b60006103208201905061540d6000830184614de2565b92915050565b60006020820190506154286000830184614e5d565b92915050565b60006060820190506154436000830186614e5d565b615450602083018561495c565b61545d6040830184614e5d565b949350505050565b600060408201905061547a6000830185614e5d565b6154876020830184614e5d565b9392505050565b60006154986154a9565b90506154a4828261576d565b919050565b6000604051905090565b600067ffffffffffffffff8211156154ce576154cd6158b9565b5b6154d7826158e8565b9050602081019050919050565b6000819050919050565b600060059050919050565b600081519050919050565b600081519050919050565b6000602082019050919050565b600081905092915050565b600082825260208201905092915050565b600082825260208201905092915050565b600081905092915050565b600061555f826156ef565b915061556a836156ef565b9250827fffffffffffffffffffffffffffffffffffffffffffffffffffffffffffffffff0382111561559f5761559e61582c565b5b828201905092915050565b60006155b5826156ef565b91506155c0836156ef565b9250826155d0576155cf61585b565b5b828204905092915050565b60006155e6826156ef565b91506155f1836156ef565b9250817fffffffffffffffffffffffffffffffffffffffffffffffffffffffffffffffff048311821515161561562a5761562961582c565b5b828202905092915050565b6000615640826156ef565b915061564b836156ef565b92508282101561565e5761565d61582c565b5b828203905092915050565b6000615674826156cf565b9050919050565b60008115159050919050565b6000819050919050565b60007fffffffff0000000000000000000000000000000000000000000000000000000082169050919050565b60006156c882615669565b9050919050565b600073ffffffffffffffffffffffffffffffffffffffff82169050919050565b6000819050919050565b82818337600083830152505050565b60005b8381101561572657808201518184015260208101905061570b565b83811115615735576000848401525b50505050565b6000600282049050600182168061575357607f821691505b602082108114156157675761576661588a565b5b50919050565b615776826158e8565b810181811067ffffffffffffffff82111715615795576157946158b9565b5b80604052505050565b60006157a9826156ef565b91507fffffffffffffffffffffffffffffffffffffffffffffffffffffffffffffffff8214156157dc576157db61582c565b5b600182019050919050565b6000819050919050565b6000819050919050565b6000615806826156ef565b9150615811836156ef565b9250826158215761582061585b565b5b828206905092915050565b7f4e487b7100000000000000000000000000000000000000000000000000000000600052601160045260246000fd5b7f4e487b7100000000000000000000000000000000000000000000000000000000600052601260045260246000fd5b7f4e487b7100000000000000000000000000000000000000000000000000000000600052602260045260246000fd5b7f4e487b7100000000000000000000000000000000000000000000000000000000600052604160045260246000fd5b6000601f19601f8301169050919050565b7f4300000000000000000000000000000000000000000000000000000000000000600082015250565b7f4552433732313a207472616e7366657220746f206e6f6e20455243373231526560008201527f63656976657220696d706c656d656e7465720000000000000000000000000000602082015250565b7f4552433732313a20746f6b656e20616c7265616479206d696e74656400000000600082015250565b7f4e42000000000000000000000000000000000000000000000000000000000000600082015250565b7f4500000000000000000000000000000000000000000000000000000000000000600082015250565b7f4552433732313a207472616e7366657220746f20746865207a65726f2061646460008201527f7265737300000000000000000000000000000000000000000000000000000000602082015250565b7f4552433732313a20617070726f766520746f2063616c6c657200000000000000600082015250565b7f4952000000000000000000000000000000000000000000000000000000000000600082015250565b7f4552433732313a206f70657261746f7220717565727920666f72206e6f6e657860008201527f697374656e7420746f6b656e0000000000000000000000000000000000000000602082015250565b7f4d54000000000000000000000000000000000000000000000000000000000000600082015250565b7f4552433732313a20617070726f76652063616c6c6572206973206e6f74206f7760008201527f6e6572206e6f7220617070726f76656420666f7220616c6c0000000000000000602082015250565b7f4552433732313a2062616c616e636520717565727920666f7220746865207a6560008201527f726f206164647265737300000000000000000000000000000000000000000000602082015250565b7f4552433732313a206f776e657220717565727920666f72206e6f6e657869737460008201527f656e7420746f6b656e0000000000000000000000000000000000000000000000602082015250565b7f4552433732313a206d696e7420746f20746865207a65726f2061646472657373600082015250565b7f4c00000000000000000000000000000000000000000000000000000000000000600082015250565b7f4552433732313a20617070726f76656420717565727920666f72206e6f6e657860008201527f697374656e7420746f6b656e0000000000000000000000000000000000000000602082015250565b7f4552433732313a207472616e73666572206f6620746f6b656e2074686174206960008201527f73206e6f74206f776e0000000000000000000000000000000000000000000000602082015250565b7f4552433732314d657461646174613a2055524920717565727920666f72206e6f60008201527f6e6578697374656e7420746f6b656e0000000000000000000000000000000000602082015250565b7f4f6e6c7920565246436f6f7264696e61746f722063616e2066756c66696c6c00600082015250565b7f4552433732313a20617070726f76616c20746f2063757272656e74206f776e6560008201527f7200000000000000000000000000000000000000000000000000000000000000602082015250565b7f4e41000000000000000000000000000000000000000000000000000000000000600082015250565b7f4552433732313a207472616e736665722063616c6c6572206973206e6f74206f60008201527f776e6572206e6f7220617070726f766564000000000000000000000000000000602082015250565b7f5750000000000000000000000000000000000000000000000000000000000000600082015250565b7f4e50000000000000000000000000000000000000000000000000000000000000600082015250565b615e7c81615669565b8114615e8757600080fd5b50565b615e938161567b565b8114615e9e57600080fd5b50565b615eaa81615687565b8114615eb557600080fd5b50565b615ec181615691565b8114615ecc57600080fd5b50565b615ed8816156bd565b8114615ee357600080fd5b50565b615eef816156ef565b8114615efa57600080fd5b5056fe68747470733a2f2f6170692e62696e676f737761702e6172742f62696e676f2d6a736f6e2fa264697066735822122000dbe68f55e726c441d34435ed0b05246d9a447aece9a99d49ec8c29bbcb53b564736f6c63430008040033",
  "immutableReferences": {
    "1641": [
      {
        "length": 32,
        "start": 3663
      },
      {
        "length": 32,
        "start": 4141
      },
      {
        "length": 32,
        "start": 13341
      }
    ],
    "1643": [
      {
        "length": 32,
        "start": 5973
      },
      {
        "length": 32,
        "start": 13401
      }
    ]
  },
  "source": "//                                  ___           ___           ___\n//       _____        ___          /__/\\         /  /\\         /  /\\\n//      /  /::\\      /  /\\         \\  \\:\\       /  /:/_       /  /::\\\n//     /  /:/\\:\\    /  /:/          \\  \\:\\     /  /:/ /\\     /  /:/\\:\\\n//    /  /:/~/::\\  /__/::\\      _____\\__\\:\\   /  /:/_/::\\   /  /:/  \\:\\\n//   /__/:/ /:/\\:| \\__\\/\\:\\__  /__/::::::::\\ /__/:/__\\/\\:\\ /__/:/ \\__\\:\\\n//   \\  \\:\\/:/~/:/    \\  \\:\\/\\ \\  \\:\\~~\\~~\\/ \\  \\:\\ /~~/:/ \\  \\:\\ /  /:/\n//    \\  \\::/ /:/      \\__\\::/  \\  \\:\\  ~~~   \\  \\:\\  /:/   \\  \\:\\  /:/\n//     \\  \\:\\/:/       /__/:/    \\  \\:\\        \\  \\:\\/:/     \\  \\:\\/:/\n//      \\  \\::/        \\__\\/      \\  \\:\\        \\  \\::/       \\  \\::/\n//       \\__\\/                     \\__\\/         \\__\\/         \\__\\/\n//\n// SPDX-License-Identifier: MIT\n\npragma solidity >=0.8.0 <0.9.0;\nimport '@openzeppelin/contracts/token/ERC721/ERC721.sol';\nimport \"@openzeppelin/contracts/utils/Counters.sol\";\nimport '@openzeppelin/contracts/token/ERC20/IERC20.sol';\nimport '@openzeppelin/contracts/utils/math/SafeMath.sol';\nimport \"@chainlink/contracts/src/v0.8/VRFConsumerBase.sol\";\nimport \"@chainlink/contracts/src/v0.8/interfaces/KeeperCompatibleInterface.sol\";\n\nlibrary BingoGenerate {\n    using SafeMath for uint256;\n\n    // Card\n    struct Card {\n        uint256[5] B;\n        uint256[5] I;\n        uint256[5] N;\n        uint256[5] G;\n        uint256[5] O;\n    }\n\n    // Settings\n    uint256 constant maxCount = 15;\n\n    function generateBingoCard(uint256 randomness) internal pure returns (Card memory card) {\n        if(randomness == 0) {\n            return card;\n        }\n        uint256[5] memory col;\n        uint256 i;\n\n        for(uint256 k=0; k<5; k++) {\n            col = generateColumn(uint256(keccak256(abi.encode(randomness, k))));\n            for(i=0;i<5;i++) {\n                if(k==2 && i==2) {\n                    col[i] = 99;\n                } else {\n                    col[i] = col[i] + (k*maxCount);\n                }\n            }\n\n            // Not sure how to do this better without switch :)\n            if(k == 0) {\n                card.B = col;\n            } else if(k == 1) {\n                card.I = col;\n            } else if(k == 2) {\n                card.N = col;\n            } else if(k == 3) {\n                card.G = col;\n            } else if(k == 4) {\n                card.O = col;\n            }\n        }\n\n        return card;\n    }\n\n    function generateColumn(uint256 randomness) internal pure returns(uint256[5] memory col) {\n        uint256[15] memory possible;\n        for(uint256 i=0; i<15; i++) {\n            possible[i] = i+1;\n        }\n        uint256 idx;\n        for(uint256 k=0; k<5; k++) {\n            idx = uint256(keccak256(abi.encode(randomness, k))).mod(maxCount-(1+k));\n            col[k] = possible[idx];\n            if(idx != 15 - (1+k)) {\n                possible[idx] = possible[15 - (1+k)];\n            }\n        }\n        return col;\n    }\n\n    function validateWinner(uint256 randomness,  mapping (uint256 => bool) storage Balls, uint256 pattern) internal view returns (bool found) {\n        /*\n        Patterns:\n            1 = line\n            2 = X\n            3 = Full card\n            4 = Four corners\n        */\n        Card memory card = generateBingoCard(randomness);\n        uint256[5][13] memory lines;\n        uint256 i;\n        for(i=0; i<5; i++) {\n            lines[i] = [card.B[i], card.I[i], card.N[i], card.G[i], card.O[i]];\n        }\n        lines[5] = uint256[5](card.B);\n        lines[6] = card.I;\n        lines[7] = card.N;\n        lines[8] = card.G;\n        lines[9] = card.O;\n        lines[10] = [card.B[0], card.I[1], card.N[2], card.G[3], card.O[4]];\n        lines[11] = [card.B[4], card.I[3], card.N[2], card.G[1], card.O[0]];\n        lines[12] = [card.B[0], card.O[0], card.B[4], card.O[4], card.B[0]]; // 4 corners\n\n        found = false;\n        uint256 foundDiagonal;\n        uint256 foundLines;\n        uint256 k;\n        uint256 matches;\n        for(i=0; i<13; i++) {\n            matches=0;\n            for(k=0; k<5; k++) {\n                if(Balls[lines[i][k]] || lines[i][k] == 99) {\n                    matches++;\n                    if(i == 10 || i == 11) {\n                        foundDiagonal++;\n                    }\n                }\n            }\n            if(matches == 5) {\n                foundLines++;\n            }\n            if((pattern == 1 && matches == 5 && i != 12)\n            || (pattern == 2 && foundDiagonal == 10)\n            || (pattern == 3 && foundLines == 12)\n            || (pattern == 4 && matches == 5 && i == 12)\n            ) {\n                found = true;\n            }\n        }\n    }\n}\n\n// Welcome to BINGO\ncontract Bingo is ERC721, VRFConsumerBase, KeeperCompatibleInterface {\n    using SafeMath for uint256;\n    using Counters for Counters.Counter;\n    Counters.Counter private _tokenIds;\n    Counters.Counter private _gameIds;\n\n    // Settings\n    uint256 public minCards = 1;     // 10\n    uint256 public maxCards = 1000;\n    uint256 public pricePerCard = 10000000000000000; // 0.01 ETH\n    uint256 public ballDrawTime = 60;   // 86400\n    uint256 public prizeSplit = 2;\n    uint256 public pattern = 1;\n    bool public startGame;\n    bool public startAuto;\n    address weedContract;\n    address owner;\n\n    // Game\n    uint256 public gameFloor;\n    uint256 public lastBallTime;\n    bytes32 public ballRequest;\n    uint256 public prizePool;\n    uint256 public winnerPool;\n    bool public outOfBalls;\n\n    // Random\n    bytes32 internal keyHash;\n    uint256 internal fee;\n\n    // Mappings\n    mapping (bytes32 => uint256) cardRequests;\n    mapping (uint256 => uint256) cardRandomness;\n    mapping (uint256 => uint256) public winners;\n    mapping (uint256 => bool) Balls;\n\n    event BallPicked(uint256 game, uint256 ball);\n    event BingoWinner(uint256 game, address owner, uint256 tokenId);\n    event CardGenerated(uint256 game, address owner, uint256 tokenId);\n\n    modifier onlyOwner {\n        require(msg.sender == owner);\n        _;\n    }\n\n    constructor(address _weedContract)\n    ERC721(\"Bingo\", \"BINGO\")\n    VRFConsumerBase(\n        0xdD3782915140c8f3b190B5D67eAc6dc5760C46E9, // VRF Coordinator - Kovan\n        0xa36085F69e2889c224210F603D836748e7dC0088  // LINK Token - Kovan\n    )\n    {\n        owner = msg.sender;\n        weedContract = _weedContract;\n        keyHash = 0x6c3699283bda56ad74f6b855546325b68d482e983852a7a82979cc4807b641f4;\n        fee = 0.1 * 10 ** 18; // 0.1 LINK (Varies by network)\n\n        // Automatically start the first game\n        _gameIds.increment();\n        lastBallTime = block.timestamp;\n    }\n\n    /*\n    *   Purchase.\n    */\n    function mintCard(uint256 amount) public payable {\n        require(amount <= 10 && startGame && (_tokenIds.current().add(amount) - gameFloor) <= maxCards, \"E\");\n        require(LINK.balanceOf(address(this)) >= fee*amount, \"L\");\n\n        // Mint in ETH\n        if(msg.value > 0) {\n            require(pricePerCard.mul(amount) <= msg.value, \"WP\");\n            if(prizeSplit > 0) {\n                prizePool += msg.value / prizeSplit;\n            }\n        // Mint in WEED\n        } else {\n            require(IERC20(weedContract).balanceOf(msg.sender) >= 4000 * 1e18 * amount, \"NB\");\n            require(IERC20(weedContract).allowance(msg.sender, address(this)) >= 4000 * 1e18 * amount, \"NP\");\n            IERC20(weedContract).transferFrom(msg.sender, address(this), 4000 * 1e18 * amount);\n        }\n\n        uint256 cardId;\n        for(uint256 i=0; i<amount; i++) {\n            _tokenIds.increment();\n             cardId = _tokenIds.current();\n            _safeMint(msg.sender, cardId);\n            cardRequests[requestRandomness(keyHash, fee)] = cardId;\n        }\n    }\n\n    /*\n    *   Randomness.\n    */\n    function checkUpkeep(bytes calldata checkData) external view override returns (bool upkeepNeeded, bytes memory performData) {\n        upkeepNeeded = (_tokenIds.current() - gameFloor >= minCards) && (block.timestamp > lastBallTime+ballDrawTime && !outOfBalls && startGame);\n        performData = checkData;\n    }\n\n    function performUpkeep(bytes calldata performData) external override {\n        require(block.timestamp > lastBallTime+ballDrawTime && _tokenIds.current() - gameFloor >= minCards, \"MT\");\n        require(LINK.balanceOf(address(this)) >= fee, \"L\");\n        if(checkForWinners() == 0) {\n            lastBallTime = block.timestamp;\n            ballRequest = requestRandomness(keyHash, fee);\n        }\n        performData;\n    }\n\n    function fulfillRandomness(bytes32 requestId, uint256 randomness) internal override {\n        if(requestId == ballRequest) {\n            require(requestId == ballRequest, \"IR\");\n            uint256 choice;\n            for(uint256 idx=0; idx<76; idx++) {\n                choice = randomness.add(idx).mod(75).add(1);\n                if(Balls[choice] == false) {\n                    Balls[choice] = true;\n                    emit BallPicked(_gameIds.current(), choice);\n                    break;\n                } else if(idx == 75) {\n                    outOfBalls = true;\n                }\n            }\n            ballRequest = 0;\n        } else {\n            uint256 cardId = cardRequests[requestId];\n            require(cardId > 0, \"NA\");\n            cardRandomness[cardId] = randomness;\n            cardRequests[requestId] = 0;\n            emit CardGenerated(_gameIds.current(), ownerOf(cardId), cardId);\n        }\n    }\n\n    function checkForWinners() internal returns (uint256 winIdx) {\n        uint256[] memory _winners;\n        for(uint256 i=gameFloor+1; i<= _tokenIds.current(); i++) {\n            if(BingoGenerate.validateWinner(cardRandomness[i], Balls, pattern)) {\n                _winners[winIdx] = i;\n                winIdx++;\n            }\n        }\n        if(winIdx > 0) {\n            for(uint256 i=0; i<winIdx; i++) {\n                winners[_winners[i]] += prizePool / winIdx;\n                winnerPool += prizePool / winIdx;\n                emit BingoWinner(_gameIds.current(), ownerOf(_winners[i]), _winners[i]);\n            }\n            // Reset game\n            prizePool = 0;\n            _gameIds.increment();\n            lastBallTime = block.timestamp;\n            outOfBalls = false;\n            gameFloor = _tokenIds.current();\n            startGame = startAuto;\n            for(uint256 i=1; i<76; i++) {\n                Balls[i] = false;\n            }\n        }\n    }\n\n    /*\n    *   Claim.\n    */\n    function claimBingo(uint256 cardId) public payable {\n        require(winners[cardId] > 0 && ownerOf(cardId) == msg.sender, 'C');\n        payable(msg.sender).transfer(winners[cardId]);\n        winners[cardId] = 0;\n    }\n\n    function burn(uint256 tokenId) public virtual {\n        require(_isApprovedOrOwner(msg.sender, tokenId), \"NA\");\n        _burn(tokenId);\n    }\n\n    /*\n    *   Getters.\n    */\n    function generateCard(uint256 cardId) public view returns (BingoGenerate.Card memory) {\n        return BingoGenerate.generateBingoCard(cardRandomness[cardId]);\n    }\n\n    function validateCard(uint256 cardId) public view returns (bool) {\n        return BingoGenerate.validateWinner(cardRandomness[cardId], Balls, pattern);\n    }\n\n    function getCurrent() public view returns (uint256 game, uint256 token) {\n        game = _gameIds.current();\n        token = _tokenIds.current();\n    }\n\n    function exists(uint256 tokenId) public view returns(bool) {\n        return _exists(tokenId);\n    }\n\n    function _baseURI() internal pure override returns (string memory) {\n        return \"https://api.bingoswap.art/bingo-json/\";\n    }\n\n    /*\n    *   Setters.\n    */\n    function contractSettings(bool _startGame, bool _startAuto, uint256 _ballDrawTime, uint256 _minCardsPerGame, uint256 _maxCardsPerGame, uint256 _pricePerCard, uint256 _prizeSplit, uint256 _pattern, address _owner) public onlyOwner {\n        startGame = _startGame;\n        startAuto = _startAuto;\n        ballDrawTime = _ballDrawTime;\n        minCards = _minCardsPerGame;\n        maxCards = _maxCardsPerGame;\n        pricePerCard = _pricePerCard;\n        prizeSplit = _prizeSplit;\n        pattern = _pattern;\n        owner = _owner;\n    }\n\n    /*\n    *   Money management.\n    */\n    function withdraw(IERC20 _token, uint256 _amount) public payable onlyOwner {\n        if(_amount > 0) {\n            _token.transfer(msg.sender, _amount);\n        } else {\n            uint256 _each = address(this).balance.sub(prizePool+winnerPool).div(4);\n            require(payable(0x00796e910Bd0228ddF4cd79e3f353871a61C351C).send(_each));   // sara\n            require(payable(0x7fc55376D5A29e0Ee86C18C81bb2fC8F9f490E50).send(_each));   // shaun\n            require(payable(0xB58Fb5372e9Aa0C86c3B281179c05Af3bB7a181b).send(_each));   // mark\n            require(payable(0xd83Dd8A288270512b8A46F581A8254CD971dCb09).send(_each));   // community (@todo replace)\n        }\n    }\n}\n",
  "sourcePath": "/Users/Shared/Code/experimental/bingo/bingo-contracts/contracts/Bingo.sol",
  "compiler": {
    "name": "solc",
    "version": "0.8.4+commit.c7e474f2.Emscripten.clang"
  },
  "schemaVersion": "3.4.1",
  "updatedAt": "2021-09-13T19:56:45.340Z",
  "networkType": "ethereum",
  "devdoc": {
    "kind": "dev",
    "methods": {
      "approve(address,uint256)": {
        "details": "See {IERC721-approve}."
      },
      "balanceOf(address)": {
        "details": "See {IERC721-balanceOf}."
      },
      "checkUpkeep(bytes)": {
        "params": {
          "checkData": "data passed to the contract when checking for upkeep."
        },
        "returns": {
          "performData": "bytes that the keeper should call performUpkeep with, if upkeep is needed.",
          "upkeepNeeded": "boolean to indicate whether the keeper should call performUpkeep or not."
        }
      },
      "getApproved(uint256)": {
        "details": "See {IERC721-getApproved}."
      },
      "isApprovedForAll(address,address)": {
        "details": "See {IERC721-isApprovedForAll}."
      },
      "name()": {
        "details": "See {IERC721Metadata-name}."
      },
      "ownerOf(uint256)": {
        "details": "See {IERC721-ownerOf}."
      },
      "performUpkeep(bytes)": {
        "params": {
          "performData": "is the data which was passed back from the checkData simulation."
        }
      },
      "safeTransferFrom(address,address,uint256)": {
        "details": "See {IERC721-safeTransferFrom}."
      },
      "safeTransferFrom(address,address,uint256,bytes)": {
        "details": "See {IERC721-safeTransferFrom}."
      },
      "setApprovalForAll(address,bool)": {
        "details": "See {IERC721-setApprovalForAll}."
      },
      "supportsInterface(bytes4)": {
        "details": "See {IERC165-supportsInterface}."
      },
      "symbol()": {
        "details": "See {IERC721Metadata-symbol}."
      },
      "tokenURI(uint256)": {
        "details": "See {IERC721Metadata-tokenURI}."
      },
      "transferFrom(address,address,uint256)": {
        "details": "See {IERC721-transferFrom}."
      }
    },
    "version": 1
  },
  "userdoc": {
    "kind": "user",
    "methods": {
      "checkUpkeep(bytes)": {
        "notice": "checks if the contract requires work to be done."
      },
      "performUpkeep(bytes)": {
        "notice": "Performs work on the contract. Executed by the keepers, via the registry."
      }
    },
    "version": 1
  }
}