{
  "contractName": "Bingo",
  "abi": [
    {
      "inputs": [
        {
          "internalType": "address",
          "name": "_weedContract",
          "type": "address"
        }
      ],
      "stateMutability": "nonpayable",
      "type": "constructor"
    },
    {
      "anonymous": false,
      "inputs": [
        {
          "indexed": true,
          "internalType": "address",
          "name": "owner",
          "type": "address"
        },
        {
          "indexed": true,
          "internalType": "address",
          "name": "approved",
          "type": "address"
        },
        {
          "indexed": true,
          "internalType": "uint256",
          "name": "tokenId",
          "type": "uint256"
        }
      ],
      "name": "Approval",
      "type": "event"
    },
    {
      "anonymous": false,
      "inputs": [
        {
          "indexed": true,
          "internalType": "address",
          "name": "owner",
          "type": "address"
        },
        {
          "indexed": true,
          "internalType": "address",
          "name": "operator",
          "type": "address"
        },
        {
          "indexed": false,
          "internalType": "bool",
          "name": "approved",
          "type": "bool"
        }
      ],
      "name": "ApprovalForAll",
      "type": "event"
    },
    {
      "anonymous": false,
      "inputs": [
        {
          "indexed": false,
          "internalType": "uint256",
          "name": "game",
          "type": "uint256"
        },
        {
          "indexed": false,
          "internalType": "uint256",
          "name": "ball",
          "type": "uint256"
        }
      ],
      "name": "BallPicked",
      "type": "event"
    },
    {
      "anonymous": false,
      "inputs": [
        {
          "indexed": false,
          "internalType": "uint256",
          "name": "game",
          "type": "uint256"
        },
        {
          "indexed": false,
          "internalType": "uint256",
          "name": "floor",
          "type": "uint256"
        },
        {
          "indexed": false,
          "internalType": "address",
          "name": "owner",
          "type": "address"
        },
        {
          "indexed": false,
          "internalType": "uint256",
          "name": "tokenId",
          "type": "uint256"
        }
      ],
      "name": "BingoWinner",
      "type": "event"
    },
    {
      "anonymous": false,
      "inputs": [
        {
          "indexed": false,
          "internalType": "uint256",
          "name": "game",
          "type": "uint256"
        },
        {
          "indexed": false,
          "internalType": "address",
          "name": "owner",
          "type": "address"
        },
        {
          "indexed": false,
          "internalType": "uint256",
          "name": "tokenId",
          "type": "uint256"
        }
      ],
      "name": "CardGenerated",
      "type": "event"
    },
    {
      "anonymous": false,
      "inputs": [
        {
          "indexed": true,
          "internalType": "address",
          "name": "from",
          "type": "address"
        },
        {
          "indexed": true,
          "internalType": "address",
          "name": "to",
          "type": "address"
        },
        {
          "indexed": true,
          "internalType": "uint256",
          "name": "tokenId",
          "type": "uint256"
        }
      ],
      "name": "Transfer",
      "type": "event"
    },
    {
      "inputs": [
        {
          "internalType": "uint256",
          "name": "",
          "type": "uint256"
        }
      ],
      "name": "Balls",
      "outputs": [
        {
          "internalType": "bool",
          "name": "",
          "type": "bool"
        }
      ],
      "stateMutability": "view",
      "type": "function",
      "constant": true
    },
    {
      "inputs": [],
      "name": "_gameIds",
      "outputs": [
        {
          "internalType": "uint256",
          "name": "_value",
          "type": "uint256"
        }
      ],
      "stateMutability": "view",
      "type": "function",
      "constant": true
    },
    {
      "inputs": [
        {
          "internalType": "address",
          "name": "to",
          "type": "address"
        },
        {
          "internalType": "uint256",
          "name": "tokenId",
          "type": "uint256"
        }
      ],
      "name": "approve",
      "outputs": [],
      "stateMutability": "nonpayable",
      "type": "function"
    },
    {
      "inputs": [
        {
          "internalType": "address",
          "name": "owner",
          "type": "address"
        }
      ],
      "name": "balanceOf",
      "outputs": [
        {
          "internalType": "uint256",
          "name": "",
          "type": "uint256"
        }
      ],
      "stateMutability": "view",
      "type": "function",
      "constant": true
    },
    {
      "inputs": [],
      "name": "ballDrawTime",
      "outputs": [
        {
          "internalType": "uint256",
          "name": "",
          "type": "uint256"
        }
      ],
      "stateMutability": "view",
      "type": "function",
      "constant": true
    },
    {
      "inputs": [],
      "name": "ballRequest",
      "outputs": [
        {
          "internalType": "bytes32",
          "name": "",
          "type": "bytes32"
        }
      ],
      "stateMutability": "view",
      "type": "function",
      "constant": true
    },
    {
      "inputs": [],
      "name": "baseUri",
      "outputs": [
        {
          "internalType": "string",
          "name": "",
          "type": "string"
        }
      ],
      "stateMutability": "view",
      "type": "function",
      "constant": true
    },
    {
      "inputs": [
        {
          "internalType": "uint256",
          "name": "",
          "type": "uint256"
        }
      ],
      "name": "cardRandomness",
      "outputs": [
        {
          "internalType": "uint256",
          "name": "",
          "type": "uint256"
        }
      ],
      "stateMutability": "view",
      "type": "function",
      "constant": true
    },
    {
      "inputs": [
        {
          "internalType": "bytes32",
          "name": "",
          "type": "bytes32"
        }
      ],
      "name": "cardRequests",
      "outputs": [
        {
          "internalType": "uint256",
          "name": "",
          "type": "uint256"
        }
      ],
      "stateMutability": "view",
      "type": "function",
      "constant": true
    },
    {
      "inputs": [],
      "name": "gameFloor",
      "outputs": [
        {
          "internalType": "uint256",
          "name": "",
          "type": "uint256"
        }
      ],
      "stateMutability": "view",
      "type": "function",
      "constant": true
    },
    {
      "inputs": [
        {
          "internalType": "uint256",
          "name": "tokenId",
          "type": "uint256"
        }
      ],
      "name": "getApproved",
      "outputs": [
        {
          "internalType": "address",
          "name": "",
          "type": "address"
        }
      ],
      "stateMutability": "view",
      "type": "function",
      "constant": true
    },
    {
      "inputs": [
        {
          "internalType": "address",
          "name": "owner",
          "type": "address"
        },
        {
          "internalType": "address",
          "name": "operator",
          "type": "address"
        }
      ],
      "name": "isApprovedForAll",
      "outputs": [
        {
          "internalType": "bool",
          "name": "",
          "type": "bool"
        }
      ],
      "stateMutability": "view",
      "type": "function",
      "constant": true
    },
    {
      "inputs": [],
      "name": "lastBallTime",
      "outputs": [
        {
          "internalType": "uint256",
          "name": "",
          "type": "uint256"
        }
      ],
      "stateMutability": "view",
      "type": "function",
      "constant": true
    },
    {
      "inputs": [],
      "name": "maxCards",
      "outputs": [
        {
          "internalType": "uint256",
          "name": "",
          "type": "uint256"
        }
      ],
      "stateMutability": "view",
      "type": "function",
      "constant": true
    },
    {
      "inputs": [],
      "name": "minCards",
      "outputs": [
        {
          "internalType": "uint256",
          "name": "",
          "type": "uint256"
        }
      ],
      "stateMutability": "view",
      "type": "function",
      "constant": true
    },
    {
      "inputs": [],
      "name": "name",
      "outputs": [
        {
          "internalType": "string",
          "name": "",
          "type": "string"
        }
      ],
      "stateMutability": "view",
      "type": "function",
      "constant": true
    },
    {
      "inputs": [],
      "name": "outOfBalls",
      "outputs": [
        {
          "internalType": "bool",
          "name": "",
          "type": "bool"
        }
      ],
      "stateMutability": "view",
      "type": "function",
      "constant": true
    },
    {
      "inputs": [
        {
          "internalType": "uint256",
          "name": "tokenId",
          "type": "uint256"
        }
      ],
      "name": "ownerOf",
      "outputs": [
        {
          "internalType": "address",
          "name": "",
          "type": "address"
        }
      ],
      "stateMutability": "view",
      "type": "function",
      "constant": true
    },
    {
      "inputs": [],
      "name": "pricePerCard",
      "outputs": [
        {
          "internalType": "uint256",
          "name": "",
          "type": "uint256"
        }
      ],
      "stateMutability": "view",
      "type": "function",
      "constant": true
    },
    {
      "inputs": [],
      "name": "prizePool",
      "outputs": [
        {
          "internalType": "uint256",
          "name": "",
          "type": "uint256"
        }
      ],
      "stateMutability": "view",
      "type": "function",
      "constant": true
    },
    {
      "inputs": [
        {
          "internalType": "bytes32",
          "name": "requestId",
          "type": "bytes32"
        },
        {
          "internalType": "uint256",
          "name": "randomness",
          "type": "uint256"
        }
      ],
      "name": "rawFulfillRandomness",
      "outputs": [],
      "stateMutability": "nonpayable",
      "type": "function"
    },
    {
      "inputs": [
        {
          "internalType": "address",
          "name": "from",
          "type": "address"
        },
        {
          "internalType": "address",
          "name": "to",
          "type": "address"
        },
        {
          "internalType": "uint256",
          "name": "tokenId",
          "type": "uint256"
        }
      ],
      "name": "safeTransferFrom",
      "outputs": [],
      "stateMutability": "nonpayable",
      "type": "function"
    },
    {
      "inputs": [
        {
          "internalType": "address",
          "name": "from",
          "type": "address"
        },
        {
          "internalType": "address",
          "name": "to",
          "type": "address"
        },
        {
          "internalType": "uint256",
          "name": "tokenId",
          "type": "uint256"
        },
        {
          "internalType": "bytes",
          "name": "_data",
          "type": "bytes"
        }
      ],
      "name": "safeTransferFrom",
      "outputs": [],
      "stateMutability": "nonpayable",
      "type": "function"
    },
    {
      "inputs": [
        {
          "internalType": "address",
          "name": "operator",
          "type": "address"
        },
        {
          "internalType": "bool",
          "name": "approved",
          "type": "bool"
        }
      ],
      "name": "setApprovalForAll",
      "outputs": [],
      "stateMutability": "nonpayable",
      "type": "function"
    },
    {
      "inputs": [
        {
          "internalType": "bytes4",
          "name": "interfaceId",
          "type": "bytes4"
        }
      ],
      "name": "supportsInterface",
      "outputs": [
        {
          "internalType": "bool",
          "name": "",
          "type": "bool"
        }
      ],
      "stateMutability": "view",
      "type": "function",
      "constant": true
    },
    {
      "inputs": [],
      "name": "symbol",
      "outputs": [
        {
          "internalType": "string",
          "name": "",
          "type": "string"
        }
      ],
      "stateMutability": "view",
      "type": "function",
      "constant": true
    },
    {
      "inputs": [
        {
          "internalType": "uint256",
          "name": "tokenId",
          "type": "uint256"
        }
      ],
      "name": "tokenURI",
      "outputs": [
        {
          "internalType": "string",
          "name": "",
          "type": "string"
        }
      ],
      "stateMutability": "view",
      "type": "function",
      "constant": true
    },
    {
      "inputs": [
        {
          "internalType": "address",
          "name": "from",
          "type": "address"
        },
        {
          "internalType": "address",
          "name": "to",
          "type": "address"
        },
        {
          "internalType": "uint256",
          "name": "tokenId",
          "type": "uint256"
        }
      ],
      "name": "transferFrom",
      "outputs": [],
      "stateMutability": "nonpayable",
      "type": "function"
    },
    {
      "inputs": [
        {
          "internalType": "uint256",
          "name": "amount",
          "type": "uint256"
        }
      ],
      "name": "mintCard",
      "outputs": [],
      "stateMutability": "payable",
      "type": "function",
      "payable": true
    },
    {
      "inputs": [
        {
          "internalType": "bytes",
          "name": "checkData",
          "type": "bytes"
        }
      ],
      "name": "checkUpkeep",
      "outputs": [
        {
          "internalType": "bool",
          "name": "upkeepNeeded",
          "type": "bool"
        },
        {
          "internalType": "bytes",
          "name": "performData",
          "type": "bytes"
        }
      ],
      "stateMutability": "view",
      "type": "function",
      "constant": true
    },
    {
      "inputs": [
        {
          "internalType": "bytes",
          "name": "performData",
          "type": "bytes"
        }
      ],
      "name": "performUpkeep",
      "outputs": [],
      "stateMutability": "nonpayable",
      "type": "function"
    },
    {
      "inputs": [
        {
          "internalType": "uint256",
          "name": "cardId",
          "type": "uint256"
        }
      ],
      "name": "claimBingo",
      "outputs": [],
      "stateMutability": "payable",
      "type": "function",
      "payable": true
    },
    {
      "inputs": [
        {
          "internalType": "uint256",
          "name": "cardId",
          "type": "uint256"
        }
      ],
      "name": "generateCard",
      "outputs": [
        {
          "components": [
            {
              "internalType": "uint256[5]",
              "name": "B",
              "type": "uint256[5]"
            },
            {
              "internalType": "uint256[5]",
              "name": "I",
              "type": "uint256[5]"
            },
            {
              "internalType": "uint256[5]",
              "name": "N",
              "type": "uint256[5]"
            },
            {
              "internalType": "uint256[5]",
              "name": "G",
              "type": "uint256[5]"
            },
            {
              "internalType": "uint256[5]",
              "name": "O",
              "type": "uint256[5]"
            }
          ],
          "internalType": "struct BingoGenerate.Card",
          "name": "",
          "type": "tuple"
        }
      ],
      "stateMutability": "view",
      "type": "function",
      "constant": true
    },
    {
      "inputs": [
        {
          "internalType": "uint256",
          "name": "cardId",
          "type": "uint256"
        }
      ],
      "name": "validateCard",
      "outputs": [
        {
          "internalType": "bool",
          "name": "",
          "type": "bool"
        }
      ],
      "stateMutability": "view",
      "type": "function",
      "constant": true
    },
    {
      "inputs": [],
      "name": "getCurrent",
      "outputs": [
        {
          "internalType": "uint256",
          "name": "game",
          "type": "uint256"
        },
        {
          "internalType": "uint256",
          "name": "token",
          "type": "uint256"
        }
      ],
      "stateMutability": "view",
      "type": "function",
      "constant": true
    },
    {
      "inputs": [
        {
          "internalType": "address",
          "name": "_owner",
          "type": "address"
        }
      ],
      "name": "getCardsByOwner",
      "outputs": [
        {
          "internalType": "uint256[]",
          "name": "result",
          "type": "uint256[]"
        }
      ],
      "stateMutability": "view",
      "type": "function",
      "constant": true
    },
    {
      "inputs": [
        {
          "internalType": "uint256",
          "name": "tokenId",
          "type": "uint256"
        }
      ],
      "name": "exists",
      "outputs": [
        {
          "internalType": "bool",
          "name": "",
          "type": "bool"
        }
      ],
      "stateMutability": "view",
      "type": "function",
      "constant": true
    },
    {
      "inputs": [
        {
          "internalType": "string",
          "name": "_baseUri",
          "type": "string"
        },
        {
          "internalType": "uint256",
          "name": "_ballDrawTime",
          "type": "uint256"
        },
        {
          "internalType": "uint256",
          "name": "_minCardsPerGame",
          "type": "uint256"
        },
        {
          "internalType": "uint256",
          "name": "_maxCardsPerGame",
          "type": "uint256"
        },
        {
          "internalType": "uint256",
          "name": "_pricePerCard",
          "type": "uint256"
        },
        {
          "internalType": "uint256",
          "name": "_prizeSplit",
          "type": "uint256"
        },
        {
          "internalType": "address",
          "name": "_owner",
          "type": "address"
        }
      ],
      "name": "contractSettings",
      "outputs": [],
      "stateMutability": "nonpayable",
      "type": "function"
    },
    {
      "inputs": [
        {
          "internalType": "contract IERC20",
          "name": "_token",
          "type": "address"
        },
        {
          "internalType": "uint256",
          "name": "_amount",
          "type": "uint256"
        }
      ],
      "name": "withdraw",
      "outputs": [],
      "stateMutability": "payable",
      "type": "function",
      "payable": true
    }
  ],
  "bytecode": "0x60c060405260016009556103e8600a55662386f26fc10000600b55603c600c556002600e553480156200003157600080fd5b50604051620064673803806200646783398181016040528101906200005791906200034e565b73dd3782915140c8f3b190b5d67eac6dc5760c46e973a36085f69e2889c224210f603d836748e7dc00886040518060400160405280600581526020017f42696e676f0000000000000000000000000000000000000000000000000000008152506040518060400160405280600581526020017f42494e474f00000000000000000000000000000000000000000000000000000081525081600090805190602001906200010592919062000287565b5080600190805190602001906200011e92919062000287565b5050508173ffffffffffffffffffffffffffffffffffffffff1660a08173ffffffffffffffffffffffffffffffffffffffff1660601b815250508073ffffffffffffffffffffffffffffffffffffffff1660808173ffffffffffffffffffffffffffffffffffffffff1660601b81525050505033601060006101000a81548173ffffffffffffffffffffffffffffffffffffffff021916908373ffffffffffffffffffffffffffffffffffffffff16021790555080600f60006101000a81548173ffffffffffffffffffffffffffffffffffffffff021916908373ffffffffffffffffffffffffffffffffffffffff1602179055507f6c3699283bda56ad74f6b855546325b68d482e983852a7a82979cc4807b641f460001b60168190555067016345785d8a00006017819055506200026360086200027160201b620023281760201c565b42601281905550506200042d565b6001816000016000828254019250508190555050565b8280546200029590620003ae565b90600052602060002090601f016020900481019282620002b9576000855562000305565b82601f10620002d457805160ff191683800117855562000305565b8280016001018555821562000305579182015b8281111562000304578251825591602001919060010190620002e7565b5b50905062000314919062000318565b5090565b5b808211156200033357600081600090555060010162000319565b5090565b600081519050620003488162000413565b92915050565b6000602082840312156200036157600080fd5b6000620003718482850162000337565b91505092915050565b600062000387826200038e565b9050919050565b600073ffffffffffffffffffffffffffffffffffffffff82169050919050565b60006002820490506001821680620003c757607f821691505b60208210811415620003de57620003dd620003e4565b5b50919050565b7f4e487b7100000000000000000000000000000000000000000000000000000000600052602260045260246000fd5b6200041e816200037a565b81146200042a57600080fd5b50565b60805160601c60a05160601c615ff96200046e6000396000818161172b01526130a1015260008181610e170152818161101b01526130650152615ff96000f3fe6080604052600436106102305760003560e01c80636e04ff0d1161012e578063a9e95c15116100ab578063e985e9c51161006f578063e985e9c514610885578063eba73c7c146108c2578063ec49e46c146108ff578063f3fef3a31461093c578063f8a7443c1461095857610230565b8063a9e95c15146107af578063aeccceee146107d8578063b88d4fde14610803578063c87b56dd1461082c578063dcde25191461086957610230565b806394985ddd116100f257806394985ddd146106ca57806395d89b41146106f35780639abc83201461071e5780639c15865b14610749578063a22cb4651461078657610230565b80636e04ff0d146105ce57806370a082311461060c5780637153304714610649578063719ce73e14610674578063842005b51461069f57610230565b806342842e0e116101bc578063521eaea311610180578063521eaea3146104e2578063596a0b041461050d57806360b47a5014610538578063630930ba146105545780636352211e1461059157610230565b806342842e0e146103eb5780634585e33b146104145780634725c4091461043d5780634f558e7914610468578063501f51bb146104a557610230565b8063095ea7b311610203578063095ea7b31461030557806311196afe1461032e57806323b872dd146103595780632b675f341461038257806335a5cfcb146103bf57610230565b806301ffc9a71461023557806306fdde0314610272578063081812fc1461029d57806308b237b5146102da575b600080fd5b34801561024157600080fd5b5061025c60048036038101906102579190614550565b610983565b6040516102699190614ef4565b60405180910390f35b34801561027e57600080fd5b50610287610a65565b6040516102949190614fc8565b60405180910390f35b3480156102a957600080fd5b506102c460048036038101906102bf91906146d9565b610af7565b6040516102d19190614da4565b60405180910390f35b3480156102e657600080fd5b506102ef610b7c565b6040516102fc9190615386565b60405180910390f35b34801561031157600080fd5b5061032c60048036038101906103279190614486565b610b82565b005b34801561033a57600080fd5b50610343610c9a565b6040516103509190615386565b60405180910390f35b34801561036557600080fd5b50610380600480360381019061037b9190614380565b610ca0565b005b34801561038e57600080fd5b506103a960048036038101906103a491906146d9565b610d00565b6040516103b69190614ef4565b60405180910390f35b3480156103cb57600080fd5b506103d4610d27565b6040516103e29291906153d8565b60405180910390f35b3480156103f757600080fd5b50610412600480360381019061040d9190614380565b610d46565b005b34801561042057600080fd5b5061043b600480360381019061043691906145a2565b610d66565b005b34801561044957600080fd5b50610452610f1e565b60405161045f9190615386565b60405180910390f35b34801561047457600080fd5b5061048f600480360381019061048a91906146d9565b610f24565b60405161049c9190614ef4565b60405180910390f35b3480156104b157600080fd5b506104cc60048036038101906104c791906144eb565b610f36565b6040516104d99190615386565b60405180910390f35b3480156104ee57600080fd5b506104f7610f4e565b6040516105049190615386565b60405180910390f35b34801561051957600080fd5b50610522610f54565b60405161052f9190615386565b60405180910390f35b610552600480360381019061054d91906146d9565b610f5a565b005b34801561056057600080fd5b5061057b600480360381019061057691906146d9565b6114d2565b604051610588919061536a565b60405180910390f35b34801561059d57600080fd5b506105b860048036038101906105b391906146d9565b6114fd565b6040516105c59190614da4565b60405180910390f35b3480156105da57600080fd5b506105f560048036038101906105f091906145a2565b6115af565b604051610603929190614f0f565b60405180910390f35b34801561061857600080fd5b50610633600480360381019061062e919061431b565b611652565b6040516106409190615386565b60405180910390f35b34801561065557600080fd5b5061065e61170a565b60405161066b9190614ef4565b60405180910390f35b34801561068057600080fd5b5061068961171d565b6040516106969190615386565b60405180910390f35b3480156106ab57600080fd5b506106b4611723565b6040516106c19190615386565b60405180910390f35b3480156106d657600080fd5b506106f160048036038101906106ec9190614514565b611729565b005b3480156106ff57600080fd5b506107086117c5565b6040516107159190614fc8565b60405180910390f35b34801561072a57600080fd5b50610733611857565b6040516107409190614fc8565b60405180910390f35b34801561075557600080fd5b50610770600480360381019061076b91906146d9565b6118e5565b60405161077d9190614ef4565b60405180910390f35b34801561079257600080fd5b506107ad60048036038101906107a8919061444a565b611905565b005b3480156107bb57600080fd5b506107d660048036038101906107d19190614623565b611a86565b005b3480156107e457600080fd5b506107ed611b64565b6040516107fa9190615386565b60405180910390f35b34801561080f57600080fd5b5061082a600480360381019061082591906143cf565b611b70565b005b34801561083857600080fd5b50610853600480360381019061084e91906146d9565b611bd2565b6040516108609190614fc8565b60405180910390f35b610883600480360381019061087e91906146d9565b611c79565b005b34801561089157600080fd5b506108ac60048036038101906108a79190614344565b611eb8565b6040516108b99190614ef4565b60405180910390f35b3480156108ce57600080fd5b506108e960048036038101906108e4919061431b565b611f4c565b6040516108f69190614ed2565b60405180910390f35b34801561090b57600080fd5b50610926600480360381019061092191906146d9565b61209b565b6040516109339190615386565b60405180910390f35b610956600480360381019061095191906145e7565b6120b3565b005b34801561096457600080fd5b5061096d612322565b60405161097a9190614f3f565b60405180910390f35b60007f80ac58cd000000000000000000000000000000000000000000000000000000007bffffffffffffffffffffffffffffffffffffffffffffffffffffffff1916827bffffffffffffffffffffffffffffffffffffffffffffffffffffffff19161480610a4e57507f5b5e139f000000000000000000000000000000000000000000000000000000007bffffffffffffffffffffffffffffffffffffffffffffffffffffffff1916827bffffffffffffffffffffffffffffffffffffffffffffffffffffffff1916145b80610a5e5750610a5d8261233e565b5b9050919050565b606060008054610a749061575d565b80601f0160208091040260200160405190810160405280929190818152602001828054610aa09061575d565b8015610aed5780601f10610ac257610100808354040283529160200191610aed565b820191906000526020600020905b815481529060010190602001808311610ad057829003601f168201915b5050505050905090565b6000610b02826123a8565b610b41576040517f08c379a0000000000000000000000000000000000000000000000000000000008152600401610b389061522a565b60405180910390fd5b6004600083815260200190815260200160002060009054906101000a900473ffffffffffffffffffffffffffffffffffffffff169050919050565b600a5481565b6000610b8d826114fd565b90508073ffffffffffffffffffffffffffffffffffffffff168373ffffffffffffffffffffffffffffffffffffffff161415610bfe576040517f08c379a0000000000000000000000000000000000000000000000000000000008152600401610bf5906152aa565b60405180910390fd5b8073ffffffffffffffffffffffffffffffffffffffff16610c1d612414565b73ffffffffffffffffffffffffffffffffffffffff161480610c4c5750610c4b81610c46612414565b611eb8565b5b610c8b576040517f08c379a0000000000000000000000000000000000000000000000000000000008152600401610c829061514a565b60405180910390fd5b610c95838361241c565b505050565b600c5481565b610cb1610cab612414565b826124d5565b610cf0576040517f08c379a0000000000000000000000000000000000000000000000000000000008152600401610ce7906152ea565b60405180910390fd5b610cfb8383836125b3565b505050565b6000610d206019600084815260200190815260200160002054601a61280f565b9050919050565b600080610d346008613053565b9150610d406007613053565b90509091565b610d6183838360405180602001604052806000815250611b70565b505050565b600c54601254610d769190615576565b4211610db7576040517f08c379a0000000000000000000000000000000000000000000000000000000008152600401610dae9061512a565b60405180910390fd5b600954601154610dc76007613053565b610dd19190615657565b1015610e12576040517f08c379a0000000000000000000000000000000000000000000000000000000008152600401610e09906151aa565b60405180910390fd5b6017547f000000000000000000000000000000000000000000000000000000000000000073ffffffffffffffffffffffffffffffffffffffff166370a08231306040518263ffffffff1660e01b8152600401610e6e9190614da4565b60206040518083038186803b158015610e8657600080fd5b505afa158015610e9a573d6000803e3d6000fd5b505050506040513d601f19601f82011682018060405250810190610ebe9190614702565b1015610eff576040517f08c379a0000000000000000000000000000000000000000000000000000000008152600401610ef6906151ea565b60405180910390fd5b42601281905550610f14601654601754613061565b6013819055505050565b60095481565b6000610f2f826123a8565b9050919050565b60186020528060005260406000206000915090505481565b600b5481565b60125481565b600a811115610f9e576040517f08c379a0000000000000000000000000000000000000000000000000000000008152600401610f959061500a565b60405180910390fd5b600a54601154610fc083610fb26007613053565b6131c390919063ffffffff16565b610fca9190615657565b111561100b576040517f08c379a00000000000000000000000000000000000000000000000000000000081526004016110029061530a565b60405180910390fd5b8060175461101991906155fd565b7f000000000000000000000000000000000000000000000000000000000000000073ffffffffffffffffffffffffffffffffffffffff166370a08231306040518263ffffffff1660e01b81526004016110729190614da4565b60206040518083038186803b15801561108a57600080fd5b505afa15801561109e573d6000803e3d6000fd5b505050506040513d601f19601f820116820180604052508101906110c29190614702565b1015611103576040517f08c379a00000000000000000000000000000000000000000000000000000000081526004016110fa906151ea565b60405180910390fd5b600034111561119a573461112282600b546131d990919063ffffffff16565b1115611163576040517f08c379a000000000000000000000000000000000000000000000000000000000815260040161115a9061532a565b60405180910390fd5b6000600e54111561119557600e543461117c91906155cc565b6014600082825461118d9190615576565b925050819055505b611465565b8068d8d726b7177a8000006111af91906155fd565b600f60009054906101000a900473ffffffffffffffffffffffffffffffffffffffff1673ffffffffffffffffffffffffffffffffffffffff166370a08231336040518263ffffffff1660e01b815260040161120a9190614da4565b60206040518083038186803b15801561122257600080fd5b505afa158015611236573d6000803e3d6000fd5b505050506040513d601f19601f8201168201806040525081019061125a9190614702565b101561129b576040517f08c379a00000000000000000000000000000000000000000000000000000000081526004016112929061506a565b60405180910390fd5b8068d8d726b7177a8000006112b091906155fd565b600f60009054906101000a900473ffffffffffffffffffffffffffffffffffffffff1673ffffffffffffffffffffffffffffffffffffffff1663dd62ed3e33306040518363ffffffff1660e01b815260040161130d929190614dbf565b60206040518083038186803b15801561132557600080fd5b505afa158015611339573d6000803e3d6000fd5b505050506040513d601f19601f8201168201806040525081019061135d9190614702565b101561139e576040517f08c379a00000000000000000000000000000000000000000000000000000000081526004016113959061534a565b60405180910390fd5b600f60009054906101000a900473ffffffffffffffffffffffffffffffffffffffff1673ffffffffffffffffffffffffffffffffffffffff166323b872dd33308468d8d726b7177a8000006113f391906155fd565b6040518463ffffffff1660e01b815260040161141193929190614de8565b602060405180830381600087803b15801561142b57600080fd5b505af115801561143f573d6000803e3d6000fd5b505050506040513d601f19601f8201168201806040525081019061146391906144c2565b505b600080600090505b828110156114cd5761147f6007612328565b6114896007613053565b915061149533836131ef565b81601860006114a8601654601754613061565b81526020019081526020016000208190555080806114c5906157c0565b91505061146d565b505050565b6114da613fe1565b6114f6601960008481526020019081526020016000205461320d565b9050919050565b6000806002600084815260200190815260200160002060009054906101000a900473ffffffffffffffffffffffffffffffffffffffff169050600073ffffffffffffffffffffffffffffffffffffffff168173ffffffffffffffffffffffffffffffffffffffff1614156115a6576040517f08c379a000000000000000000000000000000000000000000000000000000000815260040161159d9061518a565b60405180910390fd5b80915050919050565b600060606009546011546115c36007613053565b6115cd9190615657565b101580156116025750600c546012546115e69190615576565b421180156116015750601560009054906101000a900460ff16155b5b915083838080601f016020809104026020016040519081016040528093929190818152602001838380828437600081840152601f19601f8201169050808301925050505050505090509250929050565b60008073ffffffffffffffffffffffffffffffffffffffff168273ffffffffffffffffffffffffffffffffffffffff1614156116c3576040517f08c379a00000000000000000000000000000000000000000000000000000000081526004016116ba9061516a565b60405180910390fd5b600360008373ffffffffffffffffffffffffffffffffffffffff1673ffffffffffffffffffffffffffffffffffffffff168152602001908152602001600020549050919050565b601560009054906101000a900460ff1681565b60145481565b60115481565b7f000000000000000000000000000000000000000000000000000000000000000073ffffffffffffffffffffffffffffffffffffffff163373ffffffffffffffffffffffffffffffffffffffff16146117b7576040517f08c379a00000000000000000000000000000000000000000000000000000000081526004016117ae9061528a565b60405180910390fd5b6117c18282613418565b5050565b6060600180546117d49061575d565b80601f01602080910402602001604051908101604052809291908181526020018280546118009061575d565b801561184d5780601f106118225761010080835404028352916020019161184d565b820191906000526020600020905b81548152906001019060200180831161183057829003601f168201915b5050505050905090565b600d80546118649061575d565b80601f01602080910402602001604051908101604052809291908181526020018280546118909061575d565b80156118dd5780601f106118b2576101008083540402835291602001916118dd565b820191906000526020600020905b8154815290600101906020018083116118c057829003601f168201915b505050505081565b601a6020528060005260406000206000915054906101000a900460ff1681565b61190d612414565b73ffffffffffffffffffffffffffffffffffffffff168273ffffffffffffffffffffffffffffffffffffffff16141561197b576040517f08c379a0000000000000000000000000000000000000000000000000000000008152600401611972906150aa565b60405180910390fd5b8060056000611988612414565b73ffffffffffffffffffffffffffffffffffffffff1673ffffffffffffffffffffffffffffffffffffffff16815260200190815260200160002060008473ffffffffffffffffffffffffffffffffffffffff1673ffffffffffffffffffffffffffffffffffffffff16815260200190815260200160002060006101000a81548160ff0219169083151502179055508173ffffffffffffffffffffffffffffffffffffffff16611a35612414565b73ffffffffffffffffffffffffffffffffffffffff167f17307eab39ab6107e8899845ad3d59bd9653f200f220920489ca2b5937696c3183604051611a7a9190614ef4565b60405180910390a35050565b601060009054906101000a900473ffffffffffffffffffffffffffffffffffffffff1673ffffffffffffffffffffffffffffffffffffffff163373ffffffffffffffffffffffffffffffffffffffff1614611ae057600080fd5b86600d9080519060200190611af692919061402e565b5085600c819055508460098190555083600a8190555082600b8190555081600e8190555080601060006101000a81548173ffffffffffffffffffffffffffffffffffffffff021916908373ffffffffffffffffffffffffffffffffffffffff16021790555050505050505050565b60088060000154905081565b611b81611b7b612414565b836124d5565b611bc0576040517f08c379a0000000000000000000000000000000000000000000000000000000008152600401611bb7906152ea565b60405180910390fd5b611bcc84848484613682565b50505050565b6060611bdd826123a8565b611c1c576040517f08c379a0000000000000000000000000000000000000000000000000000000008152600401611c139061526a565b60405180910390fd5b6000611c266136de565b90506000815111611c465760405180602001604052806000815250611c71565b80611c5084613770565b604051602001611c61929190614d80565b6040516020818303038152906040525b915050919050565b3373ffffffffffffffffffffffffffffffffffffffff16611c99826114fd565b73ffffffffffffffffffffffffffffffffffffffff1614611cef576040517f08c379a0000000000000000000000000000000000000000000000000000000008152600401611ce690614fea565b60405180910390fd5b611d0d6019600083815260200190815260200160002054601a61280f565b611d4c576040517f08c379a0000000000000000000000000000000000000000000000000000000008152600401611d43906150ca565b60405180910390fd5b6011548111611d90576040517f08c379a0000000000000000000000000000000000000000000000000000000008152600401611d879061520a565b60405180910390fd5b3373ffffffffffffffffffffffffffffffffffffffff166108fc6014549081150290604051600060405180830381858888f19350505050158015611dd8573d6000803e3d6000fd5b507fe12d245aae1a731b0f810d51796326dbda209fe3f204cc2f929d9dda64f6bb8c611e046008613053565b6011543384604051611e199493929190615401565b60405180910390a16000601481905550611e336008612328565b426012819055506000601560006101000a81548160ff021916908315150217905550611e5f6007613053565b6011819055506000600190505b604c811015611eb4576000601a600083815260200190815260200160002060006101000a81548160ff0219169083151502179055508080611eac906157c0565b915050611e6c565b5050565b6000600560008473ffffffffffffffffffffffffffffffffffffffff1673ffffffffffffffffffffffffffffffffffffffff16815260200190815260200160002060008373ffffffffffffffffffffffffffffffffffffffff1673ffffffffffffffffffffffffffffffffffffffff16815260200190815260200160002060009054906101000a900460ff16905092915050565b6060611f5782611652565b67ffffffffffffffff811115611f96577f4e487b7100000000000000000000000000000000000000000000000000000000600052604160045260246000fd5b604051908082528060200260200182016040528015611fc45781602001602082028036833780820191505090505b509050600080600190505b611fd96007613053565b811161209457611fe8816123a8565b801561202757508373ffffffffffffffffffffffffffffffffffffffff1661200f826114fd565b73ffffffffffffffffffffffffffffffffffffffff16145b156120815780838381518110612066577f4e487b7100000000000000000000000000000000000000000000000000000000600052603260045260246000fd5b602002602001018181525050818061207d906157c0565b9250505b808061208c906157c0565b915050611fcf565b5050919050565b60196020528060005260406000206000915090505481565b601060009054906101000a900473ffffffffffffffffffffffffffffffffffffffff1673ffffffffffffffffffffffffffffffffffffffff163373ffffffffffffffffffffffffffffffffffffffff161461210d57600080fd5b60008111156121a9578173ffffffffffffffffffffffffffffffffffffffff1663a9059cbb33836040518363ffffffff1660e01b8152600401612151929190614e6b565b602060405180830381600087803b15801561216b57600080fd5b505af115801561217f573d6000803e3d6000fd5b505050506040513d601f19601f820116820180604052508101906121a391906144c2565b5061231e565b60006121d360046121c56014544761391d90919063ffffffff16565b61393390919063ffffffff16565b905072796e910bd0228ddf4cd79e3f353871a61c351c73ffffffffffffffffffffffffffffffffffffffff166108fc829081150290604051600060405180830381858888f1935050505061222657600080fd5b737fc55376d5a29e0ee86c18c81bb2fc8f9f490e5073ffffffffffffffffffffffffffffffffffffffff166108fc829081150290604051600060405180830381858888f1935050505061227857600080fd5b73b58fb5372e9aa0c86c3b281179c05af3bb7a181b73ffffffffffffffffffffffffffffffffffffffff166108fc829081150290604051600060405180830381858888f193505050506122ca57600080fd5b73d83dd8a288270512b8a46f581a8254cd971dcb0973ffffffffffffffffffffffffffffffffffffffff166108fc829081150290604051600060405180830381858888f1935050505061231c57600080fd5b505b5050565b60135481565b6001816000016000828254019250508190555050565b60007f01ffc9a7000000000000000000000000000000000000000000000000000000007bffffffffffffffffffffffffffffffffffffffffffffffffffffffff1916827bffffffffffffffffffffffffffffffffffffffffffffffffffffffff1916149050919050565b60008073ffffffffffffffffffffffffffffffffffffffff166002600084815260200190815260200160002060009054906101000a900473ffffffffffffffffffffffffffffffffffffffff1673ffffffffffffffffffffffffffffffffffffffff1614159050919050565b600033905090565b816004600083815260200190815260200160002060006101000a81548173ffffffffffffffffffffffffffffffffffffffff021916908373ffffffffffffffffffffffffffffffffffffffff160217905550808273ffffffffffffffffffffffffffffffffffffffff1661248f836114fd565b73ffffffffffffffffffffffffffffffffffffffff167f8c5be1e5ebec7d5bd14f71427d1e84f3dd0314c0f7b2291e5b200ac8c7c3b92560405160405180910390a45050565b60006124e0826123a8565b61251f576040517f08c379a00000000000000000000000000000000000000000000000000000000081526004016125169061510a565b60405180910390fd5b600061252a836114fd565b90508073ffffffffffffffffffffffffffffffffffffffff168473ffffffffffffffffffffffffffffffffffffffff16148061259957508373ffffffffffffffffffffffffffffffffffffffff1661258184610af7565b73ffffffffffffffffffffffffffffffffffffffff16145b806125aa57506125a98185611eb8565b5b91505092915050565b8273ffffffffffffffffffffffffffffffffffffffff166125d3826114fd565b73ffffffffffffffffffffffffffffffffffffffff1614612629576040517f08c379a00000000000000000000000000000000000000000000000000000000081526004016126209061524a565b60405180910390fd5b600073ffffffffffffffffffffffffffffffffffffffff168273ffffffffffffffffffffffffffffffffffffffff161415612699576040517f08c379a00000000000000000000000000000000000000000000000000000000081526004016126909061508a565b60405180910390fd5b6126a4838383613949565b6126af60008261241c565b6001600360008573ffffffffffffffffffffffffffffffffffffffff1673ffffffffffffffffffffffffffffffffffffffff16815260200190815260200160002060008282546126ff9190615657565b925050819055506001600360008473ffffffffffffffffffffffffffffffffffffffff1673ffffffffffffffffffffffffffffffffffffffff16815260200190815260200160002060008282546127569190615576565b92505081905550816002600083815260200190815260200160002060006101000a81548173ffffffffffffffffffffffffffffffffffffffff021916908373ffffffffffffffffffffffffffffffffffffffff160217905550808273ffffffffffffffffffffffffffffffffffffffff168473ffffffffffffffffffffffffffffffffffffffff167fddf252ad1be2c89b69c2b068fc378daa952ba7f163c4a11628f55a4df523b3ef60405160405180910390a4505050565b60008061281b8461320d565b90506128256140b4565b60005b60058110156129f1576040518060a0016040528084600001518360058110612879577f4e487b7100000000000000000000000000000000000000000000000000000000600052603260045260246000fd5b60200201518152602001846020015183600581106128c0577f4e487b7100000000000000000000000000000000000000000000000000000000600052603260045260246000fd5b6020020151815260200184604001518360058110612907577f4e487b7100000000000000000000000000000000000000000000000000000000600052603260045260246000fd5b602002015181526020018460600151836005811061294e577f4e487b7100000000000000000000000000000000000000000000000000000000600052603260045260246000fd5b6020020151815260200184608001518360058110612995577f4e487b7100000000000000000000000000000000000000000000000000000000600052603260045260246000fd5b60200201518152508282600c81106129d6577f4e487b7100000000000000000000000000000000000000000000000000000000600052603260045260246000fd5b602002018190525080806129e9906157c0565b915050612828565b8260000151826005600c8110612a30577f4e487b7100000000000000000000000000000000000000000000000000000000600052603260045260246000fd5b60200201819052508260200151826006600c8110612a77577f4e487b7100000000000000000000000000000000000000000000000000000000600052603260045260246000fd5b60200201819052508260400151826007600c8110612abe577f4e487b7100000000000000000000000000000000000000000000000000000000600052603260045260246000fd5b60200201819052508260600151826008600c8110612b05577f4e487b7100000000000000000000000000000000000000000000000000000000600052603260045260246000fd5b60200201819052508260800151826009600c8110612b4c577f4e487b7100000000000000000000000000000000000000000000000000000000600052603260045260246000fd5b60200201819052506040518060a001604052808460000151600060058110612b9d577f4e487b7100000000000000000000000000000000000000000000000000000000600052603260045260246000fd5b602002015181526020018460200151600160058110612be5577f4e487b7100000000000000000000000000000000000000000000000000000000600052603260045260246000fd5b602002015181526020018460400151600260058110612c2d577f4e487b7100000000000000000000000000000000000000000000000000000000600052603260045260246000fd5b602002015181526020018460600151600360058110612c75577f4e487b7100000000000000000000000000000000000000000000000000000000600052603260045260246000fd5b602002015181526020018460800151600460058110612cbd577f4e487b7100000000000000000000000000000000000000000000000000000000600052603260045260246000fd5b602002015181525082600a600c8110612cff577f4e487b7100000000000000000000000000000000000000000000000000000000600052603260045260246000fd5b60200201819052506040518060a001604052808460000151600460058110612d50577f4e487b7100000000000000000000000000000000000000000000000000000000600052603260045260246000fd5b602002015181526020018460200151600360058110612d98577f4e487b7100000000000000000000000000000000000000000000000000000000600052603260045260246000fd5b602002015181526020018460400151600260058110612de0577f4e487b7100000000000000000000000000000000000000000000000000000000600052603260045260246000fd5b602002015181526020018460600151600160058110612e28577f4e487b7100000000000000000000000000000000000000000000000000000000600052603260045260246000fd5b602002015181526020018460800151600060058110612e70577f4e487b7100000000000000000000000000000000000000000000000000000000600052603260045260246000fd5b602002015181525082600b600c8110612eb2577f4e487b7100000000000000000000000000000000000000000000000000000000600052603260045260246000fd5b602002018190525060009350600080600092505b600c8310156130485760009050600091505b6005821015613027578660008585600c8110612f1d577f4e487b7100000000000000000000000000000000000000000000000000000000600052603260045260246000fd5b60200201518460058110612f5a577f4e487b7100000000000000000000000000000000000000000000000000000000600052603260045260246000fd5b6020020151815260200190815260200160002060009054906101000a900460ff1680613000575060638484600c8110612fbc577f4e487b7100000000000000000000000000000000000000000000000000000000600052603260045260246000fd5b60200201518360058110612ff9577f4e487b7100000000000000000000000000000000000000000000000000000000600052603260045260246000fd5b6020020151145b15613014578080613010906157c0565b9150505b818061301f906157c0565b925050612ed8565b600581141561303557600195505b8280613040906157c0565b935050612ec6565b505050505092915050565b600081600001549050919050565b60007f000000000000000000000000000000000000000000000000000000000000000073ffffffffffffffffffffffffffffffffffffffff16634000aea07f0000000000000000000000000000000000000000000000000000000000000000848660006040516020016130d5929190614f5a565b6040516020818303038152906040526040518463ffffffff1660e01b815260040161310293929190614e94565b602060405180830381600087803b15801561311c57600080fd5b505af1158015613130573d6000803e3d6000fd5b505050506040513d601f19601f8201168201806040525081019061315491906144c2565b50600061317784600030600660008981526020019081526020016000205461394e565b9050600160066000868152602001908152602001600020546131999190615576565b60066000868152602001908152602001600020819055506131ba848261398a565b91505092915050565b600081836131d19190615576565b905092915050565b600081836131e791906155fd565b905092915050565b6132098282604051806020016040528060008152506139bd565b5050565b613215613fe1565b600082141561322357613413565b61322b6140e2565b600080600090505b600581101561340f5761327085826040516020016132529291906153d8565b6040516020818303038152906040528051906020012060001c613a18565b9250600091505b6005821015613389576002811480156132905750600282145b156132de5760638383600581106132d0577f4e487b7100000000000000000000000000000000000000000000000000000000600052603260045260246000fd5b602002018181525050613376565b600f816132eb91906155fd565b838360058110613324577f4e487b7100000000000000000000000000000000000000000000000000000000600052603260045260246000fd5b60200201516133339190615576565b83836005811061336c577f4e487b7100000000000000000000000000000000000000000000000000000000600052603260045260246000fd5b6020020181815250505b8180613381906157c0565b925050613277565b60008114156133a0578284600001819052506133fc565b60018114156133b7578284602001819052506133fb565b60028114156133ce578284604001819052506133fa565b60038114156133e5578284606001819052506133f9565b60048114156133f8578284608001819052505b5b5b5b5b8080613407906157c0565b915050613233565b5050505b919050565b601354821415613591576013548214613466576040517f08c379a000000000000000000000000000000000000000000000000000000000815260040161345d906150ea565b60405180910390fd5b600080600090505b604c81101561358a576134b060016134a2604b61349485886131c390919063ffffffff16565b613c5390919063ffffffff16565b6131c390919063ffffffff16565b915060001515601a600084815260200190815260200160002060009054906101000a900460ff1615151415613552576001601a600084815260200190815260200160002060006101000a81548160ff0219169083151502179055507fd85a895f825d2064ec30917b67b720684fafc60d3c7e8c33b9d1abd623b0cb6d6135366008613053565b836040516135459291906153d8565b60405180910390a161358a565b604b811415613577576001601560006101000a81548160ff0219169083151502179055505b8080613582906157c0565b91505061346e565b505061367e565b60006018600084815260200190815260200160002054116135e7576040517f08c379a00000000000000000000000000000000000000000000000000000000081526004016135de906152ca565b60405180910390fd5b600060186000848152602001908152602001600020549050816019600083815260200190815260200160002081905550600060186000858152602001908152602001600020819055507ff4667020580928dc83ab932094d72fc76e1b38d5d661a420dc5b5aea7de31ee361365b6008613053565b613664836114fd565b83604051613674939291906153a1565b60405180910390a1505b5050565b61368d8484846125b3565b61369984848484613c69565b6136d8576040517f08c379a00000000000000000000000000000000000000000000000000000000081526004016136cf9061502a565b60405180910390fd5b50505050565b6060600d80546136ed9061575d565b80601f01602080910402602001604051908101604052809291908181526020018280546137199061575d565b80156137665780601f1061373b57610100808354040283529160200191613766565b820191906000526020600020905b81548152906001019060200180831161374957829003601f168201915b5050505050905090565b606060008214156137b8576040518060400160405280600181526020017f30000000000000000000000000000000000000000000000000000000000000008152509050613918565b600082905060005b600082146137ea5780806137d3906157c0565b915050600a826137e391906155cc565b91506137c0565b60008167ffffffffffffffff81111561382c577f4e487b7100000000000000000000000000000000000000000000000000000000600052604160045260246000fd5b6040519080825280601f01601f19166020018201604052801561385e5781602001600182028036833780820191505090505b5090505b60008514613911576001826138779190615657565b9150600a85613886919061581d565b60306138929190615576565b60f81b8183815181106138ce577f4e487b7100000000000000000000000000000000000000000000000000000000600052603260045260246000fd5b60200101907effffffffffffffffffffffffffffffffffffffffffffffffffffffffffffff1916908160001a905350600a8561390a91906155cc565b9450613862565b8093505050505b919050565b6000818361392b9190615657565b905092915050565b6000818361394191906155cc565b905092915050565b505050565b6000848484846040516020016139679493929190614f83565b6040516020818303038152906040528051906020012060001c9050949350505050565b6000828260405160200161399f929190614d54565b60405160208183030381529060405280519060200120905092915050565b6139c78383613e00565b6139d46000848484613c69565b613a13576040517f08c379a0000000000000000000000000000000000000000000000000000000008152600401613a0a9061502a565b60405180910390fd5b505050565b613a206140e2565b613a28614104565b60005b600f811015613a9657600181613a419190615576565b8282600f8110613a7a577f4e487b7100000000000000000000000000000000000000000000000000000000600052603260045260246000fd5b6020020181815250508080613a8e906157c0565b915050613a2b565b50600080600090505b6005811015613c4b57613afe816001613ab89190615576565b600f613ac49190615657565b8683604051602001613ad79291906153d8565b6040516020818303038152906040528051906020012060001c613c5390919063ffffffff16565b91508282600f8110613b39577f4e487b7100000000000000000000000000000000000000000000000000000000600052603260045260246000fd5b6020020151848260058110613b77577f4e487b7100000000000000000000000000000000000000000000000000000000600052603260045260246000fd5b602002018181525050806001613b8d9190615576565b600f613b999190615657565b8214613c385782816001613bad9190615576565b600f613bb99190615657565b600f8110613bf0577f4e487b7100000000000000000000000000000000000000000000000000000000600052603260045260246000fd5b60200201518383600f8110613c2e577f4e487b7100000000000000000000000000000000000000000000000000000000600052603260045260246000fd5b6020020181815250505b8080613c43906157c0565b915050613a9f565b505050919050565b60008183613c61919061581d565b905092915050565b6000613c8a8473ffffffffffffffffffffffffffffffffffffffff16613fce565b15613df3578373ffffffffffffffffffffffffffffffffffffffff1663150b7a02613cb3612414565b8786866040518563ffffffff1660e01b8152600401613cd59493929190614e1f565b602060405180830381600087803b158015613cef57600080fd5b505af1925050508015613d2057506040513d601f19601f82011682018060405250810190613d1d9190614579565b60015b613da3573d8060008114613d50576040519150601f19603f3d011682016040523d82523d6000602084013e613d55565b606091505b50600081511415613d9b576040517f08c379a0000000000000000000000000000000000000000000000000000000008152600401613d929061502a565b60405180910390fd5b805181602001fd5b63150b7a0260e01b7bffffffffffffffffffffffffffffffffffffffffffffffffffffffff1916817bffffffffffffffffffffffffffffffffffffffffffffffffffffffff191614915050613df8565b600190505b949350505050565b600073ffffffffffffffffffffffffffffffffffffffff168273ffffffffffffffffffffffffffffffffffffffff161415613e70576040517f08c379a0000000000000000000000000000000000000000000000000000000008152600401613e67906151ca565b60405180910390fd5b613e79816123a8565b15613eb9576040517f08c379a0000000000000000000000000000000000000000000000000000000008152600401613eb09061504a565b60405180910390fd5b613ec560008383613949565b6001600360008473ffffffffffffffffffffffffffffffffffffffff1673ffffffffffffffffffffffffffffffffffffffff1681526020019081526020016000206000828254613f159190615576565b92505081905550816002600083815260200190815260200160002060006101000a81548173ffffffffffffffffffffffffffffffffffffffff021916908373ffffffffffffffffffffffffffffffffffffffff160217905550808273ffffffffffffffffffffffffffffffffffffffff16600073ffffffffffffffffffffffffffffffffffffffff167fddf252ad1be2c89b69c2b068fc378daa952ba7f163c4a11628f55a4df523b3ef60405160405180910390a45050565b600080823b905060008111915050919050565b6040518060a00160405280613ff46140e2565b81526020016140016140e2565b815260200161400e6140e2565b815260200161401b6140e2565b81526020016140286140e2565b81525090565b82805461403a9061575d565b90600052602060002090601f01602090048101928261405c57600085556140a3565b82601f1061407557805160ff19168380011785556140a3565b828001600101855582156140a3579182015b828111156140a2578251825591602001919060010190614087565b5b5090506140b09190614127565b5090565b604051806101800160405280600c905b6140cc6140e2565b8152602001906001900390816140c45790505090565b6040518060a00160405280600590602082028036833780820191505090505090565b604051806101e00160405280600f90602082028036833780820191505090505090565b5b80821115614140576000816000905550600101614128565b5090565b60006141576141528461546b565b615446565b90508281526020810184848401111561416f57600080fd5b61417a84828561571b565b509392505050565b60006141956141908461549c565b615446565b9050828152602081018484840111156141ad57600080fd5b6141b884828561571b565b509392505050565b6000813590506141cf81615f39565b92915050565b6000813590506141e481615f50565b92915050565b6000815190506141f981615f50565b92915050565b60008135905061420e81615f67565b92915050565b60008135905061422381615f7e565b92915050565b60008151905061423881615f7e565b92915050565b60008083601f84011261425057600080fd5b8235905067ffffffffffffffff81111561426957600080fd5b60208301915083600182028301111561428157600080fd5b9250929050565b600082601f83011261429957600080fd5b81356142a9848260208601614144565b91505092915050565b6000813590506142c181615f95565b92915050565b600082601f8301126142d857600080fd5b81356142e8848260208601614182565b91505092915050565b60008135905061430081615fac565b92915050565b60008151905061431581615fac565b92915050565b60006020828403121561432d57600080fd5b600061433b848285016141c0565b91505092915050565b6000806040838503121561435757600080fd5b6000614365858286016141c0565b9250506020614376858286016141c0565b9150509250929050565b60008060006060848603121561439557600080fd5b60006143a3868287016141c0565b93505060206143b4868287016141c0565b92505060406143c5868287016142f1565b9150509250925092565b600080600080608085870312156143e557600080fd5b60006143f3878288016141c0565b9450506020614404878288016141c0565b9350506040614415878288016142f1565b925050606085013567ffffffffffffffff81111561443257600080fd5b61443e87828801614288565b91505092959194509250565b6000806040838503121561445d57600080fd5b600061446b858286016141c0565b925050602061447c858286016141d5565b9150509250929050565b6000806040838503121561449957600080fd5b60006144a7858286016141c0565b92505060206144b8858286016142f1565b9150509250929050565b6000602082840312156144d457600080fd5b60006144e2848285016141ea565b91505092915050565b6000602082840312156144fd57600080fd5b600061450b848285016141ff565b91505092915050565b6000806040838503121561452757600080fd5b6000614535858286016141ff565b9250506020614546858286016142f1565b9150509250929050565b60006020828403121561456257600080fd5b600061457084828501614214565b91505092915050565b60006020828403121561458b57600080fd5b600061459984828501614229565b91505092915050565b600080602083850312156145b557600080fd5b600083013567ffffffffffffffff8111156145cf57600080fd5b6145db8582860161423e565b92509250509250929050565b600080604083850312156145fa57600080fd5b6000614608858286016142b2565b9250506020614619858286016142f1565b9150509250929050565b600080600080600080600060e0888a03121561463e57600080fd5b600088013567ffffffffffffffff81111561465857600080fd5b6146648a828b016142c7565b97505060206146758a828b016142f1565b96505060406146868a828b016142f1565b95505060606146978a828b016142f1565b94505060806146a88a828b016142f1565b93505060a06146b98a828b016142f1565b92505060c06146ca8a828b016141c0565b91505092959891949750929550565b6000602082840312156146eb57600080fd5b60006146f9848285016142f1565b91505092915050565b60006020828403121561471457600080fd5b600061472284828501614306565b91505092915050565b60006147378383614d1f565b60208301905092915050565b61474c8161568b565b82525050565b61475b816154e7565b614765818461552d565b9250614770826154cd565b8060005b838110156147a1578151614788878261472b565b965061479383615513565b925050600181019050614774565b505050505050565b60006147b4826154f2565b6147be8185615538565b93506147c9836154d7565b8060005b838110156147fa5781516147e1888261472b565b97506147ec83615520565b9250506001810190506147cd565b5085935050505092915050565b6148108161569d565b82525050565b61481f816156a9565b82525050565b614836614831826156a9565b615809565b82525050565b6000614847826154fd565b6148518185615549565b935061486181856020860161572a565b61486a8161590a565b840191505092915050565b600061488082615508565b61488a818561555a565b935061489a81856020860161572a565b6148a38161590a565b840191505092915050565b60006148b982615508565b6148c3818561556b565b93506148d381856020860161572a565b80840191505092915050565b60006148ec60028361555a565b91506148f78261591b565b602082019050919050565b600061490f60028361555a565b915061491a82615944565b602082019050919050565b600061493260328361555a565b915061493d8261596d565b604082019050919050565b6000614955601c8361555a565b9150614960826159bc565b602082019050919050565b600061497860028361555a565b9150614983826159e5565b602082019050919050565b600061499b60248361555a565b91506149a682615a0e565b604082019050919050565b60006149be60198361555a565b91506149c982615a5d565b602082019050919050565b60006149e160028361555a565b91506149ec82615a86565b602082019050919050565b6000614a0460028361555a565b9150614a0f82615aaf565b602082019050919050565b6000614a27602c8361555a565b9150614a3282615ad8565b604082019050919050565b6000614a4a60028361555a565b9150614a5582615b27565b602082019050919050565b6000614a6d60388361555a565b9150614a7882615b50565b604082019050919050565b6000614a90602a8361555a565b9150614a9b82615b9f565b604082019050919050565b6000614ab360298361555a565b9150614abe82615bee565b604082019050919050565b6000614ad660028361555a565b9150614ae182615c3d565b602082019050919050565b6000614af960208361555a565b9150614b0482615c66565b602082019050919050565b6000614b1c60018361555a565b9150614b2782615c8f565b602082019050919050565b6000614b3f60028361555a565b9150614b4a82615cb8565b602082019050919050565b6000614b62602c8361555a565b9150614b6d82615ce1565b604082019050919050565b6000614b8560298361555a565b9150614b9082615d30565b604082019050919050565b6000614ba8602f8361555a565b9150614bb382615d7f565b604082019050919050565b6000614bcb601f8361555a565b9150614bd682615dce565b602082019050919050565b6000614bee60218361555a565b9150614bf982615df7565b604082019050919050565b6000614c1160028361555a565b9150614c1c82615e46565b602082019050919050565b6000614c3460318361555a565b9150614c3f82615e6f565b604082019050919050565b6000614c5760028361555a565b9150614c6282615ebe565b602082019050919050565b6000614c7a60028361555a565b9150614c8582615ee7565b602082019050919050565b6000614c9d60028361555a565b9150614ca882615f10565b602082019050919050565b61032082016000820151614cca6000850182614752565b506020820151614cdd60a0850182614752565b506040820151614cf1610140850182614752565b506060820151614d056101e0850182614752565b506080820151614d19610280850182614752565b50505050565b614d2881615711565b82525050565b614d3781615711565b82525050565b614d4e614d4982615711565b615813565b82525050565b6000614d608285614825565b602082019150614d708284614d3d565b6020820191508190509392505050565b6000614d8c82856148ae565b9150614d9882846148ae565b91508190509392505050565b6000602082019050614db96000830184614743565b92915050565b6000604082019050614dd46000830185614743565b614de16020830184614743565b9392505050565b6000606082019050614dfd6000830186614743565b614e0a6020830185614743565b614e176040830184614d2e565b949350505050565b6000608082019050614e346000830187614743565b614e416020830186614743565b614e4e6040830185614d2e565b8181036060830152614e60818461483c565b905095945050505050565b6000604082019050614e806000830185614743565b614e8d6020830184614d2e565b9392505050565b6000606082019050614ea96000830186614743565b614eb66020830185614d2e565b8181036040830152614ec8818461483c565b9050949350505050565b60006020820190508181036000830152614eec81846147a9565b905092915050565b6000602082019050614f096000830184614807565b92915050565b6000604082019050614f246000830185614807565b8181036020830152614f36818461483c565b90509392505050565b6000602082019050614f546000830184614816565b92915050565b6000604082019050614f6f6000830185614816565b614f7c6020830184614d2e565b9392505050565b6000608082019050614f986000830187614816565b614fa56020830186614d2e565b614fb26040830185614743565b614fbf6060830184614d2e565b95945050505050565b60006020820190508181036000830152614fe28184614875565b905092915050565b60006020820190508181036000830152615003816148df565b9050919050565b6000602082019050818103600083015261502381614902565b9050919050565b6000602082019050818103600083015261504381614925565b9050919050565b6000602082019050818103600083015261506381614948565b9050919050565b600060208201905081810360008301526150838161496b565b9050919050565b600060208201905081810360008301526150a38161498e565b9050919050565b600060208201905081810360008301526150c3816149b1565b9050919050565b600060208201905081810360008301526150e3816149d4565b9050919050565b60006020820190508181036000830152615103816149f7565b9050919050565b6000602082019050818103600083015261512381614a1a565b9050919050565b6000602082019050818103600083015261514381614a3d565b9050919050565b6000602082019050818103600083015261516381614a60565b9050919050565b6000602082019050818103600083015261518381614a83565b9050919050565b600060208201905081810360008301526151a381614aa6565b9050919050565b600060208201905081810360008301526151c381614ac9565b9050919050565b600060208201905081810360008301526151e381614aec565b9050919050565b6000602082019050818103600083015261520381614b0f565b9050919050565b6000602082019050818103600083015261522381614b32565b9050919050565b6000602082019050818103600083015261524381614b55565b9050919050565b6000602082019050818103600083015261526381614b78565b9050919050565b6000602082019050818103600083015261528381614b9b565b9050919050565b600060208201905081810360008301526152a381614bbe565b9050919050565b600060208201905081810360008301526152c381614be1565b9050919050565b600060208201905081810360008301526152e381614c04565b9050919050565b6000602082019050818103600083015261530381614c27565b9050919050565b6000602082019050818103600083015261532381614c4a565b9050919050565b6000602082019050818103600083015261534381614c6d565b9050919050565b6000602082019050818103600083015261536381614c90565b9050919050565b6000610320820190506153806000830184614cb3565b92915050565b600060208201905061539b6000830184614d2e565b92915050565b60006060820190506153b66000830186614d2e565b6153c36020830185614743565b6153d06040830184614d2e565b949350505050565b60006040820190506153ed6000830185614d2e565b6153fa6020830184614d2e565b9392505050565b60006080820190506154166000830187614d2e565b6154236020830186614d2e565b6154306040830185614743565b61543d6060830184614d2e565b95945050505050565b6000615450615461565b905061545c828261578f565b919050565b6000604051905090565b600067ffffffffffffffff821115615486576154856158db565b5b61548f8261590a565b9050602081019050919050565b600067ffffffffffffffff8211156154b7576154b66158db565b5b6154c08261590a565b9050602081019050919050565b6000819050919050565b6000819050602082019050919050565b600060059050919050565b600081519050919050565b600081519050919050565b600081519050919050565b6000602082019050919050565b6000602082019050919050565b600081905092915050565b600082825260208201905092915050565b600082825260208201905092915050565b600082825260208201905092915050565b600081905092915050565b600061558182615711565b915061558c83615711565b9250827fffffffffffffffffffffffffffffffffffffffffffffffffffffffffffffffff038211156155c1576155c061584e565b5b828201905092915050565b60006155d782615711565b91506155e283615711565b9250826155f2576155f161587d565b5b828204905092915050565b600061560882615711565b915061561383615711565b9250817fffffffffffffffffffffffffffffffffffffffffffffffffffffffffffffffff048311821515161561564c5761564b61584e565b5b828202905092915050565b600061566282615711565b915061566d83615711565b9250828210156156805761567f61584e565b5b828203905092915050565b6000615696826156f1565b9050919050565b60008115159050919050565b6000819050919050565b60007fffffffff0000000000000000000000000000000000000000000000000000000082169050919050565b60006156ea8261568b565b9050919050565b600073ffffffffffffffffffffffffffffffffffffffff82169050919050565b6000819050919050565b82818337600083830152505050565b60005b8381101561574857808201518184015260208101905061572d565b83811115615757576000848401525b50505050565b6000600282049050600182168061577557607f821691505b60208210811415615789576157886158ac565b5b50919050565b6157988261590a565b810181811067ffffffffffffffff821117156157b7576157b66158db565b5b80604052505050565b60006157cb82615711565b91507fffffffffffffffffffffffffffffffffffffffffffffffffffffffffffffffff8214156157fe576157fd61584e565b5b600182019050919050565b6000819050919050565b6000819050919050565b600061582882615711565b915061583383615711565b9250826158435761584261587d565b5b828206905092915050565b7f4e487b7100000000000000000000000000000000000000000000000000000000600052601160045260246000fd5b7f4e487b7100000000000000000000000000000000000000000000000000000000600052601260045260246000fd5b7f4e487b7100000000000000000000000000000000000000000000000000000000600052602260045260246000fd5b7f4e487b7100000000000000000000000000000000000000000000000000000000600052604160045260246000fd5b6000601f19601f8301169050919050565b7f4e4f000000000000000000000000000000000000000000000000000000000000600082015250565b7f4550000000000000000000000000000000000000000000000000000000000000600082015250565b7f4552433732313a207472616e7366657220746f206e6f6e20455243373231526560008201527f63656976657220696d706c656d656e7465720000000000000000000000000000602082015250565b7f4552433732313a20746f6b656e20616c7265616479206d696e74656400000000600082015250565b7f4e42000000000000000000000000000000000000000000000000000000000000600082015250565b7f4552433732313a207472616e7366657220746f20746865207a65726f2061646460008201527f7265737300000000000000000000000000000000000000000000000000000000602082015250565b7f4552433732313a20617070726f766520746f2063616c6c657200000000000000600082015250565b7f4e57000000000000000000000000000000000000000000000000000000000000600082015250565b7f4952000000000000000000000000000000000000000000000000000000000000600082015250565b7f4552433732313a206f70657261746f7220717565727920666f72206e6f6e657860008201527f697374656e7420746f6b656e0000000000000000000000000000000000000000602082015250565b7f4d54000000000000000000000000000000000000000000000000000000000000600082015250565b7f4552433732313a20617070726f76652063616c6c6572206973206e6f74206f7760008201527f6e6572206e6f7220617070726f76656420666f7220616c6c0000000000000000602082015250565b7f4552433732313a2062616c616e636520717565727920666f7220746865207a6560008201527f726f206164647265737300000000000000000000000000000000000000000000602082015250565b7f4552433732313a206f776e657220717565727920666f72206e6f6e657869737460008201527f656e7420746f6b656e0000000000000000000000000000000000000000000000602082015250565b7f4d50000000000000000000000000000000000000000000000000000000000000600082015250565b7f4552433732313a206d696e7420746f20746865207a65726f2061646472657373600082015250565b7f4c00000000000000000000000000000000000000000000000000000000000000600082015250565b7f4e43000000000000000000000000000000000000000000000000000000000000600082015250565b7f4552433732313a20617070726f76656420717565727920666f72206e6f6e657860008201527f697374656e7420746f6b656e0000000000000000000000000000000000000000602082015250565b7f4552433732313a207472616e73666572206f6620746f6b656e2074686174206960008201527f73206e6f74206f776e0000000000000000000000000000000000000000000000602082015250565b7f4552433732314d657461646174613a2055524920717565727920666f72206e6f60008201527f6e6578697374656e7420746f6b656e0000000000000000000000000000000000602082015250565b7f4f6e6c7920565246436f6f7264696e61746f722063616e2066756c66696c6c00600082015250565b7f4552433732313a20617070726f76616c20746f2063757272656e74206f776e6560008201527f7200000000000000000000000000000000000000000000000000000000000000602082015250565b7f4e41000000000000000000000000000000000000000000000000000000000000600082015250565b7f4552433732313a207472616e736665722063616c6c6572206973206e6f74206f60008201527f776e6572206e6f7220617070726f766564000000000000000000000000000000602082015250565b7f4547000000000000000000000000000000000000000000000000000000000000600082015250565b7f5750000000000000000000000000000000000000000000000000000000000000600082015250565b7f4e50000000000000000000000000000000000000000000000000000000000000600082015250565b615f428161568b565b8114615f4d57600080fd5b50565b615f598161569d565b8114615f6457600080fd5b50565b615f70816156a9565b8114615f7b57600080fd5b50565b615f87816156b3565b8114615f9257600080fd5b50565b615f9e816156df565b8114615fa957600080fd5b50565b615fb581615711565b8114615fc057600080fd5b5056fea2646970667358221220c8bc75460f13b4315ba461b350cde0de83adda7c526c3552d7319feb36bd161b64736f6c63430008040033",
  "immutableReferences": {
    "1471": [
      {
        "length": 32,
        "start": 3607
      },
      {
        "length": 32,
        "start": 4123
      },
      {
        "length": 32,
        "start": 12389
      }
    ],
    "1473": [
      {
        "length": 32,
        "start": 5931
      },
      {
        "length": 32,
        "start": 12449
      }
    ]
  },
  "source": "//                                  ___           ___           ___\n//       _____        ___          /__/\\         /  /\\         /  /\\\n//      /  /::\\      /  /\\         \\  \\:\\       /  /:/_       /  /::\\\n//     /  /:/\\:\\    /  /:/          \\  \\:\\     /  /:/ /\\     /  /:/\\:\\\n//    /  /:/~/::\\  /__/::\\      _____\\__\\:\\   /  /:/_/::\\   /  /:/  \\:\\\n//   /__/:/ /:/\\:| \\__\\/\\:\\__  /__/::::::::\\ /__/:/__\\/\\:\\ /__/:/ \\__\\:\\\n//   \\  \\:\\/:/~/:/    \\  \\:\\/\\ \\  \\:\\~~\\~~\\/ \\  \\:\\ /~~/:/ \\  \\:\\ /  /:/\n//    \\  \\::/ /:/      \\__\\::/  \\  \\:\\  ~~~   \\  \\:\\  /:/   \\  \\:\\  /:/\n//     \\  \\:\\/:/       /__/:/    \\  \\:\\        \\  \\:\\/:/     \\  \\:\\/:/\n//      \\  \\::/        \\__\\/      \\  \\:\\        \\  \\::/       \\  \\::/\n//       \\__\\/                     \\__\\/         \\__\\/         \\__\\/\n//\n// SPDX-License-Identifier: MIT\n\npragma solidity >=0.8.0 <0.9.0;\nimport '@openzeppelin/contracts/token/ERC721/ERC721.sol';\nimport \"@openzeppelin/contracts/utils/Counters.sol\";\nimport '@openzeppelin/contracts/token/ERC20/IERC20.sol';\nimport '@openzeppelin/contracts/utils/math/SafeMath.sol';\nimport \"@chainlink/contracts/src/v0.8/VRFConsumerBase.sol\";\nimport \"@chainlink/contracts/src/v0.8/interfaces/KeeperCompatibleInterface.sol\";\n\nlibrary BingoGenerate {\n    using SafeMath for uint256;\n\n    // Card\n    struct Card {\n        uint256[5] B;\n        uint256[5] I;\n        uint256[5] N;\n        uint256[5] G;\n        uint256[5] O;\n    }\n\n    // Settings\n    uint256 constant maxCount = 15;\n\n    function generateBingoCard(uint256 randomness) internal pure returns (Card memory card) {\n        if(randomness == 0) {\n            return card;\n        }\n        uint256[5] memory col;\n        uint256 i;\n\n        for(uint256 k=0; k<5; k++) {\n            col = generateColumn(uint256(keccak256(abi.encode(randomness, k))));\n            for(i=0;i<5;i++) {\n                if(k==2 && i==2) {\n                    col[i] = 99;\n                } else {\n                    col[i] = col[i] + (k*maxCount);\n                }\n            }\n\n            // Not sure how to do this better :)\n            if(k == 0) {\n                card.B = col;\n            } else if(k == 1) {\n                card.I = col;\n            } else if(k == 2) {\n                card.N = col;\n            } else if(k == 3) {\n                card.G = col;\n            } else if(k == 4) {\n                card.O = col;\n            }\n        }\n\n        return card;\n    }\n\n    function generateColumn(uint256 randomness) internal pure returns(uint256[5] memory col) {\n        uint256[15] memory possible;\n        for(uint256 i=0; i<15; i++) {\n            possible[i] = i+1;\n        }\n        uint256 idx;\n        for(uint256 k=0; k<5; k++) {\n            idx = uint256(keccak256(abi.encode(randomness, k))).mod(maxCount-(1+k));\n            col[k] = possible[idx];\n            if(idx != 15 - (1+k)) {\n                possible[idx] = possible[15 - (1+k)];\n            }\n        }\n        return col;\n    }\n\n    function validateWinner(uint256 randomness,  mapping (uint256 => bool) storage Balls) internal view returns (bool found) {\n        Card memory card = generateBingoCard(randomness);\n        uint256[5][12] memory lines;\n        uint256 i;\n        for(i=0; i<5; i++) {\n            lines[i] = [card.B[i], card.I[i], card.N[i], card.G[i], card.O[i]];\n        }\n        lines[5] = uint256[5](card.B);\n        lines[6] = card.I;\n        lines[7] = card.N;\n        lines[8] = card.G;\n        lines[9] = card.O;\n        lines[10] = [card.B[0], card.I[1], card.N[2], card.G[3], card.O[4]];\n        lines[11] = [card.B[4], card.I[3], card.N[2], card.G[1], card.O[0]];\n\n        found = false;\n        uint256 k;\n        uint256 matches;\n        for(i=0; i<12; i++) {\n            matches=0;\n            for(k=0; k<5; k++) {\n                if(Balls[lines[i][k]] || lines[i][k] == 99) {\n                    matches++;\n                }\n            }\n            if(matches == 5) {\n                found = true;\n            }\n        }\n    }\n}\n\n// Welcome to BINGO\ncontract Bingo is ERC721, VRFConsumerBase, KeeperCompatibleInterface {\n    using SafeMath for uint256;\n    using Counters for Counters.Counter;\n    Counters.Counter private _tokenIds;\n    Counters.Counter public _gameIds;\n\n    // Settings\n    uint256 public minCards = 1;     // 10\n    uint256 public maxCards = 1000;\n    uint256 public pricePerCard = 10000000000000000; // 0.01 ETH\n    uint256 public ballDrawTime = 60;   // 86400\n    string public baseUri;\n    uint256 prizeSplit = 2;\n    address weedContract;\n    address owner;\n\n    // Game\n    uint256 public gameFloor;\n    uint256 public lastBallTime;\n    bytes32 public ballRequest;\n    uint256 public prizePool;\n    bool public outOfBalls;\n\n    // Random\n    bytes32 internal keyHash;\n    uint256 internal fee;\n\n    // Mappings\n    mapping (bytes32 => uint256) public cardRequests;\n    mapping (uint256 => uint256) public cardRandomness;\n    //mapping (uint256 => uint256) public gameFloors;\n    mapping (uint256 => bool) public Balls;\n\n    event BallPicked(uint256 game, uint256 ball);\n    event BingoWinner(uint256 game, uint256 floor, address owner, uint256 tokenId);\n    event CardGenerated(uint256 game, address owner, uint256 tokenId);\n\n    modifier onlyOwner {\n        require(msg.sender == owner);\n        _;\n    }\n\n    constructor(address _weedContract)\n    ERC721(\"Bingo\", \"BINGO\")\n    VRFConsumerBase(\n        0xdD3782915140c8f3b190B5D67eAc6dc5760C46E9, // VRF Coordinator - Kovan\n        0xa36085F69e2889c224210F603D836748e7dC0088  // LINK Token - Kovan\n    )\n    {\n        owner = msg.sender;\n        weedContract = _weedContract;\n        keyHash = 0x6c3699283bda56ad74f6b855546325b68d482e983852a7a82979cc4807b641f4;\n        fee = 0.1 * 10 ** 18; // 0.1 LINK (Varies by network)\n\n        // Automatically start the first game\n        _gameIds.increment();\n        lastBallTime = block.timestamp;\n    }\n\n    /*\n    *   Purchase.\n    */\n    function mintCard(uint256 amount) public payable {\n        require(amount <= 10, \"EP\");\n        require((_tokenIds.current().add(amount) - gameFloor) <= maxCards, \"EG\");\n        require(LINK.balanceOf(address(this)) >= fee*amount, \"L\");\n\n        if(msg.value > 0) {\n            require(pricePerCard.mul(amount) <= msg.value, \"WP\");\n            if(prizeSplit > 0) {\n                prizePool += msg.value / prizeSplit;\n            }\n        } else {\n            require(IERC20(weedContract).balanceOf(msg.sender) >= 4000 * 1e18 * amount, \"NB\");\n            require(IERC20(weedContract).allowance(msg.sender, address(this)) >= 4000 * 1e18 * amount, \"NP\");\n            IERC20(weedContract).transferFrom(msg.sender, address(this), 4000 * 1e18 * amount);\n        }\n\n        uint256 cardId;\n        for(uint256 i=0; i<amount; i++) {\n            _tokenIds.increment();\n             cardId = _tokenIds.current();\n            _safeMint(msg.sender, cardId);\n            cardRequests[requestRandomness(keyHash, fee)] = cardId;\n        }\n    }\n\n    /*\n    *   Randomness.\n    */\n    function checkUpkeep(bytes calldata checkData) external view override returns (bool upkeepNeeded, bytes memory performData) {\n        upkeepNeeded = (_tokenIds.current() - gameFloor >= minCards) && (block.timestamp > lastBallTime+ballDrawTime && !outOfBalls);\n        performData = checkData;\n    }\n\n    function performUpkeep(bytes calldata performData) external override {\n        require(block.timestamp > lastBallTime+ballDrawTime, \"MT\");\n        require(_tokenIds.current() - gameFloor >= minCards, \"MP\");\n        require(LINK.balanceOf(address(this)) >= fee, \"L\");\n        lastBallTime = block.timestamp;\n        ballRequest = requestRandomness(keyHash, fee);\n        performData;\n    }\n\n    function fulfillRandomness(bytes32 requestId, uint256 randomness) internal override {\n        if(requestId == ballRequest) {\n            require(requestId == ballRequest, \"IR\");\n            uint256 choice;\n            for(uint256 idx=0; idx<76; idx++) {\n                choice = randomness.add(idx).mod(75).add(1);\n                if(Balls[choice] == false) {\n                    Balls[choice] = true;\n                    emit BallPicked(_gameIds.current(), choice);\n                    break;\n                } else if(idx == 75) {\n                    outOfBalls = true;\n                }\n            }\n        } else {\n            require(cardRequests[requestId] > 0, \"NA\");\n            uint256 cardId = cardRequests[requestId];\n            cardRandomness[cardId] = randomness;\n            cardRequests[requestId] = 0;\n            emit CardGenerated(_gameIds.current(), ownerOf(cardId), cardId);\n        }\n    }\n\n    /*\n    *   Claim.\n    */\n    function claimBingo(uint256 cardId) public payable {\n        require(ownerOf(cardId) == msg.sender, \"NO\");\n        require(BingoGenerate.validateWinner(cardRandomness[cardId], Balls), \"NW\");\n        require(cardId > gameFloor, \"NC\");\n\n        payable(msg.sender).transfer(prizePool);\n        emit BingoWinner(_gameIds.current(), gameFloor, msg.sender, cardId);\n\n        // Reset game\n        prizePool = 0;\n        _gameIds.increment();\n        lastBallTime = block.timestamp;\n        outOfBalls = false;\n        gameFloor = _tokenIds.current();\n        for(uint256 i=1; i<76; i++) {\n            Balls[i] = false;\n        }\n    }\n\n    /*\n    *   Getters.\n    */\n    function generateCard(uint256 cardId) public view returns (BingoGenerate.Card memory) {\n        return BingoGenerate.generateBingoCard(cardRandomness[cardId]);\n    }\n\n    function validateCard(uint256 cardId) public view returns (bool) {\n        return BingoGenerate.validateWinner(cardRandomness[cardId], Balls);\n    }\n\n    function getCurrent() public view returns (uint256 game, uint256 token) {\n        game = _gameIds.current();\n        token = _tokenIds.current();\n    }\n\n    function getCardsByOwner(address _owner) view public returns(uint256[] memory result) {\n        result = new uint256[](balanceOf(_owner));\n        uint256 idx = 0;\n        for (uint256 t = 1; t <= _tokenIds.current(); t++) {\n            if (_exists(t) && ownerOf(t) == _owner) {\n                result[idx] = t;\n                idx++;\n            }\n        }\n    }\n\n    function exists(uint256 tokenId) public view returns(bool) {\n        return _exists(tokenId);\n    }\n\n    function _baseURI() internal view override returns (string memory) {\n        return baseUri;\n    }\n\n    /*\n    *   Setters.\n    */\n    function contractSettings(string memory _baseUri, uint256 _ballDrawTime, uint256 _minCardsPerGame, uint256 _maxCardsPerGame, uint256 _pricePerCard, uint256 _prizeSplit, address _owner) public onlyOwner {\n        baseUri = _baseUri;\n        ballDrawTime = _ballDrawTime;\n        minCards = _minCardsPerGame;\n        maxCards = _maxCardsPerGame;\n        pricePerCard = _pricePerCard;\n        prizeSplit = _prizeSplit;\n        owner = _owner;\n    }\n\n    /*\n    *   Money management.\n    */\n    function withdraw(IERC20 _token, uint256 _amount) public payable onlyOwner {\n        if(_amount > 0) {\n            _token.transfer(msg.sender, _amount);\n        } else {\n            uint256 _each = address(this).balance.sub(prizePool).div(4);\n            require(payable(0x00796e910Bd0228ddF4cd79e3f353871a61C351C).send(_each));   // sara\n            require(payable(0x7fc55376D5A29e0Ee86C18C81bb2fC8F9f490E50).send(_each));   // shaun\n            require(payable(0xB58Fb5372e9Aa0C86c3B281179c05Af3bB7a181b).send(_each));   // mark\n            require(payable(0xd83Dd8A288270512b8A46F581A8254CD971dCb09).send(_each));   // community (@todo replace)\n        }\n    }\n}\n",
  "sourcePath": "/Users/Shared/Code/experimental/bingo/bingo-contracts/contracts/Bingo.sol",
  "compiler": {
    "name": "solc",
    "version": "0.8.4+commit.c7e474f2.Emscripten.clang"
  },
  "schemaVersion": "3.4.1",
  "updatedAt": "2021-08-13T16:23:20.479Z",
  "networkType": "ethereum",
  "devdoc": {
    "kind": "dev",
    "methods": {
      "approve(address,uint256)": {
        "details": "See {IERC721-approve}."
      },
      "balanceOf(address)": {
        "details": "See {IERC721-balanceOf}."
      },
      "checkUpkeep(bytes)": {
        "params": {
          "checkData": "data passed to the contract when checking for upkeep."
        },
        "returns": {
          "performData": "bytes that the keeper should call performUpkeep with, if upkeep is needed.",
          "upkeepNeeded": "boolean to indicate whether the keeper should call performUpkeep or not."
        }
      },
      "getApproved(uint256)": {
        "details": "See {IERC721-getApproved}."
      },
      "isApprovedForAll(address,address)": {
        "details": "See {IERC721-isApprovedForAll}."
      },
      "name()": {
        "details": "See {IERC721Metadata-name}."
      },
      "ownerOf(uint256)": {
        "details": "See {IERC721-ownerOf}."
      },
      "performUpkeep(bytes)": {
        "params": {
          "performData": "is the data which was passed back from the checkData simulation."
        }
      },
      "safeTransferFrom(address,address,uint256)": {
        "details": "See {IERC721-safeTransferFrom}."
      },
      "safeTransferFrom(address,address,uint256,bytes)": {
        "details": "See {IERC721-safeTransferFrom}."
      },
      "setApprovalForAll(address,bool)": {
        "details": "See {IERC721-setApprovalForAll}."
      },
      "supportsInterface(bytes4)": {
        "details": "See {IERC165-supportsInterface}."
      },
      "symbol()": {
        "details": "See {IERC721Metadata-symbol}."
      },
      "tokenURI(uint256)": {
        "details": "See {IERC721Metadata-tokenURI}."
      },
      "transferFrom(address,address,uint256)": {
        "details": "See {IERC721-transferFrom}."
      }
    },
    "version": 1
  },
  "userdoc": {
    "kind": "user",
    "methods": {
      "checkUpkeep(bytes)": {
        "notice": "checks if the contract requires work to be done."
      },
      "performUpkeep(bytes)": {
        "notice": "Performs work on the contract. Executed by the keepers, via the registry."
      }
    },
    "version": 1
  }
}